:020000040800F2
:1000000000500020DD670008614C0008634C0008C8
:10001000654C0008674C0008694C000800000000AF
:10002000000000000000000000000000A15E0008C9
:100030006B4C000800000000D15E0008155F00084E
:10004000256800082568000825680008256800085C
:10005000256800082568000825680008256800084C
:10006000256800082568000825680008256800083C
:10007000256800082568000825680008256800082C
:10008000256800082568000825680008256800081C
:100090007D4C0008256800082568000825680008D0
:1000A00025680008256800082568000825680008FC
:1000B0006D4C0008256800082568000825680008C0
:1000C00025680008256800082568000825680008DC
:1000D00025680008256800082568000825680008CC
:1000E0002568000825680008256800080000000051
:1000F0000000000000000000000000000000000000
:0C01000000000000000000005FF808F1A3
:100110000348044B834202D0034B03B11847704796
:10012000D0010020D0010020000000000548064B4F
:100130001B1AD90F01EBA301491002D0034B03B1E5
:1001400018477047D0010020D001002000000000B7
:1001500010B5064C237843B9FFF7DAFF044B13B10F
:100160000448AFF300800123237010BDD0010020AC
:10017000000000002868000808B5044B1BB10449C2
:100180000448AFF30080BDE80840CFE7000000005E
:10019000D40100202868000820F0030110F00300BB
:1001A000C0F1000051F8043B00F1040C4FEACC0C04
:1001B0006FF000021CBF22FA0CF213434FF0010C47
:1001C0004CEA0C2C4CEA0C4CA3EB0C0222EA030286
:1001D00012EACC1204BF51F8043B0430F4D0C2F14F
:1001E000000102EA0102B2FA82F2C2F11F0200EB40
:1001F000D200704770B50F4B0F4DAB42A3EB050615
:1002000007D00024B61055F8043B01349847A642A5
:10021000F9D806F009FB094D094B5E1BAB424FEACA
:10022000A60606D0002455F8043B01349847A642A0
:10023000F9D870BD3C6D00083C6D00083C6D0008AD
:10024000406D0008036A70B506460D468468002BB1
:1002500038D0A3891B0714D5236993B1013DA36846
:1002600015F8011F013BA360D9B1002B04DAA26984
:100270009A420FDC0A290DD023685A1C226019709B
:10028000EDE72146304601F0F7FE0028E6D04FF0BA
:10029000FF3070BD2246304602F02EFC0130DED128
:1002A000F5E7002B08DA22460A21304602F024FC4A
:1002B0000130ECD00A2070BD0A222368591C21604D
:1002C0001A70F7E700F0F4F8C3E700BF024B0146ED
:1002D0001868FFF7B7BF00BF0C0000200020704770
:1002E000024A0349034801F0A5BE00BF00000020F8
:1002F000B5060008100000200C4B416810B599426B
:10030000044601D000F0D6F9A168094B994202D009
:10031000204600F0CFF9E168064B994204D0204610
:10032000BDE8104000F0C6B910BD00BFEC010020D0
:1003300054020020BC020020002070472DE9F84341
:1003400000250423294C2A490822C4F8381104F155
:100350005C002946DFF89C90DFF89C80274F284EF0
:10036000C4E90335C4E90055C4E90555A5606566CF
:1003700000F0C6F8234B0822294604F1C400636745
:10038000C4E90849C4E90A87C4E91A55C4E91E55F5
:1003900026632567C4F8CC50C4F8805000F0B0F84C
:1003A000194B2946C4F8DC30082204F1680304F52F
:1003B0009670C4F88830C4E92398C4E92576C4E966
:1003C0003455C4E93855C4F8D850C4F83451C4F889
:1003D000E85000F095F804F1D003C4E93D98C4E971
:1003E0003F76C4F8F030BDE8F88300BFEC01002090
:1003F000E1020008D5360008FD3600083D37000848
:10040000613700080900010012000200F8B5254B11
:100410000646D3F83831002B3CD0234FD7E90134BE
:10042000013B04D51DE05A1C04F1680419D0B4F94D
:100430000C50013B002DF6D11C4B08222946C4E983
:100440000155C4E90455E36065662560A56104F1C2
:100450005C0000F055F8C4E90D55C4E9125520467A
:10046000F8BD3D680DB12F46D8E74FF4D671304640
:1004700000F008FD044680B10423056029462546A6
:100480000C304FF4D072A060636000F039F83C602B
:100490002F46C3E7FFF752FFBFE70C2338603360F6
:1004A000DDE700BFEC010020000000200100FFFF9D
:1004B000036A03B17047044B044AD3F8383102622F
:1004C000002BF7D13AE700BFEC010020F902000849
:1004D000704700BF704700BF0020024A024901F088
:1004E000A9BD00BF00000020DD0200080020024A74
:1004F000024901F09FBD00BF000000203903000841
:1005000070B5860747D0541E002A3ED00346CAB2B3
:1005100001E0013C39D303F8012B9D07F9D1032CED
:100520002CD9CDB205EB05250F2C1A4605EB054558
:1005300034D9A4F1100C2CF00F0603F1100EB644C0
:100540004FEA1C1CC2E90055C2E90255103272453F
:10055000F8D10CF1010214F00C0F03EB021204F0BD
:100560000F0C13D0ACF1040323F003030433134442
:1005700042F8045B9342FBD10CF003042CB1C9B2E6
:100580001C4403F8011BA342FBD170BD6446134613
:10059000002CF4D1F9E703461446C0E7A446E1E78E
:1005A000F8B5B1F90C300C461E07074639D44A6835
:1005B000002A53DDE56A002D31D000223E683A6002
:1005C00013F48052216A55D101233846A847451CAF
:1005D000024663D0B4F90C30E56A216A580705D5A4
:1005E0006368D21A636B0BB1236CD21A00233846AE
:1005F000A847421C40D00022236962602360A3897F
:10060000DB0400D56065616B3E6041B104F14403D9
:10061000994202D0384601F0AFFC0023636300200A
:10062000F8BD0E69002EFAD09B0718BF00230D6895
:1006300008BF4B690E60AD1B8B600CE02B46324649
:10064000D4F828C03846216AE047B0F1000CA5EB89
:100650000C05664406DD002DF0DCE0E70A6C002A9C
:10066000A8DCDCE7B4F90C3043F040034FF0FF3076
:10067000A381F8BD626DB1E73968B4F90C301D296A
:10068000F2D80B4ACA40D507EED500226260226933
:100690002260DA04B7D50029B4D0B4E73B68002B58
:1006A00098D01D2B01D0162BDCD13E60B7E700BFE0
:1006B000010040200B69B3B110B5044682B008B107
:1006C000036A5BB1B1F90C3013B9002002B010BD60
:1006D000204602B0BDE81040FFF762BF0191FFF76E
:1006E000E7FE0199EEE70020704700BFB8B138B5CA
:1006F0000D4A0369044615682BB10DB12B6A53B13D
:10070000B4F90C300BB9002038BD21462846BDE8AD
:100710003840FFF745BF2846FFF7CAFEF0E7034A17
:100720000349044801F086BC0C00002000000020B2
:10073000B506000810000020014B1868704700BF84
:100740000C0000202DE9F04D002B88B014461D460A
:10075000109E1299DDF8508041DB0022B8F1650F40
:100760000A7039D040DCB8F1450F35D0B8F1460FEA
:100770005FD103230093139B2246CDE9016307ABAE
:10078000049306AB03932B4600F09CFC074628F02D
:100790002003462B07EB060805D13B78302B3CD0D5
:1007A000139B1E68B044204629460022002304F013
:1007B0005DF800283BD1079B984506D930215A1C8B
:1007C00007921970079B4345F9D33846159ADB1BEE
:1007D000136008B0BDE8F08D02230136CAE703F1CB
:1007E000004B2D225D46B9E7B8F1660FC1D0139BCF
:1007F0002246CDE901630223009307AB049306ABC5
:1008000003932B4600F05EFCB8F1670F0746BED19C
:10081000119BDB0721D4079BD7E70022002320464A
:10082000294604F023F8D8B1139B1B68984443462B
:10083000CBE7139B2246CDE901630223009307AB6C
:10084000049306AB03932B4600F03CFCB8F1470F32
:1008500007469CD1119BDB07DDD507EB0608A2E715
:10086000139BC6F101061E609CE700BF0029B4BFC0
:100870002D232B2330B5B8BF4942092983B002701C
:1008800043702CDD0DF107042346194D8C461A46A2
:10089000A5FB01E3DB0803EB830EA1EB4E0101F1A5
:1008A000300EBCF1630F194602F801EC02F1FF3380
:1008B000ECDC303103F8011C931EA34200F1020569
:1008C0000AD2411C13F801CBA34201F801CFF9D1A0
:1008D0000DF109039B1A1D44281A03B030BD3023C3
:1008E000051D1944C1708370281A03B030BD00BFC4
:1008F000CDCCCCCC2DE9F04F91B00C46DDF8688022
:1009000016461F46054602F031FF036818460A9353
:10091000FFF742FC00230E93D8F800300B9007330A
:1009200023F0070303F10802D4F800A094F818B0EC
:10093000C8F80020D3E9008929F000430993CDF8D5
:1009400020804FF0FF32DDE90801C4E91289A04B95
:1009500003F0BEFF40B9DDE908014FF0FF329C4BC8
:1009600003F098FF002877D042464B464046494660
:1009700003F0AEFF002840F03B8263684AF48061D8
:100980005A1C0BF0DF0A35D0BAF1470F00F028816E
:10099000009321600191002106910EA905910DA9F6
:1009A00003910DF1330142464B462846CDF810B075
:1009B0000291FFF7C7FE8046BBF1650F0D993AD94A
:1009C000BBF1660F00F02E810E9B8B4240F3358108
:1009D0000029CCBF0122C1F10202134423614FF070
:1009E000000AA1659DF83330002B4DD02D2384F8EB
:1009F000433049E0216001910021062006910EA9B3
:100A0000CDF810B0606005910DA903910DF133018F
:100A1000424600904B4628460291FFF793FEBAF1FA
:100A2000470F8046C8D10D99C81C80F2F480ABF105
:100A3000020B5FFA8BFB5A46013904F150000D910D
:100A4000FFF714FF0E9A82461318012A236140F320
:100A5000428101332361C5E7404649460022002315
:100A600003F00EFF10B12D2384F843302AF0040365
:100A700023600323574A2361574B4FF0000ABBF111
:100A8000470F8CBF9046984633462146284600972C
:100A90000FAA01F0D9FB013023D0236858052BD4CD
:100AA0004246314628462369B847013019D02268AA
:100AB0009207E0680F9B19D5984217DD4FF00008A8
:100AC00004F1190904E0E0680F9BC21A42450DDDEC
:100AD00001234A4631462846B847013008F101084B
:100AE000F1D14FF0FF3011B0BDE8F08F9842B8BFA0
:100AF000184611B0BDE8F08FBBF1650F33D9D4E9CA
:100B000012010022002303F0B1FE002800F09D80B6
:100B1000012331462846314AB8470130E1D0DDE9AA
:100B20000D3A534502DB2268D107C1D5DDE90A231E
:100B300031462846B8470130D3D0BAF1010FB6DDAF
:100B40004FF000080AF1FF3A04F11A0901E0D0451C
:100B5000ADD001234A4631462846B847013008F156
:100B60000108F4D1BDE7DDF83890B9F1010F40F389
:100B70009D800123424631462846B8470130B0D017
:100B8000DDE90A2331462846B8470130A9D0D4E927
:100B900012010022002309F1FF3B03F067FE002849
:100BA00000F09E80B9F1010F40F38B804FF00008F8
:100BB00004F11A0902E0D84500F0838001234A4677
:100BC00031462846B847013008F10108F3D188E7DB
:100BD000FFFFEF7FD46B0008D06B0008E06B0008CC
:100BE0000BB90123636000932160019100210691FC
:100BF0000EA905910DA903910DF133014246029111
:100C00004B462846CDF810B0FFF79CFD0D99804665
:100C1000C81CFFF60CAF636899423FF708AF4FF06E
:100C2000670BD1E6002963685EDD2161002B00F0CF
:100C30008D8001330B442361D1E623682161DB07FA
:100C40007FF5CDAE4B1C2361C9E60D9B002B52DD19
:100C50000E9BD4F858B099465B45A8BFD946B9F168
:100C6000000F089309DD4B46424631462846B847F7
:100C700001303FF436AFD4F858B029EAE972934511
:100C800071DD4FF0000A934604F11A0904E0A36DE8
:100C9000A3EB0B02524565DD01234A463146284647
:100CA000B84701300AF1010AF1D11AE7D9073FF537
:100CB00060AF4246012331462846B84701303FF431
:100CC00010AF53463146284604F15002B847013070
:100CD0007FF4EDAE05E72268D2077FF583AEB8E674
:100CE0005B4608F10102E6E7002B34D12268D20707
:100CF00031D4012372E60123314628464B4AB847D6
:100D000001303FF4EEAEDDE90D3A5AEA030324D098
:100D1000DDE90A2331462846B84701303FF4E1AE09
:100D20000D9B002B79DA4FF0000B04F11A0903E058
:100D30000D9B5B425B4570DD01234A4631462846E8
:100D4000B84701300BF1010BF2D1CAE62268D00797
:100D50007FF545AE6DE7023340E62268D3077FF5A5
:100D6000A7AED5E79B460D9B089A9A4202DC226803
:100D7000D00708D5DDE90A2331462846B8470130B7
:100D80003FF4AFAE0D9B089AA2EB0B0AD31A9A451B
:100D9000A8BF9A46BAF1000F91460BDD5346314683
:100DA000284608EB0B02B84701303FF49AAE4A469A
:100DB0000D9BD31A2AEAEA7A53457FF778AE4FF0B3
:100DC0000008DDF820B004F11A0907E00D9BABEB39
:100DD0000303A3EB0A0343457FF769AE01234A46A9
:100DE00031462846B847013008F10108EED178E6CF
:100DF0004B46002BBCBF2D2384F843302AF004035C
:100E0000236003230A4A23610A4B4FF0000ABBF117
:100E1000470F8CBF9046984636E6534642463146C9
:100E20002846B84701307FF442AE5AE6E06B00082E
:100E3000DC6B0008D86B000870B5114E05463368AE
:100E40000C46BBB12146284602F032FC431C014649
:100E50000CD0C41C24F00304A04205D02846611A1B
:100E600002F026FC013001D0204670BD4FF0FF3467
:100E7000204670BD194602F01BFC3060E2E700BF5F
:100E8000280300202DE9F843CD1C25F00305083583
:100E90000C2D38BF0C25002D064618DBA94216D8AC
:100EA000DFF8DC8001F0A4FBD8F80420A2B11446DE
:100EB00003E0636822467BB11C4623685B1BF8D4C1
:100EC0000B2B1FD89442636854D053600CE00C2362
:100ED00033600020BDE8F88329463046FFF7ACFFB9
:100EE000431C044619D00560304601F083FB04F131
:100EF0000B00231D20F00700C21A1CBF1B1AA350B1
:100F0000BDE8F88361199442256014BF5160C8F8A8
:100F10000410635163684B60E6E7D8F804701FB3B0
:100F20003C467F68002FFBD123683946304604EBEE
:100F3000030902F0BDFB814516D123683046ED1A46
:100F40002946FFF779FF01300ED02368D8F8042036
:100F50002B442360536883B1A34203D01A465B68D5
:100F60009C42FBD10023B0E70C233046336001F0F4
:100F700041FBAEE7C8F80430B6E7C8F80470B3E741
:100F800028030020000000002DE9F04F03690C69E0
:100F900085B0A342C0F291808146013C01F1140565
:100FA00009F1140855F8243058F824C001339C4541
:100FB000BCFBF3F64FEA840005EB840708EB8402E0
:100FC00043D34FF0000CAA46CDE90105C64663465F
:100FD00065469346CDF80C805AF8040BDEF80020E5
:100FE0001FFA80FC06FB0C554FEA10484FEA154CDF
:100FF00006FB08CCADB290B2401B18441FFA8CF32C
:10100000C3EB204303EB124380B240EA0340574551
:101010004EF8040B4FEA1C454FEA2343DCD2DDE9CE
:101020000105DDF80C8058F8003073B9ABF104020B
:10103000904504D307E0904504F1FF3403D252F801
:101040000439002BF7D0C9F81040484602F0CEF81A
:1010500000282EDB4146002255F8040BD1F800C0D1
:101060001FFA80FE1FFA8CF3A3EB0E031344020C4D
:10107000C2EB234202EB1C429BB243EA0243AF4263
:1010800041F8043B4FEA2242E6D258F8242008EB0C
:1010900084036AB9043B434504D807E0984504F14A
:1010A000FF3403D253F80429002AF7D0C9F81040BE
:1010B0000136304605B0BDE8F08F002005B0BDE830
:1010C000F08F00BF2DE9F04F16461F46C5699DB051
:1010D000CDE90667299C0390002D00F0B2832968B2
:1010E00051B101236A6893404A608B6001F0B8FDFA
:1010F0000022039BDB691A60B7F10009B4BF01232A
:1011000000232360784BBCBF29F00049CDF81C9028
:1011100033EA090300F0AE80DDE9063418462146C3
:1011200000220023CDE9040103F0A0FB804668B152
:101130000123289A13602A9B13B16C4B2A9A1360DF
:101140006B4B089308981DB0BDE8F08F1AAB019364
:101150001BAB00930398DDE9042302F0A5F95FEAD5
:101160001955824640F09C80DDE91A85454405F218
:101170003243202B40F39983C3F1400309FA03F96A
:1011800005F2124326FA03F349EA030003F08CF850
:101190000123013D1193A1F1F8710022554B02F09A
:1011A00045FF4BA3D3E9002303F0F8F84AA3D3E9A2
:1011B000002302F03DFF064628460F4603F084F860
:1011C00047A3D3E9002303F0E9F802460B46304673
:1011D000394602F02DFF06460F4603F08FFB002232
:1011E0000446099000233046394603F049FB0028A5
:1011F00040F03483099CA8EB0508162C08F1FF3B4E
:1012000000F21383DDE904013B4B03EBC403D3E994
:10121000002303F035FB002874D0631E09930023DC
:10122000BBF1000F1093C0F2068300230B93099BC0
:10123000002B6DDA099B0B9A0E93D21A5B420F9327
:1012400000230993269B0B92092B69D8052BC4BF59
:10125000043B2693269BC8BF0025A3F10203D8BFF9
:101260000125032B00F24C86DFE813F07A047704A3
:101270006E04500442F20F73289AC9F3130959EA15
:10128000060913601CD12A9B002B00F02F861B4BF4
:10129000089308332A9A089813601DB0BDE8F08FB0
:1012A000DDE90412C2F31303084643F07F51CDF881
:1012B0004480A5F2FF35DDF8688041F440116CE709
:1012C0002A9B002B40F0FE830D4B08933AE700BFAA
:1012D00061436F63A787D23FB3C8608B288AC63F3C
:1012E000FB799F501344D33F0000F07FE16B00086F
:1012F000E06B00080000F83F50680008E46B00084D
:10130000F06B0008B8F1000F40F3AF8410900B9021
:10131000099B9B440E9300230F93269B092B95D981
:10132000002326934FF0FF3301250A9300230C95E9
:1013300027930021039BDB6959600A9B189303984C
:1013400001F04EFC0890002800F0E385039B089A0A
:10135000DB691A600A9B0E2B00F20D81002D00F054
:101360000A810E99002940F34E84AE4B01F00F0222
:1013700003EBC2030A46D3E90067D2054FEA211501
:1013800040F11084DDE90401A74B4FF00309D3E9D4
:10139000082303F02DF9CDE9120105F00F058DB1F9
:1013A000DFF88482EB0709D5D8E9002330463946B7
:1013B00002F0F4FF06460F4609F101096D1008F12D
:1013C0000808EFD1DDE912013B46324603F010F97F
:1013D00007468846109B43B1002238464146934B4E
:1013E00003F04EFA002840F01285484602F06CFFE8
:1013F0003A46434602F0D2FF8D4B002202F018FE1F
:101400000A9B0446A1F15075002B00F09D800E9BB5
:1014100019930A9B12934146384603F06FFA1299CA
:10142000804BCDE9144503EBC10353E90234054673
:10143000CDE9163402F048FF0B46024641463846D5
:1014400002F0F4FD089F0C9B30357E1CECB2804608
:1014500089463546002B00F06B84DDE91623002019
:10146000744903F0C5F8DDE9142302F0DFFD3C7098
:1014700042464B4604460D4603F020FA002840F051
:10148000B984CDF858B0CDF850A0AB460027A2469D
:10149000129D2AE00137AF4280F20185504659463D
:1014A0000022654B02F07AFF0022634B82468B4696
:1014B0004046494602F072FF8946804603F01EFA14
:1014C000044602F001FF02460B464046494602F040
:1014D000ADFD303452465B4606F8014B80468946E6
:1014E00003F0CEF9002840F0D78442464B46002056
:1014F0004E4902F09BFD52465B4603F0C1F90028BD
:10150000C8D0199B3746DDF850A0089A03F10108AE
:1015100002E0974200F0A1843E4617F8013D392BC6
:10152000F7D00133DBB245463B706DE1484602F02F
:10153000CBFE3A46434602F031FF00223C4B02F01C
:1015400077FD0446A1F15075384600223B4B4146D9
:1015500002F06CFD22462B4606460F4603F0AEF91C
:10156000002840F0898430463946224605F1004380
:1015700003F086F928BB1B9B002BC0F291800E9ACA
:101580000E2A00F38D80274B0E9A03EBC203D3E99A
:101590000034CDE90634279B002B19DA0A9B002B77
:1015A00016DC0ED1DDE906010022244B02F0F6FE26
:1015B00002460B46DDE9040103F06CF9002800F057
:1015C0005B8400231F46089E0493279BDD4340E273
:1015D000089B5D1CDDE90678DDE904013A464346D7
:1015E00003F006F803F08AF9064602F06DFE3A466B
:1015F000434602F0D3FE02460B46DDE9040102F049
:1016000015FD089A06F1300313700A9B2F46012B33
:1016100000F036830125CDF810A0A846DDE906AB21
:1016200099462BE050680008406900080000F03F30
:1016300000001C400000E03F000024400000144077
:1016400052465B462046294602F0D2FF03F056F987
:10165000064602F039FE52465B4602F09FFE08F154
:1016600001080B4602462946204602F0DFFC06F13F
:101670003003C84507F8013B00F0008300228D4B82
:1016800002F08CFE0022002304460D4603F0EEF823
:101690000028D5D00E9D3E46DDF810A00135B3E000
:1016A0000C9A002A40F0EE8000231F460F9E0B9DEF
:1016B0000C9365B1BBF1000F09DD5D452B46A8BF5A
:1016C0005B460B9AED1AD21A0B92ABEB030B0F9BF6
:1016D00053B10C9B13B1002E40F00B8351460F9A6F
:1016E000039801F09FFC82460121039801F0D2FB90
:1016F000099B0490002B40F0D081269B012B40F3E6
:10170000E6810120584410F01F0000F0B480C0F1C1
:101710002003042B40F3F5810B9BC0F11C00034414
:101720000B93054483440B9B002B05DD51461A4661
:10173000039801F0E7FC8246BBF1000F05DDDDE90F
:1017400003015A4601F0DEFC0490109B002B40F090
:1017500089810A9B002B40F361810C9B002B40F098
:10176000B8800E9D01350126DDF82080049CDDF84F
:1017700028B0DDF80C9007E0514600230A224846C5
:1017800001F092FA8246013621465046FFF7FCFBF3
:10179000B34500F1300008F8010BEDDC0A9B8146EF
:1017A000002BCCBF1E4601260024089B03EB060B32
:1017B00051460122039801F0A5FC0499824601F0EC
:1017C00015FD002840F30282089A02E0934500F0DC
:1017D00015821BF8013C5E46392B0BF1FF3BF5D01F
:1017E00001338BF80030DDE90381404601F038FA1F
:1017F00057B12CB1BC4203D02146404601F030FA2B
:101800003946039801F02CFA5146039801F028FA62
:1018100000233370289B1D602A9B002B3FF492AC61
:1018200008981E601DB0BDE8F08F0123BBF1000FCA
:101830001093BFF6FAACC8F101034FF0000B0B9305
:10184000F5E4102000F0F0FC039BD861002800F0C4
:101850005183C0E90055C0E902554DE4204602F02D
:1018600033FD32463B4603F001F800287FF4C2AC5A
:10187000631E0993BEE41C230B9A1D441A440B9269
:101880009B4450E7269A012A40F3AB810A9A0F9BAA
:10189000561EB342C0F26781002AA3EB060680F20F
:1018A000EF82DDE90A239D1A6AE1C3F1200306FAFB
:1018B00003F06BE400002440394600230A22039819
:1018C00001F0F2F9189B0746002B40F302830E96B5
:1018D0000A93002D05DD39462A46039801F012FCD3
:1018E0000746099B002B40F0E881B846089B0A9CFC
:1018F0001E46013B1C44069B03F00103CDE90A434D
:10190000039C04995046FFF73FFB394683465046F7
:1019100001F06CFC049905464246204601F086FC25
:10192000C36801460BF13009ABBB0990504601F08A
:101930005DFC09990990204601F092F9099A002A64
:1019400054D1269B1BB90B9B002B00F0AE82002DBF
:101950003FDBB3460A9B0BF8019BB34200F0C48106
:10196000514600230A22204601F09EF9474582464F
:1019700039464FF000034FF00A02204630D001F004
:1019800093F9414600230A220746204601F08CF9CC
:101990005E468046B5E7039801F062F9002D06DB4C
:1019A000069B03F00102269B1D432A4329D1514681
:1019B0000122039801F0A6FB0499824601F016FC6F
:1019C000002840F3F780B9F1390F00F04B820BF19A
:1019D00031090E9D3C460135474606F8019B02E75A
:1019E00001F062F95E46074680468AE7002DC0F2A4
:1019F000A282269B1D430B9B1D4300F09C82002A64
:101A0000A7DDB9F1390F00F02D820E9D09F1010318
:101A10003C460135474606F8013BE4E6269B022B8F
:101A20007FF79BAE0A9B002B40F02681052204998C
:101A3000039801F039F901460490504601F0D6FBB5
:101A4000002840F3198131230E9D089E013506F8C8
:101A5000013BDDE9030101F003F90135002F7FF4BB
:101A6000CFAED1E65046049901F0C0FB0028BFF686
:101A700070AE514600230A2203980E9C01F014F91F
:101A80000C9B8246661E002B7FF416AF189B002B22
:101A900040F312820E9D0A9365E601461A460398AA
:101AA00001F0C0FA269B0490012B6FDD00230993FF
:101AB000049A136902EB8303186901F09BF9C0F1E2
:101AC00020001FE6964B08930333FFF7E3BB069B0A
:101AD000002B7FF416AEDDE90612C2F31303002BD0
:101AE0007FF40FAE8F4B13402BB10B9B0BF1010B0F
:101AF00001330B930123099A0993002A3FF401AEA5
:101B0000D6E73FF410AEC0F13C03B5E601230C93D9
:101B1000279B0E9A134418930133012B1F46B8BF1D
:101B200001270A93039B172FDE6940F200820122EE
:101B300004235B0003F11400B842114602F10102D4
:101B4000F7D97160FFF7FBBB01230C93279B002B98
:101B500037DD1F4618930A93E4E700230C93D7E779
:101B600000230C93F2E70F9B0F96F31A0026099AB5
:101B70001A4409920B9B0A9A1D46134493440B93F3
:101B80000121039801F086F9074692E5069B002B98
:101B90008CD1DDE90601C1F313030A46002BA1D065
:101BA000099085E7DDE904344FF00209CDE91234EC
:101BB000FFF7F5BB7FF40DAF19F0010F7FF403AF12
:101BC00007E7012327930A93FFF7B3BB03D119F06B
:101BD000010F7FF4F9AD5E461BF8013D302BFAD0C2
:101BE00001E6119A002A00F0088103F233430B9AB0
:101BF0000F9E15461A449B440B92C1E73123089A65
:101C000001351370EFE500F0FC80DDE904010E9A68
:101C1000454B554205F00F0203EBC203D3E9002305
:101C200002F0BCFB2D11CDE9120100F05981002317
:101C30004FF00209074688463C4EEC070AD5D6E924
:101C400000233846414602F0A9FB01230746884697
:101C500009F101096D1006F10806EED1002B7FF4A1
:101C6000B9ABDDE91278FFF7B5BBC8F101038346D4
:101C70000B931090FFF74CBB089EA6E4DDF810A074
:101C800002460B4602F0D4F902460B460E9DCDE902
:101C90000423DDE906230135A84602F00FFE40B912
:101CA000DDE90623DDE9040102F0E0FD18B1F007EB
:101CB00001D5089A30E43E46A6E50398796800F01D
:101CC0008FFF0546002800F02B813B6907F10C01CE
:101CD00002339A000C3000F031FA012229460398B1
:101CE00001F010FA804601E60E9D3C46013547465C
:101CF0005EE5039C39463246204601F093F90746DB
:101D000052463946204601F0DBF8514682462046CD
:101D100000F0A6FF0F9B9B1B0F933FF4E5ACDDE4A7
:101D2000F06B00080000F07F506800084069000870
:101D3000DDE91623DDE9140102F030FB089BCDE953
:101D40000C011C70129B012B00F0C180129F089B9C
:101D500011961F440022804B4046494602F01EFB6C
:101D60000D46044602F0CAFD814602F0ADFA024675
:101D70000B462046294602F059F909F1300906F8C8
:101D8000019BB74280468946E4D1119D0022DDE9DE
:101D90000C01724B02F04CF902460B464046494694
:101DA00002F08CFD002871D1DDE90C2300206B4985
:101DB00002F03CF902460B464046494602F060FDFF
:101DC00088B91B9B002BFFF66FAC0E9B0E2B3FF7C9
:101DD0006BAC634B0E9A03EBC203D3E90034CDE93D
:101DE0000634FFF7F7BB17F8013C3E46302B07F1EE
:101DF000FF37F8D0199D013506E51A9BC3F136036C
:101E0000F5E64FF00209DDE90478FFF7E3BA0A9B33
:101E1000002B3FF48BAB189C002C7FF7ACAB0E9BD8
:101E20003846013B4146002219934B4B02F0B6FA6B
:101E300002468846174609F1010002F045FA3A4683
:101E4000434602F0ABFA0022464B02F0F1F812943E
:101E5000A1F150750446FFF7DEBA312308F10108FD
:101E6000FFF761BBB34639230E9D3C46089A4746AF
:101E700001350BF8013BACE400231F460493E2E577
:101E80000B9B93441D4613440B9379E6199B089AC8
:101E900003F10108FFF740BBDDF850A0AAE7DDF829
:101EA00058B0DDF850A0FFF766BBB9F1390FD9D0B3
:101EB000002D3FF78CAD8CE5269B022B03DC189B95
:101EC0000E9D0A934FE4189B0E960A93AAE5374697
:101ED0005CE7269B022BF6DC189B0E960A93F8E42F
:101EE0004FF00209DDE91278FFF774BA1E4B089330
:101EF000FFF728B90246EF211C4B1D4800F04AFEAF
:101F0000002503982946C3695D6000F069FE0890CA
:101F1000A8B9002240F2AF11164B154800F03AFE66
:101F2000024640F2EF21134B114800F033FE00212E
:101F30007160FFF704BA002A3FF739AD49E5039B0A
:101F40000899DB694FF0FF32196001232795189239
:101F50000C930A92FFF70FBB000024400000E03F03
:101F60005068000800001C40E46B0008F46B000897
:101F70000C6C0008386C0008002950D038B551F8B6
:101F8000043C0C1F002BB8BFE418054600F030FBE2
:101F9000274A13682BB1A3420CD9216860188342E9
:101FA0002CD0284663601460BDE8384000F022BBA6
:101FB000A3420FD81A465B68002BF9D1116850185C
:101FC000844217D02CD3636054602846BDE8384063
:101FD00000F010BB11685018A04214D020D821681E
:101FE00060188342EFD118685B680844C4E90003B5
:101FF0005460EAE723680B441360E6E718685B68FF
:1020000008442060CDE720680144501883421160E5
:10201000DBD1D3E900040144C2E90014D5E77047DD
:102020000C2328462B60BDE8384000F0E3BA00BF1F
:102030002C0300202DE9F8434FF0000980460F469D
:102040001646D6E90154013D10D4A389012B08D9C5
:10205000B4F90E30013304D021464046B84749EA6E
:102060000009013D6B1C04F16804EED13668002EB6
:10207000E7D14846BDE8F88338B52F4B05461B68C5
:102080000C4613B11A6A002A4BD0B4F90C30180769
:102090001CD5226922B313F0010107D00020616929
:1020A000A0604942A1613AB1002038BD980758BFED
:1020B0006169A160002AF7D1190658BF1046F4D50E
:1020C00043F04003A3814FF0FF3038BDD9062CD533
:1020D0005A0712D4226943F00803A381002ADAD1F7
:1020E00003F42071B1F5007FD5D02146284600F0D9
:1020F00083FAB4F90C302269CDE7616B51B104F178
:102100004402914204D02846FFF736FFB4F90C3060
:10211000002262630021226923F02403C4E9002124
:10212000D9E71846FEF7C4F9AFE7092243F04003A8
:102130002A60A381C7E700BF0C000020844641EA63
:10214000000313F0030349D1403A23D30B68036023
:102150004B6843608B688360CB68C3600B69036125
:102160004B6943618B698361CB69C3610B6A03620D
:102170004B6A43628B6A8362CB6AC3620B6B0363F5
:102180004B6B43638B6B8363CB6BC36340304031DA
:10219000403ADBD230320BD30B6803604B684360AC
:1021A0008B688360CB68C36010301031103AF3D273
:1021B0000C3205D351F8043B40F8043B043AF9D201
:1021C000043208D0D2071CBF11F8013B00F8013BD4
:1021D00001D30B8803806046704700BF082A13D3E1
:1021E0008B07B1D010F00303AED0C3F10403D21AB1
:1021F000DB071CBF11F8013B00F8013BA4D331F809
:10220000023B20F8023B9FE7043AD9D3013A11F888
:10221000013B00F8013BF9D20B7803704B78437017
:102220008B78837060467047024B01461868FEF752
:1022300029BE00BF0C000020024B01461868FFF7C2
:102240009BBE00BF0C0000202DE9F84F92461F46B0
:102250000A698B680C469A42B8BF1A46CAF8002031
:1022600091F843300646DDF8289013B10132CAF8E0
:102270000020226891065FD5DAF800300233CAF8F0
:102280000030226812F0060F11461DD1E168994214
:10229000D8BF114618DD4FF0000804F1190B05E016
:1022A000E568DAF80030ED1A45450CDD01235A46A1
:1022B00039463046C847013008F10108F0D14FF0E7
:1022C000FF30BDE8F88F216894F84330003B18BF19
:1022D00001238A060AD53021E21882F8431094F8C7
:1022E00045105A1C2244023382F8431039463046C6
:1022F00004F14302C8470130E1D0D4E90220236849
:10230000DAF8005003F00603042B21691BD08A423F
:1023100020DD4FF00008521A904400251A3401E0E5
:10232000454517DA0123224639463046C847013071
:1023300005F10105F4D1C2E712F0060F0DD0003B04
:1023400018BF0123D2E7401B8A4220EAE078E2DC92
:102350000028E2DC0020BDE8F88FE168DAF8003000
:102360009942D8BF114696DCAEE700BF2DE9F04791
:1023700017460A7E84B00C46064698460C9D01F12D
:10238000430C002A35D0A2F15803D9B2202969D8CC
:10239000202B67D8DFE813F0E600660066006600D1
:1023A0006600660066006600660066006600AC00B7
:1023B00070006600660066006600700066006600D9
:1023C0006600660021008300C60066006600B60055
:1023D0006600830066006600EC002B682268181D0A
:1023E0006169286010061B6802D4520600F1E08083
:1023F00019600023E14623613B4621463046CDF873
:10240000008003AAFFF720FF013020D04A4639465A
:1024100030462369C047013019D02368E0689B0724
:10242000DDF80C9018D5484516DD002504F1190A91
:1024300004E0E068A0EB0903AB420DDD0123524646
:1024400039463046C047013005F10105F1D14FF062
:10245000FF3004B0BDE8F0874845B8BF484604B037
:10246000BDE8F087012084F8422004F142090023EE
:10247000206184F84330BFE72A682368111D1806DD
:10248000296002D4590600F19580106801460028A1
:102490006268C0F293804FF00A0E534815E020683E
:1024A0002B6810F0800F53F8041B02D1400648BF80
:1024B00089B26F2A14BF4FF00A0E4FF0080E4A4837
:1024C0002B600023626884F84330002AA26051DB4D
:1024D000236823F00403236000294BD1002A7BD119
:1024E000E146BEF1080F56D0ACEB0903236183E748
:1024F0002A680120116804322A6004F1420984F834
:102500004210B4E72B6800211A1D2A60D3F800900E
:102510006268484600F0F8F8002863D0A0EB090094
:102520006060A4E7236843F02003236078222F48EB
:1025300084F845202A6813F0800F52F8041B03D159
:1025400013F0400F18BF89B22A60DA0744BF43F086
:102550002003236019B9236823F0200323604FF080
:10256000100EAEE75823204884F845302368E1E791
:102570002368DBE77546E146B1FBF5F30A4605FB48
:10258000131A194610F80A30AA4209F8013DF3D28D
:10259000BEF1080FA8D12368DD07A5D562682369BD
:1025A0009A42A1DC302309F1FF3989F800309BE71A
:1025B00019801EE7B2F90010084668E72D20002AAE
:1025C000A26084F8430002DB23F0040323600A25A1
:1025D0000548AE464942CEE7037804F1420984F843
:1025E00042307EE7606842E74C6C0008606C00088F
:1025F000704700BF704700BF70B5B1F90C300C4692
:10260000990796B007D5012204F14703C4E90432C3
:10261000236016B070BDB4F90E100546002929DB01
:102620006A4601F04FFB002822DB4FF48061284608
:10263000019EFEF727FC88B3A38906F4704643F099
:102640008003A3814FF48063B6F5005FC4E90403FF
:102650002060DED12846B4F90E1000F0C5F800283D
:10266000D7D0A38923F0030343F00103A381D0E76C
:10267000B4F90C3013F0800F14BF40264FF480667D
:1026800028463146FEF7FEFB40B1A389C4E90406A3
:1026900043F080032060A38116B070BDB4F90C3004
:1026A0009A05B6D4012123F0030304F1470243F055
:1026B0000203C4E90421A3812260AAE770B50C4695
:1026C000B1F90E10154600291E4696B00FDB6A467A
:1026D00001F0F8FA00280ADB019B4FF4806203F452
:1026E0007043A3F50053B3FA83F35B0907E0A289B3
:1026F000002312F0800F14BF40224FF480620020AC
:1027000033602A6016B070BD5FFA81FC810744D047
:102710000346511E22B909E09A0709D0013905D3B1
:102720001846027801336245F6D1704700207047A1
:10273000184603290CD80029F8D00346014401E0CB
:102740008B42F3D0184613F8012B6245F8D170473D
:1027500010B50CEB0C24024604EB044402E00439EF
:10276000032915D9104652F8043B6340A3F1013EFA
:102770002EEA030313F0803FF1D00346014401E049
:102780008B4208D0184613F8012B6245F8D110BDD2
:1027900010460029F1D1002010BD1146C9E700BF45
:1027A0000EB400B582B003AB53F8042B81680193DB
:1027B00000F068F802B05DF804EB03B0704700BFAA
:1027C0000FB400B5074A83B004AB106853F8042B6C
:1027D0008168019300F056F803B05DF804EB04B093
:1027E000704700BF0C000020002238B5064D04469B
:1027F00008462A6003F0F0FB431C00D038BD2B686C
:10280000002BFBD0236038BD300300209368013BD0
:10281000002B936005DAD2F818C0634507DB0A295C
:1028200005D01368581C106008461970704700F0F6
:1028300063B900BF9BB1F8B5134406460F46541E5A
:102840005D1E01E0AC4208D03A46304614F8011F44
:10285000FFF7DCFF431CF5D1F8BD0020F8BD0020D8
:10286000704700BF936810B514461BB91846002383
:10287000636010BD00F082FF0023A360002363604B
:1028800010BD00BF2DE9F04FA1B08B4691461C460C
:10289000049018B1036A002B00F01381BBF80C30D0
:1028A000180740F18E80DBF81030002B00F0898093
:1028B000002343F220020D9399F800300127824E45
:1028C0000794ADF83920002B73D04D4603E015F87E
:1028D000013F002B7FD0252BF9D1B5EB090A7DD123
:1028E0002B78002B65D000234FF0FF320135CDE966
:1028F000092308930B938DF863301E9306E0254659
:10290000089B801B07FA00F0034308932C4605221E
:1029100014F8011B3046FFF7F7FEA1460028EED160
:10292000089BD90644BF20228DF863201A0748BFB0
:102930002B22297848BF8DF863202A2964D1079A71
:102940001168043200290792C0F296800B916978D1
:102950002E296FD05D4C03222046FFF7D5FE38B1FB
:102960004022089B001B8240134309F10109089390
:1029700019F8011B062256488DF83810FFF7C4FEDF
:1029800000287FD0534B002B69D007A900915A46ED
:102990000498514B08A9FDF7ADFF0390039B013349
:1029A00007D00D9B039A13440D9399F80030002B28
:1029B0008BD1BBF80C305B060AD40D9821B0BDE872
:1029C000F08F59460498FFF757FB00283FF470AF8B
:1029D0004FF0FF30F2E7B5EB090AEAD009F1FF3812
:1029E00005954546DDF8108001E0A2453ED92C460C
:1029F0005A46404615F8011FFFF708FF0234013020
:102A0000A4EB0904F1D1D4E7A1F13002092A88BF6F
:102A1000A9469DD80B9B00E00134217803EB83038A
:102A200002EB4303A1F13002092AF5D92E29A14670
:102A30000B938FD199F801102A292DD1079B09F109
:102A400002001A680433002A0793B8BF4FF0FF331F
:102A500099F8021009928146B8BF09937AE7079B5B
:102A6000073323F00703083307939AE70D99059D71
:102A700051442B780D9134E7494243F002030B9106
:102A8000089364E707A900915A460498124B08A9D5
:102A9000FFF76CFC039081E70023A1F13002092AC3
:102AA00009F1010909933FF655AF19F8011F03EB2E
:102AB000830302EB4303A1F13002092AF5D90993FC
:102AC00048E7FDF7F5FCE9E6746C00087C6C00084B
:102AD000806C0008F5080008352800088C4600B511
:102AE00086461346034A714610685DF804EB624659
:102AF000FFF7C8BE0C000020F8B506460D46144688
:102B000010B1036A002B37D0A269A389A2601A070B
:102B100019D52369BBB122686169D31AEDB2994214
:102B20002F4620DD0133A1680139A160511C2160CD
:102B3000157062699A420DD0A389DB0701D50A2D71
:102B400008D03846F8BD21463046FFF795FA38B927
:102B50002369E0E721463046FDF7ACFD0028F0D0C0
:102B60004FF0FF37EDE721463046FDF7A3FD002883
:102B7000F6D101232268D6E7FDF79AFCC4E700BF2F
:102B800003460A46024908681946FFF7B5BF00BF69
:102B90000C000020144600B51A460A4B0D461B686F
:102BA00085B0DE6803464CB10749019130460749BC
:102BB0000294009501F040F800F056FF04490C46DD
:102BC000F3E700BF0C000020886C0008986C000838
:102BD000DC6A000808B513460022FFF7DBFF00BFE0
:102BE00070B5C66905460C465EB1F368A3B153F8EB
:102BF0002400E8B1026843F824200023C0E903332D
:102C000070BD1020FFF710FB0646E861E8B1002315
:102C1000C0E90033C0E9023321220421284600F034
:102C20003DFFEB69F060DB68002BE0D1002070BD58
:102C30000121284601FA04F56A1D920000F02EFFDA
:102C40000028F3D0C0E90145D7E702466B21024BCB
:102C50000248FFF79FFF00BFF46B0008C86C000834
:102C600070B5C66905460C464EB13CB1EB69626869
:102C7000DB6853F82210216043F8224070BD102019
:102C8000FFF7D2FAE86120B1C0E90066C0E9026648
:102C9000EBE702468F21024B0248FFF77BFF00BFA4
:102CA000F46B0008C86C00082DE9F0414FF0000EED
:102CB0000E461C460D69074601F1140001680EF12D
:102CC000010E8BB202FB0343090C4FEA134C02FBCB
:102CD00001CC9BB203EB0C43754540F8043B4FEA33
:102CE0001C44EBDC3CB1B368AB4207DD06EB85036B
:102CF00001355C6135613046BDE8F0817168384668
:102D00000131FFF76DFF804690B1326906F10C0189
:102D1000023292000C30FFF711FA3146464638462F
:102D2000FFF79EFF06EB850301355C613561E2E745
:102D30000246BA21014B0248FFF72CFF386C00080D
:102D4000C86C00082DE9F8431E460C462649083396
:102D5000174681FB032C092E4FEAE3730546C3EBAC
:102D60006C0339DD4FF0010C00214FEA4C0C634538
:102D700001F10101F9DC2846FFF732FF014668B393
:102D8000089B092F43614FF00103036112DC0927FF
:102D90000A34BE420BDDF61B264414F8013B0A221E
:102DA0002846303BFFF780FFB4420146F5D1084684
:102DB000BDE8F88304F10909C8463C4418F8013B12
:102DC0000A222846303BFFF76FFFA0450146F5D1A8
:102DD000A7F108044C44DCE70021CCE70246D321EC
:102DE000024B0348FFF7D6FE398EE338386C0008F3
:102DF000C86C0008B0F5803F03463ABF10208340FE
:102E00000020B3F1807F3CBF1B020830B3F1805F2C
:102E10003CBF1B010430B3F1804F03D3002B06DB12
:102E2000013070479B0003D45B0003D4202070471F
:102E300002307047033070470368014613F0070201
:102E400009D0DA0721D498074BBF5B089B08012003
:102E500002200B60704798B2A0B11046DAB20AB9EE
:102E600008301B0A1A0704BF1B0904309A0704BF65
:102E70009B080230DA0703D45B0800F1010006D09A
:102E80000B6070471020C340E8E700207047202007
:102E9000704700BF10B50C460121FFF7A1FE0246A6
:102EA00018B10123C0E9043410BD40F24511024BB2
:102EB0000248FFF76FFE00BF386C0008C86C0008BE
:102EC0002DE9F04FD1F8108015690E46A8459246BD
:102ED00085B005DB2A46534645468A4690461E463F
:102EE000DAF80830DAF8041005EB0804A342B8BF9A
:102EF0000131FFF775FE002800F0898000F114070A
:102F000007EB840E774505D23B46002243F8042B9D
:102F10009E45FBD8143606EB88080AF1140946458D
:102F200009EB850566D2A5EB0A03153B23F00303E5
:102F30000AF1150A043355452CBF9B464FF0040B8C
:102F4000CDF808E08246AE46039405E0090C2AD18C
:102F5000B04507F104074AD956F8041B8DB2002D7D
:102F6000F4D0CC463C46002301965CF8040B216863
:102F700086B28AB205FB0622000C090C05FB001183
:102F80001A4401EB124192B242EA0142E64544F88A
:102F9000042B4FEA1143E8D8019E47F80B3056F84E
:102FA000041C090CD4D000223B6848461D463C4610
:102FB000944602889BB201FB02C202EB154243EA2F
:102FC000024344F8043B50F8043B25684FEA134C95
:102FD000ABB201FB0C33704503EB12434FEA134CC9
:102FE000E7D3B04547F80B3007F10407B4D8DDE963
:102FF00002E45046002C02DC05E0013C03D05EF800
:10300000043D002BF9D0046105B0BDE8F08F024605
:103010004FF4B171014B0248FFF7BCFD386C00085A
:10302000C86C00082DE9F04112F00303144607466E
:1030300082B02DD10E46A4101CD0FA698AB39568CF
:10304000002D39D0E3074FF0000806D4641011D0EA
:10305000286898B10546E307F8D531462A46384630
:10306000FFF72EFF0346314638461E46FFF7F8FDB0
:103070006410EDD1304602B0BDE8F0812A46294601
:103080003846FFF71DFF28600546C0F80080E2E7DC
:10309000184A013B52F823200023FFF705FE06469D
:1030A000C9E71020FFF7C0F80246F861E0B100233D
:1030B000C0E90033C0E90233012138460192FFF72D
:1030C0008FFD019A054640B1012340F27121C0E90C
:1030D0000431002390600360B4E7024640F24511DA
:1030E000054B0648FFF756FD40F2B311044B034869
:1030F000FFF750FD40680008386C0008C86C0008F5
:10310000F46B00082DE9F0470D462F69AB6807EB1B
:1031100062177C1C9C429146064649684FEA621A37
:1031200004DD5B009C4201F10101FADC3046FFF74F
:1031300057FD804600284ED0BAF1000F00F1140070
:103140000EDD034600210AF105024FEA820C08EB6E
:10315000820243F8041B9342FBD1ACF114031844E0
:10316000296905F1140319F01F0903EB81012AD025
:1031700084464FF0000AC9F1200E1A6802FA09F2DB
:1031800042EA0A024CF8042B53F8042B994222FA23
:103190000EFAF2D84B1B153B23F00303043305F161
:1031A0001502914238BF042340F803A0BAF1000F82
:1031B00000D13C4630462946C8F81040FFF750FD84
:1031C0004046BDE8F087043853F8042B994240F894
:1031D000042FF9D8EDE702464FF4EF71014B024896
:1031E000FFF7D8FC386C0008C86C000884460B69EF
:1031F0000069C01A15D10CF1140C14310CEB8302C8
:1032000010B401EB830301E0944508D252F8044D59
:1032100053F8041D8C42F7D004D24FF0FF3010BC9D
:1032200070477047012010BC704700BF2DE9F04F78
:1032300014460A6923698846D21A002A83B040F0EE
:10324000888001F1140604F1140202EB830206EBFC
:10325000830301E09E427FD253F8045D52F8041DBF
:103260008D42F7D076D323460025444698466168C0
:10327000FFF7B6FC002800F0898000F114094946E8
:103280004FF0000C2769D8F8106004F1140B08F116
:10329000140EC56004F110020EEB86060BEB870AD4
:1032A000CDF804B05EF8044B52F8045F1FFA84FBBB
:1032B000ABB2A3EB0B03240C6344C4EB154404EB47
:1032C00023449BB243EA0443764541F8043B4FEA6A
:1032D000244CE7D808F115018E4234BF00210121AA
:1032E000A6EB0806153EB608002906F101024FEAD2
:1032F000820208BF0422DDF804B00BEB0204A245F1
:103300004A4434D915462146E04651F8046BB3B21D
:1033100063444FEA164E0EEB234E06EB08039BB2B6
:1033200043EA0E438A454FEA2E4C45F8043BEBD85E
:103330000AF1FF3AAAEB040A2AF0030A524423B91D
:1033400052F8043D013F002BFAD0076103B0BDE8FD
:10335000F08F88DA01258AE70021FFF741FC70B180
:1033600001220023C0E9042303B0BDE8F08F002947
:103370004FEA860608BF002609EB0602DFE7024691
:1033800040F23721054B0648FFF704FC024640F2A5
:103390004521024B0248FFF7FDFB00BF386C0008D7
:1033A000C86C0008124B0A460B40A3F15073002B67
:1033B00003DD00221946104670475B42B3F1A07F3F
:1033C0004FEA235106DA4FF4002300220B4119463D
:1033D0001046704714391E29D4BF4FF00042012215
:1033E0004FF00003D8BFCA4010461946704700BFCF
:1033F0000000F07FF8B5046900F1140202EB8404C8
:1034000054F8045C261F2846FFF7F4FC0346C0F17D
:1034100020000A2B086030DDB242A3F10B071AD25C
:1034200054F8083C1FB3C7F1200C23FA0CF1BD403F
:1034300045EA0106A4F1080546F07F51AA4203FAC5
:1034400007F341F4401116D254F80C2C22FA0CF276
:1034500013431846F8BD0B2B08D0002305FA07F7D5
:1034600047F07F51184641F44011F8BD002345F064
:103470007F5141F440111846F8BDB2422CBF0022E2
:1034800054F8082CC3F10B0703F1150325FA07FCC8
:1034900038BFFA4005FA03F34CF07F511343184646
:1034A00041F44011F8BD00BFF0B5012183B01646CC
:1034B0001F46FFF795FB0546002847D0C7F30A547F
:1034C000C7F313030CB143F48013002E019314D1FE
:1034D00001A8FFF7B1FC0122019B20306B612A613A
:1034E00014B3089BA4F2334404441C60099BC0F14C
:1034F00035001860284603B0F0BD68460096FFF717
:103500009BFC019B00B30099C0F1200203FA02F278
:10351000C34001930A43002B6A610CBF01220222BF
:10352000AB612A61002CDCD105EB8201A0F23243B1
:10353000086908990B60FFF75DFC099BC0EB42101E
:103540001860284603B0F0BD009AE4E7024640F256
:103550000F31024B0248FFF71DFB00BF386C00081B
:10356000C86C00082DE9F04383B08846694681465F
:10357000FFF740FF04460D46404601A9FFF73AFF1A
:10358000D9F81030D8F81020A3EB020CDDE9003296
:103590009B1A03EB4C13002B0BDD05EB03573D4649
:1035A00002460B462046294601F022F803B0BDE84A
:1035B000F083C3EB033301EB03594946F0E700BF47
:1035C000172870B506460ADD002000240749084D7B
:1035D00022462B4600F0E2FE013EF9D170BD054BBC
:1035E00003EBC003D3E9040170BD00BF0000F03F4E
:1035F000000024404068000801F1FF3C116902F11D
:1036000014034FEA6C1C03EB81010CF1010C8B429B
:1036100000EB8C0C16D210B5A0F1040E53F8044B3D
:1036200099424EF8044FF9D88B1A153B23F0030347
:1036300004331844844504D9002340F8043B8445EE
:10364000FBD810BD844505D9002340F8043B8445D0
:10365000FBD87047704700BF03694A11934200F1DD
:10366000140009DA00EB830302E053F8042DA2B939
:103670008342FAD80020704700EB8203F8DD11F096
:103680001F01F5D010B450F8224024FA01F28A400C
:10369000944208D0012010BC70470120704753F8B5
:1036A000042D002AF6D18342F9D8002010BC7047BF
:1036B000002238B5064D044608462A6002F040FC58
:1036C000431C00D038BD2B68002BFBD0236038BDD5
:1036D0003003002010B50C46B1F90E1000F088FA46
:1036E000002803DB636D0344636510BDA38923F4E5
:1036F0008053A38110BD00BF002070472DE9F04129
:103700000C46B1F90C101F46CB05054616460BD4E6
:1037100021F48051A1813B4632462846B4F90E106F
:10372000BDE8F04100F0F8BAB4F90E10022300220F
:1037300000F0DCFAB4F90C10EAE700BF10B50C4653
:10374000B1F90E1000F0D2FAB4F90C30421C0EBFE1
:1037500023F4805343F480536065A38110BD00BF00
:10376000B1F90E1000F088B9F0307047004870478A
:103770004C010020004870474C0100209368002B4A
:1037800000F0F0802DE9F04FB1F90CC090461CF02C
:10379000080F81460C4683B02BD00B694BB31CF04D
:1037A0000207D8F8006032D04FF0000A5546D4F82E
:1037B00028B0216AAB4FC5B1BD422B46524628BF47
:1037C0003B464846D847002840F3C280D8F8083026
:1037D00082441B1A2D1AC8F80830002B00F0AE8066
:1037E000D4F828B0216A002DE6D1D6E900A5083624
:1037F000E1E721464846FEF73FFC002840F0AD8057
:10380000B4F90CC0D8F800601CF00207CCD11CF051
:10381000010A63D157462368A16818468B46002FDA
:1038200058D01CF4007F00F0B180B9420A4600F283
:10383000DD801CF4906F2FD0216962695D1A02EB64
:10384000420202EBD2726B1C52103B44934292BF75
:1038500093469B461A461CF4806F00F0E6801146A2
:103860004846FDF70FFB002800F0F5802A46216945
:103870000190FEF763FCA289019B22F4906242F062
:103880008002A2815819C4F814B0ABEB05053A4682
:10389000BB462361A56020603D460027514601924A
:1038A00000F010F9A1682368019AA1EB0B011A44FA
:1038B000A1602260D8F80830AA445B1BC8F8083021
:1038C000002B3BD02368A16818468B46B4F90CC086
:1038D000002FA6D1D6E900A708369EE73846BB469A
:1038E0003D46002D40D0002845D03A46D4E904C3D7
:1038F0002068AA4228BF2A466045A16804D901EB86
:10390000030A524500F38280934272DC5A464846CD
:10391000216AD4F828C0E047B0F1000A18DDB7EBFF
:103920000A070FD00120D8F80830D344A3EB0A03CC
:10393000A5EB0A05C8F80830002BD2D1002003B04F
:10394000BDE8F08F21464846FCF7B4FE0028EAD0D7
:10395000B4F90C3043F04003A3814FF0FF3003B0C3
:10396000BDE8F08F00207047756833460836002D9B
:10397000FAD0D3F800B02A460A215846FEF7C4FE12
:10398000002865D00130A0EB0B07AEE722699A4210
:1039900014D36569BD4211D86FF00043BB4228BF04
:1039A0003B4693FBF5F3524605FB03F34846A56AF5
:1039B000216AA847051ECBDD7F1B7BE7B94228BFE4
:1039C00039460D46184651462A4600F07BF8A16854
:1039D0002368491B2B44A16023600029ECD12146B8
:1039E0004846FCF767FE0028E6D0B1E7BB463A46FA
:1039F00052E75946019200F065F8019AA368924691
:103A00009B1AA36023681344236088E759465246F3
:103A100000F058F823682146534448462360FCF7D9
:103A200049FE00283FF47BAF92E7484600F018F9C2
:103A3000034600287FF426AF48462169FEF79CFA2A
:103A40000C22B4F90C30C9F8002023F0800381E780
:103A50006A1C17464AE70C22B4F90C30C9F800205A
:103A600078E700BF00FCFF7F062008B500F028FAC9
:103A7000012002F093FA00BF002238B5064D04463B
:103A800008462A6002F0A0FA431C00D038BD2B681B
:103A9000002BFBD0236038BD3003002070B5A1FBA4
:103AA000025454B92946FDF7EDF9064618B12A46E5
:103AB0002146FCF725FD304670BD0C220026026031
:103AC000F9E700BF88420ED98B1883420BD900EB6F
:103AD000020C002A6DD0624613F801CD994202F81B
:103AE00001CDF9D170470F2A0FD8034602F1FF3CF0
:103AF000002A5ED00CF1010C013B8C4411F8012B23
:103B0000614503F8012FF9D1704740EA01039B0793
:103B100050D1A2F1100370B501F1200C23F00F0574
:103B200001F1100E00F11004AC441B095EF8105CAA
:103B30000EF1100E44F8105C5EF81C5C103444F872
:103B40001C5C5EF8185C44F8185C5EF8145CE64592
:103B500044F8145CEAD1013312F00C0F01EB0311AD
:103B600002F00F0400EB031328D08E46043C24F02F
:103B700003064FEA940C1E441C1F5EF8045B44F8D5
:103B8000045FB442F9D10CF1010402F0030203EB2B
:103B9000840301EB840102F1FF3C4AB10CF1010CFA
:103BA000013B8C4411F8012B614503F8012FF9D139
:103BB00070BD7047034602F1FF3C9BE72246EAE7EF
:103BC00010B4034CD4F8E040A44610BC604700BFDA
:103BD0005C000020034649B1FF2A02D801200A7088
:103BE00070478A224FF0FF301A60704708467047CE
:103BF00038B50C46114600228446074D20462A60FF
:103C00001A46644602F0D0F9431C00D038BD2B6838
:103C1000002BFBD0236038BD300300200CB400B56E
:103C200083B004AB53F8042B0193FEF72BFE03B0D3
:103C30005DF804EB02B070470EB400B5074A82B0DD
:103C400003AB0146106853F8042B0193FEF71AFEEC
:103C500002B05DF804EB03B0704700BF0C00002019
:103C60002DE9F041144641B30AB306460D4600F073
:103C700069F88442074602D8B4EB500F13D82146A6
:103C80003046FDF7FFF8804650B1BC422246294637
:103C900028BF3A46FEF752FA29463046FEF76CF93D
:103CA0004046BDE8F081A8464046BDE8F081A04608
:103CB000FEF762F94046BDE8F0811146BDE8F041EB
:103CC000FDF7E0B870B50026074D044608461146DA
:103CD0002E6002F07CF9431C00D070BD2B68002BD5
:103CE000FBD0236070BD00BF3003002038B50C4608
:103CF000114600228446074D20462A601A46644633
:103D000002F06CF9431C00D038BD2B68002BFBD0AF
:103D1000236038BD3003002038B50C461146002220
:103D20008446074D20462A601A46644600F098FEF5
:103D3000431C00D038BD2B68002BFBD0236038BD5E
:103D40003003002051F8043C181F002BBCBF0B5857
:103D5000C018704710B4034CD4F8E440A44610BC1B
:103D6000604700BF5C00002082B049B15AB16BB11E
:103D700013780B601278101E18BF012002B0704734
:103D800001A9002AF3D1104602B070476FF001007C
:103D9000F4E700BF38B5C46B0CB1002038BD8021FA
:103DA0000546FDF76FF80246E86330B1031F7C3229
:103DB00043F8044F9342FBD1EFE74FF0FF3038BD9B
:103DC00030B51F29054683B008D8C36B0C4653B1E4
:103DD00053F8240043F8242003B030BD16230360B9
:103DE0004FF0FF30F8E780210192FDF74BF8019A80
:103DF0000346E8630028F3D0011F00F17C05002092
:103E000041F8040FA942FBD1E2E700BF1F2938B5F2
:103E100005461ED8C26B0C466AB152F8213053B128
:103E2000012B06D0591C10D00021204642F8241046
:103E30009847002038BD284600F0F2F82246014697
:103E40002846BDE8384000F0D7B8162301202B6083
:103E500038BD16234FF0FF302B6038BD1F292BD8FB
:103E600038B5C36B0C460546A3B153F8242003EBC9
:103E700084034AB1511C0BD0012A07D000252046EB
:103E80001D609047284638BD012038BD032038BD4D
:103E9000022038BD8021FCF7F5FF0346E86340B1FE
:103EA00000201A1F03F17C0142F8040F8A42FBD163
:103EB000DBE74FF0FF3038BD4FF0FF30704700BFF9
:103EC00038B5134B1F281D681DD8EA6B044662B134
:103ED00052F820304BB1012B05D0591C0FD00021D6
:103EE00042F820109847002038BD284600F098F886
:103EF000224601462846BDE8384000F07DB816232A
:103F000001202B6038BD16234FF0FF302B6038BDE9
:103F10000C000020114B1F2870B51E6808D8F36BE9
:103F200004460D464BB153F8240043F8245070BDAD
:103F3000162333604FF0FF3070BD80213046FCF710
:103F4000A1FF0346F0630028F4D00021021F7C305B
:103F500042F8041F8242FBD1E5E700BF0C000020BD
:103F600038B50B4B1D68EC6B0CB1002038BD8021BF
:103F70002846FCF787FFE86338B1031F00F17C0295
:103F800043F8044F9342FBD1EFE74FF0FF3038BDC9
:103F90000C00002038B5174B1F281D6826D8044692
:103FA000E86BA0B150F8242000EB84034AB1511C07
:103FB0000BD0012A07D0002520461D6090472846D7
:103FC00038BD012038BD032038BD022038BD802116
:103FD0002846FCF757FFE86340B10021031F00F1BA
:103FE0007C0243F8041F9342FBD1DBE74FF0FF3024
:103FF00038BD00BF0C00002070B50026074D0446F8
:10400000084611462E6001F0C1FF431C00D070BD70
:104010002B68002BFBD0236070BD00BF3003002055
:1040200001F0B2BF81F0004102E000BF83F0004325
:1040300030B54FEA41044FEA430594EA050F08BF43
:1040400090EA020F1FBF54EA000C55EA020C7FEA07
:10405000645C7FEA655C00F0E2804FEA5454D4EB84
:104060005555B8BF6D420CDD2C4480EA020281EA4E
:10407000030382EA000083EA010180EA020281EA86
:104080000303362D88BF30BD11F0004F4FEA0131D8
:104090004FF4801C4CEA113102D0404261EB4101E7
:1040A00013F0004F4FEA03334CEA133302D052426D
:1040B00063EB430394EA050F00F0A780A4F1010429
:1040C000D5F1200E0DDB02FA0EFC22FA05F2801863
:1040D00041F1000103FA0EF2801843FA05F3594149
:1040E0000EE0A5F120050EF1200E012A03FA0EFCC8
:1040F00028BF4CF0020C43FA05F3C01851EBE371F2
:1041000001F0004507D54FF0000EDCF1000C7EEB0E
:1041100000006EEB0101B1F5801F1BD3B1F5001F4C
:104120000CD349085FEA30004FEA3C0C04F101046B
:104130004FEA445212F5800F80F09A80BCF1004F94
:1041400008BF5FEA500C50F1000041EB045141EA16
:10415000050130BD5FEA4C0C404141EB0101013CDF
:1041600028BFB1F5801FE9D291F0000F04BF0146CE
:104170000020B1FA81F308BF2033A3F10B03B3F1A0
:1041800020020CDA0C3208DD02F1140CC2F10C0230
:1041900001FA0CF021FA02F10CE002F11402D8BF8E
:1041A000C2F1200C01FA02F120FA0CFCDCBF41EA5A
:1041B0000C019040E41AA2BF01EB0451294330BD29
:1041C0006FEA04041F3C1CDA0C340EDC04F1140406
:1041D000C4F1200220FA04F001FA02F340EA0300DD
:1041E00021FA04F345EA030130BDC4F10C04C4F123
:1041F000200220FA02F001FA04F340EA0300294603
:1042000030BD21FA04F0294630BD94F0000F83F44C
:10421000801306BF81F480110134013D4EE77FEA2F
:10422000645C18BF7FEA655C29D094EA050F08BF7B
:1042300090EA020F05D054EA000C04BF194610465C
:1042400030BD91EA030F1EBF0021002030BD5FEAA0
:10425000545C05D14000494128BF41F0004130BDC8
:1042600014F580043CBF01F5801130BD01F000451C
:1042700045F0FE4141F470014FF0000030BD7FEA8F
:10428000645C1ABF194610467FEA655C1CBF0B468A
:10429000024650EA013406BF52EA033591EA030FA1
:1042A00041F4002130BD00BF90F0000F04BF002199
:1042B000704730B54FF4806404F132044FF00005CC
:1042C0004FF0000150E700BF90F0000F04BF002145
:1042D000704730B54FF4806404F1320410F00045AB
:1042E00048BF40424FF000013EE700BF42004FEAA6
:1042F000E2014FEA31014FEA02701FBF12F07F4323
:1043000093F07F4F81F06051704732F07F4208BFD9
:10431000704793F07F4F04BF41F40021704730B5E0
:104320004FF4607401F0004521F000411CE700BF2C
:1043300050EA010208BF704730B54FF000050AE0AF
:1043400050EA010208BF704730B511F0004502D5B0
:10435000404261EB41014FF4806404F132045FEAB2
:10436000915C3FF4D8AE4FF003025FEADC0C18BF5B
:1043700003325FEADC0C18BF033202EBDC02C2F14D
:10438000200300FA03FC20FA02F001FA03FE40EADF
:104390000E0021FA02F11444BDE600BF70B54FF0E3
:1043A000FF0C4CF4E06C1CEA11541DBF1CEA1355C1
:1043B00094EA0C0F95EA0C0F00F0DEF82C4481EA29
:1043C000030621EA4C5123EA4C5350EA013518BF49
:1043D00052EA033541F4801143F4801338D0A0FB36
:1043E00002CE4FF00005E1FB02E506F00042E0FBE3
:1043F00003E54FF00006E1FB03569CF0000F18BFE9
:104400004EF0010EA4F1FF04B6F5007F64F5407490
:1044100004D25FEA4E0E6D4146EB060642EAC62123
:1044200041EA55514FEAC52040EA5E504FEACE2E90
:10443000B4F1FD0C88BFBCF5E06F1ED8BEF1004F93
:1044400008BF5FEA500E50F1000041EB045170BD0F
:1044500006F0004646EA010140EA020081EA030153
:10446000B4EB5C04C2BFD4EB0C0541EA045170BD4F
:1044700041F480114FF0000E013C00F3AB8014F1C9
:10448000360FDEBF002001F0004170BDC4F1000412
:10449000203C35DA0C341BDC04F11404C4F1200593
:1044A00000FA05F320FA04F001FA05F240EA0200EE
:1044B00001F0004221F0004110EBD37021FA04F624
:1044C00042EB06015EEA430E08BF20EAD37070BDDE
:1044D000C4F10C04C4F1200500FA04F320FA05F03D
:1044E00001FA04F240EA020001F0004110EBD3703F
:1044F00041F100015EEA430E08BF20EAD37070BDAF
:10450000C4F1200500FA05F24EEA020E20FA04F387
:1045100001FA05F243EA020321FA04F001F0004136
:1045200021FA04F220EA020000EBD3705EEA430EA7
:1045300008BF20EAD37070BD94F0000F0FD101F0D6
:104540000046400041EB010111F4801F08BF013C0F
:10455000F7D041EA060195F0000F18BF704703F04D
:104560000046520043EB030313F4801F08BF013DD4
:10457000F7D043EA0603704794EA0C0F0CEA135590
:1045800018BF95EA0C0F0CD050EA410618BF52EA4A
:104590004306D1D181EA030101F000414FF0000050
:1045A00070BD50EA410606BF1046194652EA43065E
:1045B00019D094EA0C0F02D150EA013613D195EAD2
:1045C0000C0F05D152EA03361CBF104619460AD11A
:1045D00081EA030101F0004141F0FE4141F4700124
:1045E0004FF0000070BD41F0FE4141F4780170BD14
:1045F00070B54FF0FF0C4CF4E06C1CEA11541DBF79
:104600001CEA135594EA0C0F95EA0C0F00F0A7F87A
:10461000A4EB050481EA030E52EA03354FEA0131A7
:1046200000F088804FEA03334FF0805545EA1313BA
:1046300043EA12634FEA022245EA111545EA106582
:104640004FEA00260EF000419D4208BF964244F119
:10465000FD0404F5407402D25B084FEA3202B61A38
:1046600065EB03055B084FEA32024FF480104FF40C
:10467000002CB6EB020E75EB030E22BFB61A754680
:1046800040EA0C005B084FEA3202B6EB020E75EB13
:10469000030E22BFB61A754640EA5C005B084FEA7B
:1046A0003202B6EB020E75EB030E22BFB61A754648
:1046B00040EA9C005B084FEA3202B6EB020E75EB53
:1046C000030E22BFB61A754640EADC0055EA060E14
:1046D00018D04FEA051545EA16754FEA06164FEA57
:1046E000C30343EA52734FEAC2025FEA1C1CC0D103
:1046F00011F4801F0BD141EA00014FF000004FF090
:10470000004CB6E711F4801F04BF01430020B4F150
:10471000FD0C88BFBCF5E06F3FF6AFAEB5EB030C08
:1047200004BFB6EB020C5FEA500C50F1000041EB05
:10473000045170BD0EF0004E4EEA113114EB5C04D2
:10474000C2BFD4EB0C0541EA045170BD41F48011A5
:104750004FF0000E013C90E645EA060E8DE60CEAAD
:10476000135594EA0C0F08BF95EA0C0F3FF43BAFCA
:1047700094EA0C0F0AD150EA01347FF434AF95EA81
:104780000C0F7FF425AF104619462CE795EA0C0F65
:1047900006D152EA03353FF4FDAE1046194622E732
:1047A00050EA410618BF52EA43067FF4C5AE50EA0C
:1047B00041047FF40DAF52EA43057FF4EBAE12E7FC
:1047C0004FF0FF3C06E000BF4FF0010C02E000BFDD
:1047D0004FF0010C4DF804CD4FEA410C7FEA6C5CC0
:1047E0004FEA430C18BF7FEA6C5C1BD001B050EA63
:1047F000410C0CBF52EA430C91EA030F02BF90EA4E
:10480000020F0020704710F1000F91EA030F58BF0C
:10481000994208BF90422CBFD8176FEAE37040F06E
:10482000010070474FEA410C7FEA6C5C02D150EA0C
:10483000013C07D14FEA430C7FEA6C5CD6D152EAC7
:10484000033CD3D05DF8040B704700BF844610468C
:1048500062468C461946634600E000BF01B5FFF78B
:10486000B7FF002848BF10F1000F01BD4DF808ED5B
:10487000FFF7F4FF0CBF012000205DF808FB00BF2C
:104880004DF808EDFFF7EAFF34BF012000205DF886
:1048900008FB00BF4DF808EDFFF7E0FF94BF0120D3
:1048A00000205DF808FB00BF4DF808EDFFF7CEFFD4
:1048B00094BF012000205DF808FB00BF4DF808ED13
:1048C000FFF7C4FF34BF012000205DF808FB00BFE4
:1048D0004FEA410C7FEA6C5C02D150EA013C0AD1FC
:1048E0004FEA430C7FEA6C5C02D152EA033C02D1EE
:1048F0004FF0000070474FF0010070474FEA41024F
:1049000012F5001215D211D56FF47873B3EB625221
:1049100012D94FEAC12343F0004343EA505311F048
:10492000004F23FA02F018BF404270474FF00000DA
:10493000704750EA013005D111F0004008BF6FF018
:10494000004070474FF00000704700BF30B58DB099
:1049500003AB05AA002101F045FDC0B90398059CF1
:1049600040F201139C4208D0B4F5817F11D040F28F
:1049700003139C420FD0094D00E0094DFFF7B6FC30
:10498000CDE90001224629460648FDF719FF0DB082
:1049900030BD054DF2E7054DF0E700BF786A00082D
:1049A0006C6A0008886A0008706A0008806A00085B
:1049B00010B501F011FF044601461348FDF700FF52
:1049C00014F0200F0CD114F0040F0DD114F0020FCD
:1049D0000ED114F0080F0FD114F0100F10D110BD2C
:1049E0000A48FBF773FCEEE70948FBF76FFCEDE7BD
:1049F0000848FBF76BFCECE70748FBF767FCEBE7C5
:104A00000648FBF763FCEAE7A46A0008C06A0008EE
:104A1000D06A0008E06A0008F46A0008086B000821
:104A200000B58BB0002305930693012207920093F3
:104A3000019302930393049308920E23099369460A
:104A4000054801F01BFC10B90BB05DF804FB0348EE
:104A5000FBF73CFCF8E700BF80040020186B00085F
:104A600010B514464FF0FF3392B2024801F09FF8A0
:104A7000204610BD3403002072B6FEE700B591B0A9
:104A80002822002106A8FBF73BFD00230193029397
:104A9000039304930593012206924FF48033079306
:104AA0000A9202220D920E934FF400230F9306A850
:104AB00000F0EEFA78B90F2301930223029300234A
:104AC000039304930593012101A800F013FD20B97D
:104AD00011B05DF804FBFFF7CFFFFFF7CDFF00003B
:104AE00008B500F0A7FAFFF7C9FF00F027F800F0BB
:104AF00061F801F075FAFFF793FF0C4801F044FCF0
:104B000020B10B48FBF7E2FBFFF7B6FF48F6024186
:104B1000064801F01CFD20B10648FBF7D7FBFFF764
:104B2000ABFF0548FBF7D2FBFEE700BF8004002087
:104B30003C6B00085C6B0008806B000830B589B0E6
:104B400000240494059406940794184B9A6942F043
:104B500010029A619A6902F010020192019A9A6910
:104B600042F004029A619A6902F004020292029AE7
:104B70009A6942F008029A619B6903F00803039363
:104B8000039B0B4D01224FF40051284600F0BAFE62
:104B90004FF40053049301230593069402230793D3
:104BA00004A9284600F0A0FD09B030BD0010024065
:104BB0000010014008B50A480A4B03604FF4E13386
:104BC000436000238360C36003610C224261836100
:104BD000C36100F0BCFF00B908BDFFF74DFFFBE764
:104BE000340300200038014010B586B00023029342
:104BF0000393049305930268174B9A4201D006B0C1
:104C000010BD03F558439A6942F480429A619A694B
:104C100002F480420092009A9A6942F004029A617A
:104C20009B6903F004030193019B4FF4007302930B
:104C30000223039303230593084C02A9204600F0A6
:104C400053FD4FF48063029300230393049302A95E
:104C5000204600F049FDD2E700380140000801403D
:104C6000FEE7FEE7FEE7FEE7FEE7704708B502480D
:104C700000F0C1F808BD00BF7C03002008B5024861
:104C800001F082FC08BD00BF8004002000B583B0A5
:104C9000114B9A6942F001029A619A6902F001028D
:104CA0000092009ADA6942F08052DA61DB6903F01F
:104CB00080530193019B00220F216FF0010000F04F
:104CC0006DFE064A536823F0E06343F000735360BF
:104CD00003B05DF804FB00BF00100240000001407B
:104CE00030B589B00446224BDA6942F00102DA613C
:104CF000DB6903F001030193019B02A903A800F003
:104D0000D5FC069BD3B900F0B1FC0346194AA2FBBF
:104D100003239B0C013B18484FF08042026040F295
:104D2000E732C2604360002303618360836100F067
:104D300053F9054630B1284609B030BD00F096FC65
:104D40004300E3E70C4800F01DF805460028F2D1C7
:104D50001C2000F033FE0F2C01D90125EBE70022C7
:104D600021461C2000F01AFE044B1C60E3E700BF44
:104D70000010024083DE1B437C030020C80100209A
:104D80007047000090F83D30DBB2012B27D10223A1
:104D900080F83D300268D36843F00103D3600368B4
:104DA000114A934210D0B3F1804F0DD0A2F5943246
:104DB000934209D002F58062934205D01A6842F00E
:104DC00001021A60002070479A6802F00702062A62
:104DD00007D01A6842F001021A60002070470120D3
:104DE00070470020704700BF002C0140704770479B
:104DF00070477047704770B504460368DE681D69E8
:104E000015F0020F10D016F0020F0DD06FF0020255
:104E10001A610123037703689B6913F0030F5ED0C7
:104E2000FFF7E6FF0023237715F0040F12D016F0EA
:104E3000040F0FD023686FF004021A610223237756
:104E400023689B6913F4407F4FD02046FFF7D0FFC3
:104E50000023237715F0080F12D016F0080F0FD09B
:104E600023686FF008021A61042323772368DB6943
:104E700013F0030F40D02046FFF7BAFF002323773B
:104E800015F0100F12D016F0100F0FD023686FF02E
:104E900010021A61082323772368DB6913F4407F2B
:104EA00031D02046FFF7A4FF0023237715F0010F30
:104EB00002D016F0010F2DD115F0800F02D016F0A0
:104EC000800F2FD115F0400F02D016F0400F31D1D6
:104ED00015F0200F02D016F0200F33D170BDFFF770
:104EE00086FF2046FFF785FF9CE72046FFF77FFF00
:104EF0002046FFF77EFFABE72046FFF778FF20460E
:104F0000FFF777FFBAE72046FFF771FF2046FFF76C
:104F100070FFC9E723686FF001021A612046FFF7AE
:104F200065FFC9E723686FF080021A61204600F030
:104F300080F8C7E723686FF040021A612046FFF748
:104F400059FFC5E723686FF020021A61204600F080
:104F50006FF8C3E703681F4A90420AD0B0F1804F50
:104F600007D0A2F59432904203D002F580629042BD
:104F700003D123F070034A681343164A90420AD0C3
:104F8000B0F1804F07D0A2F59432904203D002F5E1
:104F90008062904203D123F44073CA68134323F024
:104FA00080034A69134303608B68C3620B688362A2
:104FB000084B98420AD001234361036913F0010FA3
:104FC00003D0036923F00103036170470B69036396
:104FD000F1E700BF002C014040B310B5044690F843
:104FE0003D30F3B1022384F83D30214651F8040BE3
:104FF000FFF7B0FF012384F8463084F83E3084F890
:105000003F3084F8403084F8413084F8423084F8EE
:10501000433084F8443084F8453084F83D30002033
:1050200010BD80F83C30FFF7ABFEDBE70120704796
:105030007047704708B5074A136843F010031360C0
:10504000032000F099FC0F20FFF74AFEFFF71EFE39
:10505000002008BD00200240014B1868704700BFC7
:10506000C403002082B0084B1B68084AA2FB03233C
:105070005B0A00FB03F3019300BF019B5A1E0192E0
:10508000002BF9D102B07047CC010020D34D621043
:10509000002800F0F18170B582B00446036813F077
:1050A000010F2CD0994B5B6803F00C03042B1DD02F
:1050B000964B5B6803F00C03082B12D06368B3F5C2
:1050C000803F41D0002B55D103F1804303F50433D9
:1050D0001A6822F480321A601A6822F480221A6058
:1050E00037E08A4B5B6813F4803FE7D0874B1B683F
:1050F00013F4003F03D06368002B00F0BF812368E6
:1051000013F0020F75D0814B5B6813F00C0F5FD06A
:105110007E4B5B6803F00C03082B54D02369002BF3
:1051200000F08A807A4B01221A60FFF795FF05464E
:10513000764B1B6813F0020F75D1FFF78DFF401BF4
:105140000228F5D903209EE1704A136843F48033A6
:105150001360636843B3FFF77FFF05466B4B1B6823
:1051600013F4003FCBD1FFF777FF401B6428F5D93C
:10517000032088E1B3F5A02F09D0644B1A6822F40C
:1051800080321A601A6822F480221A60E1E703F183
:105190008043A3F53C331A6842F480221A601A68EF
:1051A00042F480321A60D4E7FFF756FF0546574BAA
:1051B0001B6813F4003FA2D0FFF74EFF401B64288A
:1051C000F5D903205FE1514B5B6813F4803FA5D113
:1051D0004E4B1B6813F0020F03D02369012B40F0E4
:1051E0004F814A4A136823F0F803616943EAC10317
:1051F0001360236813F0080F33D0A369002B5CD031
:10520000434B0122C3F88024FFF726FF05463F4B9E
:105210005B6A13F0020F21D1FFF71EFF401B02282B
:10522000F5D903202FE1394A136823F0F8036169A7
:1052300043EAC1031360DCE7354B00221A60FFF735
:105240000BFF0546314B1B6813F0020FD1D0FFF75F
:1052500003FF401B0228F5D9032014E10120FFF7CA
:1052600001FF236813F0040F00F09680274BDB69E1
:1052700013F0805F34D1254BDA6942F08052DA6155
:10528000DB6903F080530193019B0125214B1B68CF
:1052900013F4807F26D0E368012B3DD0002B53D13F
:1052A00003F1804303F504331A6A22F001021A6203
:1052B0001A6A22F004021A6233E0154B0022C3F886
:1052C0008024FFF7C9FE0546104B5B6A13F0020FFE
:1052D000C7D0FFF7C1FE401B0228F5D90320D2E05A
:1052E0000025D3E70B4A136843F480731360FFF77C
:1052F000B3FE0646074B1B6813F4807FCBD1FFF744
:10530000ABFE801B6428F5D90320BCE000100240EE
:1053100000004242007000405F4A136A43F00103FC
:105320001362E36833B3FFF797FE06465A4B1B6AD6
:1053300013F0020F2FD1FFF78FFE801B41F288334D
:105340009842F3D903209EE0052B09D0524B1A6AEC
:1053500022F001021A621A6A22F004021A62E0E7DD
:105360004D4B1A6A42F004021A621A6A42F00102B4
:105370001A62D6E7FFF770FE0646474B1B6A13F02A
:10538000020F08D0FFF768FE801B41F28833984275
:10539000F3D9032077E0E5B9E369002B72D03E4AE8
:1053A000526802F00C02082A56D0022B17D03B4B51
:1053B00000221A66FFF750FE0446374B1B6813F0B5
:1053C000007F47D0FFF748FE001B0228F5D90320D5
:1053D00059E0314AD36923F08053D361DCE72F4B86
:1053E00000221A66FFF738FE05462B4B1B6813F0A8
:1053F000007F06D0FFF730FE401B0228F5D90320BE
:1054000041E0236AB3F5803F1AD023494B6823F467
:105410007413226A606A024313434B601F4B0122DC
:105420001A66FFF719FE04461B4B1B6813F0007F3A
:105430000ED1FFF711FE001B0228F5D9032022E050
:10544000154A536823F40033A1680B435360DCE72B
:10545000002018E0002016E0012B16D00E4B5B68F0
:1054600003F48031226A914211D103F47013626A0D
:1054700093420ED1002006E001207047012002E097
:10548000012000E0002002B070BD0120FBE70120F8
:10549000F9E70120F7E700BF001002400000424298
:1054A0000F4B5B6803F00C02082A01D00D487047CF
:1054B000C3F383420C49885C13F4803F0BD0084B44
:1054C0005B68C3F34043094AD35C064A02FB00F021
:1054D000B0FBF3F07047064B03FB00F0704700BFD2
:1054E0000010024000127A000C6D0008086D0008E0
:1054F00000093D00002800F0A08070B50D4604466C
:10550000524B1B6803F007038B420BD24F4A1368C0
:1055100023F007030B431360136803F007038B4268
:1055200040F08D80236813F0020F17D013F0040FA2
:1055300004D0474A536843F4E0635360236813F090
:10554000080F04D0424A536843F460535360404A02
:10555000536823F0F003A1680B435360236813F0F2
:10556000010F31D06368012B20D0022B25D0384A9F
:10557000126812F0020F64D035494A6822F0030223
:1055800013434B60FFF768FD0646314B5B6803F041
:105590000C036268B3EB820F16D0FFF75DFD801B32
:1055A00041F288339842F0D9032045E0284A126836
:1055B00012F4003FE0D101203EE0254A126812F0CB
:1055C000007FD9D1012037E0204B1B6803F007038F
:1055D000AB420AD91D4A136823F007032B4313601B
:1055E000136803F00703AB422DD1236813F0040FB7
:1055F00006D0174A536823F4E063E1680B43536015
:10560000236813F0080F07D0114A536823F460533E
:10561000216943EAC1035360FFF742FF0C4B5B680B
:10562000C3F303130B4AD35CD8400B4B18600B4BEE
:105630001868FFF755FB002070BD0120704701205E
:10564000FAE70120F8E70120F6E700BF002002405A
:1056500000100240246D0008CC010020C801002089
:10566000014B1868704700BFCC01002008B5FFF758
:10567000F7FF044B5B68C3F30223034AD35CD840B3
:1056800008BD00BF001002401C6D000808B5FFF700
:10569000E7FF044B5B68C3F3C223034AD35CD840E3
:1056A00008BD00BF001002401C6D00080F230360FE
:1056B0000B4B5A6802F0030242605A6802F0F00293
:1056C00082605A6802F4E062C2605B68DB0803F43F
:1056D000E0630361034B1B6803F007030B60704733
:1056E000001002400020024070B582B00024A446A1
:1056F000A1E07E4DAB4214D00CD8A5F58015AB428D
:105700000FD005F57025AB420BD0A5F58015AB4247
:1057100010D106E0764DAB4203D005F58035AB42A3
:1057200008D18B68002B50D0012B49D0426108244E
:1057300000E0CC68BEF1FF0F49D806464FEA8C0264
:1057400033680F25954023EA050304FA02F2134358
:1057500033604B6813F0805F6BD0664B9A6942F000
:1057600001029A619B6903F001030193019B4FEAD7
:105770009C02951C604B53F825600CF00305AD00AE
:105780000F23AB4026EA03065C4B984226D003F574
:105790008063984200F08C8003F58063984200F0AB
:1057A000898003F58063984216D0042317E0CC6803
:1057B0000434BFE7CC680834BCE7CC680C34B9E7E4
:1057C00002610824B6E70024B4E70424B2E7061D0A
:1057D000ACF108029200B3E7032300E00023AB40E2
:1057E00033430232444D45F822304B6813F4801F96
:1057F00062D0434A936843EA0E0393604B6813F404
:10580000001F5FD03E4AD36843EA0E03D3604B6863
:1058100013F4003F5CD03A4A536843EA0E035360E6
:105820004B6813F4803F59D0354A136843EA0E039E
:1058300013600CF1010C0B6833FA0CF254D0012206
:1058400002FA0CF203EA020E32EA0303F1D14B68CA
:10585000122B3FF64EAF122B3FF66CAF01A555F859
:1058600023F000BF2357000833570008B55700083E
:10587000C757000835570008355700083557000846
:1058800035570008355700083557000835570008C8
:1058900035570008355700083557000835570008B8
:1058A0003557000835570008AF570008BB570008A8
:1058B000012394E7022392E7114A936823EA0E0337
:1058C00093609BE70E4AD36823EA0E03D3609EE7FA
:1058D0000B4A536823EA0E035360A1E7084A136892
:1058E00023EA0E031360A4E702B070BD000022108B
:1058F000000031100010024000000140000801408B
:10590000000401400AB10161704709040161704758
:10591000002808DB0901C9B200F1604000F56140D0
:1059200080F80013704700F00F000901C9B2014B65
:105930001954704714ED00E000B500F00700C0F105
:10594000070CBCF1040F28BF4FF0040C031D062BFD
:105950000FD9C31E4FF0FF3E0EFA0CF021EA0001F2
:1059600099400EFA03FE22EA0E0241EA02005DF8B7
:1059700004FB0023EEE70000074AD36823F4E0634A
:105980001B041B0C000200F4E060034343F0BF6300
:1059900043F40033D360704700ED00E010B50446D7
:1059A000054BD868C0F30220FFF7C6FF014620462A
:1059B000FFF7AEFF10BD00BF00ED00E0002807DBE1
:1059C00000F01F02400901239340024A42F82030B0
:1059D000704700BF00E100E0026802F10C0353E8E9
:1059E000003F23F490730C3242E800310029F3D1D8
:1059F000026802F1140353E8003F23F0010314325C
:105A000042E800310029F3D1036B012B05D020239C
:105A100080F84230002303637047026802F10C03F0
:105A200053E8003F23F010030C3242E80031002914
:105A3000F3D1ECE710B504460268136923F4405330
:105A4000C1680B43136183680269134342691A43B7
:105A50000168CB6823F4B05323F00C031343CB60ED
:105A60000268536923F4407381690B4353610268F0
:105A7000134B9A4220D0FFF7F9FD024602EB820257
:105A800002EB820263689B00B2FBF3F20D48A0FBBD
:105A900002314909642303FB11231B013233A0FBAC
:105AA00003035B0903F0F00202EB011203F00F03A2
:105AB000216813448B6010BDFFF7E8FD0246DDE767
:105AC000003801401F85EB512DE9F04383B00546B6
:105AD0000E4617469946DDF828802B681C6836EA82
