:020000040800F2
:1000000000500020254300084D1600084F16000838
:10001000511600085316000855160008000000008D
:100020000000000000000000000000003140000857
:100030005716000800000000D140000815410008D4
:100040006D4300086D4300086D4300086D430008D0
:100050006D4300086D4300086D4300086D430008C0
:100060006D4300086D4300086D4300086D430008B0
:100070006D4300086D4300086D4300086D430008A0
:100080006D4300086D4300086D4300086D43000890
:10009000691600086D4300086D4300086D430008B1
:1000A0006D4300086D4300086D4300086D43000870
:1000B000591600086D4300086D4300086D430008A1
:1000C0006D4300086D4300086D4300086D43000850
:1000D0006D4300086D4300086D4300086D43000840
:1000E0006D4300086D4300086D43000800000000E8
:1000F0000000000000000000000000000000000000
:0C01000000000000000000005FF808F1A3
:1001100010B5054C237833B9044B13B10448AFF341
:1001200000800123237010BDDC01002000000000CE
:10013000086F000808B5034B1BB103490348AFF330
:10014000008008BD00000000E0010020086F0008EA
:10015000034613F8012B002AFBD1181A0138704707
:1001600081F0004102E000BF83F0004330B54FEA68
:1001700041044FEA430594EA050F08BF90EA020FD5
:100180001FBF54EA000C55EA020C7FEA645C7FEA68
:10019000655C00F0E2804FEA5454D4EB5555B8BF8B
:1001A0006D420CDD2C4480EA020281EA030382EAFC
:1001B000000083EA010180EA020281EA0303362D8E
:1001C00088BF30BD11F0004F4FEA01314FF4801C61
:1001D0004CEA113102D0404261EB410113F0004F73
:1001E0004FEA03334CEA133302D0524263EB43032A
:1001F00094EA050F00F0A780A4F10104D5F1200EC8
:100200000DDB02FA0EFC22FA05F2801841F1000122
:1002100003FA0EF2801843FA05F359410EE0A5F1F6
:1002200020050EF1200E012A03FA0EFC28BF4CF027
:10023000020C43FA05F3C01851EBE37101F00045DD
:1002400007D54FF0000EDCF1000C7EEB00006EEBEA
:100250000101B1F5801F1BD3B1F5001F0CD3490874
:100260005FEA30004FEA3C0C04F101044FEA4452CB
:1002700012F5800F80F09A80BCF1004F08BF5FEA52
:10028000500C50F1000041EB045141EA050130BD32
:100290005FEA4C0C404141EB0101013C28BFB1F544
:1002A000801FE9D291F0000F04BF01460020B1FA8F
:1002B00081F308BF2033A3F10B03B3F120020CDA62
:1002C0000C3208DD02F1140CC2F10C0201FA0CF040
:1002D00021FA02F10CE002F11402D8BFC2F1200CA5
:1002E00001FA02F120FA0CFCDCBF41EA0C0190405B
:1002F000E41AA2BF01EB0451294330BD6FEA0404A4
:100300001F3C1CDA0C340EDC04F11404C4F120028E
:1003100020FA04F001FA02F340EA030021FA04F3A0
:1003200045EA030130BDC4F10C04C4F1200220FAF7
:1003300002F001FA04F340EA0300294630BD21FA35
:1003400004F0294630BD94F0000F83F4801306BFFB
:1003500081F480110134013D4EE77FEA645C18BFEF
:100360007FEA655C29D094EA050F08BF90EA020F86
:1003700005D054EA000C04BF1946104630BD91EA7E
:10038000030F1EBF0021002030BD5FEA545C05D181
:100390004000494128BF41F0004130BD14F58004C0
:1003A0003CBF01F5801130BD01F0004545F0FE4134
:1003B00041F470014FF0000030BD7FEA645C1ABF69
:1003C000194610467FEA655C1CBF0B46024650EAA0
:1003D000013406BF52EA033591EA030F41F40021CC
:1003E00030BD00BF90F0000F04BF0021704730B552
:1003F0004FF4806404F132044FF000054FF0000127
:1004000050E700BF90F0000F04BF0021704730B5E7
:100410004FF4806404F1320410F0004548BF4042BC
:100420004FF000013EE700BF42004FEAE2014FEA11
:1004300031014FEA02701FBF12F07F4393F07F4FEC
:1004400081F06051704732F07F4208BF704793F0EF
:100450007F4F04BF41F40021704730B54FF4607402
:1004600001F0004521F000411CE700BF50EA010205
:1004700008BF704730B54FF000050AE050EA0102AE
:1004800008BF704730B511F0004502D5404261EB1E
:1004900041014FF4806404F132045FEA915C3FF45F
:1004A000D8AE4FF003025FEADC0C18BF03325FEAFC
:1004B000DC0C18BF033202EBDC02C2F1200300FAAD
:1004C00003FC20FA02F001FA03FE40EA0E0021FAD2
:1004D00002F11444BDE600BF70B54FF0FF0C4CF4C0
:1004E000E06C1CEA11541DBF1CEA135594EA0C0F72
:1004F00095EA0C0F00F0DEF82C4481EA030621EAAD
:100500004C5123EA4C5350EA013518BF52EA0335E7
:1005100041F4801143F4801338D0A0FB02CE4FF099
:100520000005E1FB02E506F00042E0FB03E54FF0C9
:100530000006E1FB03569CF0000F18BF4EF0010EC1
:10054000A4F1FF04B6F5007F64F5407404D25FEABD
:100550004E0E6D4146EB060642EAC62141EA555170
:100560004FEAC52040EA5E504FEACE2EB4F1FD0CB2
:1005700088BFBCF5E06F1ED8BEF1004F08BF5FEA30
:10058000500E50F1000041EB045170BD06F00046E2
:1005900046EA010140EA020081EA0301B4EB5C048F
:1005A000C2BFD4EB0C0541EA045170BD41F4801187
:1005B0004FF0000E013C00F3AB8014F1360FDEBFAC
:1005C000002001F0004170BDC4F10004203C35DA88
:1005D0000C341BDC04F11404C4F1200500FA05F30B
:1005E00020FA04F001FA05F240EA020001F00042AC
:1005F00021F0004110EBD37021FA04F642EB060122
:100600005EEA430E08BF20EAD37070BDC4F10C044B
:10061000C4F1200500FA04F320FA05F001FA04F20F
:1006200040EA020001F0004110EBD37041F10001FB
:100630005EEA430E08BF20EAD37070BDC4F1200506
:1006400000FA05F24EEA020E20FA04F301FA05F26E
:1006500043EA020321FA04F001F0004121FA04F216
:1006600020EA020000EBD3705EEA430E08BF20EAE6
:10067000D37070BD94F0000F0FD101F00046400020
:1006800041EB010111F4801F08BF013CF7D041EAA2
:10069000060195F0000F18BF704703F000465200A6
:1006A00043EB030313F4801F08BF013DF7D043EA77
:1006B0000603704794EA0C0F0CEA135518BF95EA2D
:1006C0000C0F0CD050EA410618BF52EA4306D1D1B4
:1006D00081EA030101F000414FF0000070BD50EAD3
:1006E000410606BF1046194652EA430619D094EA5D
:1006F0000C0F02D150EA013613D195EA0C0F05D147
:1007000052EA03361CBF104619460AD181EA03019A
:1007100001F0004141F0FE4141F470014FF0000052
:1007200070BD41F0FE4141F4780170BD70B54FF0ED
:10073000FF0C4CF4E06C1CEA11541DBF1CEA13556D
:1007400094EA0C0F95EA0C0F00F0A7F8A4EB05044F
:1007500081EA030E52EA03354FEA013100F0888046
:100760004FEA03334FF0805545EA131343EA12630F
:100770004FEA022245EA111545EA10654FEA0026C4
:100780000EF000419D4208BF964244F1FD0404F57D
:10079000407402D25B084FEA3202B61A65EB0305D9
:1007A0005B084FEA32024FF480104FF4002CB6EB96
:1007B000020E75EB030E22BFB61A754640EA0C0016
:1007C0005B084FEA3202B6EB020E75EB030E22BF56
:1007D000B61A754640EA5C005B084FEA3202B6EB97
:1007E000020E75EB030E22BFB61A754640EA9C0056
:1007F0005B084FEA3202B6EB020E75EB030E22BF26
:10080000B61A754640EADC0055EA060E18D04FEAE3
:10081000051545EA16754FEA06164FEAC30343EA83
:1008200052734FEAC2025FEA1C1CC0D111F4801F50
:100830000BD141EA00014FF000004FF0004CB6E749
:1008400011F4801F04BF01430020B4F1FD0C88BFE8
:10085000BCF5E06F3FF6AFAEB5EB030C04BFB6EBF3
:10086000020C5FEA500C50F1000041EB045170BDE6
:100870000EF0004E4EEA113114EB5C04C2BFD4EB13
:100880000C0541EA045170BD41F480114FF0000E97
:10089000013C90E645EA060E8DE60CEA135594EA13
:1008A0000C0F08BF95EA0C0F3FF43BAF94EA0C0F16
:1008B0000AD150EA01347FF434AF95EA0C0F7FF48B
:1008C00025AF104619462CE795EA0C0F06D152EADF
:1008D00003353FF4FDAE1046194622E750EA4106C3
:1008E00018BF52EA43067FF4C5AE50EA41047FF4D4
:1008F0000DAF52EA43057FF4EBAE12E74FF0FF3C39
:1009000006E000BF4FF0010C02E000BF4FF0010C09
:100910004DF804CD4FEA410C7FEA6C5C4FEA430C82
:1009200018BF7FEA6C5C1BD001B050EA410C0CBFD1
:1009300052EA430C91EA030F02BF90EA020F002033
:10094000704710F1000F91EA030F58BF994208BF9A
:1009500090422CBFD8176FEAE37040F00100704757
:100960004FEA410C7FEA6C5C02D150EA013C07D1AE
:100970004FEA430C7FEA6C5CD6D152EA033CD3D0F9
:100980005DF8040B704700BF8446104662468C46F3
:100990001946634600E000BF01B5FFF7B7FF002826
:1009A00048BF10F1000F01BD4DF808EDFFF7F4FF4F
:1009B0000CBF012000205DF808FB00BF4DF808EDDA
:1009C000FFF7EAFF34BF012000205DF808FB00BFFD
:1009D0004DF808EDFFF7E0FF94BF012000205DF81F
:1009E00008FB00BF4DF808EDFFF7CEFF94BF0120D4
:1009F00000205DF808FB00BF4DF808EDFFF7C4FFCD
:100A000034BF012000205DF808FB00BF4FEA410C15
:100A10007FEA6C5C02D150EA013C0AD14FEA430CF8
:100A20007FEA6C5C02D152EA033C02D14FF0000035
:100A300070474FF0010070474FEA410212F5001273
:100A400015D211D56FF47873B3EB625212D94FEA15
:100A5000C12343F0004343EA505311F0004F23FAFF
:100A600002F018BF404270474FF00000704750EA54
:100A7000013005D111F0004008BF6FF00040704711
:100A80004FF00000704700BF80F0004002E000BF60
:100A900081F0004142001FBF5FEA410392EA030F69
:100AA0007FEA226C7FEA236C6AD04FEA1262D2EBB3
:100AB0001363C1BFD218414048404140B8BF5B42B8
:100AC000192B88BF704710F0004F40F4000020F051
:100AD0007F4018BF404211F0004F41F4000121F067
:100AE0007F4118BF494292EA030F3FD0A2F10102B1
:100AF00041FA03FC10EB0C00C3F1200301FA03F1EF
:100B000000F0004302D5494260EB4000B0F5000F11
:100B100013D3B0F1807F06D340084FEA310102F1D0
:100B20000102FE2A51D2B1F1004F40EBC25008BF82
:100B300020F0010040EA03007047490040EB00004C
:100B4000013A28BFB0F5000FEDD2B0FA80FCACF14D
:100B5000080CB2EB0C0200FA0CF0AABF00EBC2507A
:100B600052421843BCBFD0401843704792F0000F68
:100B700081F4000106BF80F400000132013BB5E7BB
:100B80004FEA41037FEA226C18BF7FEA236C21D031
:100B900092EA030F04D092F0000F08BF0846704796
:100BA00090EA010F1CBF0020704712F07F4F04D164
:100BB000400028BF40F00040704712F100723CBF77
:100BC00000F50000704700F0004343F0FE4040F4A1
:100BD000000070477FEA226216BF08467FEA23635F
:100BE0000146420206BF5FEA412390EA010F40F44A
:100BF000800070474FF0000304E000BF10F0004396
:100C000048BF40425FEA000C08BF704743F096437C
:100C100001464FF000001CE050EA010208BF704797
:100C20004FF000030AE000BF50EA010208BF70471E
:100C300011F0004302D5404261EB41015FEA010C33
:100C400002BF84460146002043F0B64308BFA3F12B
:100C50008053A3F50003BCFA8CF2083AA3EBC2530D
:100C600010DB01FA02FC634400FA02FCC2F120022C
:100C7000BCF1004F20FA02F243EB020008BF20F063
:100C80000100704702F1200201FA02FCC2F12002C9
:100C900050EA4C0021FA02F243EB020008BF20EABE
:100CA000DC7070474FF0FF3C06E000BF4FF0010CD6
:100CB00002E000BF4FF0010C4DF804CD4FEA4002B6
:100CC0004FEA41037FEA226C18BF7FEA236C11D000
:100CD00001B052EA530C18BF90EA010F58BFB2EBB3
:100CE000030088BFC81738BF6FEAE17018BF40F033
:100CF000010070477FEA226C02D15FEA402C05D1E7
:100D00007FEA236CE4D15FEA412CE1D05DF8040B6B
:100D1000704700BF844608466146FFE70FB5FFF7FE
:100D2000C9FF002848BF10F1000F0FBD4DF808EDB6
:100D3000FFF7F4FF0CBF012000205DF808FB00BFA7
:100D40004DF808EDFFF7EAFF34BF012000205DF801
:100D500008FB00BF4DF808EDFFF7E0FF94BF01204E
:100D600000205DF808FB00BF4DF808EDFFF7D2FF4B
:100D700094BF012000205DF808FB00BF4DF808ED8E
:100D8000FFF7C8FF34BF012000205DF808FB00BF5B
:100D900000B58BB00021009108AB01AA00F09AFFCA
:100DA00070B1009B4BB14FF0E0234FF08052C3F87D
:100DB000042DBFF34F8FBFF36F8F0BB05DF804FBB3
:100DC00000236A4601A90248006802F0C2F9E8E778
:100DD0000002002008B501F074F90146014803F053
:100DE00067FF08BD586F000810B514464FF0FF3379
:100DF00092B2024801F029FF204610BDA404002051
:100E000072B6FEE700B591B02822002106A803F0D3
:100E1000E7FA0023019302930393049305930122BD
:100E200006924FF4803307930A9202220D920E939A
:100E30004FF4E0130F9306A801F074F980B90F2363
:100E4000019302210291002303934FF480620492E4
:100E5000059301A801F098FB20B911B05DF804FBDF
:100E6000FFF7CEFFFFF7CCFF00B58BB001F02CF9F8
:100E7000FFF7C8FF00F03EF800F092FB00F08AF99F
:100E800000F0D6F9154800F0F7FE90B901AB03AABF
:100E90000021124800F01EFF0028F7D048F602415A
:100EA0000E4800F0CCFF48B10D4803F087FFFFF774
:100EB000A7FF0C4803F082FFFFF7A2FF00F012F932
:100EC000094BD3F80012D3F80422084803F0F0FECF
:100ED000074803F073FF02F00DFFFEE77C040020DB
:100EE000906F0008706F000800640040B46F000845
:100EF000D06F0008F0B589B00024049405940694DE
:100F00000794294B9A6942F010029A619A6902F09B
:100F100010020092009A9A6942F020029A619A693E
:100F200002F020020192019A9A6942F004029A6149
:100F30009A6902F004020292029A9A6942F0080247
:100F40009A619B6903F008030393039B174F2246A2
:100F50004FF40051384601F023FD154E01221021B7
:100F6000304601F01DFD4FF4005304930125059513
:100F700006940223079304A9384601F0FFFB1023CF
:100F800004930595069407950DEB0301304601F097
:100F9000F5FB4FF4006304930594069504A90548F6
:100FA00001F0ECFB09B0F0BD001002400010014060
:100FB00000080140000C014070B58CB04FF0FF32CA
:100FC00003A90E4B186802F02BF90128F6D101F0A5
:100FD0008DF801460A4C204600F0ECF90A9D029576
:100FE000039E01F083F80346064A126800922A46DF
:100FF0003146204600F09EF9E0E700BF00020020E5
:1010000004020020240200202DE9F0418AB0294882
:1010100003F0D4FE13E02846FFF706FA06460F4613
:101020002046FFF701FACDE902014046FFF7FCF93F
:10103000CDE9000132463B461F4803F039FE4FF030
:10104000FF3204A91D4B186802F0EAF80128F6D116
:101050004FF400511A4801F0A9FC089B0093079B2C
:10106000069A0599049800F0BDF90546DDF824803C
:1010700001464046FFF70CFD20F000441149204690
:10108000FFF77CFE0028C6D02846FFF7CDF90646BC
:101090000F462046FFF7C8F9CDE902014046FFF7A9
:1010A000C3F9CDE9000132463B46074803F000FE94
:1010B000C5E700BF04700008647000082402002027
:1010C000001001400000C84238700008034B036064
:1010D000034B0B6080231360704700BF280400207F
:1010E0002802002010B58EB0244800F01DF900221F
:1010F0002421402001F045FF214B186060B30022FD
:101100001821012001F03DFF1E4B186068B31E4CF2
:101110000DF11C0CA646BEE80F00ACE80F009EE8DF
:1011200007008CE80700002107A802F0E8FD174B34
:101130001860EE4604F11C0CBCE80F00AEE80F008E
:101140009CE807008EE807000021684602F0D7FD02
:101150000F4B18600EB010BD4FF0500383F3118891
:10116000BFF36F8FBFF34F8FFEE74FF0500383F352
:101170001188BFF36F8FBFF34F8FFEE7040200208B
:101180000002002024020020206F0008F801002047
:10119000FC01002000B583B0204B214919600822D2
:1011A0005A6000229A604FF04070D8604FF43020AF
:1011B00018614FF4800058611A76012058769A76AB
:1011C000DA761A775877174BDA6942F00072DA61EB
:1011D000DB6903F000730193019B0B6823F00203AA
:1011E0000B604FF6FF7300E013460D4A526812F091
:1011F000020F02D05A1E002BF6D1084800F010FC56
:1012000028B9094803F0DAFD03B05DF804FB07488C
:1012100003F0D4FDFFF7F4FDF3E700BF7C040020EA
:101220000064004000100240A070000890700008A8
:1012300000B58BB00023059306930122079200931B
:10124000019302930393049308920E230993694632
:10125000054800F08BFC10B90BB05DF804FB0348A7
:1012600003F0ACFDF8E700BF7C040020B470000878
:1012700030B589B000230493059306930793026861
:10128000264B9A4201D009B030BD03F5D633DA6956
:1012900022F40002DA619A6942F008029A619A69BE
:1012A00002F008020192019ADA6942F00072DA61F2
:1012B000DA6902F000720292029A9A6942F001021F
:1012C0009A619B6903F001030393039B144A5368DB
:1012D00023F4C04343F0E06343F4804353604FF48E
:1012E000807304930024059406940E4D04A92846A7
:1012F00001F044FA4FF4007304930223059303238F
:10130000079304A9284601F039FA22460521142042
:1013100001F068FB142001F09DFBB4E7006400407D
:1013200000000140000C014008B52022002103F01C
:1013300057F808BD10B50446007E00B9E361A1F27C
:101340000111052933D8DFE801F0030C11161B2029
:10135000226040F001002076237E3F2B1AD000202F
:1013600010BD626040F002002076F5E7A26040F018
:1013700004002076F0E7E26040F008002076EBE71A
:10138000226140F010002076E6E7626140F0200024
:101390002076E1E7022300222146029801F015FEA3
:1013A00020220021204603F01BF80120D8E700206E
:1013B000D6E70000027E8AB110B50446C369CB1A95
:1013C000B3F5FA6F00D810BD1146054803F070FC64
:1013D00020220021204603F003F8F4E7704700BF05
:1013E000D8700008F8B5074615461C46069E4849C1
:1013F0003046FFF7AFFC00282DD046492046FFF7C6
:10140000A9FC00286BD144492046FFF7A3FC68B132
:1014100042493846FFF79EFC002862D140493046D9
:10142000FFF798FC00285ED03E4859E03E49284628
:10143000FFF790FC38B13A493046FFF78BFC0028A3
:1014400053D03A484CE03A493846FFF783FC00282D
:101450004DD0384844E038493046FFF77BFC00283F
:101460002CD036492046FFF775FCA0B13449204600
:10147000FFF770FC38B133492046FFF76BFC0028BA
:1014800037D031482CE031492046FFF763FC002873
:1014900031D02F4824E02F492046FFF75BFC30B1C4
:1014A0002D492046FFF756FC38B32C4818E02C494C
:1014B0002046FFF74FFC10B32A4811E02A49204686
:1014C000FFF748FCE8B129492046FFF743FCD0B9B3
:1014D00027492046FFF73EFCB8B1264800E000202F
:1014E000F8BD2548FCE72548FAE72548F8E700203D
:1014F000F6E72448F4E72448F2E72448F0E72448D4
:10150000EEE72448ECE72448EAE72448E8E700BF90
:10151000EC51383ECDCC3B423D0A3C42EC51F83FC9
:10152000295C8F3D0A0753447B14CE40CDCC364214
:10153000B81E2540A430E5433333B33E0AD7BB4140
:10154000C3F5AA415C8FA841AE0FB4447B14AE41F1
:10155000B816B544D7A32542AE47F1417B74B544D4
:10156000EC512B4229E4B5440AD73442E17A2042B7
:1015700052B82C42CDF4B644A4306C438FC2104410
:1015800033338B40B89EB244EC61B344E1B2B4440F
:101590001F25B544D7036044719DB444CD4CB54478
:1015A00008B50A480A4B03604FF4E1334360002357
:1015B0008360C36003610C2242618361C36101F0F7
:1015C00014FB00B908BDFFF71BFCFBE7A4040020D7
:1015D0000038014010B586B00023029303930493B2
:1015E00005930268174B9A4201D006B010BD03F56F
:1015F00058439A6942F480429A619A6902F480429F
:101600000092009A9A6942F004029A619B6903F081
:1016100004030193019B4FF400730293022303938D
:1016200003230593084C02A9204601F0A7F84FF4C4
:101630008063029300230393049302A9204601F0E0
:101640009DF8D2E70038014000080140FEE7FEE7C0
:10165000FEE7FEE7FEE7704708B5024800F0C1F874
:1016600008BD00BFEC04002008B5024800F004FCEF
:1016700008BD00BF7C04002000B583B0114B9A69FF
:1016800042F001029A619A6902F001020092009A06
:10169000DA6942F08052DA61DB6903F0805301932A
:1016A000019B00220F216FF0010001F09BF9064A17
:1016B000536823F0E06343F08063536003B05DF848
:1016C00004FB00BF001002400000014030B589B0AB
:1016D0000446224BDA6942F00102DA61DB6903F069
:1016E00001030193019B02A903A801F029F8069BBD
:1016F000D3B901F005F803461948A0FB03239B0C5E
:10170000013B18484FF08042026040F2E732C2606D
:101710004360002303618360836100F053F9054651
:1017200030B1284609B030BD00F0EAFF4300E3E7DE
:101730000C4800F01DF805460028F2D11C2001F0ED
:1017400089F90F2C01D90125EBE7002221461C2045
:1017500001F048F9044B1C60E3E700BF00100240B1
:1017600083DE1B43EC0400200000002070470000D3
:1017700090F83D30DBB2012B27D1022380F83D30B9
:101780000268D36843F00103D3600368114A9342AF
:1017900010D0B3F1804F0DD0A2F59432934209D00E
:1017A00002F58062934205D01A6842F001021A6085
:1017B000002070479A6802F00702062A07D01A68CC
:1017C00042F001021A60002070470120704700209B
:1017D000704700BF002C014070477047704770474A
:1017E000704770B504460368DE681D6915F0020F86
:1017F00010D016F0020F0DD06FF002021A61012313
:10180000037703689B6913F0030F5ED0FFF7E6FFD1
:101810000023237715F0040F12D016F0040F0FD019
:1018200023686FF004021A610223237723689B69FF
:1018300013F4407F4FD02046FFF7D0FF00232377DB
:1018400015F0080F12D016F0080F0FD023686FF0B4
:1018500008021A61042323772368DB6913F0030F5E
:1018600040D02046FFF7BAFF0023237715F0100F72
:1018700012D016F0100F0FD023686FF010021A610B
:10188000082323772368DB6913F4407F31D0204697
:10189000FFF7A4FF0023237715F0010F02D016F005
:1018A000010F2DD115F0800F02D016F0800F2FD12F
:1018B00015F0400F02D016F0400F31D115F0200F77
:1018C00002D016F0200F33D170BDFFF786FF2046FF
:1018D000FFF785FF9CE72046FFF77FFF2046FFF7D5
:1018E0007EFFABE72046FFF778FF2046FFF777FF44
:1018F000BAE72046FFF771FF2046FFF770FFC9E700
:1019000023686FF001021A612046FFF765FFC9E7FF
:1019100023686FF080021A61204600F080F8C7E764
:1019200023686FF040021A612046FFF759FFC5E7B0
:1019300023686FF020021A61204600F06FF8C3E7B9
:1019400003681F4A90420AD0B0F1804F07D0A2F539
:101950009432904203D002F58062904203D123F08A
:1019600070034A681343164A90420AD0B0F1804F80
:1019700007D0A2F59432904203D002F580629042E3
:1019800003D123F44073CA68134323F080034A69E8
:10199000134303608B68C3620B688362084B9842F1
:1019A0000AD001234361036913F0010F03D00369D7
:1019B00023F00103036170470B690363F1E700BF84
:1019C000002C014040B310B5044690F83D30F3B10F
:1019D000022384F83D30214651F8040BFFF7B0FF95
:1019E000012384F8463084F83E3084F83F3084F890
:1019F000403084F8413084F8423084F8433084F831
:101A0000443084F8453084F83D30002010BD80F823
:101A10003C30FFF7ABFEDBE70120704770477047B3
:101A2000002800F0A18038B5044690F82030D3B1EA
:101A30002268136843F00103136000F057FB05466A
:101A400023685A6812F0010F10D100F04FFB401BC1
:101A50000A28F5D9636A43F400336362052384F8E6
:101A60002030012038BDFFF703FCE1E71A6822F0BF
:101A700002021A6000F03AFB054623685A6812F029
:101A8000020F0DD000F032FB401B0A28F5D9636A23
:101A900043F400336362052384F820300120E1E73A
:101AA000227E012A3DD01A6822F080021A60637EED
:101AB000012B3BD02268136823F040031360A37E00
:101AC000012B39D02268136823F020031360E37ED2
:101AD000012B37D02268136843F010031360237F73
:101AE000012B35D02268136823F008031360637F4D
:101AF000012B33D02268136823F004031360A3681A
:101B0000E268134322691343626913436268013A2E
:101B100021681343CB6100206062012384F82030E8
:101B2000A0E71A6842F080021A60C0E722681368D2
:101B300043F040031360C2E72268136843F02003B8
:101B40001360C4E72268136823F010031360C6E72C
:101B50002268136843F008031360C8E7226813681B
:101B600043F004031360CAE701207047026890F84D
:101B70002030013BDBB2012B05D9436A43F48023BB
:101B800043620120704710B5D2F8003243F00103E0
:101B9000C2F800324B6903F01F03012000FA03F37F
:101BA000D2F81C026FEA030C20EA0300C2F81C0200
:101BB000C869C0B9D2F80C020CEA0000C2F80C02E5
:101BC0008C884869D1F80CE044EA0E44483042F869
:101BD00030400C884869D1F808E044EA0E444830A7
:101BE00002EBC0004460C86901281AD0886988BB2C
:101BF000D2F804020CEA0000C2F80402086978BBBB
:101C0000D2F814020CEA0000C2F81402096A012991
:101C10002CD0D2F8003223F00103C2F800320020A9
:101C200010BDD2F80C021843C2F80C028C88486927
:101C3000D1F800E044EA0E44483042F830408C8944
:101C40004869D1F808E044EA0E44483002EBC0008D
:101C50004460CBE7D2F804021843C2F80402CDE78F
:101C6000D2F814021843C2F81402CFE7D2F81C12BB
:101C70000B43C2F81C32CCE770B5044690F82050F4
:101C8000EDB2012D06D0436A43F4002343620125DF
:101C9000284670BD022380F820300268136823F0C4
:101CA0000103136000F022FA064623685B6813F014
:101CB000010F0CD000F01AFA831B0A2BF5D9636AC6
:101CC00043F400336362052384F82030E0E7002505
:101CD0006562DDE790F820C00CF1FF3C5FFA8CFCF8
:101CE000BCF1010F00F2A58030B451B90468E4687A
:101CF00014F0030F10D1436A43F400134362012030
:101D00007EE00468246914F0030F05D1436A43F4AC
:101D100000134362012073E0056801F11B042401F4
:101D20002C5904F004049460002C6BD1056801F177
:101D30001B0424012C59640D1460046801F11B0C70
:101D40004FEA0C1C54F80C4004F00204D460046800
:101D5000A444DCF8045015F0080F5BD0082414618B
:101D6000056801F11B0C05EB0C156D68C5F3072523
:101D70009561046804EB0C146468240C54610268D7
:101D800002EB0112D2F8B8211A70026802EB0112BC
:101D9000D2F8B821C2F307225A70026802EB01128E
:101DA000D2F8B821C2F307429A70026802EB01121E
:101DB000D2F8B821120EDA70026802EB0112D2F8E2
:101DC000BC211A71026802EB0112D2F8BC21C2F3E5
:101DD00007225A71026802EB0112D2F8BC21C2F349
:101DE00007429A71026802EB0112D2F8BC21120E6E
:101DF000DA71C1B90268D36843F02003D3600020D0
:101E000030BC7047056801F11B0424012C59E4081B
:101E1000546092E701F11B0504EB0514646804F0BB
:101E20000F0414619CE70268136943F020031361F7
:101E3000E5E7436A43F4802343620120704790F84A
:101E40002030013BDBB2012B05D9436A43F48023E8
:101E500043620120704702685369194351610020B1
:101E600070477047704770477047704770477047BA
:101E700070477047704770472DE9F84F0546036873
:101E80005C69D3F804809F68D3F80CB0D3F810A035
:101E9000D3F8189014F001063BD017F0010616D0C5
:101EA00001229A6017F0020F08D117F0040F0CD12D
:101EB00017F0080606D04FF4805608E0FFF7D1FF70
:101EC000002604E0FFF7D0FF01E04FF4006617F4AE
:101ED000807F0DD02B684FF480729A6017F4007FDA
:101EE00040F0868017F4806F00F0868046F400563C
:101EF00017F4803F0DD02B684FF480329A6017F4AE
:101F0000003F40F0838017F4802F00F0838046F478
:101F1000004614F0080F07D01BF0100F04D046F451
:101F200000762B681022DA6014F0040F02D01BF048
:101F3000080F79D114F0020F04D02B68DB6813F07E
:101F4000030F78D114F0400F07D01AF0100F04D00F
:101F500046F480662B6810221A6114F0200F02D01C
:101F60001AF0080F6BD114F0100F04D02B681B6906
:101F700013F0030F6AD114F4003F02D018F0100FD1
:101F800068D114F4803F02D018F0080F69D114F41E
:101F9000004F7AD018F0040F74D014F4807F04D06E
:101FA00019F0010F01D046F0010614F4007F04D0AF
:101FB00019F0020F01D046F0020614F4806F04D02D
:101FC00019F0040F01D046F0040614F4006F59D044
:101FD00019F0700956D0B9F1400F65D058D8B9F151
:101FE000200F5ED0B9F1300F42D146F0200644E018
:101FF0002846FFF737FF7BE717F4006F02D046F45F
:10200000804675E72846FFF730FF71E72846FFF75F
:102010002AFF7EE717F4002F02D046F4803678E7D7
:102020002846FFF723FF74E72B680822DA6028466A
:10203000FFF71DFF7EE72846FEF7AAFE82E72B6822
:1020400008221A612846FFF714FF8CE72846FFF79D
:102050000FFF90E72B6810225A602846FFF70AFF0F
:102060008FE72B6808225A602846FFF704FF8EE7A7
:10207000B9F1100F01D146F008062A68936923F0E0
:10208000700393612B6804225A609EB9BDE8F88FF3
:10209000B9F1500F0BD0B9F1600FEED146F4807654
:1020A000EBE746F01006E8E746F04006E5E746F0C5
:1020B0008006E2E76B6A1E436E622846FEF78AFEE0
:1020C000E4E7406A7047000008B5074A136843F028
:1020D00010031360032000F073FC0F20FFF7F6FAE3
:1020E000FFF7CAFA002008BD00200240014B186823
:1020F000704700BF3405002082B0084B1B68084AB7
:10210000A2FB03235B0A00FB03F3019300BF019BC7
:102110005A1E0192002BF9D102B070470400002032
:10212000D34D6210002800F0F18170B582B00446F2
:10213000036813F0010F2CD0994B5B6803F00C037C
:10214000042B1DD0964B5B6803F00C03082B12D0B8
:102150006368B3F5803F41D0002B55D103F1804334
:1021600003F504331A6822F480321A601A6822F4E4
:1021700080221A6037E08A4B5B6813F4803FE7D017
:10218000874B1B6813F4003F03D06368002B00F0FB
:10219000BF81236813F0020F75D0814B5B6813F089
:1021A0000C0F5FD07E4B5B6803F00C03082B54D000
:1021B0002369002B00F08A807A4B01221A60FFF716
:1021C00095FF0546764B1B6813F0020F75D1FFF79C
:1021D0008DFF401B0228F5D903209EE1704A136849
:1021E00043F480331360636843B3FFF77FFF054612
:1021F0006B4B1B6813F4003FCBD1FFF777FF401BFD
:102200006428F5D9032088E1B3F5A02F09D0644BE9
:102210001A6822F480321A601A6822F480221A6046
:10222000E1E703F18043A3F53C331A6842F48022CE
:102230001A601A6842F480321A60D4E7FFF756FF3A
:102240000546574B1B6813F4003FA2D0FFF74EFF23
:10225000401B6428F5D903205FE1514B5B6813F400
:10226000803FA5D14E4B1B6813F0020F03D02369AA
:10227000012B40F04F814A4A136823F0F80361694B
:1022800043EAC1031360236813F0080F33D0A36936
:10229000002B5CD0434B0122C3F88024FFF726FFBC
:1022A00005463F4B5B6A13F0020F21D1FFF71EFF7B
:1022B000401B0228F5D903202FE1394A136823F087
:1022C000F803616943EAC1031360DCE7354B002280
:1022D0001A60FFF70BFF0546314B1B6813F0020F26
:1022E000D1D0FFF703FF401B0228F5D9032014E1EA
:1022F0000120FFF701FF236813F0040F00F0968020
:10230000274BDB6913F0805F34D1254BDA6942F04B
:102310008052DA61DB6903F080530193019B012550
:10232000214B1B6813F4807F26D0E368012B3DD03E
:10233000002B53D103F1804303F504331A6A22F0D2
:1023400001021A621A6A22F004021A6233E0154B83
:102350000022C3F88024FFF7C9FE0546104B5B6AD4
:1023600013F0020FC7D0FFF7C1FE401B0228F5D9BA
:102370000320D2E00025D3E70B4A136843F48073AF
:102380001360FFF7B3FE0646074B1B6813F4807F0C
:10239000CBD1FFF7ABFE801B6428F5D90320BCE04E
:1023A0000010024000004242007000405F4A136A81
:1023B00043F001031362E36833B3FFF797FE064669
:1023C0005A4B1B6A13F0020F2FD1FFF78FFE801BB1
:1023D00041F288339842F3D903209EE0052B09D0BF
:1023E000524B1A6A22F001021A621A6A22F004029F
:1023F0001A62E0E74D4B1A6A42F004021A621A6A46
:1024000042F001021A62D6E7FFF770FE0646474B1C
:102410001B6A13F0020F08D0FFF768FE801B41F221
:1024200088339842F3D9032077E0E5B9E369002BBC
:1024300072D03E4A526802F00C02082A56D0022B93
:1024400017D03B4B00221A66FFF750FE0446374B6D
:102450001B6813F0007F47D0FFF748FE001B0228DF
:10246000F5D9032059E0314AD36923F08053D36171
:10247000DCE72F4B00221A66FFF738FE05462B4B90
:102480001B6813F0007F06D0FFF730FE401B0228C8
:10249000F5D9032041E0236AB3F5803F1AD02349E0
:1024A0004B6823F47413226A606A024313434B603F
:1024B0001F4B01221A66FFF719FE04461B4B1B68CF
:1024C00013F0007F0ED1FFF711FE001B0228F5D993
:1024D000032022E0154A536823F40033A1680B431C
:1024E0005360DCE7002018E0002016E0012B16D036
:1024F0000E4B5B6803F48031226A914211D103F4E0
:102500007013626A93420ED1002006E001207047EA
:10251000012002E0012000E0002002B070BD012097
:10252000FBE70120F9E70120F7E700BF00100240B8
:10253000000042420F4B5B6803F00C02082A01D0F6
:102540000D487047C3F383420C49885C13F4803F05
:102550000BD0084B5B68C3F34043094AD35C064A7F
:1025600002FB00F0B0FBF3F07047064B03FB00F0FA
:10257000704700BF0010024000127A00107100087E
:102580002071000800093D00002800F0A08070B50F
:102590000D460446524B1B6803F007038B420BD2D7
:1025A0004F4A136823F007030B431360136803F0CB
:1025B00007038B4240F08D80236813F0020F17D081
:1025C00013F0040F04D0474A536843F4E0635360A8
:1025D000236813F0080F04D0424A536843F4605351
:1025E0005360404A536823F0F003A1680B435360E3
:1025F000236813F0010F31D06368012B20D0022B28
:1026000025D0384A126812F0020F64D035494A6862
:1026100022F0030213434B60FFF768FD0646314B7F
:102620005B6803F00C036268B3EB820F16D0FFF710
:102630005DFD801B41F288339842F0D9032045E0CC
:10264000284A126812F4003FE0D101203EE0254AFA
:10265000126812F0007FD9D1012037E0204B1B68AF
:1026600003F00703AB420AD91D4A136823F007039E
:102670002B431360136803F00703AB422DD123688B
:1026800013F0040F06D0174A536823F4E063E1689F
:102690000B435360236813F0080F07D0114A5368A7
:1026A00023F46053216943EAC1035360FFF742FFFB
:1026B0000C4B5B68C3F303130B4AD35CD8400B4B42
:1026C00018600B4B1868FFF701F8002070BD01205F
:1026D00070470120FAE70120F8E70120F6E700BF84
:1026E0000020024000100240247100080400002075
:1026F00000000020014B1868704700BF0400002054
:1027000008B5FFF7F7FF044B5B68C3F30223034AE6
:10271000D35CD84008BD00BF0010024034710008EF
:1027200008B5FFF7E7FF044B5B68C3F3C223034A16
:10273000D35CD84008BD00BF0010024034710008CF
:102740000F2303600B4B5A6802F0030242605A6881
:1027500002F0F00282605A6802F4E062C2605B68D4
:10276000DB0803F4E0630361034B1B6803F007031A
:102770000B607047001002400020024070B582B02C
:102780000024A446A6E0804DAA4210D007D97F4D70
:10279000AA420CD005F58035AA4208D013E0A5F571
:1027A0008015AA4203D005F57025AA4207D18A6890
:1027B000002A58D0012A51D04361082403E0A5F52E
:1027C0008015AA42F3D0BEF1FF0F4ED80646BEF1E7
:1027D000FF0F4CD84FEA8C0233680F25954023EA4F
:1027E000050304FA02F2134333604B6813F0805F71
:1027F0006ED0674B9A6942F001029A619B6903F0BF
:1028000001030193019B4FEA9C02951C614B53F815
:1028100025600CF003039D000F23AB4026EA03065E
:102820005D4B984229D003F58063984200F08E807A
:1028300003F58063984200F08B8003F58063984233
:1028400019D004231AE0CC68BDE7CC680434BAE799
:10285000CC680834B7E7CC680C34B4E703610824CB
:10286000B1E70024AFE70424ADE7061DAFE7ACF104
:1028700008029200B0E7032300E00023AB4033439B
:102880000232444D45F822304B6813F4801F61D06A
:10289000424A936843EA0E0393604B6813F4001FA7
:1028A0005ED03E4AD36843EA0E03D3604B6813F40C
:1028B000003F5BD0394A536843EA0E0353604B68CC
:1028C00013F4803F58D0354A136843EA0E0313606F
:1028D0000CF1010C0A6832FA0CF353D0012303FA0D
:1028E0000CF302EA030E33EA0202F1D14A68122A1B
:1028F0003FF649AF122A3FF666AF01A555F822F020
:10290000AF2700084728000851280008632800085E
:10291000C7270008C7270008C7270008C7270008DF
:10292000C7270008C7270008C7270008C7270008CF
:10293000C7270008C7270008C7270008C7270008BF
:10294000C72700084B28000857280008012395E7EF
:10295000022393E7114A936823EA0E0393609CE7EE
:102960000E4AD36823EA0E03D3609FE70B4A5368ED
:1029700023EA0E035360A2E7084A136823EA0E0312
:102980001360A5E702B070BD0000221000003110F6
:102990000010024000000140000801400004014016
:1029A0000AB101617047090401617047C36801EA17
:1029B000030221EA030141EA02410161704700007C
:1029C000074AD36823F4E0631B041B0C000200F4E5
:1029D000E060034343F0BF6343F40033D3607047C8
:1029E00000ED00E000B5194BDB68C3F30223C3F12F
:1029F000070CBCF1040F28BF4FF0040C03F1040EC8
:102A0000BEF1060F18D9033B4FF0FF3E0EFA0CFC47
:102A100021EA0C0199400EFA03F322EA0303194359
:102A200000280BDB0901C9B200F1604000F56140EC
:102A300080F800135DF804FB0023E5E700F00F00C9
:102A40000901C9B2024B1954F4E700BF00ED00E0E0
:102A500014ED00E0002807DB00F01F02400901230D
:102A60009340024A42F82030704700BF00E100E086
:102A7000026802F10C0353E8003F23F490730C3218
:102A800042E800310029F3D1026802F1140353E84F
:102A9000003F23F00103143242E800310029F3D152
:102AA000036B012B05D0202380F842300023036301
:102AB0007047026802F10C0353E8003F23F0100353
:102AC0000C3242E800310029F3D1ECE710B504469E
:102AD0000268136923F44053C1680B431361836890
:102AE0000269134342691A430168CB6823F4B05367
:102AF00023F00C031343CB600268536923F4407343
:102B000081690B4353610268134B9A4220D0FFF74F
:102B1000F7FD024602EB820202EB820263689B0031
:102B2000B2FBF3F20D48A0FB02314909642303FB19
:102B300011231B013233A0FB03235B0903F0F002D6
:102B400002EB011203F00F03216813448B6010BDE8
:102B5000FFF7E6FD0246DDE7003801401F85EB5137
:102B60002DE9F04383B005460E4617469946DDF839
:102B700028802C68246836EA04030CBF4FF0010C4F
:102B80004FF0000CBC4528D1B8F1FF3FF1D0FFF762
:102B9000ADFAA0EB0900404523D8B8F1000F22D0D0
:102BA0002B68DA6812F0040FE3D0802EE1D0402EBB
:102BB000DFD01A6812F0080FDBD0002401941A68E5
:102BC00001925B680193019B2846FFF751FF0823A0
:102BD0006B6485F84040012000E0002003B0BDE8B0
:102BE000F0830320FAE70320F8E760B310B504464A
:102BF00090F8413013B3242384F841302268D3681D
:102C000023F40053D3602046FFF760FF2268136966
:102C100023F4904313612268536923F02A0353611C
:102C20002268D36843F40053D360002060642023FB
:102C300084F8413084F84230606310BD80F8403041
:102C4000FEF7C8FCD7E7012070472DE9F04182B0BC
:102C50001E4690F84130DBB2202B56D104460D467B
:102C60009046002955D00AB901204FE00023436463
:102C7000212380F84130FFF739FA0746A4F8248071
:102C8000A4F82680A368B3F5805F02D04FF0000857
:102C900014E023692BB34FF000080FE0202384F8E1
:102CA0004130032032E038F8023B2268C3F30803C6
:102CB0005360E28C92B2013A92B2E284E38C9BB20E
:102CC00093B100963B46002280212046FFF748FF43
:102CD0000028E3D1002DE6D015F8012B23685A60B7
:102CE000E7E7A8460025E9E700963B460022402199
:102CF0002046FFF735FF18B9202384F8413005E05E
:102D0000202384F84130032000E0022002B0BDE817
:102D1000F0810120FAE7704700F1080343604FF0AB
:102D2000FF328260C36003610023036070470023A9
:102D30000361704743684B609A688A60516099608C
:102D40000861036801330360704730B40D68B5F162
:102D5000FF3F11D000F108031C465B681A68AA42C5
:102D6000FAD963684B6099608C60616008610368A0
:102D70000133036030BC70470469F2E703694168BE
:102D800082688A60416851605A68824206D0002297
:102D900002611A68013A1A601868704782685A60BE
:102DA000F5E710B5044601F055F9A26BE36B9A42C2
:102DB00004D0002401F070F9204610BD0124F9E789
:102DC00010B5044601F046F9A36B23B9012401F0C4
:102DD00063F9204610BD0024F9E770B50446154696
:102DE000866B026C5AB903681BB100200136A663DA
:102DF00070BD806800F01EFF0023A360F6E76DB988
:102E0000406801F0DFFA226C636813446360A268D3
:102E1000934219D3236863602846E7E7C06801F04E
:102E2000D1FA226C5142E3689B1AE3602268934214
:102E300002D2A3680B44E360022D01D00020D5E745
:102E400026B1013E0020D1E72846CFE70020CDE79C
:102E500008B50346026C62B10846D9681144D960CE
:102E6000D3F808C0614501D31968D960D96801F069
:102E7000A9FA08BD38B5054601F0ECF895F84540CB
:102E800064B201E0013C64B2002C0ADD6B6A43B11C
:102E900005F1240000F024FE0028F3D000F0B4FE79
:102EA000F0E7FF2385F8453001F0F6F801F0D2F89D
:102EB00095F8444064B201E0013C64B2002C0ADDA4
:102EC0002B6943B105F1100000F00AFE0028F3D091
:102ED00000F09AFEF0E7FF2385F8443001F0DCF8BB
:102EE00038BD38B5E0B10D46044601F0B3F82368AB
:102EF000E26B216C01FB0230A0600020A0636360E4
:102F0000013A02FB0133E360FF2384F8443084F884
:102F10004530FDB9236963B901F0BEF8012038BD21
:102F20004FF0500383F31188BFF36F8FBFF34F8FC0
:102F3000FEE704F1100000F0D3FD0028ECD04FF0C4
:102F4000E0234FF08052C3F8042DBFF34F8FBFF33F
:102F50006F8FE1E704F11000FFF7DEFE04F12400BB
:102F6000FFF7DAFED8E710B5034602980C4631B9F0
:102F70000060C36304640121FFF7B3FF10BD02606A
:102F8000F7E740B94FF0500383F31188BFF36F8F19
:102F9000BFF34F8FFEE7F0B583B00D4614460646EB
:102FA00001FB00F0483000F041FF074650B100231C
:102FB00080F846300090234600F14802294630460A
:102FC000FFF7D1FF384603B0F0BDF0B585B00192F0
:102FD00088B10F461D460446B1B1022D20D1E36BE6
:102FE000012B1DD04FF0500383F31188BFF36F8F77
:102FF000BFF34F8FFEE74FF0500383F31188BFF309
:103000006F8FBFF34F8FFEE7036C002BE5D04FF0BF
:10301000500383F31188BFF36F8FBFF34F8FFEE729
:1030200000F0F8FD064658B9019B002B48D04FF040
:10303000500383F31188BFF36F8FBFF34F8FFEE709
:1030400000263DE02A4639462046FFF7C6FE636A61
:103050007BB948B14FF0E0234FF08052C3F8042D04
:10306000BFF34F8FBFF36F8F01F016F8012005B04B
:10307000F0BD04F1240000F033FD0028F4D04FF03F
:10308000E0234FF08052C3F8042DBFF34F8FBFF3FE
:103090006F8FE9E701F000F80020E8E702A800F0F0
:1030A00065FD012619E0002384F8443021E0002367
:1030B00084F8453023E02046FFF7DCFE00F030FCCA
:1030C00000F0C8FFA26BE36B9A42BBD3022DB9D0CC
:1030D000019B002BDED0002EE0D000F0DDFF00F0E1
:1030E0008BFB00F0B7FF94F8442052B2B2F1FF3FDF
:1030F000D9D094F8452052B2B2F1FF3FD7D000F0BA
:10310000CBFF01A902A800F03DFDD8B92046FFF78A
:1031100048FE0028CFD0019904F1100000F0C8FC4F
:103120002046FFF7A7FE00F0FBFB0028C8D14FF0B8
:10313000E0234FF08052C3F8042DBFF34F8FBFF34D
:103140006F8FBDE72046FFF795FE00F0E9FB0020FA
:103150008DE72DE9F84390B10F4616461C4605460B
:10316000B1B1022C20D1EB6B012B1DD04FF05003DD
:1031700083F31188BFF36F8FBFF34F8FFEE74FF0DC
:10318000500383F31188BFF36F8FBFF34F8FFEE7B8
:10319000036C002BE5D04FF0500383F31188BFF38D
:1031A0006F8FBFF34F8FFEE701F03EF8EFF3118909
:1031B0004FF0500383F31188BFF36F8FBFF34F8F2E
:1031C000AA6BEB6B9A4206D3022C04D0002089F341
:1031D0001188BDE8F88395F845804FFA88F8AB6B05
:1031E000224639462846FFF7F8FDB8F1FF3F06D0E2
:1031F00008F101035BB285F845300120E7E76B6A0F
:103200000BB90120E3E705F1240000F069FC18B1D7
:1032100026B101203060DAE70120D8E70120D6E7A7
:10322000F0B585B0019290B10F460446C1B100F0EF
:10323000F1FC064600BB019B002B5ED04FF0500313
:1032400083F31188BFF36F8FBFF34F8FFEE74FF00B
:10325000500383F31188BFF36F8FBFF34F8FFEE7E7
:10326000036C002BE3D04FF0500383F31188BFF3BE
:103270006F8FBFF34F8FFEE700263EE039462046B2
:10328000FFF7E6FD013DA563236923B900F004FFC4
:10329000012005B0F0BD04F1100000F021FC002871
:1032A000F4D04FF0E0234FF08052C3F8042DBFF369
:1032B0004F8FBFF36F8FE9E700F0EEFE0020E8E7E5
:1032C00002A800F053FC012621E0002384F84430DA
:1032D00029E0002384F845302BE02046FFF7CAFDA3
:1032E00000F01EFB09E02046FFF7C4FD00F018FBCC
:1032F0002046FFF765FD00283FD100F0ABFEA56B2F
:10330000002DBBD1019B002BD6D0002ED8D000F0D1
:10331000C3FE00F071FA00F09DFE94F844305BB2F9
:10332000B3F1FF3FD1D094F845305BB2B3F1FF3F2A
:10333000CFD000F0B1FE01A902A800F023FC0028C4
:10334000D1D12046FFF73CFD0028C6D0019904F1F9
:10335000240000F0ADFB2046FFF78CFD00F0E0FA02
:103360000028CAD14FF0E0234FF08052C3F8042D5B
:10337000BFF34F8FBFF36F8FBFE7002089E70000D7
:10338000084B1B681B6823B9074B4FF0FF321A60CC
:103390007047044B1B68DB68DB685A68024B1A6095
:1033A000704700BF3C050020E80500202DE9F047EC
:1033B00007469846089DDDF824900A9C266B02F18A
:1033C0008042013A06EB820626F0070600293AD031
:1033D0008E464FF0000CBCF10F0F0BD81EF80C20DE
:1033E00004EB0C0383F834201EF80C3013B10CF1FD
:1033F000010CF0E7002384F84330042D00D90425A4
:10340000E56265644FF0000AC4F848A0201DFFF78C
:103410008EFC04F11800FFF78AFC2461C5F1050554
:10342000A5616462C4F84CA084F850A042463946B5
:10343000304600F0E7FD2060B9F1000F01D0C9F877
:103440000040BDE8F087002384F83430D5E7000061
:1034500038B5002407E004EB840293000E481844BA
:10346000FFF75AFC0134042CF5D90C4D2846FFF720
:1034700053FC0B4C2046FFF74FFC0A48FFF74CFC6F
:103480000948FFF749FC0948FFF746FC084B1D6057
:10349000084B1C6038BD00BF44050020BC0500205F
:1034A000D0050020F4050020200600200C06002096
:1034B0003C0500204005002010B5044600F0CAFD80
:1034C000214A136801331360204B1B685BB1204B0A
:1034D0001B686BB91D4B1B68DA6AE36A9A4207D80E
:1034E0001A4B1C6004E0194B1C601368012B28D098
:1034F000184A136801331360E06A01238340164AB7
:1035000011680B43136000EB8000211D134B03EB8C
:103510008000FFF70FFC00F0BFFD0D4B1B687BB177
:103520000A4B1B68DA6AE36A9A4209D24FF0E02339
:103530004FF08052C3F8042DBFF34F8FBFF36F8F4E
:1035400010BDFFF785FFD3E7A80500203805002050
:1035500008060020B4050020B8050020440500201E
:1035600010B5044690F8513063B1012B11D0022BF5
:103570000ED04FF0500383F31188BFF36F8FBFF36A
:103580004F8FFEE7006B00F0CFFC204600F0CCFC34
:1035900010BD00F0C9FCFBE70F4B1B68D3B110B5A1
:1035A00000F058FD0D4BDB68DC68201DFFF7E6FBE3
:1035B0000B4A1368013B1360074A1368013B136011
:1035C00000F06AFD2046FFF7CBFF034B1B68002B82
:1035D000E6D110BD704700BFAC05002020060020DA
:1035E000A805002008B5FFF7D7FF074B1B68012B84
:1035F000F9D94FF0E0234FF08052C3F8042DBFF308
:103600004F8FBFF36F8FEEE74405002070B504467F
:103610000D461D4B1E681D4B18680430FFF7AEFBAE
:1036200050B91A4B1B68DA6A012303FA02F21849EF
:103630000B6823EA02030B60B4F1FF3F0DD0344462
:10364000124B1B685C60A64210D9124B18680F4BD6
:1036500019680431FFF779FB70BD002DEFD00B4BDB
:10366000196804310C48FFF765FBF5E70B4B186848
:10367000064B19680431FFF768FB094B1B68A3422E
:10368000EAD9074B1C60E7E7340600203805002024
:10369000B8050020400500200C0600203C05002055
:1036A000E805002030B587B00B9C7CB10C9DB5B10E
:1036B00054250495049D542D1AD04FF0500383F3E4
:1036C0001188BFF36F8FBFF34F8FFEE74FF05003AA
:1036D00083F31188BFF36F8FBFF34F8FFEE74FF077
:1036E000500383F31188BFF36F8FBFF34F8FFEE753
:1036F000049D0C9D2C63022485F851400024039402
:10370000029505AC01940A9C0094FFF74FFE0C98BB
:10371000FFF7D2FE059807B030BD2DE9F04385B024
:103720000746884614461E46900000F07FFB00B313
:103730008146542000F07AFB0546B0B1C0F83090C5
:10374000E5B1002385F85130039302950D9B019359
:103750000C9B00933346224641463846FFF726FE2F
:103760002846FFF7A9FE012005E0484600F0DCFBF3
:10377000E6E74FF0FF3005B0BDE8F0834FF0FF30D3
:10378000F9E7000010B588B000240594069407AA54
:1037900006A905A8FDF79AFC059B0293069B0193D9
:1037A00000942346079A0E490E48FFF77BFF0E4B05
:1037B000186090B14FF0500383F31188BFF36F8FFF
:1037C000BFF34F8F094B4FF0FF321A60084B0122B5
:1037D0001A60084B1C6000F0C7FC08B010BD00BFA9
:1037E0003C710008E5350008E4050020E8050020EC
:1037F0000806002034060020024A136801331360D3
:10380000704700BFB0050020F8B53A4B1B68002B8D
:1038100069D1394B1D6801351D60C5B9374B1B682F
:103820001B6843B14FF0500383F31188BFF36F8FD0
:10383000BFF34F8FFEE7314A1168314B18681060B3
:103840001960304A136801331360FFF799FD2E4B5E
:103850001B68AB423DD900272C4B1B68DB6A03EB8E
:1038600083039A002A4B9B58012B00D90127294B2F
:103870001B68002B3CD001273AE001271F4B1B6837
:103880001B6843B31D4B1B68DB68DC6863689D42A3
:1038900026D3261D3046FFF771FAA36A1BB104F147
:1038A0001800FFF76BFAE36A01229A401A49086888
:1038B00002430A6003EB83039A0031461448104424
:1038C000FFF738FAE26A114B1B68DB6A9A42D4D2DE
:1038D000D4E70027D2E70C4B4FF0FF321A60BBE76A
:1038E000094A1360B8E70D4A1368013313600027D3
:1038F0003846F8BDB0050020340600203C05002005
:1039000040050020EC050020E805002038050020D7
:103910004405002038060020B8050020F0050020EE
:1039200038B5354B1B6843B94FF0500383F311880A
:10393000BFF36F8FBFF34F8FFEE700F08BFB2E4B73
:103940001A68013A1A601B68002B4FD12B4B1B6879
:103950000BB900244BE00024294B1B681BB3284BF8
:10396000DB68DC6804F11800FFF708FA251D28461B
:10397000FFF704FAE06A01238340224A11680B43EF
:10398000136000EB800029461F4B03EB8000FFF71C
:10399000D1F9E26A1D4B1B68DB6A9A42DCD31C4BEF
:1039A00001221A60D8E70CB1FFF7EAFC194B1C683A
:1039B00084B9174B1C68D4B14FF0E0234FF080520C
:1039C000C3F8042DBFF34F8FBFF36F8F01240EE0B8
:1039D000013C07D0FFF718FF0028F9D00C4B01225B
:1039E0001A60F5E70B4B00221A60E2E7002400F0B2
:1039F00053FB204638BD00BFB0050020A8050020BD
:103A0000F4050020B80500204405002038050020FA
:103A100038060020F0050020204B1B681BB1204B0E
:103A200001221A6070471E4B00221A601D4B1B6852
:103A3000B3FA83F3DBB2C3F11F0303EB83018A0004
:103A400019498A5842B94FF0500383F31188BFF3E4
:103A50006F8FBFF34F8FFEE7134903EB83008200A4
:103A60000A4450684068506003EB830C4FEA8C02B4
:103A700008321144884209D003EB83039A000A4BB1
:103A800013445B68DA68094B1A6070474068624605
:103A90009100054A0A445060EEE700BFB0050020DF
:103AA00038060020B8050020440500203805002015
:103AB00058B110B50C46094A11681831FFF745F99D
:103AC00001212046FFF7A2FD10BD4FF0500383F304
:103AD0001188BFF36F8FBFF34F8FFEE738050020CB
:103AE00038B5C368DC6824B304F118052846FFF72D
:103AF00045F9184B1B682BBB251D2846FFF73EF9DF
:103B0000E06A01238340144A11680B43136000EB01
:103B100080002946114B03EB8000FFF70BF9E26AA6
:103B20000F4B1B68DB6A9A4211D901200D4B1860BC
:103B300038BD4FF0500383F31188BFF36F8FBFF38D
:103B40004F8FFEE729460848FFF7F4F8E7E7002023
:103B5000EEE700BFB0050020B805002044050020B6
:103B60003805002038060020F4050020034B1B68B0
:103B70000360034B1B684360704700BFEC050020E7
:103B800034060020D8B170B50C46054601B300F0EC
:103B900061FA1B4B19686B68C81A2268B2F1FF3FC3
:103BA00027D0184E3668D5F800C0B44501D08B42F6
:103BB00024D9824215D80023236001241AE04FF053
:103BC000500383F31188BFF36F8FBFF34F8FFEE76E
:103BD0004FF0500383F31188BFF36F8FBFF34F8F04
:103BE000FEE75B1A134423602846FFF7BFFF00245B
:103BF00000E0002400F050FA204670BD0124F9E7EF
:103C000034060020EC050020014B01221A607047A9
:103C100038060020054B1B6833B1054B1B680BB100
:103C200000207047022070470120704708060020DE
:103C3000B005002000284CD038B50446274B1B683F
:103C4000834208D04FF0500383F31188BFF36F8F86
:103C5000BFF34F8FFEE7836C43B94FF0500383F3FC
:103C60001188BFF36F8FBFF34F8FFEE7013B836473
:103C7000C16A426C91422ED00BB1002038BD051DA7
:103C80002846FFF77BF870B9E26A02EB82039B00DB
:103C90001349CB583BB9012303FA02F211490B68CF
:103CA00023EA02030B60606CE062C0F10503A361CC
:103CB000012404FA00F30B4A11680B43136000EB74
:103CC00080002946064B03EB8000FFF733F82046BF
:103CD000D4E7002070470020D0E700BF380500205F
:103CE00044050020B8050020842801D00330704727
:103CF0000020704708B5FFF745FD002008BD2DE9FD
:103D0000F04387B004460F464569BDB18669AEB140
:103D1000D0F80480D0F80090B0F90800FFF7E4FF75
:103D20000296019500903B46226949464046FFF7BE
:103D3000B9FC0590059807B0BDE8F0836568266872
:103D4000D4F81080B4F90800FFF7CEFF05AB01935B
:103D500000903B461FFA88F231462846FFF7DDFC0B
:103D60000128E7D00020E6E7124A12F0070F1ED024
:103D7000D11D21F00701C1F5005313440A460E4836
:103D80000260002141601344083B23F007030B4805
:103D9000036059601960991A51601360084B1960EB
:103DA000084B1960084B4FF000421A6070474FF4FF
:103DB0000053E4E740060020542600203C06002083
:103DC000482600204426002040260020154B1A4695
:103DD0001B688342FBD3516802EB010C844509D078
:103DE000416800EB010C634509D00360904218D094
:103DF000106070474068014451601046F0E710B40D
:103E0000094C2468A3420AD05B68194441601368D6
:103E10001B680360904200D0106010BC70470460C3
:103E2000F8E77047542600203C06002070B5054690
:103E3000FFF7E2FC364B1B68A3B1364B1B681D42F3
:103E40004ED135B1083515F0070F02D025F0070522
:103E50000835002D46D0304B1B68AB4251D32F4A5A
:103E6000146804E0FFF780FFE7E722461C4663681A
:103E7000AB4202D22368002BF7D1254B1B68A3422B
:103E800041D0166808362368136063685B1B102BEB
:103E900010D9601910F0070F08D04FF0500383F3CA
:103EA0001188BFF36F8FBFF34F8FFEE743606560EC
:103EB000FFF78CFF626818490B689B1A0B60184962
:103EC00009688B4201D216490B60124B1B681343E1
:103ED000636000232360134A13680133136002E018
:103EE000002600E00026FFF71BFD16F0070F0CD0A0
:103EF0004FF0500383F31188BFF36F8FBFF34F8FE1
:103F0000FEE70026EFE70026EDE7304670BD00BF74
:103F10003C06002040260020442600205426002095
:103F2000482600204C260020002834D038B504460E
:103F3000A0F1080550F8043C174A1268134208D152
:103F40004FF0500383F31188BFF36F8FBFF34F8F90
:103F5000FEE750F8081C41B14FF0500383F311887D
:103F6000BFF36F8FBFF34F8FFEE723EA020340F8E2
:103F7000043CFFF741FC54F8041C084A13680B4446
:103F800013602846FFF722FF054A136801331360C8
:103F9000FFF7C6FC38BD70474026002044260020AD
:103FA0005026002082B0002301930D4B1B68B3F113
:103FB000FF3F08D04FF0500383F31188BFF36F8F9A
:103FC000BFF34F8FFEE74FF0500383F31188BFF329
:103FD0006F8FBFF34F8F019B002BFCD002B0704757
:103FE0000800002006480068006880F3088862B670
:103FF00061B6BFF34F8FBFF36F8F00DF00BF0000CC
:1040000008ED00E04FF0807340F8043C21F001011E
:1040100040F8081C034B40F80C3C40F8202C40387A
:10402000704700BFA53F000800000000000000002E
:10403000074B19680868B0E8F00F80F30988BFF3F0
:104040006F8F4FF0000080F311884EF00D0E704717
:10405000380500204FF0500383F31188BFF36F8FB2
:10406000BFF34F8F0B4A136801331360012B00D04D
:1040700070474FF0E023D3F8043D13F0FF0FF7D063
:104080004FF0500383F31188BFF36F8FBFF34F8F4F
:10409000FEE700BF08000020094B1B6843B94FF042
:1040A000500383F31188BFF36F8FBFF34F8FFEE789
:1040B000013B034A13600BB983F31188704700BFBB
:1040C00008000020000000000000000000000000C8
:1040D000EFF30980BFF36F8F0D4B1A6820E9F00FE3
:1040E00010602DE908404FF0500080F31188FFF771
:1040F00093FC4FF0000080F31188BDE80840196878
:104100000868B0E8F00F80F30988BFF36F8F70473D
:104110003805002008B54FF0500383F31188BFF332
:104120006F8FBFF34F8FFFF76FFB28B14FF0E02386
:104130004FF08052C3F8042D002383F3118808BD8B
:104140004FF0E022002313619361054B1B68054982
:10415000A1FB03139B09013B5361072313617047C4
:1041600004000020D34D621010B582B02A4B1A789B
:10417000D2B20192FF221A701B78DBB28DF80330A5
:104180009DF8033003F05003244A1370244B072298
:104190001A6009E0224A1368013B13609DF803305E
:1041A0005B00DBB28DF803309DF8033013F0800F15
:1041B000F0D11B4B1B68032B08D04FF0500383F347
:1041C0001188BFF36F8FBFF34F8FFEE71B02144AB6
:1041D000136003F4E0631360019BDBB20E4A1370BB
:1041E0004FF0E023D3F8202D42F47002C3F8202DC5
:1041F000D3F8202D42F07042C3F8202DFFF7A0FF26
:104200000024084B1C60FFF7EDFEFFF705FCFFF7ED
:10421000C9FE204602B010BD00E400E05C2600208C
:104220006026002008000020EFF305830F2B0FD934
:10423000114A9B5CDBB2114A12789A4208D94FF0BE
:10424000500383F31188BFF36F8FBFF34F8FFEE7E7
:104250004FF0E023D3F80C3D03F4E063084A126802
:10426000934208D94FF0500383F31188BFF36F8F47
:10427000BFF34F8FFEE77047F0E300E05C260020BD
:104280006026002010B503460C4A0D490D48006811
:1042900040B10C4800680344521A934206D8094AB8
:1042A000136010BD0748084C0460F2E700F060F8A6
:1042B0000C2303604FF0FF30F3E700BF00500020F5
:1042C00000040000642600207826002001207047AA
:1042D00008B500F04DF8162303604FF0FF3008BD1D
:1042E00008B54FF0FF31FFF7F3FFFEE770B50C465E
:1042F0001646002506E0AFF30080214601F8010BC9
:1043000001350C46B542F6DB304670BD4FF0FF304C
:1043100070474FF400534B600020704701207047F6
:1043200000207047FEF7F7FC0B480C490C4A0023AD
:1043300002E0D458C4500433C4188C42F9D3094A5B
:10434000094C002301E013600432A242FBD300F0C9
:1043500015F8FCF789FD704700000020DC01002003
:104360006C750008DC01002078260020FEE70000C4
:10437000014B1868704700BF0C00002070B5002684
:104380000C4D0D4C641BA410A64209D102F0BCFDDB
:1043900000260A4D0A4C641BA410A64205D170BD2C
:1043A00055F8043B98470136EEE755F8043B98472B
:1043B0000136F2E76475000864750008647500084A
:1043C000687500080A44914200F1FF3300D170473C
:1043D00010B511F8014B914203F8014FF9D110BD0E
:1043E00003460244934200D1704703F8011BF9E7EA
:1043F000002B2DE9F0471F46BBBF03F100431F46CA
:1044000000232D2388B01446129A109D1370149B1C
:10441000DDF84CA023F02008B8F1460F05D0B8F124
:10442000450F00D10135022300E0032307AA0492BF
:1044300006AACDE902A2CDE9003522463B4600F0AE
:1044400013FEB8F1470F064602D1119BDB0722D5B8
:10445000B8F1460F06EB050910D13378302B0AD19D
:104460000022002320463946FCF79EFA18B9C5F110
:104470000105CAF80050DAF8003099440022002300
:1044800020463946FCF790FA08B1CDF81C9030224E
:10449000079B4B4507D33046079B159A9B1B136020
:1044A00008B0BDE8F087591C07911A70F0E7034681
:1044B000F7B5002903F8022BB6BF2D222B22494263
:1044C000092942702BDD0DF10704A4460A2791FB50
:1044D000F7F60A46A64607FB1615632A05F13005CE
:1044E000314604F1FF340EF8015CF0DC3031AEF1FE
:1044F000020504F8011C2946441C61450AD30DF14C
:104500000902A2EB0E02654588BF00221344181A67
:1045100003B0F0BD11F8012B04F8012FEDE73023B3
:1045200030318370C170031DF1E700002DE9F04FB9
:1045300091B00C46DDF8688016461F46054601F02E
:1045400035FD036818460993FBF702FE00230E931E
:10455000D8F800300A90073323F0070303F108026C
:1045600094F81890D4F800B0C8F80020D3E90023DC
:10457000C4E91223D4E9128A2AF000430B934FF0C6
:10458000FF3240469C4B0B99FCF740FA70BB4FF052
:10459000FF324046984B0B99FCF71AFA30BB0022C9
:1045A000002340465146FCF709FA10B12D2384F848
:1045B0004330924B9248B9F1470F94BF98468046DA
:1045C00003234FF0000A23612BF0040323603346DA
:1045D0002146284600970FAA00F0D4F9013040F098
:1045E00090804FF0FF3011B0BDE8F08F4246534647
:1045F00040465146FCF70AFA48B1BAF1000FB8BF7D
:104600002D238048B8BF84F843307F4BD3E76368DD
:1046100009F0DF015A1C42D1062363600022069292
:104620000EAACDE904920DAA4BF4806303920DF11A
:104630003302CDE901322360636842460093284685
:1046400053460B91FFF7D4FE0B99804647290D99ED
:1046500008D1C81C02DB6368994240DDA9F1020958
:104660005FFA89F9B9F1650F1FD84A46013904F19B
:1046700050000D91FFF71BFF0E9A82461318012A76
:10468000236102DC2268D20701D5013323619DF842
:104690003330002B9BD02D2384F8433097E74729F4
:1046A000BCD1002BBAD10123B7E7B9F1660F18D1FD
:1046B000002963680BDD216113B92268D00702D598
:1046C00001330B4423614FF0000AA165DFE713B902
:1046D0002268D20701D50233F4E70123F2E74FF055
:1046E00067090E9B994205DB23682161D807EAD54B
:1046F0004B1CE7E70029CCBF0122C1F102021344A1
:10470000E0E723685A0507D4236942463146284624
:10471000B84701302BD164E7B9F1650F40F2DD8075
:10472000D4E9120100220023FCF73EF9002833D01F
:10473000012331462846354AB84701303FF451AF8E
:10474000DDE90D239A4202DB2368D8070FD5DDE9A6
:10475000092331462846B84701303FF442AF4FF0B5
:10476000000804F11A090E9B013B434509DC23684C
:104770009B0700F10281E0680F9B9842B8BF184682
:1047800031E701234A4631462846B84701303FF415
:1047900028AF08F10108E6E70D9B002B38DC012368
:1047A00031462846194AB84701303FF41AAFDDE9CF
:1047B0000D23134302D12368D907D8D5DDE9092396
:1047C00031462846B84701303FF40BAF4FF000099F
:1047D00004F11A0A0D9B5B424B4501DC0E9B94E7EA
:1047E0000123524631462846B84701303FF4F9AE1E
:1047F00009F10109EEE700BFFFFFEF7F48710008F4
:104800004C7100085471000850710008587100087C
:104810000E9AA36D9A42A8BF1A46002A914637DC29
:104820004FF0000B29EAE97904F11A02D4F858A0F4
:10483000AAEB09035B4533DCDDE90D239A423BDB40
:104840002368DA0738D40E9B0D99A3EB0A02A3EB79
:1048500001099145A8BF9146B9F1000F34DC4FF032
:10486000000829EAE97904F11A0ADDE90D239B1A07
:10487000A3EB090343457FF77AAF01235246314644
:104880002846B84701303FF4ACAE08F10108ECE728
:104890001346314642462846B8470130C0D1A0E60B
:1048A0000123314628460B92B84701303FF499AEB8
:1048B0000B9A0BF1010BB9E73146DDE909232846D4
:1048C000B8470130BFD18CE64B463146284608EB4D
:1048D0000A02B8470130C2D183E60E9A012A01DCF0
:1048E000DB0737D50123424631462846B847013019
:1048F0003FF477AEDDE9092331462846B847013059
:104900003FF46FAED4E9120100220023FCF74CF80B
:10491000D8B90E9B08F10102013B31462846B84741
:1049200001300ED15DE601234A4631462846B8479C
:1049300001303FF456AE08F101080E9B013B4345A0
:10494000F1DC534604F15002E0E64FF0000804F1B8
:104950001A09F2E701234246DFE701234A463146BE
:104960002846B84701303FF43CAE08F10108E3683F
:104970000F995B1A4345F0DCFDE64FF0000804F1A7
:104980001909F4E72DE9F047164699468A680B693C
:1049900007469342B8BF1346336091F843200C4654
:1049A000DDF820800AB1013333602368990642BFE5
:1049B000336802333360256815F0060506D104F12B
:1049C000190AE36832689B1AAB4228DC94F843204A
:1049D000131E226818BF012392062DD4494638467B
:1049E00004F14302C047013020D02368E56803F09A
:1049F0000603042B18BF002532684FF00006A36899
:104A000008BFAD1A226908BF25EAE5759342C4BF05
:104A10009B1AED181A34B5421AD1002008E0012380
:104A2000524649463846C047013003D14FF0FF3067
:104A3000BDE8F0870135C4E73020E11881F8430074
:104A40005A1C94F845102244023382F84310C5E7FB
:104A50000123224649463846C0470130E6D0013698
:104A6000D9E700002DE9FF470F7E9146782F804659
:104A70000C469A460C9D01F1430207D8622F0AD8D2
:104A8000002F00F0D980582F00F0A48004F14205D7
:104A900084F842703AE0A7F16303152BF6D801A120
:104AA00051F823F0FD4A0008114B00088D4A000818
:104AB0008D4A00088D4A00088D4A0008114B0008F5
:104AC0008D4A00088D4A00088D4A00088D4A00086A
:104AD0001F4C0008414B0008014C00088D4A00089B
:104AE0008D4A0008414C00088D4A0008414B0008DF
:104AF0008D4A00088D4A0008094C00082B681A1DD1
:104B00001B682A6004F1420584F842300123A4E0C6
:104B100020682968060601F104030AD50E682B6097
:104B2000002E03DA2D23764284F843300A235E48B0
:104B300019E00E6810F0400F2B6018BF36B2EFE797
:104B40002B682068191D2960010601D51E6802E046
:104B50004606FBD51E886F2F0CBF08230A23524838
:104B6000002184F843106568002DA8BF2168A56066
:104B7000A4BF21F0040121600EB9002D4DD01546CF
:104B8000B6FBF3F103FB1167C75D05F8017D3746FE
:104B9000BB420E46F4D9082B0BD12368DE0708D59B
:104BA000236961689942DEBF302305F8013C05F1B5
:104BB000FF35521B22614B4621464046CDF800A0EE
:104BC00003AAFFF7DFFE01304CD14FF0FF3004B0F5
:104BD000BDE8F087344881F845702968236851F8AA
:104BE000046B29601D0614D5DF0744BF43F0200382
:104BF00023601EB9236823F0200323601023AFE74E
:104C0000236843F0200323607823284884F8453044
:104C1000E3E7590648BFB6B2E6E71546BBE72B689F
:104C20002668181D6169286035061B6801D5196062
:104C300002E07006FBD51980002315462361BAE710
:104C40002B6800211A1D2A601D686268284601F041
:104C500021FA08B1401B606063682361002384F877
:104C60004330A8E72A46494640462369D0470130E9
:104C7000ABD023689B0713D4E068039B9842B8BF6E
:104C80001846A4E70123324649464046D047013042
:104C90009BD00135E36803995B1AAB42F2DCEBE78A
:104CA000002504F11906F5E75A7100086B71000838
:104CB0000FB40A4B13B51C6824B1A36913B920467D
:104CC00001F0D6F805AB2046049AA168019301F0E3
:104CD00089FE02B0BDE8104004B070470C0000200F
:104CE00070B50E46054618B183690BB901F0C0F8DE
:104CF000AB69AC6813B9284601F0BAF82C4B9C425A
:104D000020D16C68636EDB0705D4A389980502D4B3
:104D1000A06D01F050F9A38919071DD52369DBB1F6
:104D2000013EA36816F8011F013BA36039BB002BAD
:104D300038DA22460A21284600F048F8013011D01E
:104D40000A2511E01B4B9C4201D1AC68DAE71A4BF3
:104D50009C4208BFEC68D5E72146284600F088F859
:104D60000028DDD04FF0FF35636EDA0705D4A38944
:104D70009B0502D4A06D01F01FF9284670BD002BE1
:104D800004DAA2699A4206DC0A2904D023685A1C74
:104D900022601970C5E72246284600F017F8013056
:104DA000BFD1DFE70A2523685A1C22601D70DBE7AC
:104DB000507200087072000830720008024B014601
:104DC0001868FFF78DBF00BF0C000020F8B50E4635
:104DD0001446054618B183690BB901F049F8214B17
:104DE0009C422BD16C68A369A360A3891A072FD5B5
:104DF00023696BB323692068F6B2C01A636937462A
:104E0000834204DC2146284600F09EFF30BBA368A5
:104E10000130013BA36023685A1C22601E70636945
:104E2000834204D0A389DB0706D50A2E04D121468C
:104E3000284600F089FF88B93846F8BD0A4B9C42E5
:104E400001D1AC68CFE7094B9C4208BFEC68CAE7C8
:104E50002146284600F00CF80028CBD04FF0FF3751
:104E6000EAE700BF50720008707200083072000854
:104E7000324B70B51D6806460C4625B1AB6913B9B7
:104E8000284600F0F5FF2E4B9C420FD16C68A38999
:104E9000B4F90C2019072CD4DD0611D40923336092
:104EA00042F040034FF0FF30A3813EE0254B9C428F
:104EB00001D1AC68EBE7244B9C4208BFEC68E6E705
:104EC000580712D5616B41B104F14403994202D0F5
:104ED000304601F083FC00236363A38923F024039D
:104EE000A3810023636023692360A38943F008033F
:104EF000A38123694BB9A38903F42073B3F5007F21
:104F000003D02146304601F07DF8A089B4F90C2089
:104F100010F001030AD00023A36063695B42A36120
:104F2000236943B910F08000BAD170BD810758BF22
:104F30006369A360F4E70020F7E700BF0C000020DE
:104F40005072000870720008307200082DE9F74FA7
:104F500003690C690746A342C0F28280013C00F15C
:104F6000140501F1140805EB8403019358F824306B
:104F700055F8242001339A42B2FBF3F64FEA840B32
:104F800008EB840931D34FF0000E4046AC46F246A0
:104F900050F8042B93B206FB03E3120C4FEA134EB6
:104FA0009BB206FB02E2AAEB0303DCF800A04FEA87
:104FB000124E1FFA8AFA5344DCF800A092B2C2EBF8
:104FC0001A4202EB23429BB243EA024381454FEA75
:104FD000224A4CF8043BDBD255F80B302BB9019B2D
:104FE000043B9D421A462FD33C61384601F0DEFA5D
:104FF000002825DB28464FF0000C013658F8041B2A
:10500000D0F800E08BB2ACEB03031FFA8EF213442E
:105010000A0CC2EB1E4202EB23429BB243EA02435C
:10502000C1454FEA224C40F8043BE7D255F8242012
:1050300005EB840322B9043B9D421A460AD33C6126
:10504000304603B0BDE8F08F1268043B002ACBD194
:10505000013CC6E71268043B002AF0D1013CEBE7B3
:105060000020EEE7000000002DE9F04F16461F4635
:10507000446A99B00546CDE90467DDF8948074B9B7
:10508000102000F0FFFF0246686220B9EA21A84B19
:10509000A84801F03DFEC0E901440460C4606B6AA9
:1050A000196851B15A68012393404A608B602846C1
:1050B00001F03EF800226B6A1A603B1EAFBF00236E
:1050C000012223F000430593A8BFC8F80030DDF8A3
:1050D0001490994BB8BFC8F8002033EA090319D1DE
:1050E00042F20F73249A1360C9F31303334300F0A1
:1050F0007F85269B53B9914B22E0914B0393083354
:10510000269A1360039819B0BDE8F08F8B4B039378
:105110000333F5E7DDE90434CDE90C34DDE90C01B6
:1051200000220023FBF740FC804658B10123249A5B
:105130001360269B002B00F0588582481860431EA0
:105140000393DFE716AB019317AB00932846DDE925
:105150000C2301F0D3FAC9F30A548346002C7FD004
:10516000DDE90C010D9BA4F2FF34C3F3130343F0FC
:105170007F5141F44011CDF84C800022724BFAF778
:10518000F3FF65A3D3E90023FBF7A6F964A3D3E9F2
:105190000023FAF7EBFF064620460F46FBF732F9ED
:1051A00061A3D3E90023FBF797F902460B4630468B
:1051B0003946FAF7DBFF06460F46FBF73DFC0022B7
:1051C0008246002330463946FBF7F8FB48B150468B
:1051D000FBF718F932463B46FBF7E6FB08B90AF144
:1051E000FF3ABAF1160F58D8DDE90C01574B03EB23
:1051F000CA03D3E90023FBF7E1FB00284FD00023CB
:105200000AF1FF3A0F93169B1C1B631E099349BFBB
:10521000C4F1010300230693002354BF06930993AE
:10522000BAF1000F3DDB099BCDF838A05344099338
:1052300000230A93229B092B00F28C80052BC4BF0C
:10524000043B2293229BC8BF0024A3F10203D8BFD2
:105250000124032B00F28A80DFE803F02D4F4D5B21
:10526000DDE916431C4404F23243202BC3BFC3F1D3
:10527000400304F2124009FA03F3C3F12003C6BF4E
:1052800026FA00F0184306FA03F0FBF7ABF8012307
:10529000A1F1F871013C13936FE70123B2E70F907E
:1052A000B1E7069BA3EB0A030693CAF100030A9336
:1052B00000230E93BEE700230B93239B002B58DCA7
:1052C0004FF001094B46CDF82090CDF88C9000228C
:1052D000686A4260042202F114069E4241684ED977
:1052E000284600F0E5FE039000284CD102464FF41A
:1052F000D571174BCCE60123DEE700230B93239BEC
:105300000AEB030909F10103012B0893B8BF01233C
:10531000DDE70123F2E700BF61436F63A787D23F58
:10532000B3C8608B288AC63FFB799F501344D33F94
:1053300089710008A07100080000F07F85710008E5
:105340007C710008597100080000F83F38730008AC
:105350001E720008012400230B9422934FF0FF39A2
:1053600000221223CDF820902392B0E701230B9363
:10537000F4E7DDF88C904B46CDF82090A7E701319B
:1053800041605200A7E76B6A039A1A60089B0E2BD4
:1053900000F2A880002C00F0A580BAF1000F34DDE7
:1053A0009A4A0AF00F0302EBC3031AF4807FD3E991
:1053B0000034CDE910344FEA2A1416D0DDE90C018F
:1053C000934B0327D3E90823FBF7B0F9CDE9040198
:1053D00004F00F048E4E54B9DDE91023DDE9040119
:1053E000FBF7A4F9CDE9040129E00227F2E7E10780
:1053F00008D5DDE91001D6E90023FBF76DF8CDE90A
:105400001001013764100836E5E700F0A580DDE9FA
:105410000C01CAF100047D4B04F00F0203EBC20340
:10542000D3E90023FBF758F802270023CDE9040154
:10543000774E2411002C40F08480002BD2D10F9B9A
:10544000002B00F08B80DDE90434CDE91034DDE978
:10545000100100226F4BFBF7B1FA00287ED0089BA9
:10546000002B7BD0B9F1000F38DDDDE910010022FF
:10547000694BFBF731F84C46CDE904010AF1FF38DE
:1054800001373846FAF7BEFFDDE90423FBF724F8BD
:105490000022624BFAF76AFEA1F15076CDE91001C5
:1054A0001196002C5DD1DDE9040100225C4BFAF776
:1054B0005BFE02460B46CDE904233346109AFBF708
:1054C0009BFA002840F09C82DDE90401109A06F165
:1054D0000043FBF773FA002840F09082DDE90C34BA
:1054E000CDE90434179B002BC0F25281BAF10E0FA4
:1054F00000F34E81454B03EBCA03D3E90034CDE9F9
:105500000634239B002B80F2DB80089B002B00F3EA
:10551000D78040F07282DDE906010022404BFAF7A5
:10552000DBFFDDE90423FBF75DFA089C2646002833
:1055300040F048823123039F0AF1010A07F8013B3A
:1055400044E2E20705D5D6E90023FAF7C5FF0123B7
:105550000137641008366DE7022770E7D046089CD3
:105560008FE70399294B214412910B9903EBC40354
:10557000DDE9106753E90223002955D000202949AD
:10558000FBF7D4F83B463246FAF7EEFDCDE91001C1
:10559000039FDDE90401FBF74FFA0446FAF732FFF7
:1055A00002460B46DDE90401FAF7DEFD02460B4632
:1055B0003034CDE90423DDE9102307F8014BFBF774
:1055C000FDF9002874D1DDE9042300201149FAF720
:1055D000CBFDDDE91023FBF7F1F9002840F0B7809F
:1055E000129B9F423FF47AAFDDE9100100220A4B83
:1055F000FAF772FF0022CDE91001DDE90401064B44
:10560000FAF76AFFCDE90401C3E700BF3873000869
:10561000107300080000F03F0000244000001C4010
:10562000000014400000E03F30463946FAF754FFCE
:10563000129BCDE91001039C1493DDE90401FBF7F3
:10564000FBF91590FAF7DEFE02460B46DDE9040190
:10565000FAF78AFD159B0646303304F8013B129B8E
:105660000F469C424FF0000224D1DDE91001B04BFF
:10567000FAF77CFD02460B4630463946FBF7BCF98B
:10568000002863D1DDE910230020A949FAF76CFD59
:1056900002460B4630463946FBF790F900283FF4A6
:1056A0001DAF149F7B1E149317F8013C302BF8D0CC
:1056B000C2463BE09F4BFAF70FFFCDE90401BCE780
:1056C000039FDDE90489DDE9062340464946FBF7EF
:1056D0002DF8FBF7B1F90446FAF794FEDDE906234D
:1056E000FAF7FAFE02460B4640464946FAF73CFDF9
:1056F00004F1300607F8016B039EDDF820C0BE1BE5
:10570000B44502460B4636D1FAF730FDDDE90623F3
:1057100080468946FBF770F958BBDDE90623404611
:105720004946FBF741F908B1E10722D4284659461A
:1057300000F0FEFC00233B70249B0AF1010018607E
:10574000269B002B3FF4DEAC1F60DBE427463B4684
:105750001F4613F8012D392A07D1039A9A42F7D12F
:105760003022039908F101080A701A7801321A7080
:105770009EE7D046EBE700226E4BFAF7ADFE002223
:10578000002380468946FBF70FF900289BD0CDE720
:105790000B9A002A00F0D080229A012A00F3AE80F2
:1057A000139A002A00F0A68003F233430A9C069F56
:1057B000069A01211A440692099A28461A44099227
:1057C00000F06CFD0646002F0CDD099B002B09DD67
:1057D000BB42A8BF3B46069AFF1AD21A0692099A04
:1057E000D31A09930A9BF3B10B9B002B00F0A880FE
:1057F000002C10DD31462246284600F00DFE5A46A8
:1058000001460646284600F05FFD80465946284678
:1058100000F08EFCC3460A9B1A1B04D0594628464A
:1058200000F0FAFD83460121284600F037FD0E9B6B
:105830000446002B40F386801A460146284600F0B5
:10584000EBFD229B0446012B7FDD4FF0000823690E
:1058500004EB8303186900F0D3FCC0F12000099B1E
:10586000184410F01F0000F09280C0F12003042BB8
:1058700040F38A80C0F11C00069B07440344069352
:10588000099B03440993069B002B05DD59461A46E4
:10589000284600F01BFE8346099B002B05DD2146B0
:1058A0001A46284600F012FE04460F9B002B70D0CB
:1058B0002146584600F07AFE00286ADA002359464D
:1058C0000A22284600F056FC0B9B83460AF1FF3A59
:1058D000002B00F09481314600230A22284600F074
:1058E00049FCB9F1000F064600F39380229B022B7E
:1058F00057DC8EE0169BC3F1360357E7089B5C1E0E
:105900000A9BA342B7BF0A9B1C1BE21A0E9BBEBF99
:105910000A949B180E93089BB8BF0024002BBBBFB2
:10592000069B089A069F9F1AACBF089B00233FE77F
:105930000000E03F000024400A9C069F0B9E42E7C7
:105940000A9A6BE7229B012B19DC049BBBB9059BD0
:10595000C3F313039BB9059B23F000431B0D1B05E9
:1059600083B14FF00108069B01330693099B013375
:1059700009930E9B002B7FF46AAF01206FE74FF075
:105980000008F6E79846F4E73FF47DAF18461C3070
:1059900072E7089B002B36DC229B022B33DDDDF8FF
:1059A0002090B9F1000F0DD121464B460522284623
:1059B00000F0E0FB01460446584600F0F7FD0028E1
:1059C0003FF7B8AD239B039F6FEA030A4FF000082F
:1059D0002146284600F0ACFB002E3FF4A7AEB8F1FC
:1059E000000F05D0B04503D04146284600F0A0FB8B
:1059F0003146284600F09CFB98E600242646E1E765
:105A0000C246264696E50B9BDDF82090002B00F061
:105A1000FD80002F05DD31463A46284600F056FD50
:105A20000646B8F1000F5CD02846716800F040FBD4
:105A3000074628B9024640F2EA217F4BFFF728BB10
:105A4000326906F10C01023292000C30FEF7BAFC0A
:105A500001223946284600F039FDB0460646039B30
:105A600001330893039B4B440A93049B03F0010307
:105A70000993089B2146013B58460493FFF766FAB9
:105A8000034641463033069058460B9300F08EFD96
:105A9000324681462146284600F0A4FDC2680746EA
:105AA0000B9B02BB0146584600F080FD02460B9B53
:105AB00039462846CDE90B3200F03AFB229B0C9A7E
:105AC000089F43EA0201099B0B430B9B0DD1392B25
:105AD00029D0B9F1000F01DD069B3133049A137010
