:020000040800F2
:1000000000500020657700083514000837140008F8
:10001000391400083B1400083D14000800000000DB
:1000200000000000000000000000000071740008E3
:100030003F14000800000000117500085575000805
:10004000AD770008AD770008AD770008AD77000800
:10005000AD770008AD770008AD770008AD770008F0
:10006000AD770008AD770008AD770008AD770008E0
:10007000AD770008AD770008AD770008AD770008D0
:10008000AD770008AD770008AD770008AD770008C0
:1000900051140008AD770008AD770008AD7700086F
:1000A000AD770008AD770008AD770008AD770008A0
:1000B00041140008AD770008AD770008AD7700085F
:1000C000AD770008AD770008AD770008AD77000880
:1000D000AD770008AD770008AD770008AD77000870
:1000E000AD770008AD770008AD770008000000008C
:1000F0000000000000000000000000000000000000
:0C01000000000000000000005FF808F1A3
:1001100010B5054C237833B9044B13B10448AFF341
:1001200000800123237010BDF801002000000000B2
:10013000E4A6000808B5034B1BB103490348AFF31D
:10014000008008BD00000000FC010020E4A60008BB
:10015000034613F8012B002AFBD1181A0138704707
:1001600081F0004102E000BF83F0004330B54FEA68
:1001700041044FEA430594EA050F08BF90EA020FD5
:100180001FBF54EA000C55EA020C7FEA645C7FEA68
:10019000655C00F0E2804FEA5454D4EB5555B8BF8B
:1001A0006D420CDD2C4480EA020281EA030382EAFC
:1001B000000083EA010180EA020281EA0303362D8E
:1001C00088BF30BD11F0004F4FEA01314FF4801C61
:1001D0004CEA113102D0404261EB410113F0004F73
:1001E0004FEA03334CEA133302D0524263EB43032A
:1001F00094EA050F00F0A780A4F10104D5F1200EC8
:100200000DDB02FA0EFC22FA05F2801841F1000122
:1002100003FA0EF2801843FA05F359410EE0A5F1F6
:1002200020050EF1200E012A03FA0EFC28BF4CF027
:10023000020C43FA05F3C01851EBE37101F00045DD
:1002400007D54FF0000EDCF1000C7EEB00006EEBEA
:100250000101B1F5801F1BD3B1F5001F0CD3490874
:100260005FEA30004FEA3C0C04F101044FEA4452CB
:1002700012F5800F80F09A80BCF1004F08BF5FEA52
:10028000500C50F1000041EB045141EA050130BD32
:100290005FEA4C0C404141EB0101013C28BFB1F544
:1002A000801FE9D291F0000F04BF01460020B1FA8F
:1002B00081F308BF2033A3F10B03B3F120020CDA62
:1002C0000C3208DD02F1140CC2F10C0201FA0CF040
:1002D00021FA02F10CE002F11402D8BFC2F1200CA5
:1002E00001FA02F120FA0CFCDCBF41EA0C0190405B
:1002F000E41AA2BF01EB0451294330BD6FEA0404A4
:100300001F3C1CDA0C340EDC04F11404C4F120028E
:1003100020FA04F001FA02F340EA030021FA04F3A0
:1003200045EA030130BDC4F10C04C4F1200220FAF7
:1003300002F001FA04F340EA0300294630BD21FA35
:1003400004F0294630BD94F0000F83F4801306BFFB
:1003500081F480110134013D4EE77FEA645C18BFEF
:100360007FEA655C29D094EA050F08BF90EA020F86
:1003700005D054EA000C04BF1946104630BD91EA7E
:10038000030F1EBF0021002030BD5FEA545C05D181
:100390004000494128BF41F0004130BD14F58004C0
:1003A0003CBF01F5801130BD01F0004545F0FE4134
:1003B00041F470014FF0000030BD7FEA645C1ABF69
:1003C000194610467FEA655C1CBF0B46024650EAA0
:1003D000013406BF52EA033591EA030F41F40021CC
:1003E00030BD00BF90F0000F04BF0021704730B552
:1003F0004FF4806404F132044FF000054FF0000127
:1004000050E700BF90F0000F04BF0021704730B5E7
:100410004FF4806404F1320410F0004548BF4042BC
:100420004FF000013EE700BF42004FEAE2014FEA11
:1004300031014FEA02701FBF12F07F4393F07F4FEC
:1004400081F06051704732F07F4208BF704793F0EF
:100450007F4F04BF41F40021704730B54FF4607402
:1004600001F0004521F000411CE700BF50EA010205
:1004700008BF704730B54FF000050AE050EA0102AE
:1004800008BF704730B511F0004502D5404261EB1E
:1004900041014FF4806404F132045FEA915C3FF45F
:1004A000D8AE4FF003025FEADC0C18BF03325FEAFC
:1004B000DC0C18BF033202EBDC02C2F1200300FAAD
:1004C00003FC20FA02F001FA03FE40EA0E0021FAD2
:1004D00002F11444BDE600BF70B54FF0FF0C4CF4C0
:1004E000E06C1CEA11541DBF1CEA135594EA0C0F72
:1004F00095EA0C0F00F0DEF82C4481EA030621EAAD
:100500004C5123EA4C5350EA013518BF52EA0335E7
:1005100041F4801143F4801338D0A0FB02CE4FF099
:100520000005E1FB02E506F00042E0FB03E54FF0C9
:100530000006E1FB03569CF0000F18BF4EF0010EC1
:10054000A4F1FF04B6F5007F64F5407404D25FEABD
:100550004E0E6D4146EB060642EAC62141EA555170
:100560004FEAC52040EA5E504FEACE2EB4F1FD0CB2
:1005700088BFBCF5E06F1ED8BEF1004F08BF5FEA30
:10058000500E50F1000041EB045170BD06F00046E2
:1005900046EA010140EA020081EA0301B4EB5C048F
:1005A000C2BFD4EB0C0541EA045170BD41F4801187
:1005B0004FF0000E013C00F3AB8014F1360FDEBFAC
:1005C000002001F0004170BDC4F10004203C35DA88
:1005D0000C341BDC04F11404C4F1200500FA05F30B
:1005E00020FA04F001FA05F240EA020001F00042AC
:1005F00021F0004110EBD37021FA04F642EB060122
:100600005EEA430E08BF20EAD37070BDC4F10C044B
:10061000C4F1200500FA04F320FA05F001FA04F20F
:1006200040EA020001F0004110EBD37041F10001FB
:100630005EEA430E08BF20EAD37070BDC4F1200506
:1006400000FA05F24EEA020E20FA04F301FA05F26E
:1006500043EA020321FA04F001F0004121FA04F216
:1006600020EA020000EBD3705EEA430E08BF20EAE6
:10067000D37070BD94F0000F0FD101F00046400020
:1006800041EB010111F4801F08BF013CF7D041EAA2
:10069000060195F0000F18BF704703F000465200A6
:1006A00043EB030313F4801F08BF013DF7D043EA77
:1006B0000603704794EA0C0F0CEA135518BF95EA2D
:1006C0000C0F0CD050EA410618BF52EA4306D1D1B4
:1006D00081EA030101F000414FF0000070BD50EAD3
:1006E000410606BF1046194652EA430619D094EA5D
:1006F0000C0F02D150EA013613D195EA0C0F05D147
:1007000052EA03361CBF104619460AD181EA03019A
:1007100001F0004141F0FE4141F470014FF0000052
:1007200070BD41F0FE4141F4780170BD70B54FF0ED
:10073000FF0C4CF4E06C1CEA11541DBF1CEA13556D
:1007400094EA0C0F95EA0C0F00F0A7F8A4EB05044F
:1007500081EA030E52EA03354FEA013100F0888046
:100760004FEA03334FF0805545EA131343EA12630F
:100770004FEA022245EA111545EA10654FEA0026C4
:100780000EF000419D4208BF964244F1FD0404F57D
:10079000407402D25B084FEA3202B61A65EB0305D9
:1007A0005B084FEA32024FF480104FF4002CB6EB96
:1007B000020E75EB030E22BFB61A754640EA0C0016
:1007C0005B084FEA3202B6EB020E75EB030E22BF56
:1007D000B61A754640EA5C005B084FEA3202B6EB97
:1007E000020E75EB030E22BFB61A754640EA9C0056
:1007F0005B084FEA3202B6EB020E75EB030E22BF26
:10080000B61A754640EADC0055EA060E18D04FEAE3
:10081000051545EA16754FEA06164FEAC30343EA83
:1008200052734FEAC2025FEA1C1CC0D111F4801F50
:100830000BD141EA00014FF000004FF0004CB6E749
:1008400011F4801F04BF01430020B4F1FD0C88BFE8
:10085000BCF5E06F3FF6AFAEB5EB030C04BFB6EBF3
:10086000020C5FEA500C50F1000041EB045170BDE6
:100870000EF0004E4EEA113114EB5C04C2BFD4EB13
:100880000C0541EA045170BD41F480114FF0000E97
:10089000013C90E645EA060E8DE60CEA135594EA13
:1008A0000C0F08BF95EA0C0F3FF43BAF94EA0C0F16
:1008B0000AD150EA01347FF434AF95EA0C0F7FF48B
:1008C00025AF104619462CE795EA0C0F06D152EADF
:1008D00003353FF4FDAE1046194622E750EA4106C3
:1008E00018BF52EA43067FF4C5AE50EA41047FF4D4
:1008F0000DAF52EA43057FF4EBAE12E74FF0FF3C39
:1009000006E000BF4FF0010C02E000BF4FF0010C09
:100910004DF804CD4FEA410C7FEA6C5C4FEA430C82
:1009200018BF7FEA6C5C1BD001B050EA410C0CBFD1
:1009300052EA430C91EA030F02BF90EA020F002033
:10094000704710F1000F91EA030F58BF994208BF9A
:1009500090422CBFD8176FEAE37040F00100704757
:100960004FEA410C7FEA6C5C02D150EA013C07D1AE
:100970004FEA430C7FEA6C5CD6D152EA033CD3D0F9
:100980005DF8040B704700BF8446104662468C46F3
:100990001946634600E000BF01B5FFF7B7FF002826
:1009A00048BF10F1000F01BD4DF808EDFFF7F4FF4F
:1009B0000CBF012000205DF808FB00BF4DF808EDDA
:1009C000FFF7EAFF34BF012000205DF808FB00BFFD
:1009D0004DF808EDFFF7E0FF94BF012000205DF81F
:1009E00008FB00BF4DF808EDFFF7CEFF94BF0120D4
:1009F00000205DF808FB00BF4DF808EDFFF7C4FFCD
:100A000034BF012000205DF808FB00BF4FEA410C15
:100A10007FEA6C5C02D150EA013C0AD14FEA430CF8
:100A20007FEA6C5C02D152EA033C02D14FF0000035
:100A300070474FF0010070474FEA410212F5001273
:100A400015D211D56FF47873B3EB625212D94FEA15
:100A5000C12343F0004343EA505311F0004F23FAFF
:100A600002F018BF404270474FF00000704750EA54
:100A7000013005D111F0004008BF6FF00040704711
:100A80004FF00000704700BF00B58BB0002100910F
:100A900008AB01AA01F031FC70B1009B4BB14FF0E3
:100AA000E0234FF08052C3F8042DBFF34F8FBFF304
:100AB0006F8F0BB05DF804FB00236A4601A9024862
:100AC000006805F0F2F8E8E73002002008B501F010
:100AD0000BFE0146014807F00BFB08BD54A70008B8
:100AE000084B1B7823B1074A1378013BDBB2137024
:100AF000054B1B7823B1044A1378013BDBB213701A
:100B0000704700BF150200201602002008B50368D8
:100B1000B3F1804F00D008BD01F0FAFD074A137809
:100B20000133DBB213701378DBB2092BF3D9134610
:100B300000221A70FFF7D4FFEDE700BF1402002077
:100B400010B514464FF0FF3392B2024802F097FE00
:100B5000204610BD700D002072B6FEE700B591B0C2
:100B60002822002106A806F05BFE002301930293D1
:100B7000039304930593012206924FF48033079365
:100B80000A9202220D920E934FF4E0130F9306A8DF
:100B900001F0E6FD80B90F230193022102910023A9
:100BA00003934FF480620492059301A802F00AF8BF
:100BB00020B911B05DF804FBFFF7CEFFFFF7CCFFC3
:100BC00000B58BB001F092FDFFF7C8FF00F042F8CE
:100BD00000F0DAFB00F07CFB00F0BCFC00F0AEFAA9
:100BE00000F0FAFA154801F0E5FA90B901AB03AA52
:100BF0000021124801F081FB0028F7D048F602419D
:100C00000E4801F02FFC48B10D4807F0F7FAFFF746
:100C1000A3FF0C4807F0F2FAFFF79EFF00F03AFA44
:100C2000094BD3F80012D3F80422084807F060FA01
:100C3000074807F0E3FA06F0DDF9FEE7F00C0020C4
:100C40008CA700086CA7000800640040B0A700084B
:100C5000CCA700082DE9F04188B000240494059445
:100C600006940794294B9A6942F010029A619A6996
:100C700002F010020092009A9A6942F020029A61F2
:100C80009A6902F020020192019A9A6942F00402E4
:100C90009A619A6902F004020292029A9A6942F0F9
:100CA00008029A619B6903F008030393039BDFF832
:100CB000608022464FF40051404602F096F9154FED
:100CC00001221021384602F090F94FF400560496A4
:100CD0000125059506940223079304A9404602F0D6
:100CE0006BF8102304930595069407950DEB03010B
:100CF000384602F061F804960594069504A9064862
:100D000002F05AF808B0BDE8F08100BF00100240C0
:100D10000010014000080140000C014030B58BB0CC
:100D20004FF4FA7006F0AAF902E00A2006F0A6F9DC
:100D30004FF40051214802F051F90028F5D0002568
:100D40002C462CE0012C27D106F059F9401B322803
:100D500022D91B4807F052FA0023029303934FF461
:100D6000807204920793069301220892AA228DF8BA
:100D700008208DF8243001AB02AA04A9114801F023
:100D800047FA20B9104807F039FA022404E00F4866
:100D900007F034FAF9E70024322006F06FF94FF437
:100DA0000051064802F01AF90028F4D1002CC9D1EC
:100DB00006F025F905460124EEE700BF000C0140CE
:100DC00010A80008F00C00203CA8000868A8000843
:100DD00030B5AFB034E0484D06F011F90446249820
:100DE000FFF722FBCDE90201259B00932B4622460B
:100DF000424904A807F00AFA0446414B186805194D
:100E0000B5F5007F4DDA3F4B1B6800EB43202246CF
:100E100004A93D4B184406F0F5FC394B1D603B4AD4
:100E2000136801331360C72B0AD9394B00221A709B
:100E3000334B1B6893424FDCC821364807F058F902
:100E40004FF0FF3225A9344B186804F0EEFF01285B
:100E5000F6D12F4B1B78002BF2D02C9B2493259B93
:100E600040F201129342B6D0B3F5817F0FD040F229
:100E7000031293420DD0B3F5827F0CD040F20512DD
:100E800093420AD0B3F5837F09D0244DA4E7244DC3
:100E9000A2E7244DA0E7244D9EE7244D9CE7244D76
:100EA0009AE7184A136823490B6023490860B3FA8C
:100EB00083F35B091360224604A9134800EB432027
:100EC00006F0A0FC0E4B1C600023022219461B48B2
:100ED000006806F003F8A2E70A4A1168154A116093
:100EE000154A13600021064B19600B460222134875
:100EF000006805F0F3FF9FE7A8A80008D4A8000841
:100F000098060020240200209C06002034020020C5
:100F100000000020ECA8000830020020CCA8000847
:100F2000ACA80008B4A80008BCA80008C4A8000821
:100F3000A0A80008280200202C0200202002002087
:100F400030B583B03C4807F059F901223B493C4891
:100F500003F0C0FD014610B979B103B030BD394886
:100F600007F0C6F84FF47A7006F088F8012233498A
:100F7000334803F0AFFD0146EEE7334807F03EF992
:100F8000324C12223249204603F0EAFDD4F80C120A
:100F9000204604F0D0F82F49204604F098FA2E4855
:100FA00007F02CF92D4B5B6813F0020F37D14FF08F
:100FB000FF31012005F056FF294D00224FF400516A
:100FC000284602F012F8274B186801AB264A12682F
:100FD000264901EB40211D4803F0BBFE04464FF4B7
:100FE0000051284602F007F814B301224FF40051D3
:100FF0001B4801F0FAFF1E4B1B78002BD2D113487F
:1010000004F07BF81B4807F0F9F800224FF4005178
:10101000134801F0EAFF002005F0D6FCC2E70F4AB2
:10102000136823F002031360134807F0E7F8BEE7E4
:10103000064803F0F6FFD8E728A90008000E0020B4
:101040006404002058A9000884A900083802002080
:10105000A0A90008ACA90008CCA9000800640040C1
:1010600000100140280200202C0200209C060020D5
:101070000000002008AA0008F4A90008034B036040
:10108000034B0B6080231360704700BF9C0C002053
:101090009C0A002010B596B000222421402004F0C4
:1010A0001CFD204B1860002837D01F4C0DF13C0C64
:1010B000A646BEE80F00ACE80F009EE807008CE8EB
:1010C000070000210FA805F0A4FF184B18600DF1D0
:1010D000200C04F11C0EBEE80F00ACE80F009EE8E7
:1010E00007008CE80700002108A805F092FF104BCC
:1010F00018600DF1040E04F1380CBCE80F00AEE8E6
:101100000F009CE807008EE80700002101A805F009
:1011100080FF084B186016B010BD074807F06EF846
:10112000C3E700BF3002002000A70008180200201B
:101130001C0200202002002034AA000800B583B061
:10114000204B2149196008225A6000229A604FF012
:101150004070D8604FF4302018614FF4800058611F
:101160001A76012058769A76DA761A775877174BDE
:10117000DA6942F00072DA61DB6903F0007301930F
:10118000019B0B6823F002030B604FF6FF7300E036
:1011900013460D4A526812F0020F02D05A1E002B5D
:1011A000F6D1084800F0DAFE28B9094807F026F819
:1011B00003B05DF804FB074807F020F8FFF7CCFC0C
:1011C000F3E700BFF00C0020006400400010024074
:1011D00068AA000858AA000800B58BB00023059340
:1011E00006930122079200930193029303930493C1
:1011F00008920E2309936946054800F055FF10B97F
:101200000BB05DF804FB034806F0F8FFF8E700BFF9
:10121000F00C00207CAA000830B589B000230493AC
:101220000593069307930268264B9A4201D009B0B2
:1012300030BD03F5D633DA6922F40002DA619A6927
:1012400042F008029A619A6902F008020192019A3A
:10125000DA6942F00072DA61DA6902F00072029231
:10126000029A9A6942F001029A619B6903F00103B4
:101270000393039B144A536823F4C04343F0E06391
:1012800043F4804353604FF4807304930024059427
:1012900006940E4D04A9284601F08EFD4FF400730C
:1012A0000493022305930323079304A9284601F01E
:1012B00083FD22460521142001F0B8FE142001F020
:1012C000EDFEB4E70064004000000140000C014066
:1012D00008B50E480E4B03604FF482734360002341
:1012E0008360C360036143614FF4007282613822FE
:1012F000C2610362436283620A23C36201F068FF32
:1013000000B908BDFFF728FCFBE700BF180D00205F
:101310000030014010B586B000230293039304937C
:1013200005930268164B9A4201D006B010BD03F532
:1013300060439A6942F480529A619A6902F4805239
:101340000092009A9A6942F004029A619B6903F044
:1013500004030193019BA02302930223039303231D
:101360000593084C02A9204601F026FD4023029374
:1013700000230393049302A9204601F01DFDD4E746
:10138000003001400008014008B50A480A4B0360DC
:101390004FF4E133436000238360C36003610C2298
:1013A00042618361C36102F03AFA00B908BDFFF7F8
:1013B000D3FBFBE7700D00200038014010B586B06C
:1013C000002302930393049305930268174B9A42F8
:1013D00001D006B010BD03F558439A6942F480422B
:1013E0009A619A6902F480420092009A9A6942F0E6
:1013F00004029A619B6903F004030193019B4FF47B
:10140000007302930223039303230593084C02A95C
:10141000204601F0D1FC4FF4806302930023039334
:10142000049302A9204601F0C7FCD2E7003801402E
:1014300000080140FEE7FEE7FEE7FEE7FEE7704733
:1014400008B5024800F06AFC08BD00BFB80D0020D6
:1014500008B5024801F023F808BD00BFF00C0020D9
:1014600000B583B0114B9A6942F001029A619A6902
:1014700002F001020092009ADA6942F08052DA61C9
:10148000DB6903F080530193019B00220F216FF071
:10149000010001F0CBFD064A536823F0E06343F0FE
:1014A0008063536003B05DF804FB00BF001002408E
:1014B0000000014030B589B00446224BDA6942F0A1
:1014C0000102DA61DB6903F001030193019B02A9C8
:1014D00003A801F053FC069BD3B901F02FFC03468F
:1014E0001948A0FB03239B0C013B18484FF0804296
:1014F000026040F2E732C260436000230361836010
:10150000836100F0FDFC054630B1284609B030BDCE
:1015100001F014FC4300E3E70C4800F0C7FB05466C
:101520000028F2D11C2001F0B9FD0F2C01D90125B2
:10153000EBE7002221461C2001F078FD044B1C60E3
:10154000E3E700BF0010024083DE1B43B80D00201C
:101550001C00002008B50349034804F00FF9034BB1
:10156000187008BD000E002004000020040E0020AA
:1015700000207047014B00221A707047060E0020B1
:10158000014B1878704700BF060E002000B583B0ED
:101590008DF80700074802F082F80128FAD14FF4CD
:1015A0007A7301220DF10701024801F06CFE03B0CD
:1015B0005DF804FB180D002008B500221021024838
:1015C00001F013FD08BD00BF0008014008B501226D
:1015D0001021024801F009FD08BD00BF00080140CC
:1015E00000B585B0FF238DF80F3000238DF80E3045
:1015F0000A4802F054F80128FAD14FF47A730093A4
:1016000001230DF10E020DF10F01044801F01DFF41
:101610009DF80E0005B05DF804FB00BF180D00201A
:1016200010B582B0FFF7D2FF002403E0FF20FFF7E0
:10163000ADFF0134092CF9DDFFF7BEFF40238DF823
:10164000003000248DF801408DF802408DF80340F1
:101650008DF8044095238DF8053007E004F1080368
:101660006B4413F8080CFFF791FF0134052CF5DDEE
:1016700041F6FF74FFF7B4FF012802D00CB1013C22
:10168000F8E7FFF7A3FFFF20FFF780FF024B0122DF
:101690001A7002B010BD00BF060E002008B5084B3E
:1016A0004FF4FA721A80FFF79BFFFFF799FFFF28AC
:1016B00004D0034B1B889BB2002BF6D108BD00BFA2
:1016C0001602002038B504460D46FFF7E7FFFF2855
:1016D00001D0FF2038BD2046FFF758FF280EFFF746
:1016E00055FFC5F30740FFF751FFC5F30720FFF78C
:1016F0004DFFE8B2FFF74AFF402C11D00020482CE4
:1017000010D0FFF743FF4C2C0ED00A24FFF768FFE0
:1017100010F0800FDED0631E13F0FF04F6D1D9E77E
:101720009520ECE78720ECE7FFF75AFFEDE710B5CF
:101730000446FFF755FF207010BD0000F8B50546C0
:101740000C460F4B64221A80FFF74AFFFF2804D192
:101750000B4B1B889BB2002BF6D1FE2807D0002034
:101760000DE06F1C2846FFF7E2FF34463D46661E3B
:10177000002CF6D1FFF734FFFFF732FF0120F8BD50
:101780001502002070B504460D46FFF787FFFF28BD
:1017900001D0002070BD06462846FFF7F7FEFD2D5C
:1017A00027D04FF4007204E014F8010BFFF7EEFEAF
:1017B0002A46531E9DB2002AF6D1FFF711FFFFF70C
:1017C0000FFF0024402C09D8FFF70AFF064600F05F
:1017D0001F03052B02D00134E4B2F3E7094BC82202
:1017E0001A80FFF7FDFE20B9064B1B889BB2002B29
:1017F000F7D106F01F06052E01D00020CAE7012010
:10180000C8E700BF15020020002840F0B68030B5C0
:1018100083B05B4B1B7813F0020404D0584B18784C
:10182000C0B203B030BDFFF7FBFEFFF7C5FE0021DD
:101830004020FFF747FF0546012811D0514B1C708F
:10184000FFF7C4FEFFF7CCFE002C00F093804C4A5B
:10185000137803F0FE031370494B1878C0B2E0E729
:10186000494B4FF47A721A804FF4D5714820FFF734
:1018700029FF012845D1254608E0FFF7B1FE05F113
:1018800008036B4403F8040C0135EDB2032DF4D9C1
:101890009DF80630012BD1D19DF80730AA2BCDD170
:1018A00003E0394B1B889BB263B100217720FFF71F
:1018B00009FF0128F5D84FF080416920FFF702FFAA
:1018C0000028EED1304B1B889BB2002BB6D00021F4
:1018D0007A20FFF7F7FE05460028AFD1032D09D87F
:1018E000FFF77EFE05F108036B4403F8040C013595
:1018F000EDB2F3E79DF8043013F0400F38D0062422
:101900009CE700217720FFF7DDFE012811D8002198
:101910006920FFF7D7FE01280BD8022509E0002136
:101920007720FFF7CFFE01281BD9174B1B889BB2EE
:101930003BB1022DF3D000214120FFF7C3FE002868
:10194000F3D1114B1B889BB2002B3FF477AF4FF4C0
:1019500000715020FFF7B6FE00287FF46FAF2C46D1
:101960006CE700216920FFF7ADFE0028DDD1E8E734
:10197000022463E7FFF7FEFD6EE70120704700BF1A
:1019800001000020050E00201502002018B9034BAD
:101990001878C0B270470120704700BF01000020D6
:1019A00000283ED170B50D4616461C46002B3AD095
:1019B0001F4B1B7813F0010F37D11E4B1B7813F010
:1019C000040F00D15602FFF7F7FD012C1AD0314663
:1019D0005220FFF777FE68B94FF400712846FFF7F1
:1019E000ADFE18B105F50075013CF5D100214C2084
:1019F000FFF768FEFFF7EAFDFFF7F2FD201E18BFB4
:101A0000012070BD31465120FFF75CFE0028F1D166
:101A10004FF400712846FFF791FE0028EAD0002419
:101A2000E8E7042070470420EBE70320E9E700BF64
:101A300001000020050E0020002852D170B50D468F
:101A400016461C46002B4ED02A4B1B7813F0010F74
:101A50004BD1284B1B7813F0040F48D1264B1B7831
:101A600013F0040F00D15602FFF7A6FD012C1FD082
:101A7000214B1B7813F0020F28D131465920FFF774
:101A800021FE68B9FC212846FFF77CFE18B105F558
:101A90000075013CF6D1FD210020FFF773FEF0B187
:101AA000FFF794FDFFF79CFD201E18BF012070BDBD
:101AB00031465820FFF706FE0028F1D1FE212846C6
:101AC000FFF760FE0028EBD00024E9E70021772033
:101AD000FFF7F8FD21465720FFF7F4FDCDE701247D
:101AE000DEE7042070470420E1E70320DFE702205F
:101AF000DDE700BF01000020050E002070B584B0B6
:101B0000002840F0B6800D4616460446052913D03D
:101B10005A4B1C7814F0010440F0AD80FFF74CFDE7
:101B20000D2D00F29A80DFE805F061205D9898980D
:101B300098989898986776851578012D0ED0022D83
:101B40000FD00DB104248DE0FFF71AFD04460028E4
:101B500000F08880FFF70EFD2C4683E0FFF760FD64
:101B600080E0FFF70DFD70707CE000214920FFF759
:101B7000A9FD044608B12C4670E010216846FFF725
:101B8000DDFD002871D09DF800309B09012B1FD08E
:101B90009DF8052002F00F029DF80A3002EBD312E7
:101BA0009DF809305B0003F006031A449DF80830E5
:101BB0009DF807109B0903EB81039DF8061089022D
:101BC00001F440610B440133073A9340336045E030
:101BD0009DF808209DF8093043EA022301339B0257
:101BE00033603BE04FF40073338037E0FFF756FD7E
:101BF000FF283CD0012431E000214920FFF762FD9D
:101C0000044608B1012429E010213046FFF796FD73
:101C100020BB012422E000214A20FFF753FD0446A7
:101C200008B101241AE010213046FFF787FDA8B95A
:101C3000012413E000217A20FFF744FD044650B14F
:101C400001240BE0FFF7CCFC06F8010B0135EDB2E7
:101C5000032DF7D902E00546FAE70424FFF7B6FCA6
:101C6000FFF7BEFC204604B070BD2C46F6E72C46BC
:101C7000F4E70424F6E70324F4E700BF01000020A2
:101C800008B5FFF7C1FD08BD08B5FFF77FFE08BD29
:101C900008B5FFF785FE08BD08B5FFF7CDFE08BD06
:101CA00008B5FFF72BFF08BD7047000090F83D30E6
:101CB000DBB2012B27D1022380F83D300268D368C4
:101CC00043F00103D3600368114A934210D0B3F18B
:101CD000804F0DD0A2F59432934209D002F5806274
:101CE000934205D01A6842F001021A600020704742
:101CF0009A6802F00702062A07D01A6842F0010229
:101D00001A6000207047012070470020704700BF14
:101D1000002C0140704770477047704770B504460B
:101D20000368DE681D6915F0020F10D016F0020F6F
:101D30000DD06FF002021A610123037703689B69DB
:101D400013F0030F5ED0FFF7E6FF0023237715F0B3
:101D5000040F12D016F0040F0FD023686FF00402A6
:101D60001A610223237723689B6913F4407F4FD0C5
:101D70002046FFF7D0FF0023237715F0080F12D07D
:101D800016F0080F0FD023686FF008021A610423C1
:101D900023772368DB6913F0030F40D02046FFF759
:101DA000BAFF0023237715F0100F12D016F0100F92
:101DB0000FD023686FF010021A610823237723687D
:101DC000DB6913F4407F31D02046FFF7A4FF0023E6
:101DD000237715F0010F02D016F0010F2DD115F069
:101DE000800F02D016F0800F2FD115F0400F02D0D7
:101DF00016F0400F31D115F0200F02D016F0200F51
:101E000033D170BDFFF786FF2046FFF785FF9CE7C3
:101E10002046FFF77FFF2046FFF77EFFABE7204617
:101E2000FFF778FF2046FFF777FFBAE72046FFF776
:101E300071FF2046FFF770FFC9E723686FF00102CA
:101E40001A612046FEF762FEC9E723686FF0800240
:101E50001A61204600F081F8C7E723686FF040025E
:101E60001A612046FFF759FFC5E723686FF020028B
:101E70001A61204600F070F8C3E7000003681F4AAB
:101E800090420AD0B0F1804F07D0A2F59432904230
:101E900003D002F58062904203D123F070034A68B8
:101EA0001343164A90420AD0B0F1804F07D0A2F5F2
:101EB0009432904203D002F58062904203D123F421
:101EC0004073CA68134323F080034A6913430360D5
:101ED0008B68C3620B688362084B98420AD0012367
:101EE0004361036913F0010F03D0036923F0010379
:101EF000036170470B690363F1E700BF002C0140E9
:101F000040B310B5044690F83D30F3B1022384F895
:101F10003D30214651F8040BFFF7B0FF012384F850
:101F2000463084F83E3084F83F3084F8403084F8FE
:101F3000413084F8423084F8433084F8443084F8E7
:101F4000453084F83D30002010BD80F83C30FFF76C
:101F5000ABFEDBE70120704770477047002800F0B8
:101F6000A18038B5044690F82030D3B122681368B8
:101F700043F00103136000F0D7FB054623685A685D
:101F800012F0010F10D100F0CFFB401B0A28F5D949
:101F9000636A43F400336362052384F82030012030
:101FA00038BDFFF739F9E1E71A6822F002021A603A
:101FB00000F0BAFB054623685A6812F0020F0DD0F4
:101FC00000F0B2FB401B0A28F5D9636A43F40033E2
:101FD0006362052384F820300120E1E7227E012A94
:101FE0003DD01A6822F080021A60637E012B3BD03C
:101FF0002268136823F040031360A37E012B39D0BD
:102000002268136823F020031360E37E012B37D08E
:102010002268136843F010031360237F012B35D02F
:102020002268136823F008031360637F012B33D009
:102030002268136823F004031360A368E268134363
:1020400022691343626913436268013A21681343AA
:10205000CB6100206062012384F82030A0E71A6879
:1020600042F080021A60C0E72268136843F0400320
:102070001360C2E72268136843F020031360C4E7CB
:102080002268136823F010031360C6E72268136800
:1020900043F008031360C8E72268136843F00403A1
:1020A0001360CAE701207047026890F82030013BB6
:1020B000DBB2012B05D9436A43F48023436201203C
:1020C000704710B5D2F8003243F00103C2F8003275
:1020D0004B6903F01F03012000FA03F3D2F81C023E
:1020E0006FEA030C20EA0300C2F81C02C869C0B9F9
:1020F000D2F80C020CEA0000C2F80C028C88486985
:10210000D1F80CE044EA0E44483042F830400C88E4
:102110004869D1F808E044EA0E44483002EBC000B8
:102120004460C86901281AD0886988BBD2F80402C3
:102130000CEA0000C2F80402086978BBD2F8140265
:102140000CEA0000C2F81402096A01292CD0D2F866
:10215000003223F00103C2F80032002010BDD2F893
:102160000C021843C2F80C028C884869D1F800E0D0
:1021700044EA0E44483042F830408C894869D1F82E
:1021800008E044EA0E44483002EBC0004460CBE76C
:10219000D2F804021843C2F80402CDE7D2F81402C0
:1021A0001843C2F81402CFE7D2F81C120B43C2F84E
:1021B0001C32CCE770B5044690F82050EDB2012DEA
:1021C00006D0436A43F4002343620125284670BDCC
:1021D000022380F820300268136823F001031360A3
:1021E00000F0A2FA064623685B6813F0010F0CD0DA
:1021F00000F09AFA831B0A2BF5D9636A43F4003383
:102200006362052384F82030E0E700256562DDE79E
:1022100030B590F820C00468A4680CF1FF3C5FFA68
:102220008CFCBCF1010F62D814F0E05F59D0C4F30C
:10223000016C012404FA0CF41C608B68002B3DD166
:102240000D68CB68046843EA45550CF118031B017F
:10225000E55003680C690CF1180E03EB0E135C607B
:102260000B7D012B35D0D17993791B0443EA0163AF
:10227000517943EA012314790168234301EB0C11DE
:10228000C1F88C31D17893781B0443EA016351780B
:1022900043EA0123117802680B4302EB0C12C2F8E7
:1022A000883102680CF1180C4FEA0C1C52F80C3003
:1022B00043F0010342F80C3000201DE04C6843EA73
:1022C000C403CC6823430CF11804240105682B5186
:1022D000BFE7036803EB0E13596841F4807159603E
:1022E000C1E7436A43F400134362012004E0436AF8
:1022F00043F480234362012030BD90F820C00CF1EC
:10230000FF3C5FFA8CFCBCF1010F00F2A58030B4F9
:1023100051B90468E46814F0030F10D1436A43F420
:102320000013436201207EE00468246914F0030F67
:1023300005D1436A43F400134362012073E005684A
:1023400001F11B0424012C5904F004049460002CB6
:102350006BD1056801F11B0424012C59640D146034
:10236000046801F11B0C4FEA0C1C54F80C4004F0FB
:102370000204D4600468A444DCF8045015F0080F8B
:102380005BD008241461056801F11B0C05EB0C15EA
:102390006D68C5F307259561046804EB0C14646847
:1023A000240C5461026802EB0112D2F8B8211A70B1
:1023B000026802EB0112D2F8B821C2F307225A7068
:1023C000026802EB0112D2F8B821C2F307429A70F8
:1023D000026802EB0112D2F8B821120EDA7002681C
:1023E00002EB0112D2F8BC211A71026802EB011251
:1023F000D2F8BC21C2F307225A71026802EB011223
:10240000D2F8BC21C2F307429A71026802EB0112B2
:10241000D2F8BC21120EDA71C1B90268D36843F058
:102420002003D360002030BC7047056801F11B0415
:1024300024012C59E408546092E701F11B0504EBD8
:102440000514646804F00F0414619CE702681369C2
:1024500043F020031361E5E7436A43F480234362BA
:102460000120704790F82030013BDBB2012B05D9E9
:10247000436A43F480234362012070470268536932
:10248000194351610020704770477047704770478B
:1024900070477047704770477047704770472DE925
:1024A000F84F054603685C69D3F804809F68D3F849
:1024B0000CB0D3F810A0D3F8189014F001063BD05C
:1024C00017F0010616D001229A6017F0020F08D10A
:1024D00017F0040F0CD117F0080606D04FF4805601
:1024E00008E0FFF7D1FF002604E0FFF7D0FF01E08E
:1024F0004FF4006617F4807F0DD02B684FF4807284
:102500009A6017F4007F40F0868017F4806F00F027
:10251000868046F4005617F4803F0DD02B684FF4A8
:1025200080329A6017F4003F40F0838017F4802FC8
:1025300000F0838046F4004614F0080F07D01BF02B
:10254000100F04D046F400762B681022DA6014F0E5
:10255000040F02D01BF0080F79D114F0020F04D041
:102560002B68DB6813F0030F78D114F0400F07D00D
:102570001AF0100F04D046F480662B6810221A61FE
:1025800014F0200F02D01AF0080F6BD114F0100FC6
:1025900004D02B681B6913F0030F6AD114F4003FB9
:1025A00002D018F0100F68D114F4803F02D018F058
:1025B000080F69D114F4004F7AD018F0040F74D0CA
:1025C00014F4807F04D019F0010F01D046F0010609
:1025D00014F4007F04D019F0020F01D046F0020677
:1025E00014F4806F04D019F0040F01D046F00406F3
:1025F00014F4006F59D019F0700956D0B9F1400F9A
:1026000065D058D8B9F1200F5ED0B9F1300F42D162
:1026100046F0200644E02846FFF737FF7BE717F433
:10262000006F02D046F4804675E72846FFF730FF7A
:1026300071E72846FFF72AFF7EE717F4002F02D044
:1026400046F4803678E72846FFF723FF74E72B68C7
:102650000822DA602846FFF71DFF7EE72846FEF7CE
:1026600013FA82E72B6808221A612846FFF714FF45
:102670008CE72846FFF70FFF90E72B6810225A607F
:102680002846FFF70AFF8FE72B6808225A60284682
:10269000FFF704FF8EE7B9F1100F01D146F00806ED
:1026A0002A68936923F0700393612B6804225A60AF
:1026B0009EB9BDE8F88FB9F1500F0BD0B9F1600F9A
:1026C000EED146F48076EBE746F01006E8E746F0F8
:1026D0004006E5E746F08006E2E76B6A1E436E625D
:1026E0002846FEF7F3F9E4E7406A704708B5074A61
:1026F000136843F010031360032000F085FC0F20E3
:10270000FEF7D8FEFEF7ACFE002008BD0020024018
:10271000034A1168034B1B780B441360704700BFDA
:10272000080E002018000020014B1868704700BFF9
:10273000080E002082B0084B1B68084AA2FB032346
:102740005B0A00FB03F3019300BF019B5A1E019239
:10275000002BF9D102B0704720000020D34D621049
:10276000002800F0F18170B582B00446036813F0D0
:10277000010F2CD0994B5B6803F00C03042B1DD088
:10278000964B5B6803F00C03082B12D06368B3F51B
:10279000803F41D0002B55D103F1804303F5043332
:1027A0001A6822F480321A601A6822F480221A60B1
:1027B00037E08A4B5B6813F4803FE7D0874B1B6898
:1027C00013F4003F03D06368002B00F0BF8123683F
:1027D00013F0020F75D0814B5B6813F00C0F5FD0C4
:1027E0007E4B5B6803F00C03082B54D02369002B4D
:1027F00000F08A807A4B01221A60FFF795FF0546A8
:10280000764B1B6813F0020F75D1FFF78DFF401B4D
:102810000228F5D903209EE1704A136843F48033FF
:102820001360636843B3FFF77FFF05466B4B1B687C
:1028300013F4003FCBD1FFF777FF401B6428F5D995
:10284000032088E1B3F5A02F09D0644B1A6822F465
:1028500080321A601A6822F480221A60E1E703F1DC
:102860008043A3F53C331A6842F480221A601A6848
:1028700042F480321A60D4E7FFF756FF0546574B03
:102880001B6813F4003FA2D0FFF74EFF401B6428E3
:10289000F5D903205FE1514B5B6813F4803FA5D16C
:1028A0004E4B1B6813F0020F03D02369012B40F03D
:1028B0004F814A4A136823F0F803616943EAC10370
:1028C0001360236813F0080F33D0A369002B5CD08A
:1028D000434B0122C3F88024FFF726FF05463F4BF8
:1028E0005B6A13F0020F21D1FFF71EFF401B022885
:1028F000F5D903202FE1394A136823F0F803616901
:1029000043EAC1031360DCE7354B00221A60FFF78E
:102910000BFF0546314B1B6813F0020FD1D0FFF7B8
:1029200003FF401B0228F5D9032014E10120FFF723
:1029300001FF236813F0040F00F09680274BDB693A
:1029400013F0805F34D1254BDA6942F08052DA61AE
:10295000DB6903F080530193019B0125214B1B6828
:1029600013F4807F26D0E368012B3DD0002B53D198
:1029700003F1804303F504331A6A22F001021A625C
:102980001A6A22F004021A6233E0154B0022C3F8DF
:102990008024FFF7C9FE0546104B5B6A13F0020F57
:1029A000C7D0FFF7C1FE401B0228F5D90320D2E0B3
:1029B0000025D3E70B4A136843F480731360FFF7D5
:1029C000B3FE0646074B1B6813F4807FCBD1FFF79D
:1029D000ABFE801B6428F5D90320BCE00010024048
:1029E00000004242007000405F4A136A43F0010356
:1029F0001362E36833B3FFF797FE06465A4B1B6A30
:102A000013F0020F2FD1FFF78FFE801B41F28833A6
:102A10009842F3D903209EE0052B09D0524B1A6A45
:102A200022F001021A621A6A22F004021A62E0E736
:102A30004D4B1A6A42F004021A621A6A42F001020D
:102A40001A62D6E7FFF770FE0646474B1B6A13F083
:102A5000020F08D0FFF768FE801B41F288339842CE
:102A6000F3D9032077E0E5B9E369002B72D03E4A41
:102A7000526802F00C02082A56D0022B17D03B4BAA
:102A800000221A66FFF750FE0446374B1B6813F00E
:102A9000007F47D0FFF748FE001B0228F5D903202E
:102AA00059E0314AD36923F08053D361DCE72F4BDF
:102AB00000221A66FFF738FE05462B4B1B6813F001
:102AC000007F06D0FFF730FE401B0228F5D9032017
:102AD00041E0236AB3F5803F1AD023494B6823F4C1
:102AE0007413226A606A024313434B601F4B012236
:102AF0001A66FFF719FE04461B4B1B6813F0007F94
:102B00000ED1FFF711FE001B0228F5D9032022E0A9
:102B1000154A536823F40033A1680B435360DCE784
:102B2000002018E0002016E0012B16D00E4B5B6849
:102B300003F48031226A914211D103F47013626A66
:102B400093420ED1002006E001207047012002E0F0
:102B5000012000E0002002B070BD0120FBE7012051
:102B6000F9E70120F7E700BF0010024000004242F1
:102B70000F4B5B6803F00C02082A01D00D48704728
:102B8000C3F383420C49885C13F4803F0BD0084B9D
:102B90005B68C3F34043094AD35C064A02FB00F07A
:102BA000B0FBF3F07047064B03FB00F0704700BF2B
:102BB0000010024000127A00A0AA0008B0AA000883
:102BC00000093D00002800F0A08070B50D460446C5
:102BD000524B1B6803F007038B420BD24F4A13681A
:102BE00023F007030B431360136803F007038B42C2
:102BF00040F08D80236813F0020F17D013F0040FFC
:102C000004D0474A536843F4E0635360236813F0E9
:102C1000080F04D0424A536843F460535360404A5B
:102C2000536823F0F003A1680B435360236813F04B
:102C3000010F31D06368012B20D0022B25D0384AF8
:102C4000126812F0020F64D035494A6822F003027C
:102C500013434B60FFF768FD0646314B5B6803F09A
:102C60000C036268B3EB820F16D0FFF75DFD801B8B
:102C700041F288339842F0D9032045E0284A12688F
:102C800012F4003FE0D101203EE0254A126812F024
:102C9000007FD9D1012037E0204B1B6803F00703E8
:102CA000AB420AD91D4A136823F007032B43136074
:102CB000136803F00703AB422DD1236813F0040F10
:102CC00006D0174A536823F4E063E1680B4353606E
:102CD000236813F0080F07D0114A536823F4605398
:102CE000216943EAC1035360FFF742FF0C4B5B6865
:102CF000C3F303130B4AD35CD8400B4B18600B4B48
:102D00001868FEF7D7FB002070BD01207047012036
:102D1000FAE70120F8E70120F6E700BF00200240B3
:102D200000100240B4AA0008200000201C0000206F
:102D3000014B1868704700BF2000002008B5FFF75E
:102D4000F7FF044B5B68C3F30223034AD35CD8400C
:102D500008BD00BF00100240C4AA000808B5FFF774
:102D6000E7FF044B5B68C3F3C223034AD35CD8403C
:102D700008BD00BF00100240C4AA00080F23036072
:102D80000B4B5A6802F0030242605A6802F0F002EC
:102D900082605A6802F4E062C2605B68DB0803F498
:102DA000E0630361034B1B6803F007030B6070478C
:102DB000001002400020024070B582B00024A446FA
:102DC000A6E0804DAA4210D007D97F4DAA420CD070
:102DD00005F58035AA4208D013E0A5F58015AA4272
:102DE00003D005F57025AA4207D18A68002A58D079
:102DF000012A51D04361082403E0A5F58015AA42B9
:102E0000F3D0BEF1FF0F4ED80646BEF1FF0F4CD8EF
:102E10004FEA8C0233680F25954023EA050304FA34
:102E200002F2134333604B6813F0805F6ED0674B40
:102E30009A6942F001029A619B6903F001030193D0
:102E4000019B4FEA9C02951C614B53F825600CF0E6
:102E500003039D000F23AB4026EA03065D4B984217
:102E600029D003F58063984200F08E8003F58063DB
:102E7000984200F08B8003F58063984219D00423B8
:102E80001AE0CC68BDE7CC680434BAE7CC680834F3
:102E9000B7E7CC680C34B4E703610824B1E7002439
:102EA000AFE70424ADE7061DAFE7ACF108029200DE
:102EB000B0E7032300E00023AB4033430232444D2C
:102EC00045F822304B6813F4801F61D0424A936862
:102ED00043EA0E0393604B6813F4001F5ED03E4A32
:102EE000D36843EA0E03D3604B6813F4003F5BD012
:102EF000394A536843EA0E0353604B6813F4803F2A
:102F000058D0354A136843EA0E0313600CF1010CE4
:102F10000A6832FA0CF353D0012303FA0CF302EAE5
:102F2000030E33EA0202F1D14A68122A3FF649AF92
:102F3000122A3FF666AF01A555F822F0EB2D0008E6
:102F4000832E00088D2E00089F2E0008032E0008F7
:102F5000032E0008032E0008032E0008032E00088D
:102F6000032E0008032E0008032E0008032E00087D
:102F7000032E0008032E0008032E0008032E00086D
:102F8000872E0008932E0008012395E7022393E77C
:102F9000114A936823EA0E0393609CE70E4AD368B4
:102FA00023EA0E03D3609FE70B4A536823EA0E031C
:102FB0005360A2E7084A136823EA0E031360A5E7EB
:102FC00002B070BD0000221000003110001002405D
:102FD00000000140000801400004014083681942DC
:102FE00001D001207047002070470AB1016170478D
:102FF000090401617047C36801EA030221EA030181
:1030000041EA024101617047074AD36823F4E06353
:103010001B041B0C000200F4E060034343F0BF6399
:1030200043F40033D360704700ED00E000B5194B66
:10303000DB68C3F30223C3F1070CBCF1040F28BF04
:103040004FF0040C03F1040EBEF1060F18D9033B38
:103050004FF0FF3E0EFA0CFC21EA0C0199400EFAEB
:1030600003F322EA0303194300280BDB0901C9B269
:1030700000F1604000F5614080F800135DF804FB4A
:103080000023E5E700F00F000901C9B2024B195413
:10309000F4E700BF00ED00E014ED00E0002807DBDE
:1030A00000F01F02400901239340024A42F82030F9
:1030B000704700BF00E100E02DE9F04782B005460F
:1030C000884617461E46FFF72FFB0A9B1B1A03EB89
:1030D0000609FFF729FB82462B4B1B68C3F3CB3352
:1030E00009FB03F301932B689C6838EA04030CBFC7
:1030F0004FF0010C4FF0000CBC4540D0B6F1FF3F43
:10310000F1D0FFF711FBA0EB0A0048450AD2B9F154
:10311000000F07D0019A02B14A46019B013B01937F
:103120009146E0E72A68536823F0E00353606B6838
:10313000B3F5827F0BD0AB6AB3F5005F14D00123E7
:1031400085F85130002385F85030032018E0AB6833
:10315000B3F5004F02D0B3F5806FECD12A68136845
:1031600023F040031360E6E72A68136823F4005352
:1031700013602A68136843F400531360DFE70020EC
:1031800002B0BDE8F08700BF2000002070B582B01B
:1031900006460C46154600920B4601220221FFF717
:1031A0008BFF48B900952346002280213046FFF767
:1031B00083FF38B902B070BD736D43F020037365AF
:1031C0000320F7E7736D43F0200373650320F1E7F5
:1031D000002856D010B50446436A33B94368B3F5A6
:1031E000827F05D00023C36102E0002303614361B5
:1031F0000023A36294F85130002B3CD0022384F8C2
:1032000051302268136823F040031360636803F4AD
:103210008273A26802F404421343E26802F400627B
:103220001343226902F002021343626902F00102B1
:103230001343A26902F400721343E26902F03802F8
:103240001343226A02F080021343A26A02F400527E
:10325000216813430B60638B226803F004035360FF
:103260002268D36923F40063D361002060650123E1
:1032700084F8513010BD84F850302046FEF74AF8EB
:10328000BCE7012070472DE9F04383B0044689462E
:1032900090461D46FFF748FA94F85160F6B2012EA9
:1032A00040F0CC800746B9F1000F00F0C880B8F1BB
:1032B000000F00F0C48094F85030012B00F0C38060
:1032C000012384F85030032384F8513000236365D0
:1032D000C4F83090A4F83480A4F83680A363A387A0
:1032E000E38763642364A368B3F5004F1ED02368AB
:1032F0001A6812F0400F03D11A6842F040021A60B7
:10330000E368B3F5006F1CD0636813B1B8F1010F27
:103310005FD1226B236812781A73236B0133236306
:10332000E38E9BB2013B9BB2E38652E022681368B6
:1033300023F0400313602268136843F48043136052
:10334000D5E7636813B1B8F1010F15D1226B23687B
:103350001288DA60236B02332363E38E9BB2013B56
:103360009BB2E38608E0FFF7DFF9C01BA84202D357
:10337000B5F1FF3F15D1A5B1E38E9BB2002B42D032
:1033800023689A6812F0020FEDD0226B1288DA607F
:10339000236B02332363E38E9BB2013B9BB2E38634
:1033A000EAE7012384F85130002384F850300326E3
:1033B00045E0226B12781A73236B01332363B4F850
:1033C00036C01FFA8CFC0CF1FF3C1FFA8CFCA4F8F1
:1033D00036C0E38E9BB2B3B123689A6812F0020F35
:1033E000E7D1FFF7A1F9C01BA84202D3B5F1FF3F17
:1033F00001D1002DEDD1012384F85130002384F850
:10340000503003261BE03A4629462046FFF7BEFE11
:1034100008B120236365A36833B901932368DA6890
:1034200001929B680193019B012384F85130002392
:1034300084F85030636D13B9002600E00226304650
:1034400003B0BDE8F0830226F9E72DE9F04383B02D
:103450000446884691461F460A9DFFF765F90646D1
:1034600094F85130DBB26268012B0AD0B2F5827F4A
:1034700040F00581A268002A40F00581042B40F04D
:103480000481B8F1000F00F00281B9F1000F00F0E3
:103490000081002F00F0FF8094F85030012B00F0E5
:1034A000FC80012384F8503094F85130DBB2042BB7
:1034B00002D0052384F8513000236365C4F83890A6
:1034C000E787A787C4F83080E786A786236463640C
:1034D00023681A6812F0400F03D11A6842F04002C4
:1034E0001A60E368B3F5006F11D063680BB1012F68
:1034F0000BD1226B236812781A73236B0133236379
:10350000E38E9BB2013B9BB2E386012771E06368C7
:103510000BB1012F0BD1226B23681288DA60236B69
:1035200002332363E38E9BB2013B9BB2E386012708
:103530001BE023689A6812F0010F0ED0E28F92B25E
:103540005AB1DA68A36B1A80A36B0233A363E38FCB
:103550009BB2013B9BB2E3870127FFF7E5F8801B95
:10356000A84202D3B5F1FF3F1ED1E38E9BB21BB937
:10357000E38F9BB2002B62D023689A6812F0020F8F
:10358000D7D0E28E92B2002AD3D0002FD1D0226BB6
:103590001288DA60236B02332363E38E9BB2013B14
:1035A0009BB2E3860027C4E7012384F8513000234F
:1035B00084F85030032063E023689A6812F0010F0A
:1035C0000ED0E28F92B25AB1DA68A36B1A70A36B75
:1035D0000133A363E38F9BB2013B9BB2E3870127D7
:1035E000FFF7A2F8831BAB4202D3B5F1FF3F1ED118
:1035F000EDB1E38E9BB213B9E38F9BB2FBB12368AD
:103600009A6812F0020FD7D0E28E92B2002AD3D07D
:10361000002FD1D0226B12781A73236B01332363EE
:10362000E38E9BB2013B9BB2E3860027C4E70123F4
:1036300084F85130002384F85030032020E03246D3
:1036400029462046FFF7A2FD90B9A36833B901933C
:103650002368DA6801929B680193019B012384F837
:103660005130002384F85030636D4BB1012007E0E6
:1036700020236365002384F85030012000E00220FD
:1036800003B0BDE8F0830220FAE70220F8E701204A
:10369000F6E70120F4E70120F2E70220F0E790F8D6
:1036A00051007047026802F10C0353E8003F23F415
:1036B00090730C3242E800310029F3D1026802F124
:1036C000140353E8003F23F00103143242E80031B1
:1036D0000029F3D1036B012B05D0202380F8423061
:1036E000002303637047026802F10C0353E8003FB4
:1036F00023F010030C3242E800310029F3D1ECE74B
:1037000010B504460268136923F44053C1680B43A3
:10371000136183680269134342691A430168CB68E5
:1037200023F4B05323F00C031343CB6002685369B6
:1037300023F4407381690B4353610268134B9A422F
:1037400020D0FFF7FBFA024602EB820202EB820274
:1037500063689B00B2FBF3F20D48A0FB02314909FC
:10376000642303FB11231B013233A0FB03235B09FA
:1037700003F0F00202EB011203F00F03216813447F
:103780008B6010BDFFF7EAFA0246DDE70038014022
:103790001F85EB512DE9F04383B005460E461746D1
:1037A0009946DDF828802C68246836EA04030CBFAB
:1037B0004FF0010C4FF0000CBC4528D1B8F1FF3F91
:1037C000F1D0FEF7B1FFA0EB0900404523D8B8F1D6
:1037D000000F22D02B68DA6812F0040FE3D0802E9D
:1037E000E1D0402EDFD01A6812F0080FDBD00024A1
:1037F00001941A6801925B680193019B2846FFF7C8
:1038000051FF08236B6485F84040012000E0002050
:1038100003B0BDE8F0830320FAE70320F8E760B3C4
:1038200010B5044690F8413013B3242384F8413096
:103830002268D36823F40053D3602046FFF760FF6B
:103840002268136923F4904313612268536923F0BB
:103850002A0353612268D36843F40053D3600020E5
:103860006064202384F8413084F84230606310BDE6
:1038700080F84030FDF7A2FDD7E7012070472DE921
:10388000F04182B01E4690F84130DBB2202B56D179
:1038900004460D469046002955D00AB901204FE054
:1038A00000234364212380F84130FEF73DFF0746A3
:1038B000A4F82480A4F82680A368B3F5805F02D022
:1038C0004FF0000814E023692BB34FF000080FE01D
:1038D000202384F84130032032E038F8023B22688C
:1038E000C3F308035360E28C92B2013A92B2E284CD
:1038F000E38C9BB293B100963B4600228021204688
:10390000FFF748FF0028E3D1002DE6D015F8012B82
:1039100023685A60E7E7A8460025E9E700963B469A
:10392000002240212046FFF735FF18B9202384F8F4
:10393000413005E0202384F84130032000E00220DC
:1039400002B0BDE8F0810120FAE7704708B5044BEA
:1039500003EB8002526852680344187A904708BD0E
:103960002C0E002008B5084B1B5C53B9064B0122F6
:103970001A5403EB8002526812681844007A904788
:1039800008BD0020FCE700BF2C0E002038B5044C19
:1039900004EB80056D68AD680444207AA84738BD03
:1039A0002C0E002038B5044C04EB80056D68ED68E2
:1039B0000444207AA84738BD2C0E002010B5044BD3
:1039C00003EB8004646824690344187AA04710BD9F
:1039D0002C0E002004E011F8012B00F8012B1A46F0
:1039E000531E002AF7D1704702E000F8011B1A4667
:1039F000531E002AF9D1704710B403460020144624
:103A0000013A34B113F8010B11F801CBB0EB0C0003
:103A1000F5D010BC7047034600E00133187808B1B8
:103A20008842FAD17047000030B400252B4601E0EF
:103A300001250133012B1ED803EB43021C4C54F823
:103A40002220002AF4D0D0F80042A242F1D103EBA8
:103A50004302174C04EB82025468D0F808229442C7
:103A6000E7D103EB4302124C04EB82021489B0F855
:103A700006229442DDD1022B0CD0B1B903EB4303F3
:103A80000B4A02EB83035B89B3F5807F0BD00020E8
:103A900030BC70472DB9022901D01220F8E7002070
:103AA000F6E70020F4E71020F2E71020F0E700BF6F
:103AB000100E0020002000E00130012806D800EBA5
:103AC00040029300034AD358002BF5D1023818BFA7
:103AD00001207047100E002010B5002300E00133D4
:103AE000012B1CD803EB43022D4C54F82240D0F894
:103AF00000229442F3D103EB4302294C04EB8202EF
:103B00005468D0F808229442E9D103EB4302244CD4
:103B100004EB82021489B0F806229442DFD1022B12
:103B200011D031B103EB43021D4800EB82025289F0
:103B3000A2BB39BB03EB4302194901EB8202518955
:103B4000013189B220E00023012B07D803EB4302A7
:103B5000134C54F822200AB10133F5E7022B1BD095
:103B60000F4C03EB430C04EB8C02D0F800E244F85A
:103B70002CE0D0F808425460B0F806021081002012
:103B80005081CEE74FF4807103EB4300044A02EB0F
:103B900080025181581C10BD0020FCE70020FAE78C
:103BA000100E0020013801281AD800EB40030E4AFD
:103BB00002EB83035B89B3F5807F03D01BB1013B2C
:103BC0009BB200E0002300EB4002074901EB8202B8
:103BD00053813BB900EB400083000020C850704780
:103BE0000220704700207047100E0020002302E0E2
:103BF00010BC70470133012B17D803EB43020B496C
:103C000051F822208242F5D110B403EB4302920016
:103C100000248C500133012BEAD803EB4302034903
:103C200051F822208242F5D1EFE77047100E0020B4
:103C3000D0F824320433490AD0F8002292F8022244
:103C4000B1FBF2F101E0091A0833186818B181429A
:103C5000F9D2586808447047CA7E8B7E43EA022333
:103C600090F80022032A01D018467047487D0A7D4B
:103C700042EA002243EA0243F6E78176C1F30723D2
:103C8000C376C1F307430375090E41757047000001
:103C90002DE9F84F89460C6800E0013423782F2B7A
:103CA000FBD05C2BF9D0D0F818A20B222021504673
:103CB000FFF79AFE002633464FF00808374619E012
:103CC000BF00FFB246464FF00B0812E015F0800F20
:103CD00025D129463148FFF79EFE00285AD1A5F18B
:103CE0004103DBB2192B20D847F002070AF806502F
:103CF00001365B4603F1010BE55C202D1FD92F2D0A
:103D00001DD05C2D1BD02E2D01D0B045DED8B8F1D2
:103D1000080F3DD12E2DD3D00620BDE8F88F47F0F7
:103D20000307803D1E4B5D5DD3E7A5F16103DBB268
:103D3000192BDBD847F00107203DEDB2D6E75C44F4
:103D4000C9F80040202D14D804232EB39AF800207F
:103D5000E52A10D0B8F1080F11D007F00302012AAC
:103D600010D007F00C07042F0FD08AF80B3000207A
:103D7000D3E70023E9E705228AF80020EAE7BF003D
:103D8000FFB2EAE743F01003EBE743F00803ECE788
:103D90000620C2E70620C0E70620BEE7CCAA00083E
:103DA000DCAA00080146006838B102461378202BCF
:103DB00006D93A2B04D00132F8E74FF0FF307047B4
:103DC0003A2B01D00020704710B4034613F8010BC2
:103DD0003038092808D89A4202D04FF0FF3005E069
:103DE00030B901320A6001E04FF0FF3010BC70477B
:103DF0004FF0FF30FAE7F8B590F804520DB92846B5
:103E0000F8BD0446D0F8307201233A46014690F8D6
:103E10000102FFF7C7FD0546D0B9002384F804323C
:103E2000D4F82432FB1AD4F81C229342E7D294F837
:103E300003620AE0D4F81C321F4401233A462146AB
:103E400094F80102FFF7AEFD013E012EF2D8D6E74D
:103E50000125D4E770B5D0F830328B4202D100266C
:103E6000304670BD04460D46FFF7C5FF06460028E4
:103E7000F6D101232A46214694F80102FFF786FD78
:103E800010B101264FF0FF35C4F83052E8E70000CA
:103E900010B50446002380F804324FF0FF33C0F819
:103EA0003032FFF7D7FF98BB024694F8FF1194F821
:103EB000FE3143EA01231BB217498B422AD194F801
:103EC000391094F838301B0443EA016394F8371032
:103ED00043EA012394F836100B4323F07F430F4944
:103EE0008B4213D094F8551094F854301B0443EAD5
:103EF000016394F8531043EA012394F852100B43E2
:103F000023F07F4305498B4200D00122104610BDAB
:103F10000322FBE70222F9E755AAFFFF46415400BE
:103F200008B5D0F80C0201F043FC08BD2DE9F043C0
:103F300085B005461746002303600846FFF732FFA9
:103F4000061EC0F2A481A14B53F82640002C00F0BD
:103F5000A0812046FFF7E4FF002800F09F812C603D
:103F600094F800327BB194F80102FFF7EFFC10F0F7
:103F7000010508D1002F00F08D8110F0040F00F032
:103F800089810A2586E1002384F80032F0B284F8A2
:103F90000102FFF7E7FC10F0010F40F081811FB133
:103FA00010F0040F40F07E8100212046FFF770FFE3
:103FB0000546012800F0D4800027032D00F074810D
:103FC000002D40F07381227BE37A43EA02231BB287
:103FD000B3F5007F40F06C81E27DA37D53EA0223BC
:103FE0000DD194F8272094F826301B0443EA02638D
:103FF00094F8252043EA022394F824201343C4F8BC
:104000001C32217C84F803124A1ED2B2012A00F22B
:10401000518103FB01F1607B84F80202002800F06B
:104020004B81421E104240F04981A27C667C46EAE8
:104030000226A4F8086216F00F0F40F0418194F8B0
:1040400014C0E27C52EA0C220ED194F823C094F8FA
:104050002220120442EA0C6294F821C042EA0C22A7
:1040600094F820C042EA0C0294F80FE094F80EC0D5
:104070005CEA0E2C00F026810CEB010909EB161905
:104080004A45C0F02181A2EB0902B2FBF0FE824258
:10409000C0F01C8140F6F57296457AD84FF00108C1
:1040A0004FF6F572964501D94FF003080EF1020E56
:1040B000C4F818E2C4F820720CEB0702C4F82422FA
:1040C00007EB0900C4F82C02B8F1030F64D0002EEE
:1040D00000F000811144C4F82812B8F1020F71D029
:1040E0000EEB4E010EF0010202EB510202F2FF1242
:1040F000B3EB522FC0F0F0804FF0FF33C4F814320E
:10410000C4F81032802384F80532B8F1030F61D06F
:1041100084F800822E4A138801339BB21380A4F8DE
:1041200006322046FFF762FDB4E0002304AA02EB4A
:10413000810242F8103C0131032913D80B0103F529
:10414000DF7323441A79002AEFD0D87A9A7A1204BE
:1041500042EA0062587A42EA00221B7A1343E5E7FA
:104160000021E9E700260BE039462046FFF790FEE4
:10417000054600283FF421AF0136032E3FF61DAF60
:1041800004AB03EB860353F8107C002FECD102251F
:10419000F2E74FF0020883E7002E40F0998094F890
:1041A0002F1094F82E20120442EA016294F82D1088
:1041B00042EA012294F82C100A43C4F828224FEA5C
:1041C0008E0293E74FEA4E0290E700BF0C0E0020EC
:1041D000280E002094F8312094F8303043EA02236E
:1041E0001BB2012B94D1791C2046FFF733FE002827
:1041F0008ED1002384F8053294F8FF2194F8FE3123
:1042000043EA02231BB2354A934281D1E278A37874
:104210001B0443EA0263627843EA022322781343D1
:104220002F4A93427FF474AF94F8E72194F8E63173
:104230001B0443EA026394F8E52143EA022394F85D
:10424000E4211343274A93427FF462AF94F8EB21B1
:1042500094F8EA311B0443EA026394F8E92143EA43
:10426000022394F8E8211343C4F8143294F8EF21A0
:1042700094F8EE311B0443EA026394F8ED2143EA1B
:10428000022394F8EC211343C4F8103240E70B25C5
:1042900000E00C25284605B0BDE8F0830F25F9E7BE
:1042A0000325F7E70A25F5E70125F3E70D25F1E7F3
:1042B0000D25EFE70D25EDE70D25EBE70D25E9E7EA
:1042C0000D25E7E70D25E5E70D25E3E70D25E1E7FA
:1042D0000D25DFE70D25DDE70D25DBE755AAFFFFFF
:1042E000525261417272416138B560B10546D0F8F1
:1042F000003243B193F800222AB1B3F80612B0F8A5
:104300000422914202D00924204638BD93F80102CC
:10431000FFF71CFB10F00104F5D1D5F80002FFF700
:10432000FFFD0028F0D10F24EEE770B108B50C298D
:1043300005D00B2903D0092901D00F2900D108BDD0
:10434000D0F80C0201F03EFAF9E7704738B50446A0
:10435000FFF751FD054658B994F80032032B09D0F8
:104360000022114694F80102FFF728FB00B1012555
:10437000284638BD94F80532012BF1D14FF4007274
:1043800000212046FFF730FB552384F8FE31AA2395
:1043900084F8FF315223237063706123A37041229C
:1043A000E270722184F8E41184F8E51184F8E621C2
:1043B00084F8E731D4F8143284F8E831C3F30722E3
:1043C00084F8E921C3F3074284F8EA211B0E84F83C
:1043D000EB31D4F8103284F8EC31C3F3072284F8BF
:1043E000ED21C3F3074284F8EE211B0E84F8EF3170
:1043F000D4F820220132C4F830220123214694F857
:104400000102FFF7CFFA002384F80532A8E702394A
:10441000D0F81832023B8B4206D990F80232D0F81D
:104420002C0201FB030070470020704701295ED970
:10443000F8B505460C46D0F818328B4259D990F899
:104440000032022B2BD0032B39D0012B01D00120BD
:1044500050E001EB5106D0F8241201EB5621FFF792
:10446000F9FC10B14FF0FF3044E0771CC6F30806AA
:10447000AE5DD5F8241201EB57212846FFF7EAFC80
:10448000002838D1C7F30807E85D46EA002014F099
:10449000010F01D000092DE0C0F30B002AE0D0F895
:1044A000241201EB1421FFF7D5FC38BB640004F49F
:1044B000FF742B195B78285D40EA03201AE0D0F8DE
:1044C000241201EBD411FFF7C5FCD0B9A40004F409
:1044D000FE742B19DA789878000440EA02605B7861
:1044E00040EA03202B5D184320F0704002E00120D9
:1044F00070470120F8BD4FF0FF30FBE74FF0FF3071
:10450000F8E74FF0FF30F5E7F8B50746A0F80612D8
:10451000D0F80842012C44D00E46D0F80032D3F82F
:104520001822A2423FD91CB993F80022032A17D0BF
:10453000CCB9B3F80822B24237D9D3F82802C7F869
:104540000C42D0B300EB1610C7F81002D7F80032B7
:1045500006F00F0103EB4111C7F814120020F8BD5B
:10456000D3F82842E4E793F802522D01AE4212D369
:104570002146D7F80002FFF759FF0446B0F1FF3F8C
:1045800015D0012815D9D7F80032D3F81832834254
:1045900011D9761BEAE72146D7F80002FFF737FF6B
:1045A000CDE70220DBE70220D9E70220D7E7012090
:1045B000D5E70220D3E70220D1E70220CFE7012987
:1045C00040F285802DE9F04105460C461646D0F8AC
:1045D00018328B427DD990F80032022B42D0032B47
:1045E00054D0012B02D00220BDE8F08101EB51072D
:1045F000D0F8241201EB5721FFF72CFC0028F3D14F
:1046000007F10108C7F3080714F001041FD0EB57A6
:1046100003F00F03320102F47F621343DBB2EB5568
:10462000012385F80432D5F8241201EB58212846DD
:10463000FFF710FC0028D7D1C8F308084CB1C6F327
:10464000071205F80820012385F80432CCE7F3B2FD
:10465000E5E715F9082022F00F02C6F303263243DE
:10466000D2B2EEE7D0F8241201EB1421FFF7F2FBEF
:104670000028B9D1640004F4FF742B192E55C6F339
:1046800007225A70012385F80432ADE7D0F82412CE
:1046900001EBD411FFF7DEFB0028A5D1A40004F440
:1046A000FE742919CA788B781B0443EA026303F06D
:1046B000704333432E55C6F307224A70C6F30742B0
:1046C0008A701B0ECB70012385F804328CE7022020
:1046D0007047022088E7F8B505460F4641B9D0F883
:1046E00010629EB1D0F81832B34210D801260EE005
:1046F000FFF79CFE034601284BD9B0F1FF3F4DD098
:10470000D5F81822824249D83E4600E001263446B8
:104710000CE021462846FFF789FE034678B1B0F148
:10472000FF3F3BD0012839D0B44236D00134D5F810
:104730001832A342EDD8012E2DD90224E9E76FF0FB
:10474000704221462846FFF73AFF034600B997B961
:10475000C3B9C5F81042D5F81432B3F1FF3F1FD0EA
:10476000013BC5F8143295F8053243F0010385F892
:104770000532234612E0224639462846FFF71FFF3E
:104780000346E5E7012B01D0012307E04FF0FF339B
:1047900004E0012302E0002300E000231846F8BDF6
:1047A0002346FBE72DE9F843B0F806526B1C9AB29A
:1047B000002A00F0838004460F46D0F81022002A19
:1047C0007ED013F00F060BD10132C0F81022D0F8C2
:1047D0000C1289B9D0F80022B2F808229A4271D995
:1047E0000135A4F80652D4F8003203EB4613C4F89E
:1047F00014320020BDE8F883D0F8000290F80222BD
:10480000013A12EA1318EBD1FFF710FE8146012896
:104810005AD9B0F1FF3F59D0D4F80002D0F818327D
:104820004B4541D8002F53D0D4F80C12FFF753FF5B
:10483000814600284ED001284ED0B0F1FF3F4DD028
:10484000D4F80002FFF7D7FA08B10120D2E74FF4FD
:1048500000720021D4F80002FFF7C6F8D4F8007205
:1048600049463846FFF7D3FDC7F83002D4F8003286
:1048700093F80222424511D9012283F80422D4F888
:104880000002FFF7B8FA58BBD4F80022D2F8303251
:104890000133C2F8303208F10108E7E7D3F83022DB
:1048A000A2EB0802C3F83022C4F80C924946D4F8AF
:1048B0000002FFF7ACFDC4F8100291E7042099E76D
:1048C000042097E7042095E7022093E7012091E771
:1048D00004208FE707208DE702208BE7012089E77E
:1048E000012087E738B504460021FFF70DFE054695
:1048F00040B1284638BD00212046FFF753FF05464A
:104900000028F6D1D4F81012D4F80002FFF7A2FA6A
:1049100005460028EDD1D4F8140203785BB1C37AC0
:1049200013F0080FE7D10B22D4F81812FFF764F840
:104930000028E0D1DDE70425DBE710B582B00446AE
:1049400001910B782F2B01D05C2B01D1013101910A
:104950000023C4F80832019B1B781F2B1DD901A925
:104960002046FFF795F90346F8B92046FFF7BAFF4E
:10497000D4F81832DA7A0346D0B912F0040F14D101
:10498000D4F81412CB7A13F0100F18D0D4F8000218
:10499000FFF762F9C4F80802E1E700212046FFF7BB
:1049A000B3FD03460022C4F81422184602B010BD1D
:1049B0000428FAD112F0040FF7D10523F5E70523F7
:1049C000F3E770B504460E460021FFF79DFD024651
:1049D000D8B9002508E00135B54216D0012120469E
:1049E000FFF7E0FE024680B9D4F81012D4F80002B6
:1049F000FFF730FA024640B9D4F814321B78E52BA1
:104A0000E9D0002BE7D00025E8E7042A01D01046C2
:104A100070BD0722FBE738B504460121FFF7D1FF3F
:104A2000054608B1284638BDD4F81012D4F8000263
:104A3000FFF710FA05460028F4D120220021D4F80F
:104A40001402FEF7D1FF0B22D4F81812D4F8140286
:104A5000FEF7C0FFD4F80032012283F80422E1E718
:104A6000F8B501292DD904460D46D0F818328B42ED
:104A70002AD9002700E03546D4F81832AB4221D9B4
:104A800029462046FFF7D2FC0646D8B101281DD0A2
:104A9000B0F1FF3F1CD0002229462046FFF78FFDD2
:104AA000074678B9D4F81432B3F1FF3FE3D00133AD
:104AB000C4F8143294F8053243F0010384F8053247
:104AC000D9E702273846F8BD0227FBE70227F9E7B6
:104AD0000127F7E770B584B0019000911646039165
:104AE00003A8FFF75FF9041E2FDB1C4B53F824507B
:104AF00055B12846FFF77AF8D5F80C0200F053FEBE
:104B000028B3002385F80032019941B1002381F8D0
:104B1000003201F50371E0B200F035FEC8B1019B2F
:104B20000E4A42F82430B3B1012E03D000242046AF
:104B300004B070BD0022694601A8FFF7F7F90446EA
:104B400001460198FFF7F1FBF1E70B24EFE70224A0
:104B5000EDE70224EBE70024E9E700BF0C0E00209C
:104B60002DE9F043ADF50F7D0191002800F0EF80B5
:104B7000144606460023C0F8003202F01F0702F078
:104B80001E0201A986A8FFF7D1F9054640B12946C2
:104B90008698FFF7CAFB28460DF50F7DBDE8F08328
:104BA00003AB8C93019906A8FFF7C7FEDDF82C82B2
:104BB000054658B9B8F1000F5DD037F0010314BFB6
:104BC0000121002106A8FEF72FFF054614F01C0F57
:104BD00000F0A780002D5AD0042D4ED047F00807D2
:104BE000DDF82C8215B917F0080F5CD1C5B917F0A4
:104BF000080F01D047F02007869BD3F83032C6F863
:104C00001C32C6F8208237F0010314BF01210021B5
:104C100006A8FEF761FFC6F82802002800F095807C
:104C2000002DB4D186F80672002486F80742869FCC
:104C300041463846FFF710F8C6F8100298F81F20D2
:104C400098F81E301B0443EA026398F81D2043EADB
:104C5000022398F81C201343C6F80C32C6F8084209
:104C6000C6F81842C6F82442C6F80072B7F80632F1
:104C7000A6F804328BE70625A8E7FEF71BFF08B964
:104C80001225ABE706A8FFF7C6FE0546A6E798F88B
:104C90000B3013F0110F04D114F0040FA2D008252B
:104CA000A0E707259EE7FCF763FC88F80E00C0F339
:104CB000072388F80F30C0F3074388F81030000E40
:104CC00088F81100002488F80B4088F81C4088F808
:104CD0001D4088F81E4088F81F4041468698FEF720
:104CE000BBFF814621464046FEF7C7FF8698012359
:104CF00080F80432B9F1000F3FF478AFD0F83042B9
:104D00004946FFF7ADFE054600287FF46FAF869851
:104D100009F1FF33C0F810322146FFF79BF8054632
:104D200064E7002D7FF462AF98F80B3013F0100F9A
:104D300009D114F0020F3FF459AF13F0010F3FF403
:104D400055AF072552E7042550E702251FE709253F
:104D500021E72DE9F04F83B0044688461646994670
:104D60000023C9F80030FFF7BFFA019078B994F832
:104D7000073201938BB994F8063213F0020F15D065
:104D8000D4F80832F342C0F0E1800026DEE00146AC
:104D9000D4F80002FFF7C9FA9AE01946D4F80002E5
:104DA000FFF7C3FA94F80732019391E00721D4F892
:104DB0000002FFF7BAFA0723019389E0D4F82432FE
:104DC000002B3DD02046FEF733FF0346002B00F0BA
:104DD000ED80012B3AD0B3F1FF3F41D0C4F814323B
:104DE000D4F810220AB9C4F8103294F8063213F03D
:104DF000400F3FD1D4F800B2D4F814125846FFF750
:104E000006FB8246002851D0BA44750AB6F5007FE9
:104E100070D37B199BF80222934200D9D51B2B46F5
:104E2000524641469BF80102FEF7BCFD002846D1E0
:104E3000D4F81812A1EB0A01A9424DD36D0279E012
:104E4000D4F81412FFF747FC0346BFE7022584F8A5
:104E500007522946D4F80002FFF767FA019537E0B8
:104E6000012584F807522946D4F80002FFF75DFABD
:104E700001952DE0D4F800020123D4F81822214630
:104E800090F80102FEF78EFD30B994F8063223F057
:104E9000400384F80632ADE7012584F8075229461D
:104EA000D4F80002FFF741FA019511E0022584F8D9
:104EB000075229465846FFF738FA019508E00125C0
:104EC00084F807522946D4F80002FFF72EFA01951C
:104ED000019803B0BDE8F08F4FF4007208EB412158
:104EE0002046FEF777FD94F8063223F0400384F85D
:104EF0000632A3E7D4F81832534505D0D4F8082277
:104F0000D4F80C329A423ED3C4F818A2D4F808025E
:104F1000C0F30800C0F50075AE4200D235462A46FF
:104F200041462044FEF756FD94F8063243F0400314
:104F300084F80632A844D4F808322B44C4F8083266
:104F4000D9F800302B44C9F80030761B76B3D4F87A
:104F50000812C1F30803002BD8D1D4F8000290F84E
:104F60000272013FFFB217EA51277FF43EAF0029DA
:104F70007FF424AFD4F81032002B7FF427AFFFF773
:104F8000AAFB034622E70123524621469BF8010271
:104F9000FEF7FCFC0028B7D0012584F8075229460B
:104FA000D4F80002FFF7C1F9019591E7D4F808326F
:104FB000D4F80C22934201D9C4F80C3294F806328A
:104FC00043F0200384F806320021D4F80002FFF7F2
:104FD000ACF97DE770B582B004460D460A290DD0C4
:104FE0006368002B08DB5E1C23441D733C2E09DC28
:104FF0006660A3680133A36002B070BD0D21FFF7A6
:10500000E9FFEDE7214651F80C0B01AB3246FFF703
:10501000A0FE019B9E4202D04FF0FF36E8E700263B
:10502000E6E738B50446FFF75FF9054600BB94F89C
:10503000063213F0200F1BD013F0400F10D0D4F81D
:1050400000020123D4F81822214690F80102FEF74D
:10505000A9FCA0B994F8063223F0400384F8063284
:10506000D4F81C12D4F80002FEF7F4FE054668B12D
:105070002946D4F80002FFF758F9284638BD012127
:10508000D4F80002FFF751F90125F6E7D4F82052D1
:10509000EB7A43F02003EB7294F80C322B77B4F8E0
:1050A0000C321B0A6B7794F80E32AB7794F80F3200
:1050B000EB77D4F810122846FEF7DFFDFCF758FA1C
:1050C000A875C0F30723EB75C0F307432B76000EDA
:1050D00068760023AB74EB7494F8063223F0200357
:1050E00084F80632D4F80032012283F80422D4F87E
:1050F0000002FFF72BF90546BAE770B50446FFF743
:1051000090FF054608B1284670BD2046FFF7ECF831
:1051100005460028F7D1D4F80062D4F82802FEF73B
:1051200041FD054610B90023C4F800320021304685
:10513000FFF7FBF8E7E72DE9F84F04460D46FFF7C8
:10514000D3F80646D8B994F80712F1B9D4F8243246
:10515000002B00F0C380B5F1FF3F1DD0D4F80C72D6
:10516000AF4200D32F46C4F80872002F60D13146F9
:10517000D4F80002FFF7D9F83046BDE8F88F0146B1
:10518000D4F80002FFF7D1F8F6E7D4F80002FFF7F1
:10519000CCF894F80762EFE7984658F804BBD4F8C7
:1051A00010A2BAF1000F36D04FF0020909F102093E
:1051B0005146002701370D46D4F80002FFF736F9B3
:1051C0000146012815D9B0F1FF3F1BD001358542BA
:1051D000F0D0CB4505D3434643F8087BC8F804A07C
:1051E0009846D4F80032D3F818328B4215D98A4643
:1051F000DCE7022684F807623146D4F80002FFF7A4
:1052000094F8B9E7012684F807623146D4F8000221
:10521000FFF78BF8B0E74FF00209D4F82432C3F857
:105220000090D94500F251810023C8F800309EE774
:1052300007F1FF3949462046FEF7FAFC0146C4F85B
:105240001402D4F800824046FFF7E1F860B398F802
:105250000252013D05EA59250544C7F30807002F0E
:1052600085D0D4F81822AA4281D094F8063213F0DF
:10527000400F0CD00123214698F80102FEF792FB63
:10528000D0B994F8063223F0400384F80632D4F8FB
:10529000000201232A46214690F80102FEF776FB20
:1052A00098B9C4F8185262E7022684F807623146BA
:1052B0004046FFF73AF85FE7012684F80762314677
:1052C000D4F80002FFF731F856E7012684F80762A8
:1052D0003146D4F80002FFF728F84DE7D4F80C3235
:1052E000AB4205D294F8062212F0020F00D11D46FF
:1052F000D4F808320022C4F808220DB3D4F8000212
:1053000090F802824FEA482883B16A1EB2FBF8F295
:10531000013BB3FBF8F18A4208D3C8F100071F40F4
:10532000C4F80872EF1BD4F8145207E0D4F8103216
:10533000002B42D0C4F814322F461D46002D74D1E4
:10534000D4F80832C3F308033BB3D4F81822AA42B6
:1053500023D094F8063213F0400F10D0D4F8000296
:105360000123214690F80102FEF71CFB002840F0C3
:105370009A8094F8063223F0400384F80632D4F879
:10538000000201232A46214690F80102FEF7FEFAA8
:10539000002840F09180C4F81852D4F80832D4F8AC
:1053A0000C2293427FF6E3AEC4F80C3294F8063236
:1053B00043F0200384F80632D9E60021FFF78BF989
:1053C0000346012805D0B0F1FF3F0BD0C4F810020E
:1053D000B0E7022684F807623146D4F80002FEF7EF
:1053E000A4FFC9E6012684F807623146D4F800021A
:1053F000FEF79BFFC0E62946D4F80002FFF716F837
:105400000546B5F1FF3F32D0012D39D9D4F800322D
:10541000D3F81832AB4233D9C4F81452D4F8083256
:105420004344C4F80832A7EB080747450DD994F860
:10543000063213F0020FDED02946D4F80002FFF73F
:105440004AF905460028DCD14746D4F808323B44E7
:10545000C4F80832C7F308031BB3D4F80082294606
:105460004046FEF7D4FFA0B100EB572568E70126C0
:1054700084F807623146D4F80002FEF756FF7BE657
:10548000022684F807623146D4F80002FEF74DFF89
:1054900072E6022684F8076231464046FEF745FF71
:1054A0006AE61D464CE7012684F807623146D4F8C7
:1054B0000002FEF73AFF5FE6012684F807623146F4
:1054C000D4F80002FEF731FF56E611264FE60EB47F
:1054D0002DE9F0479BB023AB53F8045B0190002209
:1054E000029203921993F7E002352178302904D013
:1054F0002D2906D0002600240EE0A51C6178012687
:10550000F9E7A51C61780226F5E704EB840401EBBA
:105510004404303C15F8011BA1F13003DBB2092B28
:10552000F3D96C2901D04C2903D146F0040615F8B3
:10553000011B002900F0DC80A1F16103DBB2192B13
:1055400014D8A1F12003DBB2A3F14202162A53D8EA
:10555000DFE802F0563B43525252525252525252DC
:1055600052585252520E5243525250000B46EBE7E1
:10557000199B1A1D1992D3F80080002700E001370B
:1055800018F80730002BFAD116F0020F0FD104E003
:10559000202101A8FFF71EFD37467E1CA742F7D346
:1055A000374604E008F1010801A8FFF713FD98F859
:1055B00000100029F6D104E0202101A8FFF70AFD20
:1055C00037467E1CA742F7D386E0199B1A1D199215
:1055D000197801A8FFF7FEFC7EE00A2016F0040F00
:1055E00012D0199A171D19971268442B18D04FF032
:1055F000000C2BE01020F1E701A8FFF7EBFC6BE0BB
:105600000220EBE70820E9E7442B04D0199A171D84
:1056100019971268E9E7199A171D19971268E4E7B4
:10562000002AE4DA524246F00806E0E727273B4426
:10563000DBB20CF1010730330CF16809E94409F8D9
:10564000183CC64510D80F2F0ED8BC468646B2FB74
:10565000F0F700FB1723DBB290463A46092BE8D956
:105660007829E3D00727E2E716F0080F08D007F102
:1056700068030DEB03072D2307F8183C0CF1020714
:1056800016F0010F0FD04FF0300AB84616F0020F97
:105690000DD108F10109A04508D2514601A8FFF734
:1056A00099FCC846F2E74FF0200AEEE7C846013FF2
:1056B00007F168036B4413F8181C01A8FFF78AFC74
:1056C000002FF4D104E0514601A8FFF783FCB04657
:1056D00008F10106A045F6D32C4614F8011B39B198
:1056E00025293FF401AF01A8FFF774FC2546F3E735
:1056F000029A002A0FDB18AB04A90198FFF729FBD7
:1057000060B9029A189B9A420BD103981BB0BDE86E
:10571000F04703B070474FF0FF30F7E74FF0FF302E
:10572000F4E74FF0FF30F1E7134B5B7ADBB2012B6C
:1057300001D90120704710B404460F4B93F809C0FB
:105740005FFA8CFC002003F80C0093F809C003EB0F
:105750008C0CCCF804405C7A1C4422725A7A541C9B
:10576000E4B25C7230320A703A234B702F238B7094
:10577000C87010BC704700BF2C0E002008B5002276
:10578000FFF7D2FF08BD10B582B00C46002300938E
:1057900001930121684601F078FC2060003818BFB1
:1057A000012002B010BD08B501F0EFFC012008BDDA
:1057B00008B54FF47A7101F08CFC08B1002008BDE7
:1057C0000120FCE708B501F0B3FC08BD00F10803B7
:1057D00043604FF0FF328260C360036100230360C7
:1057E000704700230361704743684B609A688A6082
:1057F000516099600861036801330360704730B4F9
:105800000D68B5F1FF3F11D000F108031C465B683D
:105810001A68AA42FAD963684B6099608C6061602B
:10582000086103680133036030BC70470469F2E724
:105830000369416882688A60416851605A6882429F
:1058400006D0002202611A68013A1A60186870478F
:1058500082685A60F5E70346406A18B11B6B186806
:10586000C0F10500704710B5044601F013FEA26BAD
:10587000E36B9A4204D0002401F02EFE204610BDB6
:105880000124F9E710B5044601F004FEA36B23B927
:10589000012401F021FE204610BD0024F9E770B577
:1058A00004461546866B026C5AB903681BB100208A
:1058B0000136A66370BD806801F012FA0023A36070
:1058C000F6E76DB9406801F09DFF226C63681344F0
:1058D0006360A268934219D3236863602846E7E7B0
:1058E000C06801F08FFF226C5142E3689B1AE360AD
:1058F0002268934202D2A3680B44E360022D01D0D8
:105900000020D5E726B1013E0020D1E72846CFE7A9
:105910000020CDE708B50346026C62B10846D9689D
:105920001144D960D3F808C0614501D31968D96022
:10593000D96801F067FF08BD38B5054601F0AAFD3A
:1059400095F8454064B201E0013C64B2002C0ADDE8
:105950006B6A43B105F1240001F0C2F80028F3D0CE
:1059600001F052F9F0E7FF2385F8453001F0B4FD6E
:1059700001F090FD95F8444064B201E0013C64B24E
:10598000002C0ADD2B6943B105F1100001F0A8F8E5
:105990000028F3D001F038F9F0E7FF2385F8443010
:1059A00001F09AFD38BD38B5E0B10D46044601F06E
:1059B00071FD2368E26B216C01FB0230A0600020C6
:1059C000A0636360013A02FB0133E360FF2384F8C4
:1059D000443084F84530FDB9236963B901F07CFD9A
:1059E000012038BD4FF0500383F31188BFF36F8F50
:1059F000BFF34F8FFEE704F1100001F071F80028AB
:105A0000ECD04FF0E0234FF08052C3F8042DBFF3E9
:105A10004F8FBFF36F8FE1E704F11000FFF7D6FE61
:105A200004F12400FFF7D2FED8E710B50346029830
:105A30000C4631B90060C36304640121FFF7B3FF72
:105A400010BD0260F7E740B94FF0500383F31188AF
:105A5000BFF36F8FBFF34F8FFEE710B584B01C46C6
:105A6000844653B192B189B94FF0500383F3118842
:105A7000BFF36F8FBFF34F8FFEE74FF0500383F3F9
:105A80001188BFF36F8FBFF34F8FFEE76AB14823D2
:105A90000393039B482B13D04FF0500383F31188DB
:105AA000BFF36F8FBFF34F8FFEE70029EFD04FF0AA
:105AB000500383F31188BFF36F8FBFF34F8FFEE75F
:105AC000039B012384F8463000949DF8183060460B
:105AD000FFF7ABFF204604B010BD40B94FF05003B4
