:020000040800F2
:1000000000500020915C00080D1600080F16000833
:10001000111600081316000815160008000000004D
:100020000000000000000000000000007154000803
:10003000171600080000000011550008555500086B
:10004000D95C0008D95C0008D95C0008D95C0008BC
:10005000D95C0008D95C0008D95C0008D95C0008AC
:10006000D95C0008D95C0008D95C0008D95C00089C
:10007000D95C0008D95C0008D95C0008D95C00088C
:10008000D95C0008D95C000839160008D95C000862
:10009000D95C0008D95C0008D95C0008D95C00086C
:1000A000D95C0008D95C0008D95C0008D95C00085C
:1000B0001916000829160008D95C0008D95C000848
:1000C000D95C0008D95C0008D95C0008D95C00083C
:1000D000D95C0008D95C0008D95C0008D95C00082C
:1000E000D95C0008D95C0008D95C00080000000059
:1000F0000000000000000000000000000000000000
:0C01000000000000000000005FF808F1A3
:1001100010B5054C237833B9044B13B10448AFF341
:1001200000800123237010BD740000200000000037
:100130005C6E000808B5034B1BB103490348AFF3DD
:10014000008008BD00000000780000205C6E000800
:1001500081F0004102E000BF83F0004330B54FEA78
:1001600041044FEA430594EA050F08BF90EA020FE5
:100170001FBF54EA000C55EA020C7FEA645C7FEA78
:10018000655C00F0E2804FEA5454D4EB5555B8BF9B
:100190006D420CDD2C4480EA020281EA030382EA0C
:1001A000000083EA010180EA020281EA0303362D9E
:1001B00088BF30BD11F0004F4FEA01314FF4801C71
:1001C0004CEA113102D0404261EB410113F0004F83
:1001D0004FEA03334CEA133302D0524263EB43033A
:1001E00094EA050F00F0A780A4F10104D5F1200ED8
:1001F0000DDB02FA0EFC22FA05F2801841F1000133
:1002000003FA0EF2801843FA05F359410EE0A5F106
:1002100020050EF1200E012A03FA0EFC28BF4CF037
:10022000020C43FA05F3C01851EBE37101F00045ED
:1002300007D54FF0000EDCF1000C7EEB00006EEBFA
:100240000101B1F5801F1BD3B1F5001F0CD3490884
:100250005FEA30004FEA3C0C04F101044FEA4452DB
:1002600012F5800F80F09A80BCF1004F08BF5FEA62
:10027000500C50F1000041EB045141EA050130BD42
:100280005FEA4C0C404141EB0101013C28BFB1F554
:10029000801FE9D291F0000F04BF01460020B1FA9F
:1002A00081F308BF2033A3F10B03B3F120020CDA72
:1002B0000C3208DD02F1140CC2F10C0201FA0CF050
:1002C00021FA02F10CE002F11402D8BFC2F1200CB5
:1002D00001FA02F120FA0CFCDCBF41EA0C0190406B
:1002E000E41AA2BF01EB0451294330BD6FEA0404B4
:1002F0001F3C1CDA0C340EDC04F11404C4F120029F
:1003000020FA04F001FA02F340EA030021FA04F3B0
:1003100045EA030130BDC4F10C04C4F1200220FA07
:1003200002F001FA04F340EA0300294630BD21FA45
:1003300004F0294630BD94F0000F83F4801306BF0B
:1003400081F480110134013D4EE77FEA645C18BFFF
:100350007FEA655C29D094EA050F08BF90EA020F96
:1003600005D054EA000C04BF1946104630BD91EA8E
:10037000030F1EBF0021002030BD5FEA545C05D191
:100380004000494128BF41F0004130BD14F58004D0
:100390003CBF01F5801130BD01F0004545F0FE4144
:1003A00041F470014FF0000030BD7FEA645C1ABF79
:1003B000194610467FEA655C1CBF0B46024650EAB0
:1003C000013406BF52EA033591EA030F41F40021DC
:1003D00030BD00BF90F0000F04BF0021704730B562
:1003E0004FF4806404F132044FF000054FF0000137
:1003F00050E700BF90F0000F04BF0021704730B5F8
:100400004FF4806404F1320410F0004548BF4042CC
:100410004FF000013EE700BF42004FEAE2014FEA21
:1004200031014FEA02701FBF12F07F4393F07F4FFC
:1004300081F06051704732F07F4208BF704793F0FF
:100440007F4F04BF41F40021704730B54FF4607412
:1004500001F0004521F000411CE700BF50EA010215
:1004600008BF704730B54FF000050AE050EA0102BE
:1004700008BF704730B511F0004502D5404261EB2E
:1004800041014FF4806404F132045FEA915C3FF46F
:10049000D8AE4FF003025FEADC0C18BF03325FEA0C
:1004A000DC0C18BF033202EBDC02C2F1200300FABD
:1004B00003FC20FA02F001FA03FE40EA0E0021FAE2
:1004C00002F11444BDE600BF80F0004002E000BF2E
:1004D00081F0004142001FBF5FEA410392EA030F2F
:1004E0007FEA226C7FEA236C6AD04FEA1262D2EB79
:1004F0001363C1BFD218414048404140B8BF5B427E
:10050000192B88BF704710F0004F40F4000020F016
:100510007F4018BF404211F0004F41F4000121F02C
:100520007F4118BF494292EA030F3FD0A2F1010276
:1005300041FA03FC10EB0C00C3F1200301FA03F1B4
:1005400000F0004302D5494260EB4000B0F5000FD7
:1005500013D3B0F1807F06D340084FEA310102F196
:100560000102FE2A51D2B1F1004F40EBC25008BF48
:1005700020F0010040EA03007047490040EB000012
:10058000013A28BFB0F5000FEDD2B0FA80FCACF113
:10059000080CB2EB0C0200FA0CF0AABF00EBC25040
:1005A00052421843BCBFD0401843704792F0000F2E
:1005B00081F4000106BF80F400000132013BB5E781
:1005C0004FEA41037FEA226C18BF7FEA236C21D0F7
:1005D00092EA030F04D092F0000F08BF084670475C
:1005E00090EA010F1CBF0020704712F07F4F04D12A
:1005F000400028BF40F00040704712F100723CBF3D
:1006000000F50000704700F0004343F0FE4040F466
:10061000000070477FEA226216BF08467FEA236324
:100620000146420206BF5FEA412390EA010F40F40F
:10063000800070474FF0000304E000BF10F000435B
:1006400048BF40425FEA000C08BF704743F0964342
:1006500001464FF000001CE050EA010208BF70475D
:100660004FF000030AE000BF50EA010208BF7047E4
:1006700011F0004302D5404261EB41015FEA010CF9
:1006800002BF84460146002043F0B64308BFA3F1F1
:100690008053A3F50003BCFA8CF2083AA3EBC253D3
:1006A00010DB01FA02FC634400FA02FCC2F12002F2
:1006B000BCF1004F20FA02F243EB020008BF20F029
:1006C0000100704702F1200201FA02FCC2F120028F
:1006D00050EA4C0021FA02F243EB020008BF20EA84
:1006E000DC7070474FF0FF0C1CEAD0521EBF1CEAB2
:1006F000D15392EA0C0F93EA0C0F6FD01A4480EAA0
:10070000010C400218BF5FEA41211ED04FF0006388
:1007100043EA501043EA5111A0FB01310CF00040B4
:10072000B1F5000F3EBF490041EAD3715B0040EADA
:10073000010062F17F02FD2A1DD8B3F1004F40EBAA
:10074000C25008BF20F00100704790F0000F0CF07D
:10075000004C08BF49024CEA502040EA51207F3A41
:10076000C2BFD2F1FF0340EAC250704740F400001C
:100770004FF00003013A5DDC12F1190FDCBF00F00D
:1007800000407047C2F10002410021FA02F1C2F1BB
:10079000200200FA02FC5FEA310040F1000053EA57
:1007A0004C0308BF20EADC70704792F0000F00F0A5
:1007B000004C02BF400010F4000F013AF9D040EAAB
:1007C0000C0093F0000F01F0004C02BF490011F43F
:1007D000000F013BF9D041EA0C018FE70CEAD1533D
:1007E00092EA0C0F18BF93EA0C0F0AD030F0004CBD
:1007F00018BF31F0004CD8D180EA010000F0004071
:10080000704790F0000F17BF90F0004F084691F02E
:10081000000F91F0004F14D092EA0C0F01D1420268
:100820000FD193EA0C0F03D14B0218BF084608D131
:1008300080EA010000F0004040F0FE4040F400007B
:10084000704740F0FE4040F4400070474FF0FF0C0E
:100850001CEAD0521EBF1CEAD15392EA0C0F93EA55
:100860000C0F69D0A2EB030280EA010C49024FEAA7
:10087000402037D04FF0805343EA111143EA101360
:100880000CF000408B4238BF5B0042F17D024FF418
:10089000000C8B4224BF5B1A40EA0C00B3EB510FF3
:1008A00024BFA3EB510340EA5C00B3EB910F24BFDC
:1008B000A3EB910340EA9C00B3EBD10F24BFA3EB61
:1008C000D10340EADC001B0118BF5FEA1C1CE0D129
:1008D000FD2A3FF650AF8B4240EBC25008BF20F0DC
:1008E000010070470CF0004C4CEA50207F32C2BF30
:1008F000D2F1FF0340EAC250704740F400004FF0CD
:100900000003013A37E792F0000F00F0004C02BFFD
:10091000400010F4000F013AF9D040EA0C0093F0C7
:10092000000F01F0004C02BF490011F4000F013B21
:10093000F9D041EA0C0195E70CEAD15392EA0C0F89
:1009400008D142027FF47DAF93EA0C0F7FF470AFC1
:10095000084676E793EA0C0F04D14B023FF44CAF04
:1009600008466EE730F0004C18BF31F0004CCAD199
:1009700030F000427FF45CAF31F000437FF43CAFD5
:100980005FE700BF4FF0FF3C06E000BF4FF0010CF7
:1009900002E000BF4FF0010C4DF804CD4FEA4002D9
:1009A0004FEA41037FEA226C18BF7FEA236C11D023
:1009B00001B052EA530C18BF90EA010F58BFB2EBD6
:1009C000030088BFC81738BF6FEAE17018BF40F056
:1009D000010070477FEA226C02D15FEA402C05D10A
:1009E0007FEA236CE4D15FEA412CE1D05DF8040B8F
:1009F000704700BF844608466146FFE70FB5FFF722
:100A0000C9FF002848BF10F1000F0FBD4DF808EDD9
:100A1000FFF7F4FF0CBF012000205DF808FB00BFCA
:100A20004DF808EDFFF7EAFF34BF012000205DF824
:100A300008FB00BF4DF808EDFFF7E0FF94BF012071
:100A400000205DF808FB00BF4DF808EDFFF7D2FF6E
:100A500094BF012000205DF808FB00BF4DF808EDB1
:100A6000FFF7C8FF34BF012000205DF808FB00BF7E
:100A70004FEA40024FEA41037FEA226C02D15FEA6B
:100A8000402C08D17FEA236C02D15FEA412C02D1CD
:100A90004FF0000070474FF00100704708B5026842
:100AA000064B9A4200D008BD002101F0DCFA044B4D
:100AB0001860044B01221A70F5E700BF00040040E3
:100AC0005C0100206201002010B514464FF0FF3396
:100AD00092B2024803F0BFFA204610BDD4050020B0
:100AE00008B502680E4B9A4200D008BD00F0EEFE39
:100AF0000C4A13889BB280B20B4921F8130013886B
:100B00009BB201339BB2138013889BB2632BECD949
:100B1000134600221A80054B01221A70E5E700BF38
:100B200000240140600100209000002058010020B6
:100B300008B50368B3F1804F00D008BD01F01AFE7C
:100B4000FBE772B6FEE700B595B0282200210DEB59
:100B5000020005F0FBF80023059306930793089322
:100B60000993019302930393049301220A924FF491
:100B700080330B930E920222119212934FF4E013E2
:100B800013930AA801F01EFEC8B90F230593022192
:100B90000691002307934FF480620892099305A8F9
:100BA00002F042F868B9022301934FF440430393E3
:100BB00001A802F033F930B915B05DF804FBFFF776
:100BC000C0FFFFF7BEFFFFF7BCFF000008B501F054
:100BD000BFFDFFF7B8FF00F029F800F017FC00F0A8
:100BE00097FA00F0C3FA00F043FA0D4800F0B8FCA1
:100BF00004F07AFD0B4804F069FF08B1FFF7A1FF8C
:100C000048F20141074805F030F800F03DFB0021B3
:100C1000054801F0BBFC00F0E3F804F087FAFEE7BA
:100C2000D8040020C44300208C050020F0B589B012
:100C300000240494059406940794224B9A6942F088
:100C400010029A619A6902F010020192019A9A695F
:100C500042F004029A619A6902F004020292029A36
:100C60009A6942F008029A619B6903F008030393B2
:100C7000039B154E01224FF40051304602F0D8FA82
:100C80004FF4005304930125059506940227079716
:100C900004A9304602F0BAF9049503260596069495
:100CA00004F1804404F5843404A9204602F0AEF92E
:100CB00004970596069504A9204602F0A7F909B005
:100CC000F0BD00BF001002400010014000B583B02D
:100CD00003F038FF0190012101A804F041F8024817
:100CE00000F0D4FFF7E700BF2C05002000B5C5B029
:100CF0000F4805F0B9F84FF0FF3206A90D4B186800
:100D000003F02DFC694606A800F04AFB0A4B1B685D
:100D100003930A4B1B680493439B059300234FF0F6
:100D2000FF3269460648006803F055FBE3E700BF61
:100D3000046F0008740200207C020020740100206F
:100D40006C01002000B587B01D4805F08DF84FF00C
:100D5000FF3269461B4B186803F001FC009940F212
:100D6000011000F0A9FB0A2004F04CF802994FF49E
:100D7000817000F0A1FB0A2004F044F8019940F2D0
:100D8000031000F099FB0A2004F03CF803994FF49B
:100D9000827000F091FB0A2004F034F8049940F2CC
:100DA000051000F089FB0A2004F02CF805994FF497
:100DB000837000F081FB0A2004F024F8C7E700BF2D
:100DC0001C6F00086C010020034B0360034B0B6099
:100DD00080231360704700BF840400208402002039
:100DE00010B59CB00022F821022003F0D0FA344C58
:100DF000206000221821052003F0C9FA314B186049
:100E00002368002B4AD0002851D02F4C0DF1540CF0
:100E1000A646BEE80F00ACE80F009EE807008CE88D
:100E20000700002115A804F086F9284B18600DF181
:100E3000380C04F11C0EBEE80F00ACE80F009EE871
:100E400007008CE8070000210EA804F074F9204B7D
:100E500018600DF11C0C04F1380EBEE80F00ACE870
:100E60000F009EE807008CE80700002107A804F0A7
:100E700062F9184B1860EE4604F1540CBCE80F0000
:100E8000AEE80F009CE807008EE8070000216846E6
:100E900004F051F9104B18601CB010BD4FF0500316
:100EA00083F31188BFF36F8FBFF34F8FFEE74FF0CF
:100EB000500383F31188BFF36F8FBFF34F8FFEE7AB
:100EC000740200206C010020746E00086401002090
:100ED00078010020800200207802002038B500252B
:100EE00000240FE00D4B33F815309BB2A3F50060E2
:100EF00000FB00F0FFF7A2FB01462046FFF7EAFAED
:100F000004460135632DEDDD05492046FFF79EFCC3
:100F100005F02EFF0349FFF7E5FB38BD90000020E8
:100F20000000C8429CC4503A2DE9F041424804F008
:100F30009BFF00250024274626465FE004F0AAFA1E
:100F40003E4BD3F800803E4B00221A7004F0C4FAE6
:100F50003C4B1868404418603B4A13780133DBB2BD
:100F60001370072B5CD9FFF765FB4FF07851FFF743
:100F7000B9FB01463548FFF769FC05460023314AB5
:100F80001360314A13704BE0FFF7A8FF304B186035
:100F9000304B00221A70DFF8C080404600F002FE9D
:100FA0000221404600F0D0FBB0B12B4800F096FF84
:100FB0001F2F3CD93046FFF73DFB4FF07451FFF730
:100FC00091FB2649FFF78EFB2549FFF73FFC254B98
:100FD0001860002637462AE0404600F077FC0644B9
:100FE0000137E2E700234FF0FF321F491F48006836
:100FF00003F0F1F90024642004F0D2F81A4804F157
:101000003C0204F11C0100EB410100EB42020431FF
:1010100000EB440000F0CCFA094B1B78002B8DD17B
:10102000114BC3F8F4500B4B1B78002BACD101349F
:10103000A4B21D2CD6D8DEE7306F00085C0100207A
:10104000620100206801002070010020C0E1E44A34
:1010500074010020580100205C05002000E04B3F97
:10106000000020417C0200207C010020740200204E
:1010700008B50B480B4B03600B4B436000238360A8
:10108000C3604FF48042026143618361C3610362C4
:1010900002F0B6FB00B908BDFFF753FDFBE700BF48
:1010A000D804002000540040A086010010B586B08E
:1010B000002302930393049305930268114B9A4211
:1010C00001D006B010BD104CA36943F00803A36122
:1010D000A36903F008030093009BC023029312232B
:1010E00003930323059302A9084801F08FFFE369E6
:1010F00043F40013E361E36903F400130193019BDC
:10110000DFE700BF0054004000100240000C014027
:1011100000B585B000230193029303931148124A4E
:1011200002608360037303754FF46022C261436001
:101130000123036100F04EFE68B9002301930123EF
:1011400002930523039301A9064800F045FC28B942
:1011500005B05DF804FBFFF7F4FCEEE7FFF7F1FCE8
:10116000F6E700BF2C0500200024014000B585B043
:1011700000230193029303931048114A0260836095
:10118000037303754FF46022C2614360012303615E
:1011900000F020FE60B9012301930293072303931B
:1011A00001A9064800F018FC28B905B05DF804FB59
:1011B000FFF7C7FCEFE7FFF7C4FCF6E75C0500208C
:1011C0000028014000B589B00023049305930693DD
:1011D00007930368284A934205D0284A934226D0B1
:1011E00009B05DF804FB264B9A6942F400729A61DB
:1011F0009A6902F400720092009A9A6942F004021D
:101200009A619B6903F004030193019B01230493FA
:101210000323059304A91B4801F0F8FE00220521D1
:10122000122002F01DF8122002F052F8D8E7144BF9
:101230009A6942F480629A619A6902F48062029229
:10124000029A9A6942F004029A619B6903F00403CE
:101250000393039B022304930323059304A90948E2
:1012600001F0D4FE00220521122001F0F9FF122026
:1012700002F02EF8B4E700BF00240140002801402E
:10128000001002400008014000B58DB00023079314
:10129000089309930A930B93059306930193029382
:1012A000039304932148224A0260472242608360EC
:1012B0004FF6FF72C2600361836100F0E1FF30BB53
:1012C0001A4801F009F828BB042307935023089318
:1012D000002309930B9307A9144801F01FF9E0B903
:1012E00000230593069305A9104801F0F9F9B8B950
:1012F000002201920123029303920A23049301A97D
:101300000A4801F041F870B90DB05DF804FBFFF731
:1013100018FCD5E7FFF715FCD6E7FFF712FCDFE76F
:10132000FFF70FFCE4E7FFF70CFCEDE78C0500206E
:101330000004004000B587B0002302930393049398
:1013400005930268144B9A4202D007B05DF804FB83
:1013500003F50333DA6942F00202DA61DA6902F076
:1013600002020092009A9A6942F004029A619B6913
:1013700003F004030193019B4023029302A9074851
:1013800001F044FE002205211D2001F069FF1D200F
:1013900001F09EFFD9E700BF0004004000080140B3
:1013A0002DE9F84380468946002500273E4600E0A7
:1013B00001351D2D16DC38F91500FFF73FF90446FD
:1013C0000146FFF78FF901463046FFF783F80646DE
:1013D00024F0004439462046FFF740FB0028E7D0C0
:1013E0002746E5E708493046FFF730FA05F0C0FC2C
:1013F0000146C9F80000C9F804703846FFF726FA1C
:10140000C9F80800BDE8F8830000F04108B50A48B3
:101410000A4B03604FF4E133436000238360C360F1
:1014200003610C2242618361C36102F0E4FD00B9F3
:1014300008BDFFF786FBFBE7D4050020003801401C
:1014400010B586B0002302930393049305930268BA
:10145000174B9A4201D006B010BD03F558439A6964
:1014600042F480429A619A6902F480420092009AA2
:101470009A6942F004029A619B6903F004030193A4
:10148000019B4FF4007302930223039303230593FC
:10149000084C02A9204601F0B9FD4FF48063029385
:1014A00000230393049302A9204601F0AFFDD2E785
:1014B00000380140000801402DE9F0438FB0054697
:1014C0000E460691089000230B930A9304220C9277
:1014D0008DF834301E4804F09CFB0028FAD007AB8E
:1014E00006AA08A91A4804F01FFB48BB01F04EF9F0
:1014F00004460799164804F0A5FB40B101F046F9EF
:10150000031B0A2BF5D9134804F0AEFC1CE09DF830
:1015100018409DF819709DF81A809DF81B90304670
:10152000FEF77AFFCDE90401CDF80890CDF80480EC
:10153000009723460C9A2946074804F00FFC03E065
:101540002946064804F00AFC0FB0BDE8F08300BF4E
:10155000C44300204C6F0008586F0008986F0008C3
:101560002DE9F04186B0114D28604FF008088DF844
:1015700017804FF0FF370297012401940DF11706F1
:10158000009623462D22A62102F018FA8DF8178026
:1015900002970194009623463122A621286802F082
:1015A0000DFA002006B0BDE8F08100BF1C06002047
:1015B00070B586B006460D4614464FF0FF330293D1
:1015C0000623019304AB009301233222A6210E4887
:1015D000006802F0A5FA9DF811209DF8103043EA4A
:1015E000022333809DF813209DF8123043EA022332
:1015F0002B809DF815209DF8143043EA02232380A8
:10160000002006B070BD00BF1C060020FEE7FEE70C
:10161000FEE7FEE7FEE7704708B5024800F03FFD31
:1016200008BD00BF2006002008B5024800F037FDC5
:1016300008BD00BF8C05002008B5034800F04AF93A
:10164000024800F047F908BD2C0500205C05002089
:1016500000B583B0114B9A6942F001029A619A6910
:1016600002F001020092009ADA6942F08052DA61D7
:10167000DB6903F080530193019B00220F216FF07F
:10168000010001F0EDFD064A536823F0E06343F0EA
:101690000073536003B05DF804FB00BF001002400C
:1016A0000000014030B589B00446224BDA6942F0AF
:1016B0000102DA61DB6903F001030193019B02A9D6
:1016C00003A801F08DFB069BD3B901F069FB03462B
:1016D0001948A0FB03239B0C013B18484FF08042A4
:1016E000026040F2E732C26043600023036183601E
:1016F000836100F0C5FD054630B1284609B030BD14
:1017000001F04EFB4300E3E70C4800F077FC054690
:101710000028F2D11C2001F0DBFD0F2C01D901259E
:10172000EBE7002221461C2001F09AFD044B1C60CF
:10173000E3E700BF0010024083DE1B4320060020C9
:101740000400002070470000F0B583B005460C4649
:101750000023019301F01AF82B689A6812F4807F35
:1017600023D107465A6812F4807F03D1DB6A13F451
:10177000700F29D0504B1E68022001F0DBFBB6FB36
:10178000F0F62B6819694D4A114236D1D96802F139
:101790005C42114231D11969494A114240D1DA689B
:1017A000484B1A423ED0292041E0AB6A43F0200367
:1017B000AB62002385F82430012003B0F0BD2B6814
:1017C0001B6813F0020F0FD02B681B6813F0020F79
:1017D0004FD1B4F1FF3FF7D0002CF0D000F0D6FF8E
:1017E000C31BA342F0D9EAE7AB6A43F00403AB6240
:1017F000002385F824300320DFE71969304A1142BD
:1018000004D1D96802F16E4211420DD019692E4AF5
:101810000A405AB9DA682C4B13405BB1FC2006E051
:10182000292004E0142002E0542000E0FC2000FB0A
:1018300006F607E05420FAE7019BB34210D3019B60
:1018400001330193019BB34213D2B4F1FF3FF6D0B1
:10185000002CF1D000F09AFFC01BA042EFD9EBE7BB
:10186000AB6A43F00403AB62002385F82430032005
:10187000A3E72B686FF012021A60AB6A43F400739F
:10188000AB622B689B6803F46023B3F5602F01D033
:10189000002092E7287B60B9AB6A23F48073AB62C7
:1018A000AB6A13F4805F88D1AB6A43F00103AB628B
:1018B00083E7002081E700BF08000020244992242C
:1018C0009224491292244900499224000368D86C5A
:1018D0007047704770B5044603681E685D6815F070
:1018E000200F17D016F0020F14D0826A12F0100FDA
:1018F00003D1826A42F4007282629A6802F4602222
:10190000B2F5602F33D02046FFF7EAF823686FF076
:1019100012021A6015F0800F22D016F0040F1FD0AB
:10192000A36A13F0100F03D1A36A43F40053A36218
:101930002268936803F4E043B3F5E04F2ED0536878
:1019400013F4806F05D1936803F46023B3F5602F1F
:1019500021D02046FFF7F6FE23686FF00C021A60D4
:1019600015F0400F02D016F0010F28D170BD227B78
:10197000002AC8D15A6822F020025A60A36A23F4D0
:101980008073A362A36A13F4805FBCD1A36A43F09F
:101990000103A362B7E7237B002BDAD1536823F05E
:1019A00080035360A36A23F48053A362A36A13F4F1
:1019B000807FCED1A36A43F00103A362C9E7A36A83
:1019C00043F48033A3622046FFF783FF23686FF060
:1019D00001021A60CAE7000030B482B0002201920E
:1019E00090F82420012A00F091800346012280F81B
:1019F00024204A68062A2DD80468606B02EB820214
:101A0000053A4FF01F0C0CFA02FC20EA0C000D689E
:101A100005FA02F2024362630A68092A3AD91C688D
:101A2000E06802EB42021E3A4FF0070C0CFA02FC8F
:101A300020EA0C008D6805FA02F20243E2600A68AF
:101A4000103A012A36D90020002283F8242002B05F
:101A500030BC70470C2A0ED80568286B02EB820256
:101A6000233A1F24944020EA04000C6804FA02F28E
:101A700002432A63D0E70568E86A02EB8202413A32
:101A80001F24944020EA04000C6804FA02F2024386
:101A9000EA62C1E71C68206902EB42024FF0070CC2
:101AA0000CFA02FC20EA0C008D6805FA02F20243EF
:101AB0002261C4E71A681648824205D09A6A42F049
:101AC00020029A620120BFE7906810F4000F1BD13A
:101AD000906840F4000090600A68102A01D000204D
:101AE000B2E70C4A12680C49A1FB0212920C02EBFD
:101AF00082025200019202E0019A013A0192019A97
:101B0000002AF9D100209FE700209DE702209EE7F0
:101B1000002401400800002083DE1B4330B583B061
:101B20000023019303689A6812F0010F33D1044631
:101B30009A6842F001029A60184B1B68184AA2FB8F
:101B400003239B0C019302E0019B013B0193019B4A
:101B5000002BF9D100F01AFE054623689B6813F0AC
:101B6000010F16D100F012FE431B022BF5D923689A
:101B70009B6813F0010FF0D1A36A43F01003A36236
:101B8000E36A43F00103E362002384F82430012078
:101B900002E0002000E0002003B030BD080000207B
:101BA00083DE1B4390F82430012B68D010B5044627
:101BB000012380F82430FFF7B1FF00285BD1A36A2E
:101BC00023F4407323F0010343F48073A36223687A
:101BD0002C4A934227D0A26A22F48012A2625A6849
:101BE00012F4806F05D0A26A22F4405242F480526F
:101BF000A262A26A12F4805F2BD0E26A22F006028F
:101C0000E262002284F824206FF002021A60236846
:101C10009A6802F46022B2F5602F1DD09A6842F4EF
:101C200080129A602AE0A2F58062526812F4702F46
:101C3000D1D0A26A42F48012A262134A526812F40E
:101C4000806FD6D0A26A22F4405242F48052A2623F
:101C5000CFE70022E262D4E70A4A934204D09A68AE
:101C600042F4A0029A6009E0A2F58062526812F480
:101C7000702FD3D1F3E7002384F8243010BD022065
:101C8000704700BF002801400024014090F8243034
:101C9000012B6DD010B50446012380F82430FFF7E6
:101CA0003DFF002860D1A36A23F4706323F0010391
:101CB00043F48073A36223682E4A93422CD0A26A15
:101CC00022F48012A2625A6812F4806F05D0A26AD0
:101CD00022F4405242F48052A262A26A12F4805F5F
:101CE00030D0E26A22F00602E262002284F8242068
:101CF0006FF002021A602268536843F020035360B9
:101D000023689A6802F46022B2F5602F1DD09A68A9
:101D100042F480129A602AE0A2F58062526812F4BE
:101D2000702FCCD0A26A42F48012A262124A52688A
:101D300012F4806FD1D0A26A22F4405242F4805251
:101D4000A262CAE70022E262CFE70A4A934204D0C5
:101D50009A6842F4A0029A6009E0A2F58062526893
:101D600012F4702FD3D1F3E7002384F8243010BD90
:101D700002207047002801400024014038B5036864
:101D80009A6812F0010F01D1002038BD04469A680C
:101D900022F001029A6000F0F9FC054623689B6876
:101DA00013F0010F13D000F0F1FC431B022BF5D907
:101DB00023689B6813F0010FF0D0A36A43F010036F
:101DC000A362E36A43F00103E3620120DDE7002040
:101DD000DBE7000000287BD070B50446836A002B47
:101DE0004DD02046FFF7CAFFA36A13F0100369D154
:101DF000002867D1A26A22F4885222F0020242F03F
:101E00000202A2626268E1690A43217B42EA41025E
:101E1000A568B5F5807F02D0012D36D01D46267D00
:101E2000012E35D02668716821F46941294371601B
:101E30002568AE68274931401143A960A168B1F512
:101E4000807F01D0012902D12369013B1B05256850
:101E5000E96A21F470010B43EB62236899681E4B19
:101E60000B409A4225D0A36A23F0120343F01003DB
:101E7000A362E36A43F00103E362012027E0C36247
:101E800080F82430FFF79EF9ABE74FF48075C6E782
:101E900031B9A169013945EA413141F40065C1E731
:101EA000A16A41F02001A162E16A41F00101E16211
:101EB000B8E70023E362A36A23F0030343F00103BE
:101EC000A36204E0A36A43F01003A362012070BD83
:101ED00001207047FDF7E1FFFE0E1FFF90F8243050
:101EE000012B13D010B50446012380F82430FFF7EE
:101EF00045FF38B9A36A23F4885323F0010343F064
:101F00000103A362002384F8243010BD022070472F
:101F100010B4036A046A24F001040462846924F0A2
:101F2000F00C4CEA021223F00A030B4382610362B5
:101F300010BC704730B4056A046A24F010040462CF
:101F4000846924F4407C4CEA022C2CF4704C1B0372
:101F50009BB243EA0C0325F0A005090101F0A001A2
:101F600029438361016230BC704710B4036A046A7C
:101F700024F010040462846924F4704C4CEA0232A8
:101F800023F0A00343EA01138261036210BC70478F
:101F900030B4056A046A24F480740462C46924F0CD
:101FA000030C4CEA020C2CF0F00C1B01DBB243EAF0
:101FB0000C0325F40075090201F400712943C36183
:101FC000016230BC704730B4056A046A24F480545E
:101FD0000462C46924F4407C4CEA022C2CF4704C5A
:101FE0001B039BB243EA0C0325F40055090301F4DB
:101FF00000512943C361016230BC704790F83D3005
:10200000DBB2012B27D1022380F83D300268D36870
:1020100043F00103D3600368114A934210D0B3F137
:10202000804F0DD0A2F59432934209D002F5806220
:10203000934205D01A6842F001021A6000207047EE
:102040009A6802F00702062A07D01A6842F00102D5
:102050001A6000207047012070470020704700BFC1
:10206000002C014070470C2914D8DFE801F0071359
:1020700013130A1313130D13131310000368586B73
:1020800070470368986B70470368D86B70470368A4
:10209000186C70470020704770477047704770B5E4
:1020A00004460368DE681D6915F0020F10D016F0B3
:1020B000020F0DD06FF002021A610123037703684B
:1020C0009B6913F0030F5ED0FEF7E8FC0023237733
:1020D00015F0040F12D016F0040F0FD023686FF024
:1020E00004021A610223237723689B6913F4407F5B
:1020F0004FD02046FEF7D2FC0023237715F0080FBF
:1021000012D016F0080F0FD023686FF008021A6182
:10211000042323772368DB6913F0030F40D02046A4
:10212000FEF7BCFC0023237715F0100F12D016F039
:10213000100F0FD023686FF010021A610823237765
:102140002368DB6913F4407F31D02046FEF7A6FCFC
:102150000023237715F0010F02D016F0010F2DD1C7
:1021600015F0800F02D016F0800F2FD115F0400F20
:1021700002D016F0400F31D115F0200F02D016F02A
:10218000200F33D170BDFFF787FF2046FFF785FF93
:102190009CE72046FFF780FF2046FFF77EFFABE776
:1021A0002046FFF779FF2046FFF777FFBAE7204682
:1021B000FFF772FF2046FFF770FFC9E723686FF053
:1021C00001021A612046FEF7B3FCC9E723686FF0ED
:1021D00080021A61204600F0BAFAC7E723686FF060
:1021E00040021A612046FFF759FFC5E723686FF0E8
:1021F00020021A61204600F0A9FAC3E703681F4ACB
:1022000090420AD0B0F1804F07D0A2F594329042AC
:1022100003D002F58062904203D123F070034A6834
:102220001343164A90420AD0B0F1804F07D0A2F56E
:102230009432904203D002F58062904203D123F49D
:102240004073CA68134323F080034A691343036051
:102250008B68C3620B688362084B98420AD00123E3
:102260004361036913F0010F03D0036923F00103F5
:10227000036170470B690363F1E700BF002C014065
:1022800040B310B5044690F83D30F3B1022384F812
:102290003D30214651F8040BFFF7B0FF012384F8CD
:1022A000463084F83E3084F83F3084F8403084F87B
:1022B000413084F8423084F8433084F8443084F864
:1022C000453084F83D30002010BD80F83C30FFF7E9
:1022D00031F8DBE70120704740B310B5044690F8B1
:1022E0003D30F3B1022384F83D30214651F8040B10
:1022F000FFF784FF012384F8463084F83E3084F8E9
:102300003F3084F8403084F8413084F8423084F81B
:10231000433084F8443084F8453084F83D30002060
:1023200010BD80F83C30FFF79DFEDBE701207047D1
:1023300070B4056A046A24F0010404628469114ED1
:10234000B0420DD0B0F1804F0AD0A6F59436B0421D
:1023500006D006F58066B04202D044F0010202E0E9
:1023600024F00304224322F0F0021B01DBB21343EA
:1023700025F00A0201F00A0111438361016270BC79
:10238000704700BF002C014038B590F83C30012B5D
:102390005AD004460D46012380F83C3052B1042A3D
:1023A0001AD0082A2BD00C2A3BD00120002384F815
:1023B0003C3038BDCB684A6809680068FFF7B8FF51
:1023C0002268936923F00C03936122689369A968DA
:1023D0000B4393610020E9E7CB684A68096800680D
:1023E000FFF7A8FD2268936923F440639361226894
:1023F0009369A96843EA012393610020D6E7CB687B
:102400004A6809680068FFF7C3FD2268D36923F0B2
:102410000C03D3612268D369A9680B43D361002000
:10242000C4E7CB684A6809680068FFF7CCFD2268FA
:10243000D36923F44063D3612268D369A96843EA6E
:102440000123D3610020B1E70220B2E710B4846811
:1024500024F47F4C42EA03220A4342EA0C028260DF
:1024600010BC704710B50468A26822F070024B6877
:10247000134323F007030A681343A3604B68502BF0
:1024800032D00BD9602B36D0702B43D10B698A68C0
:10249000C9680068FFF7DAFF00200FE0402B0ED07C
:1024A00001D901200AE0202B2CD003D9302B2FD1C9
:1024B000002003E043B3102B28D1002010BD0B688F
:1024C000052B29D003681C6A1A6A22F001021A62DD
:1024D0000268936923F0F003096943EA01139361E9
:1024E00003681C620020E9E70A6989680068FFF751
:1024F0000FFD0020E2E70A6989680068FFF735FDF3
:102500000020DBE70020D9E70020D7E70120D5E74E
:102510000120D3E70120D1E70120CFE790F83C303C
:10252000012B22D010B50446012380F83C30022351
:1025300080F83D30FFF796FF80B92268D36823F01A
:102540004003D3602268D36823F48043D36001231F
:1025500084F83D30002384F83C3010BD012084F81D
:102560003D00002384F83C30F7E70220704701F07B
:102570001F01012303FA01FC036A23EA0C0303622F
:10258000036A02FA01F10B430362704710B5044677
:102590000B4609BB90F83E00C0B26BBB94F84220DA
:1025A000D2B2012840F09480012A40F092809BBB77
:1025B000022184F83E10002B3ED1022184F8421003
:1025C0000C2B00F28780DFE803F047858585668560
:1025D00085856C8585857200042905D0082907D07A
:1025E00090F84100C0B2D8E790F83F00C0B2D4E7FD
:1025F00090F84000C0B2D0E7042B05D0082B07D0DC
:1026000094F84520D2B2CCE794F84320D2B2C8E780
:1026100094F84420D2B2C4E7042B05D0082B07D08D
:10262000022184F84110C6E7022184F83F10C2E776
:10263000022184F84010BEE7042B05D0082B07D0F8
:10264000022184F84510BBE7022184F84310B7E764
:10265000022184F84410B3E72168CA6842F00202FC
:10266000CA60012219462068FFF781FF23681B4AD0
:10267000934222D0B3F1804F1FD0A2F594329342FF
:102680001BD002F58062934217D01A6842F0010213
:102690001A6000201DE02168CA6842F00402CA6086
:1026A000DFE72168CA6842F00802CA60D9E72168FA
:1026B000CA6842F01002CA60D3E79A6802F00702C3
:1026C000062A09D01A6842F001021A60002000E0D0
:1026D000012010BD1046FCE70020FAE7002C014065
:1026E00090F83C30012B2CD010B4012380F83C3002
:1026F000022380F83D3003685A689C6822F0700C11
:102700000A6842EA0C025A6003680F4A93420AD0F0
:10271000B3F1804F07D0A2F59432934203D002F573
:102720008062934204D124F080044A6814439C6080
:10273000012380F83D30002380F83C30184610BC5F
:1027400070470220704700BF002C0140704770475F
:1027500008B5074A136843F010031360032000F024
:102760006DFD0F20FEF79EFFFEF772FF002008BDF3
:1027700000200240034A1168034B1B780B4413608E
:10278000704700BF6806002000000020014B186859
:10279000704700BF6806002082B0084B1B68084ADB
:1027A000A2FB03235B0A00FB03F3019300BF019B21
:1027B0005A1E0192002BF9D102B070470800002088
:1027C000D34D6210002800F0F18170B582B004464C
:1027D000036813F0010F2CD0994B5B6803F00C03D6
:1027E000042B1DD0964B5B6803F00C03082B12D012
:1027F0006368B3F5803F41D0002B55D103F180438E
:1028000003F504331A6822F480321A601A6822F43D
:1028100080221A6037E08A4B5B6813F4803FE7D070
:10282000874B1B6813F4003F03D06368002B00F054
:10283000BF81236813F0020F75D0814B5B6813F0E2
:102840000C0F5FD07E4B5B6803F00C03082B54D059
:102850002369002B00F08A807A4B01221A60FFF76F
:1028600095FF0546764B1B6813F0020F75D1FFF7F5
:102870008DFF401B0228F5D903209EE1704A1368A2
:1028800043F480331360636843B3FFF77FFF05466B
:102890006B4B1B6813F4003FCBD1FFF777FF401B56
:1028A0006428F5D9032088E1B3F5A02F09D0644B43
:1028B0001A6822F480321A601A6822F480221A60A0
:1028C000E1E703F18043A3F53C331A6842F4802228
:1028D0001A601A6842F480321A60D4E7FFF756FF94
:1028E0000546574B1B6813F4003FA2D0FFF74EFF7D
:1028F000401B6428F5D903205FE1514B5B6813F45A
:10290000803FA5D14E4B1B6813F0020F03D0236903
:10291000012B40F04F814A4A136823F0F8036169A4
:1029200043EAC1031360236813F0080F33D0A3698F
:10293000002B5CD0434B0122C3F88024FFF726FF15
:1029400005463F4B5B6A13F0020F21D1FFF71EFFD4
:10295000401B0228F5D903202FE1394A136823F0E0
:10296000F803616943EAC1031360DCE7354B0022D9
:102970001A60FFF70BFF0546314B1B6813F0020F7F
:10298000D1D0FFF703FF401B0228F5D9032014E143
:102990000120FFF701FF236813F0040F00F0968079
:1029A000274BDB6913F0805F34D1254BDA6942F0A5
:1029B0008052DA61DB6903F080530193019B0125AA
:1029C000214B1B6813F4807F26D0E368012B3DD098
:1029D000002B53D103F1804303F504331A6A22F02C
:1029E00001021A621A6A22F004021A6233E0154BDD
:1029F0000022C3F88024FFF7C9FE0546104B5B6A2E
:102A000013F0020FC7D0FFF7C1FE401B0228F5D913
:102A10000320D2E00025D3E70B4A136843F4807308
:102A20001360FFF7B3FE0646074B1B6813F4807F65
:102A3000CBD1FFF7ABFE801B6428F5D90320BCE0A7
:102A40000010024000004242007000405F4A136ADA
:102A500043F001031362E36833B3FFF797FE0646C2
:102A60005A4B1B6A13F0020F2FD1FFF78FFE801B0A
:102A700041F288339842F3D903209EE0052B09D018
:102A8000524B1A6A22F001021A621A6A22F00402F8
:102A90001A62E0E74D4B1A6A42F004021A621A6A9F
:102AA00042F001021A62D6E7FFF770FE0646474B76
:102AB0001B6A13F0020F08D0FFF768FE801B41F27B
:102AC00088339842F3D9032077E0E5B9E369002B16
:102AD00072D03E4A526802F00C02082A56D0022BED
:102AE00017D03B4B00221A66FFF750FE0446374BC7
:102AF0001B6813F0007F47D0FFF748FE001B022839
:102B0000F5D9032059E0314AD36923F08053D361CA
:102B1000DCE72F4B00221A66FFF738FE05462B4BE9
:102B20001B6813F0007F06D0FFF730FE401B022821
:102B3000F5D9032041E0236AB3F5803F1AD0234939
:102B40004B6823F47413226A606A024313434B6098
:102B50001F4B01221A66FFF719FE04461B4B1B6828
:102B600013F0007F0ED1FFF711FE001B0228F5D9EC
:102B7000032022E0154A536823F40033A1680B4375
:102B80005360DCE7002018E0002016E0012B16D08F
:102B90000E4B5B6803F48031226A914211D103F439
:102BA0007013626A93420ED1002006E00120704744
:102BB000012002E0012000E0002002B070BD0120F1
:102BC000FBE70120F9E70120F7E700BF0010024012
:102BD000000042420F4B5B6803F00C02082A01D050
:102BE0000D487047C3F383420C49885C13F4803F5F
:102BF0000BD0084B5B68C3F34043094AD35C064AD9
:102C000002FB00F0B0FBF3F07047064B03FB00F053
:102C1000704700BF0010024000127A00C06F000829
:102C2000D06F000800093D00002800F0A08070B5BA
:102C30000D460446524B1B6803F007038B420BD230
:102C40004F4A136823F007030B431360136803F024
:102C500007038B4240F08D80236813F0020F17D0DA
:102C600013F0040F04D0474A536843F4E063536001
:102C7000236813F0080F04D0424A536843F46053AA
:102C80005360404A536823F0F003A1680B4353603C
:102C9000236813F0010F31D06368012B20D0022B81
:102CA00025D0384A126812F0020F64D035494A68BC
:102CB00022F0030213434B60FFF768FD0646314BD9
:102CC0005B6803F00C036268B3EB820F16D0FFF76A
:102CD0005DFD801B41F288339842F0D9032045E026
:102CE000284A126812F4003FE0D101203EE0254A54
:102CF000126812F0007FD9D1012037E0204B1B6809
:102D000003F00703AB420AD91D4A136823F00703F7
:102D10002B431360136803F00703AB422DD12368E4
:102D200013F0040F06D0174A536823F4E063E168F8
:102D30000B435360236813F0080F07D0114A536800
:102D400023F46053216943EAC1035360FFF742FF54
:102D50000C4B5B68C3F303130B4AD35CD8400B4B9B
:102D600018600B4B1868FEF79DFC002070BD012019
:102D700070470120FAE70120F8E70120F6E700BFDD
:102D80000020024000100240E86F00080800002008
:102D900004000020014B1868704700BF08000020A5
:102DA00008B5FFF7F7FF044B5B68C3F30223034A40
:102DB000D35CD84008BD00BF00100240F86F000887
:102DC00008B5FFF7E7FF044B5B68C3F3C223034A70
:102DD000D35CD84008BD00BF00100240F86F000867
:102DE0000F2303600B4B5A6802F0030242605A68DB
:102DF00002F0F00282605A6802F4E062C2605B682E
:102E0000DB0803F4E0630361034B1B6803F0070373
:102E10000B607047001002400020024070B582B085
:102E20000446036813F0010F36D03F4BDB6913F003
:102E3000805F49D13C4BDA6942F08052DA61DB694C
:102E400003F080530193019B0125384B1B6813F459
:102E5000807F3BD0344B1B6A13F4407313D06268FD
:102E600002F440729A420ED02F4A136A23F4407043
:102E70002F490126C1F840640026C1F84064106261
:102E800013F0010F36D1284A136A23F440736168A6
:102E90000B431362002D3ED1236813F0020F06D0BE
:102EA000214A536823F44043A1680B4353602368CD
:102EB00013F0100F34D01C4A536823F48003E168E8
:102EC0000B43536000202CE00025BEE7174A13682F
:102ED00043F480731360FFF759FC0646134B1B68DD
:102EE00013F4807FB6D1FFF751FC801B6428F5D91D
:102EF000032016E0FFF74AFC06460B4B1B6A13F053
:102F0000020FC0D1FFF742FC801B41F28833984288
:102F1000F3D9032005E0D36923F08053D361BBE7E5
:102F2000002002B070BD00BF0010024000700040E1
:102F30000000424208B502284ED0102803D00128D4
:102F400028D0002008BD2B4B5A68186810F08070FC
:102F5000F8D0C2F383432849C85C12F4803F15D0EF
:102F6000244B5B68C3F34043244AD25C244BB3FB3D
:102F7000F2F303FB00F01F4B5B6813F4800FE1D109
:102F80004000204BA3FB00304008DBE71E4B03FB57
:102F900000F0F0E7174B1B6A40F202321A40B2F51C
:102FA000817F24D003F44073B3F5007F04D0B3F5E0
:102FB000407F09D00020C5E70E4A526A12F0020F86
:102FC000F5D049F64040BDE70A4B186810F40030D0
:102FD000B8D04FF22440B5E7FFF7F2FE054B5B682F
:102FE000C3F3813301335B00B0FBF3F0AAE74FF486
:102FF0000040A7E700100240D46F0008E46F00080B
:1030000000127A00ABAAAAAA00093D0070B582B0EE
:103010000024A446A6E0804DAA4210D007D97F4DD7
:10302000AA420CD005F58035AA4208D013E0A5F5D8
:103030008015AA4203D005F57025AA4207D18A68F7
:10304000002A58D0012A51D04361082403E0A5F595
:103050008015AA42F3D0BEF1FF0F4ED80646BEF14E
:10306000FF0F4CD84FEA8C0233680F25954023EAB6
:10307000050304FA02F2134333604B6813F0805FD8
:103080006ED0674B9A6942F001029A619B6903F026
:1030900001030193019B4FEA9C02951C614B53F87D
:1030A00025600CF003039D000F23AB4026EA0306C6
:1030B0005D4B984229D003F58063984200F08E80E2
:1030C00003F58063984200F08B8003F5806398429B
:1030D00019D004231AE0CC68BDE7CC680434BAE701
:1030E000CC680834B7E7CC680C34B4E70361082433
:1030F000B1E70024AFE70424ADE7061DAFE7ACF16C
:1031000008029200B0E7032300E00023AB40334302
:103110000232444D45F822304B6813F4801F61D0D1
:10312000424A936843EA0E0393604B6813F4001F0E
:103130005ED03E4AD36843EA0E03D3604B6813F473
:10314000003F5BD0394A536843EA0E0353604B6833
:1031500013F4803F58D0354A136843EA0E031360D6
:103160000CF1010C0A6832FA0CF353D0012303FA74
:103170000CF302EA030E33EA0202F1D14A68122A82
:103180003FF649AF122A3FF666AF01A555F822F087
:103190003F300008D7300008E1300008F330000865
:1031A00057300008573000085730000857300008E3
:1031B00057300008573000085730000857300008D3
:1031C00057300008573000085730000857300008C3
:1031D00057300008DB300008E7300008012395E78E
:1031E000022393E7114A936823EA0E0393609CE756
:1031F0000E4AD36823EA0E03D3609FE70B4A536855
:1032000023EA0E035360A2E7084A136823EA0E0379
:103210001360A5E702B070BD00002210000031105D
:10322000001002400000014000080140000401407D
:103230000AB101617047090401617047074AD36808
:1032400023F4E0631B041B0C000200F4E060034362
:1032500043F0BF6343F40033D360704700ED00E0F8
:1032600000B5194BDB68C3F30223C3F1070CBCF1B3
:10327000040F28BF4FF0040C03F1040EBEF1060F3B
:1032800018D9033B4FF0FF3E0EFA0CFC21EA0C016B
:1032900099400EFA03F322EA0303194300280BDBDB
:1032A0000901C9B200F1604000F5614080F80013E7
:1032B0005DF804FB0023E5E700F00F000901C9B247
:1032C000024B1954F4E700BF00ED00E014ED00E0FC
:1032D000002807DB00F01F02400901239340024A47
:1032E00042F82030704700BF00E100E003685A69EF
:1032F00012F4806F01D1002070476FF480625A6130
:1033000000230363202280F83D2080F83E30026CC9
:1033100042F00402026480F83C30012070472DE93D
:10332000F04106460C46174698463BE0FFF72EFA5A
:10333000069BC01A404502D8B8F1000F32D1012DCA
:1033400018D033689B6924EA03039BB2B3FA83F372
:103350005B099F4226D100233363202286F83D205B
:1033600086F83E30326C42F02002326486F83C30FF
:10337000012027E033685B6924EA03039BB2B3FAB8
:1033800083F35B09E5E733685B6924EA030C1FFA02
:103390008CFCBCFA8CFC4FEA5C1C674511D1B8F17F
:1033A000FF3FC3D1C4F30745012DECD033689B69BF
:1033B00024EA030C1FFA8CFCBCFA8CFC4FEA5C1C60
:1033C000EBE70020BDE8F0812DE9F84305460E4605
:1033D0009046994653E01A6842F400721A602B68CE
:1033E0006FF480625A6100232B63202285F83D2010
:1033F00085F83E302A6C42F004022A6485F83C309D
:1034000001204AE0FFF7C2F9A0EB0900404502D8CD
:10341000B8F1000F33D1012F17D02B689B6926EA32
:1034200003039BB2003B18BF012343B300232B636C
:10343000202285F83D2085F83E302A6C42F020029B
:103440002A6485F83C30012027E02B685B6926EA76
:1034500003039BB2003B18BF0123E6E72B689C697E
:1034600026EA0404A4B2003C18BF0124A4B12B68CE
:103470005A6912F4806FAED1B8F1FF3FC2D1C6F3E2
:103480000747012FEAD12B685C6926EA0404A4B23D
:10349000003C18BF0124E9E70020BDE8F88370B5BF
:1034A00004460D46164623685B6913F0800F21D150
:1034B0002046FFF71BFFF8B9B5F1FF3FF3D0FFF748
:1034C00065F9801BA84201D8002DECD123685B6907
:1034D00013F0800FE7D100232363202284F83D20DE
:1034E00084F83E30226C42F02002226484F83C30A2
:1034F000012000E0002070BD0120FCE72DE9F04331
:1035000085B004460D4691461F46DDF830800D9E7D
:103510000368196841F480711960009643460022DF
:103520004FF00111FFF7FBFE60B9236805F0FE05BF
:103530001D613346424626492046FFF745FF68B1E4
:10354000012008E023681B6813F4807F02D04FF449
:1035500000732364032005B0BDE8F08300230393C8
:1035600023685A6903929B690393039B3246414641
:103570002046FFF794FF30B9012F0FD123685FFA7F
:1035800089F61E61E7E7236C042B01D00120E2E7F6
:103590002268136843F400731360F7E723684FEA67
:1035A00019221A61324641462046FFF778FF20B9BA
:1035B00023685FFA89F61E61CDE7236C042B01D0E6
:1035C0000120C8E72268136843F400731360F7E72B
:1035D000020001002DE9F04784B004460D4616466E
:1035E00099460C9FDDF834800268136843F48063C9
:1035F00013600368196841F480711960CDF8008088
:103600003B4600224FF00111FFF789FE70B95FFAC7
:1036100085FA236805F0FE051D6143463A46414997
:103620002046FFF7D1FE68B1012008E023681B683F
:1036300013F4807F02D04FF400732364032004B09E
:10364000BDE8F0870023039323685A6903929B69BE
:103650000393039B424639462046FFF720FF80B97B
:10366000B9F1010F18D12368F6B21E6142463946FE
:103670002046FFF714FF68B3236C042B24D00120ED
:10368000DDE7236C042B01D00120D8E72268136802
:1036900043F400731360F7E72368320A1A61424665
:1036A00039462046FFF7FBFE18B92368F6B21E61C3
:1036B000DCE7236C042B01D00120C0E722681368EB
:1036C00043F400731360F7E72268136843F4007350
:1036D0001360D4E72268136843F480731360CDF855
:1036E00000803B4600224FF001112046FFF717FEF5
:1036F00068B922684AF00103136143463A46094912
:103700002046FFF761FE002899D0012097E7236843
:103710001B6813F4807F02D04FF4007323640320EE
:103720008DE700BF0200010070B504460D46164645
:1037300023685B6913F0040F21D12046FFF7D6FD03
:10374000F8B9B5F1FF3FF3D0FFF720F8801BA8428E
:1037500001D8002DECD123685B6913F0040FE7D189
:1037600000232363202284F83D2084F83E30226C1D
:1037700042F02002226484F83C30012000E0002066
:1037800070BD0120FCE770B504460D46164614E0F6
:103790006FF010025A6100232363202284F83D2039
:1037A00084F83E30226C226484F83C30012025E00D
:1037B00023685B6913F0400F10D02368586910F03C
:1037C000400F1AD1586910F0100FE1D1FEF7DEFF5B
:1037D000801BA842ECD8002DEFD1E9E7002323633A
:1037E000202284F83D2084F83E30226C42F02002F2
:1037F000226484F83C30012000E0002070BD00000D
:10380000002800F0CC8070B5044690F83D30002BC5
:1038100077D0242384F83D302268136823F0010315
:1038200013602268136843F400431360226813682E
:1038300023F400431360FFF7B3FA62685A4B9A42CD
:1038400064D85A4B98428CBF00230123002B40F0D0
:10385000A8805749A1FB00318B0C25686A6822F0CB
:103860003F0242EA91426A6021680A6A22F03F02FE
:1038700066684D4DAE424FD8013313430B62216849
:10388000CA6922F44F4222F0FF026668464B9E420C
:103890004CD8431E7600B3FBF6F3013340F6FC70C0
:1038A000034278D0C3F30B031343CB6121680B6849
:1038B00023F0C003E269206A024313430B602168CE
:1038C0008B6823F4034323F0FF032269E06802437B
:1038D00013438B602168CB6823F0FF036269A06902
:1038E00002431343CB602268136843F00103136063
:1038F00000202064202384F83D30206384F83E00BB
:1039000070BD80F83C30FDF7D1FB82E7294B98422F
:103910008CBF0023012399E74FF4967505FB03F351
:10392000254DA5FB03539B090133A6E7A368BBB94B
:10393000451E06EB460CB5FBFCF50135C5F30B0542
:10394000B5FA85F56D0945BBC3B9013806EB4603E9
:10395000B0FBF3F30133C3F30B0343F40043A3E7DA
:10396000451E06EB860C0CEB8C0CB5FBFCF501350B
:10397000C5F30B05B5FA85F56D09E4E7013806EBEB
:10398000860303EB8303B0FBF3F30133C3F30B03B1
:1039900043F4404388E7042386E7012384E70120BA
:1039A00070470120ACE700BFA08601007F841E00A5
:1039B00083DE1B43FF083D00D34D62102DE9F04329
:1039C00083B004460F46904699460C9EFEF7DEFEF5
:1039D000054694F83D00C0B2202803D0022003B071
:1039E000BDE8F0830095192301224B492046FFF7DB
:1039F00096FC002840F0898094F83C30012B00F0C0
:103A00008680012384F83C3023681A6812F0010F85
:103A100003D11A6842F001021A602268136823F485
:103A200000631360212384F83D30402384F83E3046
:103A3000002323640A9B6362BDF82C306385638D89
:103A40002385364BE362019500964B464246394644
:103A50002046FFF753FD00285BD1238D002B35D086
:103A60002A4631462046FFF71AFD20BB626A2368CA
:103A700012781A61626A531C6362218D013989B21E
:103A80002185638D9BB2013B9BB263852368586996
:103A900010F0040FE1D00029DFD052781A61636A78
:103AA00001336362238D013B2385638D9BB2013B10
:103AB0009BB26385D1E7236C042B01D001208EE7F4
:103AC0002268136843F400731360F7E72A4631460F
:103AD0002046FFF729FE50B1236C042B01D00120B2
:103AE0007DE72268136843F400731360F7E72268E8
:103AF000136843F400731360202384F83D300023DF
:103B000084F83E3084F83C3069E7022067E7022001
:103B100065E7012063E700BF020010000000FFFF1F
:103B20002DE9F04389B004460F4690469946129E0F
:103B300000230793FEF72AFE054694F83D00C0B225
:103B4000202804D00227384609B0BDE8F08300954C
:103B50001923012281492046FFF7E1FB002840F0AC
:103B60007C8194F83C30012B00F07981012384F8AA
:103B70003C3023681A6812F0010F03D11A6842F032
:103B800001021A602268136823F400631360222381
:103B900084F83D30402384F83E3000232364109B9A
:103BA0006362BDF844306385638D23856C4BE362AB
:103BB000019500964B46424639462046FFF70AFDDE
:103BC0000746002840F04D81238D5BB9039323689D
:103BD0005A6903929A690392039A1A6842F400722E
:103BE0001A60F2E0012B0FD0022B21D0226813685B
:103BF00043F4806313600023069323685A69069296
:103C00009B690693069BE0E02268136823F48063B7
:103C1000136072B60023049323685A6904929A6968
:103C20000492049A1A6842F400721A6062B6CCE0F8
:103C30002268136843F40063136072B6002305938F
:103C400023685A6905929A690592059A1A6822F4BE
:103C500080621A6062B6B8E02A4631462046FFF715
:103C600092FD002840F0FF8023681A69636A1A7089
:103C7000636A01336362238D013B2385638D9BB2AD
:103C8000013B9BB26385A0E0009533460022354995
:103C90002046FFF744FB002840F0E98022681368C3
:103CA00023F48063136072B623681A69636A1A701A
:103CB000636A01336362238D013B2385638D9BB26D
:103CC000013B9BB26385284B1B68DB08274AA2FB9C
:103CD00003231B0A03EB8303C3EBC3030793079B75
:103CE000013B0793079B002B28D023685A6912F0E9
:103CF000040FF4D01A6842F400721A6023681A693B
:103D0000636A1A70636A01336362238D013B238502
:103D1000638D9BB2013B9BB2638562B623681A69CF
:103D2000636A1A70636A01336362238D013B2385E2
:103D3000638D9BB2013B9BB2638546E023632022E7
:103D400084F83D2084F83E30226C42F02002226448
:103D500062B684F83C300127F5E600BF020010008F
:103D60000000FFFF040001000800002089B5F814DE
:103D70002A4631462046FFF706FD002879D1236800
:103D80001A69636A1A70636A01336362228D013AA9
:103D900092B22285638D9BB2013B9BB263852368FF
:103DA000596911F0040F10D0032A48D023681A690A
:103DB000636A1A70636A01336362238D013B238552
:103DC000638D9BB2013B9BB26385238D002B3BD05F
:103DD000032BCDD8012B3FF43FAF022B7FF454AF20
:103DE00000953346002224492046FFF798FA002820
:103DF0003BD172B62268136843F4007313602368E2
:103E00001A69636A1A70636A01336362238D013B26
:103E10002385638D9BB2013B9BB2638562B62368A9
:103E20001A69636A1A70636A01336362238D013B06
:103E30002385638D9BB2013B9BB26385C5E71A68FE
:103E400022F480621A60B1E7202384F83D30002319
:103E500084F83E3084F83C3075E6022773E602278A
:103E600071E601276FE601276DE601276BE6012762
:103E700069E6012767E600BF04000100026802F15D
:103E80000C0353E8003F23F490730C3242E80031F6
:103E90000029F3D1026802F1140353E8003F23F034
:103EA0000103143242E800310029F3D1036B012BE6
:103EB00005D0202380F84230002303637047026856
:103EC00002F10C0353E8003F23F010030C3242E8E8
:103ED00000310029F3D1ECE710B5044602681369FC
:103EE00023F44053C1680B43136183680269134391
:103EF00042691A430168CB6823F4B05323F00C03E2
:103F00001343CB600268536923F4407381690B4308
:103F100053610268134B9A4220D0FEF741FF0246DC
:103F200002EB820202EB820263689B00B2FBF3F2B7
:103F30000D48A0FB02314909642303FB11231B0137
:103F40003233A0FB03235B0903F0F00202EB011202
:103F500003F00F03216813448B6010BDFEF730FFA0
:103F60000246DDE7003801401F85EB512DE9F043A3
:103F700083B005460E4617469946DDF828802C6822
:103F8000246836EA04030CBF4FF0010C4FF0000C1C
:103F9000BC4528D1B8F1FF3FF1D0FEF7F7FBA0EB0D
:103FA0000900404523D8B8F1000F22D02B68DA6809
:103FB00012F0040FE3D0802EE1D0402EDFD01A683B
:103FC00012F0080FDBD0002401941A6801925B689C
:103FD0000193019B2846FFF751FF08236B6485F886
:103FE0004040012000E0002003B0BDE8F083032042
:103FF000FAE70320F8E760B310B5044690F84130C3
:1040000013B3242384F841302268D36823F4005387
:10401000D3602046FFF760FF2268136923F49043C2
:1040200013612268536923F02A0353612268D3681D
:1040300043F40053D36000206064202384F84130AF
:1040400084F84230606310BD80F84030FDF7F8F925
:10405000D7E7012070472DE9F04182B01E4690F865
:104060004130DBB2202B56D104460D469046002944
:1040700055D00AB901204FE000234364212380F882
:104080004130FEF783FB0746A4F82480A4F826807D
:10409000A368B3F5805F02D04FF0000814E02369F5
:1040A0002BB34FF000080FE0202384F841300320A9
:1040B00032E038F8023B2268C3F308035360E28C15
:1040C00092B2013A92B2E284E38C9BB293B1009631
:1040D0003B46002280212046FFF748FF0028E3D11D
:1040E000002DE6D015F8012B23685A60E7E7A846B3
:1040F0000025E9E700963B46002240212046FFF7D5
:1041000035FF18B9202384F8413005E0202384F8D6
:104110004130032000E0022002B0BDE8F081012020
:10412000FAE7704700F1080343604FF0FF32826006
:10413000C36003610023036070470023036170477D
:1041400043684B609A688A605160996008610368AF
:1041500001330360704730B40D68B5F1FF3F11D0F3
:1041600000F108031C465B681A68AA42FAD9636822
:104170004B6099608C606160086103680133036083
:1041800030BC70470469F2E70369416882688A605D
:10419000416851605A68824206D0002202611A6862
:1041A000013A1A601868704782685A60F5E710B5DE
:1041B000044601F06FF9A26BE36B9A4204D000242D
:1041C00001F08AF9204610BD0124F9E710B5044634
:1041D00001F060F9A36B23B9012401F07DF92046B9
:1041E00010BD0024F9E770B504461546866B026CD5
:1041F0005AB903681BB100200136A66370BD806800
:1042000000F034FF0023A360F6E76DB9406801F0C9
:104210008FFD226C636813446360A268934219D3D4
:10422000236863602846E7E7C06801F081FD226CDF
:104230005142E3689B1AE3602268934202D2A3686A
:104240000B44E360022D01D00020D5E726B1013EEA
:104250000020D1E72846CFE70020CDE708B5034688
:10426000026C62B10846D9681144D960D3F808C01D
:10427000614501D31968D960D96801F059FD08BDBD
:1042800038B5054601F006F995F8454064B201E0FD
:10429000013C64B2002C0ADD6B6A43B105F12400D5
:1042A00000F03AFE0028F3D000F0CAFEF0E7FF234A
:1042B00085F8453001F010F901F0ECF895F844402C
:1042C00064B201E0013C64B2002C0ADD2B6943B109
:1042D00005F1100000F020FE0028F3D000F0B0FE41
:1042E000F0E7FF2385F8443001F0F6F838BD38B523
:1042F000E0B10D46044601F0CDF82368E26B216C75
:1043000001FB0230A0600020A0636360013A02FB61
:104310000133E360FF2384F8443084F84530FDB96D
:10432000236963B901F0D8F8012038BD4FF050037C
:1043300083F31188BFF36F8FBFF34F8FFEE704F154
:10434000100000F0E9FD0028ECD04FF0E0234FF022
:104350008052C3F8042DBFF34F8FBFF36F8FE1E797
:1043600004F11000FFF7DEFE04F12400FFF7DAFE8F
:10437000D8E710B5034602980C4631B90060C36314
:1043800004640121FFF7B3FF10BD0260F7E740B9F5
:104390004FF0500383F31188BFF36F8FBFF34F8F3C
:1043A000FEE7F0B583B00D461446064601FB00F06B
:1043B000483000F05FFF074650B1002380F84630D8
:1043C0000090234600F1480229463046FFF7D1FF0E
:1043D000384603B0F0BDF0B585B0019288B10F4604
:1043E0001D460446B1B1022D20D1E36B012B1DD037
:1043F0004FF0500383F31188BFF36F8FBFF34F8FDC
:10440000FEE74FF0500383F31188BFF36F8FBFF3C4
:104410004F8FFEE7036C002BE5D04FF0500383F382
:104420001188BFF36F8FBFF34F8FFEE700F00EFED2
:10443000064658B9019B002B48D04FF0500383F338
:104440001188BFF36F8FBFF34F8FFEE700263DE06B
:104450002A4639462046FFF7C6FE636A7BB948B153
:104460004FF0E0234FF08052C3F8042DBFF34F8F7D
:10447000BFF36F8F01F030F8012005B0F0BD04F1FB
:10448000240000F049FD0028F4D04FF0E0234FF065
:104490008052C3F8042DBFF34F8FBFF36F8FE9E74E
:1044A00001F01AF80020E8E702A800F07BFD0126E1
:1044B00019E0002384F8443021E0002384F84530DB
:1044C00023E02046FFF7DCFE00F0CEFB00F0E2FF29
:1044D000A26BE36B9A42BBD3022DB9D0019B002B98
:1044E000DED0002EE0D000F0F7FF00F023FB00F05C
:1044F000D1FF94F8442052B2B2F1FF3FD9D094F8E2
:10450000452052B2B2F1FF3FD7D000F0E5FF01A93C
:1045100002A800F053FDD8B92046FFF748FE002856
:10452000CFD0019904F1100000F0DEFC2046FFF727
:10453000A7FE00F099FB0028C8D14FF0E0234FF010
:104540008052C3F8042DBFF34F8FBFF36F8FBDE7C9
:104550002046FFF795FE00F087FB00208DE7F0B5C1
:1045600085B0019290B10F460446C1B100F06EFDD6
:10457000064600BB019B002B5ED04FF0500383F337
:104580001188BFF36F8FBFF34F8FFEE74FF05003DB
:1045900083F31188BFF36F8FBFF34F8FFEE7036C78
:1045A000002BE3D04FF0500383F31188BFF36F8FDC
:1045B000BFF34F8FFEE700263EE039462046FFF767
:1045C0004DFE013DA563236923B900F085FF01205D
:1045D00005B0F0BD04F1100000F09EFC0028F4D0FE
:1045E0004FF0E0234FF08052C3F8042DBFF34F8FFC
:1045F000BFF36F8FE9E700F06FFF0020E8E702A844
:1046000000F0D0FC012621E0002384F8443029E0AA
:10461000002384F845302BE02046FFF731FE00F000
:1046200023FB09E02046FFF72BFE00F01DFB204690
:10463000FFF7CCFD00283FD100F02CFFA56B002D2B
:10464000BBD1019B002BD6D0002ED8D000F044FF68
:1046500000F070FA00F01EFF94F844305BB2B3F142
:10466000FF3FD1D094F845305BB2B3F1FF3FCFD0DC
:1046700000F032FF01A902A800F0A0FC0028D1D16F
:104680002046FFF7A3FD0028C6D0019904F12400BD
:1046900000F02AFC2046FFF7F3FD00F0E5FA0028C1
:1046A000CAD14FF0E0234FF08052C3F8042DBFF37E
:1046B0004F8FBFF36F8FBFE7002089E7084B1B6860
:1046C0001B6823B9074B4FF0FF321A607047044B49
:1046D0001B68DB68DB685A68024B1A60704700BFD2
:1046E00070060020440700202DE9F0470746984651
:1046F000089DDDF824900A9C266B02F18042013A65
:1047000006EB820626F0070600293AD08E464FF0C7
:10471000000CBCF10F0F0BD81EF80C2004EB0C039F
:1047200083F834201EF80C3013B10CF1010CF0E7C3
:10473000002384F84330062D00D90625E562656420
:104740004FF0000AC4F848A0201DFFF7F6FC04F162
:104750001800FFF7F2FC2461C5F10705A56164624A
:10476000C4F84CA084F850A042463946304600F0C8
:104770006DFE2060B9F1000F01D0C9F80040BDE81E
:10478000F087002384F83430D5E7000038B50024E2
:1047900007E004EB840293000E481844FFF7C2FCC4
:1047A0000134062CF5D90C4D2846FFF7BBFC0B4C09
:1047B0002046FFF7B7FC0A48FFF7B4FC0948FFF7AB
:1047C000B1FC0948FFF7AEFC084B1D60084B1C60AC
:1047D00038BD00BF78060020180700202C070020F5
:1047E000500700207C07002068070020700600208A
:1047F0007406002010B5044600F04CFE214A1368F0
:1048000001331360204B1B685BB1204B1B686BB9F5
:104810001D4B1B68DA6AE36A9A4207D81A4B1C6080
:1048200004E0194B1C601368012B28D0184A136848
:1048300001331360E06A01238340164A11680B4379
:10484000136000EB8000211D134B03EB8000FFF78A
:1048500077FC00F041FE0D4B1B687BB10A4B1B68D7
:10486000DA6AE36A9A4209D24FF0E0234FF08052AD
:10487000C3F8042DBFF34F8FBFF36F8F10BDFFF749
:1048800085FFD3E7040700206C06002064070020A2
:1048900010070020140700207806002010B50446F9
:1048A00090F8513063B1012B11D0022B0ED04FF094
:1048B000500383F31188BFF36F8FBFF34F8FFEE771
:1048C000006B00F055FD204600F052FD10BD00F0D9
:1048D0004FFDFBE70F4B1B68D3B110B500F0DAFDBD
:1048E0000D4BDB68DC68201DFFF74EFC0B4A13689C
:1048F000013B1360074A1368013B136000F0ECFDB5
:104900002046FFF7CBFF034B1B68002BE6D110BD01
:10491000704700BF080700207C0700200407002024
:1049200008B5FFF7D7FF074B1B68012BF9D94FF0EC
:10493000E0234FF08052C3F8042DBFF34F8FBFF335
:104940006F8FEEE77806002070B504460D461D4BCC
:104950001E681D4B18680430FFF716FC50B91A4B3F
:104960001B68DA6A012303FA02F218490B6823EA8A
:1049700002030B60B4F1FF3F0DD03444124B1B68AF
:104980005C60A64210D9124B18680F4B19680431AD
:10499000FFF7E1FB70BD002DEFD00B4B1968043120
:1049A0000C48FFF7CDFBF5E70B4B1868064B196871
:1049B0000431FFF7D0FB094B1B68A342EAD9074B30
:1049C0001C60E7E7900700206C0600201407002019
:1049D00074060020680700207006002044070020AD
:1049E00030B587B00B9C7CB10C9DB5B154250495B6
:1049F000049D542D1AD04FF0500383F31188BFF358
:104A00006F8FBFF34F8FFEE74FF0500383F3118892
:104A1000BFF36F8FBFF34F8FFEE74FF0500383F369
:104A20001188BFF36F8FBFF34F8FFEE7049D0C9D7E
:104A30002C63022485F8514000240394029505ACB0
:104A400001940A9C0094FFF74FFE0C98FFF7D2FEEA
:104A5000059807B030BD2DE9F04385B0074688467C
:104A600014461E46900000F005FC00B38146542019
:104A700000F000FC0546B0B1C0F83090E5B100236D
:104A800085F85130039302950D9B01930C9B009385
:104A90003346224641463846FFF726FE2846FFF7B2
:104AA000A9FE012005E0484600F062FCE6E74FF071
:104AB000FF3005B0BDE8F0834FF0FF30F9E70000AC
:104AC00010B588B000240594069407AA06A905A885
:104AD000FCF77AF9059B0293069B01930094234609
:104AE000079A0E490E48FFF77BFF0E4B186090B1F6
:104AF0004FF0500383F31188BFF36F8FBFF34F8FD5
:104B0000094B4FF0FF321A60084B01221A60084B24
:104B10001C6000F049FD08B010BD00BF0070000827
:104B200021490008400700204407002064070020B6
:104B300090070020024A136801331360704700BFDA
:104B40000C070020014B1868704700BF9007002039
:104B5000F8B53A4B1B68002B69D1394B1D680135FC
:104B60001D60C5B9374B1B681B6843B14FF050033C
:104B700083F31188BFF36F8FBFF34F8FFEE7314A86
:104B80001168314B186810601960304A136801339E
:104B90001360FFF793FD2E4B1B68AB423DD90027F6
:104BA0002C4B1B68DB6A03EB83039A002A4B9B5850
:104BB000012B00D90127294B1B68002B3CD0012772
:104BC0003AE001271F4B1B681B6843B31D4B1B6852
:104BD000DB68DC6863689D4226D3261D3046FFF7FC
:104BE000D3FAA36A1BB104F11800FFF7CDFAE36A08
:104BF00001229A401A49086802430A6003EB8303C2
:104C00009A00314614481044FFF79AFAE26A114BB1
:104C10001B68DB6A9A42D4D2D4E70027D2E70C4B58
:104C20004FF0FF321A60BBE7094A1360B8E70D4A3C
:104C300013680133136000273846F8BD0C070020C5
:104C4000900700207006002074060020480700200E
:104C5000440700206C0600207806002094070020FE
:104C6000140700204C07002038B5354B1B6843B9AA
:104C70004FF0500383F31188BFF36F8FBFF34F8F53
:104C8000FEE700F007FC2E4B1A68013A1A601B6819
:104C9000002B4FD12B4B1B680BB900244BE0002499
:104CA000294B1B681BB3284BDB68DC6804F1180038
:104CB000FFF76AFA251D2846FFF766FAE06A012326
:104CC0008340224A11680B43136000EB80002946A1
:104CD0001F4B03EB8000FFF733FAE26A1D4B1B68A2
:104CE000DB6A9A42DCD31C4B01221A60D8E70CB174
:104CF000FFF7E4FC194B1C6884B9174B1C68D4B14E
:104D00004FF0E0234FF08052C3F8042DBFF34F8FD4
:104D1000BFF36F8F01240EE0013C07D0FFF718FFAF
:104D20000028F9D00C4B01221A60F5E70B4B00224A
:104D30001A60E2E7002400F0CFFB204638BD00BF38
:104D40000C07002004070020500700201407002053
:104D5000780600206C060020940700204C070020F5
:104D600038B558B10C46054689B94FF0500383F366
:104D70001188BFF36F8FBFF34F8FFEE74FF05003E3
:104D800083F31188BFF36F8FBFF34F8FFEE71B4B89
:104D90001B6843B14FF0500383F31188BFF36F8F4B
:104DA000BFF34F8FFEE7FFF7C5FE154B18682B6862
:104DB0001C44834209D9A34201D82C600EE0A042D2
:104DC00001D32C600AE02C6004E0A34201D8A04289
:104DD00012D22C600021201AFFF7B6FDFFF744FF26
:104DE00048B94FF0E0234FF08052C3F8042DBFF3D1
:104DF0004F8FBFF36F8F38BD2C60EFE70C0700209B
:104E00009007002010B5A8B10446104B1B6843B1B1
:104E10004FF0500383F31188BFF36F8FBFF34F8FB1
:104E2000FEE7FFF787FE00212046FFF78DFDFFF725
:104E30001BFF48B94FF0E0234FF08052C3F8042D18
:104E4000BFF34F8FBFF36F8F10BD00BF0C07002063
:104E5000204B1B681BB1204B01221A6070471E4B70
:104E600000221A601D4B1B68B3FA83F3DBB2C3F157
:104E70001F0303EB83018A0019498A5842B94FF096
:104E8000500383F31188BFF36F8FBFF34F8FFEE79B
:104E9000134903EB830082000A4450684068506065
:104EA00003EB830C4FEA8C0208321144884209D08C
:104EB00003EB83039A000A4B13445B68DA68094BDF
:104EC0001A607047406862469100054A0A44506083
:104ED000EEE700BF0C070020940700201407002015
:104EE000780600206C06002058B110B50C46094A1F
:104EF00011681831FFF72FF901212046FFF724FD33
:104F000010BD4FF0500383F31188BFF36F8FBFF3D1
:104F10004F8FFEE76C06002038B5C368DC6824B309
:104F200004F118052846FFF72FF9184B1B682BBB17
:104F3000251D2846FFF728F9E06A01238340144A1B
:104F400011680B43136000EB80002946114B03EB03
:104F50008000FFF7F5F8E26A0F4B1B68DB6A9A42A4
:104F600011D901200D4B186038BD4FF0500383F369
:104F70001188BFF36F8FBFF34F8FFEE729460848B4
:104F8000FFF7DEF8E7E70020EEE700BF0C070020A0
:104F900014070020780600206C06002094070020EB
:104FA00050070020034B1B680360034B1B684360E2
:104FB000704700BF4807002090070020D8B170B5A7
:104FC0000C46054601B300F065FA1B4B19686B6887
:104FD000C81A2268B2F1FF3F27D0184E3668D5F8BC
:104FE00000C0B44501D08B4224D9824215D8002399
:104FF000236001241AE04FF0500383F31188BFF3BC
:105000006F8FBFF34F8FFEE74FF0500383F311888C
:10501000BFF36F8FBFF34F8FFEE75B1A134423601C
:105020002846FFF7BFFF002400E0002400F054FAF8
:10503000204670BD0124F9E79007002048070020B2
:10504000014B01221A60704794070020054B1B6832
:1050500033B1054B1B680BB100207047022070472D
:1050600001207047640700200C07002000284CD066
:1050700038B50446274B1B68834208D04FF05003D5
:1050800083F31188BFF36F8FBFF34F8FFEE7836CFD
:1050900043B94FF0500383F31188BFF36F8FBFF311
:1050A0004F8FFEE7013B8364C16A426C91422ED070
:1050B0000BB1002038BD051D2846FFF765F870B913
:1050C000E26A02EB82039B001349CB583BB90123F0
:1050D00003FA02F211490B6823EA02030B60606CC9
:1050E000E062C0F10703A361012404FA00F30B4A54
:1050F00011680B43136000EB80002946064B03EB5D
:105100008000FFF71DF82046D4E7002070470020FC
:10511000D0E700BF6C0600207806002014070020AE
:10512000842801D0033070470020704708B5FFF78E
:10513000C7FC002008BD2DE9F04387B004460F46A8
:105140004569BDB18669AEB1D0F80480D0F8009051
:10515000B0F90800FFF7E4FF0296019500903B4686
:10516000226949464046FFF73BFC0590059807B089
:10517000BDE8F08365682668D4F81080B4F90800AB
:10518000FFF7CEFF05AB019300903B461FFA88F274
:1051900031462846FFF75FFC0128E7D00020E6E70C
:1051A00008B500B90120FFF72DFE002008BD000062
:1051B000124A12F0070F1ED0D11D21F00701C1F5D0
:1051C000705313440A460E480260002141601344A4
:1051D000083B23F007030B48036059601960991AD4
:1051E00051601360084B1960084B1960084B4FF071
:1051F00000421A6070474FF47053E4E79C070020A8
:10520000B043002098070020A4430020A0430020C2
:105210009C430020154B1A461B688342FBD3516800
:1052200002EB010C844509D0416800EB010C634599
:1052300009D00360904218D0106070474068014464
:1052400051601046F0E710B4094C2468A3420AD01C
:105250005B681944416013681B680360904200D08A
:10526000106010BC70470460F8E77047B04300203E
:105270009807002070B50546FFF75CFC364B1B68AD
:10528000A3B1364B1B681D424ED135B1083515F020
:10529000070F02D025F007050835002D46D0304B0A
:1052A0001B68AB4251D32F4A146804E0FFF780FF1C
:1052B000E7E722461C466368AB4202D22368002B14
:1052C000F7D1254B1B68A34241D0166808362368E6
:1052D000136063685B1B102B10D9601910F0070F67
:1052E00008D04FF0500383F31188BFF36F8FBFF3E3
:1052F0004F8FFEE743606560FFF78CFF62681849D7
:105300000B689B1A0B60184909688B4201D2164939
:105310000B60124B1B681343636000232360134A26
:1053200013680133136002E0002600E00026FFF757
:105330009BFC16F0070F0CD04FF0500383F311883D
:10534000BFF36F8FBFF34F8FFEE70026EFE7002616
:10535000EDE7304670BD00BF980700209C43002059
:10536000A0430020B0430020A4430020A843002015
:10537000002834D038B50446A0F1080550F8043CA4
:10538000174A1268134208D14FF0500383F3118873
:10539000BFF36F8FBFF34F8FFEE750F8081C41B18A
:1053A0004FF0500383F31188BFF36F8FBFF34F8F1C
:1053B000FEE723EA020340F8043CFFF7BBFB54F886
:1053C000041C084A13680B4413602846FFF722FFA9
:1053D000054A136801331360FFF746FC38BD704778
:1053E0009C430020A0430020AC43002082B0002357
:1053F00001930D4B1B68B3F1FF3F08D04FF05003F2
:1054000083F31188BFF36F8FBFF34F8FFEE74FF029
:10541000500383F31188BFF36F8FBFF34F8F019B4E
:10542000002BFCD002B070470C000020064800683A
:10543000006880F3088862B661B6BFF34F8FBFF390
:105440006F8F00DF00BF000008ED00E04FF08073B9
:1054500040F8043C21F0010140F8081C034B40F8DF
:105460000C3C40F8202C4038704700BFED5300083A
:10547000074B19680868B0E8F00F80F30988BFF39C
:105480006F8F4FF0000080F311884EF00D0E7047C3
:105490006C0600204FF0500383F31188BFF36F8F29
:1054A000BFF34F8F0B4A136801331360012B00D0F9
:1054B00070474FF0E023D3F8043D13F0FF0FF7D00F
:1054C0004FF0500383F31188BFF36F8FBFF34F8FFB
:1054D000FEE700BF0C000020094B1B6843B94FF0EA
:1054E000500383F31188BFF36F8FBFF34F8FFEE735
:1054F000013B034A13600BB983F31188704700BF67
:105500000C0000200000000000000000000000006F
:10551000EFF30980BFF36F8F0D4B1A6820E9F00F8E
:1055200010602DE908404FF0500080F31188FFF71C
:105530008FFC4FF0000080F31188BDE80840196827
:105540000868B0E8F00F80F30988BFF36F8F7047E9
:105550006C06002008B54FF0500383F31188BFF3A9
:105560006F8FBFF34F8FFFF7F3FA28B14FF0E023AF
:105570004FF08052C3F8042D002383F3118808BD37
:105580004FF0E022002313619361054B1B6805492E
:10559000A1FB03139B09013B536107231361704770
:1055A00008000020D34D621010B582B02A4B1A7843
:1055B000D2B20192FF221A701B78DBB28DF8033051
:1055C0009DF8033003F05003244A1370244B072244
:1055D0001A6009E0224A1368013B13609DF803300A
:1055E0005B00DBB28DF803309DF8033013F0800FC1
:1055F000F0D11B4B1B68032B08D04FF0500383F3F3
:105600001188BFF36F8FBFF34F8FFEE71B02144A61
:10561000136003F4E0631360019BDBB20E4A137066
:105620004FF0E023D3F8202D42F47002C3F8202D70
:10563000D3F8202D42F07042C3F8202DFFF7A0FFD1
:105640000024084B1C60FFF7F1FEFFF701FCFFF799
:10565000CDFE204602B010BD00E400E0B8430020BB
:10566000BC4300200C00002010B503460C4A0D4935
:105670000D48006840B10C4800680344521A934238
:1056800006D8094A136010BD0748084C0460F2E7C9
:1056900000F024FB0C2303604FF0FF30F3E700BF62
:1056A0000050002000040000C043002000440020FF
:1056B00070B50C461646002506E0AFF30080214683
:1056C00001F8010B01350C46B542F6DB304670BDE2
:1056D0004FF0FF3070474FF400534B60002070478D
:1056E000012070470020704710B58CB02E4B2F4C16
:1056F0001C6008225A6000229A604FF04071D96005
:105700004FF4302119614FF4800159611A7601215B
:1057100059769A76DA761A775977254800F0A4FBFD
:10572000244BDA6942F00072DA61DB6903F000733E
:105730000193019B236823F0020323604FF6FF735C
:1057400000E01346194A526812F0020F02D05A1EA6
:10575000002BF6D1154B5B6813F0020F1DD01649D4
:10576000164800F0FBFA104800F084F8B8B114486D
:1057700000F07AFBFBF7E5F9002307930893012279
:105780000992029303930493059306930A9202A944
:10579000054800F015F90CB010BD0A49E0E70A48C9
:1057A00000F062FBE8E700BFC44300200064004053
:1057B00014700008001002400C70000840700008CF
:1057C00058700008087000086870000810B588B0AC
:1057D000002304930593069307930268224B9A4291
:1057E00001D008B010BD03F5D633DA6922F4000207
:1057F000DA619A6942F008029A619A6902F0080235
:105800000192019ADA6942F00072DA61DA6902F013
:1058100000720292029A9A6942F001029A619B69AF
:1058200003F001030393039B104A536823F4C0431E
:1058300043F0E06343F4804353604FF48073049378
:105840000023059306930A4C04A92046FDF7DEFBCE
:105850004FF400730493022305930323079304A9D1
:105860002046FDF7D3FBBCE7006400400000014088
:10587000000C0140002800F0A18038B5044690F8E3
:105880002030D3B12268136843F001031360FCF7A2
:105890007DFF054623685A6812F0010F10D1FCF70E
:1058A00075FF401B0A28F5D9636A43F4003363622D
:1058B000052384F82030012038BDFFF787FFE1E79A
:1058C0001A6822F002021A60FCF760FF054623689E
:1058D0005A6812F0020F0DD0FCF758FF401B0A283F
:1058E000F5D9636A43F400336362052384F82030FA
:1058F0000120E1E7227E012A3DD01A6822F08002D1
:105900001A60637E012B3BD02268136823F04003AA
:105910001360A37E012B39D02268136823F0200383
:105920001360E37E012B37D02268136843F0100325
:105930001360237F012B35D02268136823F00803FE
:105940001360637F012B33D02268136823F00403B4
:105950001360A368E2681343226913436269134327
:105960006268013A21681343CB6100206062012321
:1059700084F82030A0E71A6842F080021A60C0E77D
:105980002268136843F040031360C2E7226813687B
:1059900043F020031360C4E72268136823F0100368
:1059A0001360C6E72268136843F008031360C8E772
:1059B0002268136843F004031360CAE701207047AC
:1059C000026890F82030013BDBB2012B05D9436A15
:1059D00043F4802343620120704710B5D2F80032AF
:1059E00043F00103C2F800324B6903F01F030120AA
:1059F00000FA03F3D2F81C026FEA030C20EA03005A
:105A0000C2F81C02C869C0B9D2F80C020CEA000046
:105A1000C2F80C028C884869D1F80CE044EA0E44C4
:105A2000483042F830400C884869D1F808E044EA30
:105A30000E44483002EBC0004460C86901281AD007
:105A4000886988BBD2F804020CEA0000C2F804029C
:105A5000086978BBD2F814020CEA0000C2F81402FC
:105A6000096A01292CD0D2F8003223F00103C2F8D0
:105A70000032002010BDD2F80C021843C2F80C020C
:105A80008C884869D1F800E044EA0E44483042F876
:105A900030408C894869D1F808E044EA0E44483027
:105AA00002EBC0004460CBE7D2F804021843C2F80E
:105AB0000402CDE7D2F814021843C2F81402CFE76B
:105AC000D2F81C120B43C2F81C32CCE770B5044666
:105AD00090F82050EDB2012D06D0436A43F4002324
