:020000040800F2
:1000000000500020BD260008850200088702000875
:10001000890200088B0200088D0200080000000021
:10002000000000000000000000000000711F000838
:100030008F02000800000000112000085520000871
:1000400005270008052700080527000805270008E0
:1000500005270008052700080527000805270008D0
:1000600005270008052700080527000805270008C0
:1000700005270008052700080527000805270008B0
:1000800005270008052700080527000805270008A0
:100090000527000805270008052700080527000890
:1000A0000527000805270008052700080527000880
:1000B0009102000805270008052700080527000809
:1000C0000527000805270008052700080527000860
:1000D0000527000805270008052700080527000850
:1000E0000527000805270008052700080000000074
:1000F0000000000000000000000000000000000000
:0C01000000000000000000005FF808F1A3
:1001100010B5054C237833B9044B13B10448AFF341
:1001200000800123237010BD10000020000000009B
:100130006027000808B5034B1BB103490348AFF320
:10014000008008BD000000001400002060270008A7
:1001500008B50368B3F1804F00D008BD00F0DCF8AB
:10016000FBE772B6FEE700B595B0282200210DEB43
:10017000020002F0EDFA002305930693079308931B
:100180000993019302930393049301220A924FF47B
:1001900080330B930E920222119212934FF4E013CC
:1001A00013930AA800F0E0F8C8B90F2305930221C1
:1001B0000691002307934FF480620892099305A8E3
:1001C00000F004FB68B9022301934FF4004303934A
:1001D00001A800F0E5FB30B915B05DF804FBFFF7AE
:1001E000C0FFFFF7BEFFFFF7BCFF08B500F082F8C5
:1001F000FFF7B9FF00F00AF801F0B6FF02F010F8BF
:1002000000F0E6FD01F0FAFCFEE7000030B589B031
:1002100000240494059406940794184B9A6942F0BC
:1002200010029A619A6902F010020192019A9A6989
:1002300042F020029A619A6902F020020292029A28
:100240009A6942F004029A619B6903F004030393E4
:10025000039B0B4D22464FF40051284600F03EFD13
:100260004FF400530493012305930694022307934C
:1002700004A9284600F020FC09B030BD001002405F
:1002800000100140FEE7FEE7FEE7FEE7FEE77047ED
:1002900008B5024800F084FE08BD00BF98020020A7
:1002A00000B583B0114B9A6942F001029A619A69D4
:1002B00002F001020092009ADA6942F08052DA619B
:1002C000DB6903F080530193019B00220F216FF043
:1002D000010000F01BFD064A536823F0E06343F081
:1002E0008063536003B05DF804FB00BF0010024060
:1002F0000000014008B5074A136843F0100313607B
:10030000032000F0F1FC0F2000F0C0FDFFF7C8FF54
:10031000002008BD00200240034A1168034B1B78EF
:100320000B441360704700BF2C0000200000002029
:10033000014B1868704700BF2C00002082B0084BAA
:100340001B68084AA2FB03235B0A00FB03F301932B
:1003500000BF019B5A1E0192002BF9D102B07047D9
:1003600008000020D34D6210002800F0F18170B524
:1003700082B00446036813F0010F2CD0994B5B68E0
:1003800003F00C03042B1DD0964B5B6803F00C03A9
:10039000082B12D06368B3F5803F41D0002B55D1B4
:1003A00003F1804303F504331A6822F480321A60A3
:1003B0001A6822F480221A6037E08A4B5B6813F4D3
:1003C000803FE7D0874B1B6813F4003F03D063687E
:1003D000002B00F0BF81236813F0020F75D0814B12
:1003E0005B6813F00C0F5FD07E4B5B6803F00C036F
:1003F000082B54D02369002B00F08A807A4B01220D
:100400001A60FFF795FF0546764B1B6813F0020F45
:1004100075D1FFF78DFF401B0228F5D903209EE11F
:10042000704A136843F480331360636843B3FFF783
:100430007FFF05466B4B1B6813F4003FCBD1FFF7E2
:1004400077FF401B6428F5D9032088E1B3F5A02F7E
:1004500009D0644B1A6822F480321A601A6822F4B8
:1004600080221A60E1E703F18043A3F53C331A6868
:1004700042F480221A601A6842F480321A60D4E78B
:10048000FFF756FF0546574B1B6813F4003FA2D0F9
:10049000FFF74EFF401B6428F5D903205FE1514B65
:1004A0005B6813F4803FA5D14E4B1B6813F0020F1D
:1004B00003D02369012B40F04F814A4A136823F08F
:1004C000F803616943EAC1031360236813F0080F5E
:1004D00033D0A369002B5CD0434B0122C3F88024A6
:1004E000FFF726FF05463F4B5B6A13F0020F21D151
:1004F000FFF71EFF401B0228F5D903202FE1394AE0
:10050000136823F0F803616943EAC1031360DCE771
:10051000354B00221A60FFF70BFF0546314B1B6875
:1005200013F0020FD1D0FFF703FF401B0228F5D9CB
:10053000032014E10120FFF701FF236813F0040FEB
:1005400000F09680274BDB6913F0805F34D1254B98
:10055000DA6942F08052DA61DB6903F0805301937B
:10056000019B0125214B1B6813F4807F26D0E36893
:10057000012B3DD0002B53D103F1804303F504330D
:100580001A6A22F001021A621A6A22F004021A623E
:1005900033E0154B0022C3F88024FFF7C9FE05465F
:1005A000104B5B6A13F0020FC7D0FFF7C1FE401B70
:1005B0000228F5D90320D2E00025D3E70B4A1368BF
:1005C00043F480731360FFF7B3FE0646074B1B68C6
:1005D00013F4807FCBD1FFF7ABFE801B6428F5D9E5
:1005E0000320BCE0001002400000424200700040C6
:1005F0005F4A136A43F001031362E36833B3FFF702
:1006000097FE06465A4B1B6A13F0020F2FD1FFF7D5
:100610008FFE801B41F288339842F3D903209EE07D
:10062000052B09D0524B1A6A22F001021A621A6A8B
:1006300022F004021A62E0E74D4B1A6A42F004020B
:100640001A621A6A42F001021A62D6E7FFF770FED8
:100650000646474B1B6A13F0020F08D0FFF768FEEF
:10066000801B41F288339842F3D9032077E0E5B943
:10067000E369002B72D03E4A526802F00C02082A4D
:1006800056D0022B17D03B4B00221A66FFF750FEC4
:100690000446374B1B6813F0007F47D0FFF748FE36
:1006A000001B0228F5D9032059E0314AD36923F011
:1006B0008053D361DCE72F4B00221A66FFF738FE28
:1006C00005462B4B1B6813F0007F06D0FFF730FE6A
:1006D000401B0228F5D9032041E0236AB3F5803F8F
:1006E0001AD023494B6823F47413226A606A0243C8
:1006F00013434B601F4B01221A66FFF719FE044695
:100700001B4B1B6813F0007F0ED1FFF711FE001B7F
:100710000228F5D9032022E0154A536823F4003358
:10072000A1680B435360DCE7002018E0002016E0CE
:10073000012B16D00E4B5B6803F48031226A914284
:1007400011D103F47013626A93420ED1002006E0C7
:1007500001207047012002E0012000E0002002B0EB
:1007600070BD0120FBE70120F9E70120F7E700BF9A
:1007700000100240000042420F4B5B6803F00C0285
:10078000082A01D00D487047C3F383420C49885CA6
:1007900013F4803F0BD0084B5B68C3F34043094A16
:1007A000D35C064A02FB00F0B0FBF3F07047064B47
:1007B00003FB00F0704700BF0010024000127A00F7
:1007C000DC270008EC27000800093D00002800F0A5
:1007D000A08070B50D460446524B1B6803F007031A
:1007E0008B420BD24F4A136823F007030B4313606D
:1007F000136803F007038B4240F08D80236813F0E9
:10080000020F17D013F0040F04D0474A536843F483
:10081000E0635360236813F0080F04D0424A536822
:1008200043F460535360404A536823F0F003A168D7
:100830000B435360236813F0010F31D06368012B21
:1008400020D0022B25D0384A126812F0020F64D053
:1008500035494A6822F0030213434B60FFF768FDF5
:100860000646314B5B6803F00C036268B3EB820F02
:1008700016D0FFF75DFD801B41F288339842F0D916
:10088000032045E0284A126812F4003FE0D101201D
:100890003EE0254A126812F0007FD9D1012037E0EE
:1008A000204B1B6803F00703AB420AD91D4A1368AB
:1008B00023F007032B431360136803F00703AB42D5
:1008C0002DD1236813F0040F06D0174A536823F480
:1008D000E063E1680B435360236813F0080F07D00F
:1008E000114A536823F46053216943EAC1035360FA
:1008F000FFF742FF0C4B5B68C3F303130B4AD35C57
:10090000D8400B4B18600B4B186800F0BFFA002062
:1009100070BD012070470120FAE70120F8E70120AF
:10092000F6E700BF0020024000100240F027000858
:100930000800002004000020014B1868704700BF29
:100940000800002008B5FFF7F7FF044B5B68C3F30E
:100950000223034AD35CD84008BD00BF0010024008
:10096000002800080F2303600B4B5A6802F00302B3
:1009700042605A6802F0F00282605A6802F4E06253
:10098000C2605B68DB0803F4E0630361034B1B6830
:1009900003F007030B607047001002400020024084
:1009A00070B582B00446036813F0010F36D03F4B98
:1009B000DB6913F0805F49D13C4BDA6942F0805229
:1009C000DA61DB6903F080530193019B0125384B09
:1009D0001B6813F4807F3BD0344B1B6A13F44073C5
:1009E00013D0626802F440729A420ED02F4A136A02
:1009F00023F440702F490126C1F840640026C1F855
:100A00004064106213F0010F36D1284A136A23F4B0
:100A1000407361680B431362002D3ED1236813F0CD
:100A2000020F06D0214A536823F44043A1680B43C8
:100A30005360236813F0100F34D01C4A536823F41A
:100A40008003E1680B43536000202CE00025BEE7E3
:100A5000174A136843F480731360FFF769FC064676
:100A6000134B1B6813F4807FB6D1FFF761FC801B2A
:100A70006428F5D9032016E0FFF75AFC06460B4B15
:100A80001B6A13F0020FC0D1FFF752FC801B41F22A
:100A900088339842F3D9032005E0D36923F08053CB
:100AA000D361BBE7002002B070BD00BF0010024060
:100AB000007000400000424270B582B00024A4469D
:100AC000A6E0804DAA4210D007D97F4DAA420CD093
:100AD00005F58035AA4208D013E0A5F58015AA4295
:100AE00003D005F57025AA4207D18A68002A58D09C
:100AF000012A51D04361082403E0A5F58015AA42DC
:100B0000F3D0BEF1FF0F4ED80646BEF1FF0F4CD812
:100B10004FEA8C0233680F25954023EA050304FA57
:100B200002F2134333604B6813F0805F6ED0674B63
:100B30009A6942F001029A619B6903F001030193F3
:100B4000019B4FEA9C02951C614B53F825600CF009
:100B500003039D000F23AB4026EA03065D4B98423A
:100B600029D003F58063984200F08E8003F58063FE
:100B7000984200F08B8003F58063984219D00423DB
:100B80001AE0CC68BDE7CC680434BAE7CC68083416
:100B9000B7E7CC680C34B4E703610824B1E700245C
:100BA000AFE70424ADE7061DAFE7ACF10802920001
:100BB000B0E7032300E00023AB4033430232444D4F
:100BC00045F822304B6813F4801F61D0424A936885
:100BD00043EA0E0393604B6813F4001F5ED03E4A55
:100BE000D36843EA0E03D3604B6813F4003F5BD035
:100BF000394A536843EA0E0353604B6813F4803F4D
:100C000058D0354A136843EA0E0313600CF1010C07
:100C10000A6832FA0CF353D0012303FA0CF302EA08
:100C2000030E33EA0202F1D14A68122A3FF649AFB5
:100C3000122A3FF666AF01A555F822F0EB0A00082C
:100C4000830B00088D0B00089F0B0008030B0008A6
:100C5000030B0008030B0008030B0008030B00083C
:100C6000030B0008030B0008030B0008030B00082C
:100C7000030B0008030B0008030B0008030B00081C
:100C8000870B0008930B0008012395E7022393E7E5
:100C9000114A936823EA0E0393609CE70E4AD368D7
:100CA00023EA0E03D3609FE70B4A536823EA0E033F
:100CB0005360A2E7084A136823EA0E031360A5E70E
:100CC00002B070BD00002210000031100010024080
:100CD0000000014000080140000401400AB1016128
:100CE0007047090401617047074AD36823F4E06341
:100CF0001B041B0C000200F4E060034343F0BF63DD
:100D000043F40033D360704700ED00E000B5194BA9
:100D1000DB68C3F30223C3F1070CBCF1040F28BF47
:100D20004FF0040C03F1040EBEF1060F18D9033B7B
:100D30004FF0FF3E0EFA0CFC21EA0C0199400EFA2E
:100D400003F322EA0303194300280BDB0901C9B2AC
:100D500000F1604000F5614080F800135DF804FB8D
:100D60000023E5E700F00F000901C9B2024B195456
:100D7000F4E700BF00ED00E014ED00E0002807DB21
:100D800000F01F02400901239340024A42F820303C
:100D9000704700BF00E100E0704708B5012000F097
:100DA00067FFFBE708B5012000F062FFFBE708B52D
:100DB000012000F05DFFFBE7034B0360034B0B607A
:100DC00080231360704700BF4402002044000020CD
:100DD00010B59EB0274C0DF1680C94E80F008CE81C
:100DE0000F000021604600F04AFF234B18600DF110
:100DF000580C94E80F008CE80F000021604600F0CA
:100E00003EFF1E4B18600DF13C0C04F1100EBEE8C5
:100E10000F00ACE80F009EE807008CE807000021F7
:100E20000FA800F0F0FE164B18600DF1200C04F135
:100E30002C0EBEE80F00ACE80F009EE807008CE81F
:100E40000700002108A800F0DEFE0E4B18600DF12F
:100E5000040C48340FCCACE80F0094E807008CE891
:100E60000700002101A800F0CEFE074B18601EB05D
:100E700010BD00BF782700083C000020340000208F
:100E800030000020380000204000002030B589B03C
:100E90000446224BDA6942F00102DA61DB6903F0B1
:100EA00001030193019B02A903A8FFF75BFD069BC9
:100EB000D3B9FFF747FD03461948A0FB03239B0C5A
:100EC000013B18484FF08042026040F2E732C260B6
:100ED0004360002303618360836100F053F905469A
:100EE00030B1284609B030BDFFF72CFD4300E3E7E1
:100EF0000C4800F01DF805460028F2D11C20FFF731
:100F00003DFF0F2C01D90125EBE7002221461C20D3
:100F1000FFF7FCFE044B1C60E3E700BF001002403B
:100F200083DE1B439802002004000020704700006D
:100F300090F83D30DBB2012B27D1022380F83D3001
:100F40000268D36843F00103D3600368114A9342F7
:100F500010D0B3F1804F0DD0A2F59432934209D056
:100F600002F58062934205D01A6842F001021A60CD
:100F7000002070479A6802F00702062A07D01A6814
:100F800042F001021A6000207047012070470020E3
:100F9000704700BF002C0140704770477047704792
:100FA00070B504460368DE681D6915F0020F10D0A5
:100FB00016F0020F0DD06FF002021A6101230377C1
:100FC00003689B6913F0030F5ED0FFF7E6FF002371
:100FD000237715F0040F12D016F0040F0FD02368FA
:100FE0006FF004021A610223237723689B6913F4CC
:100FF000407F4FD02046FFF7D0FF0023237715F026
:10100000080F12D016F0080F0FD023686FF00802F7
:101010001A61042323772368DB6913F0030F40D0A0
:101020002046FFF7BAFF0023237715F0100F12D0E8
:1010300016F0100F0FD023686FF010021A6108230A
:1010400023772368DB6913F4407F31D02046FFF714
:10105000A4FF0023237715F0010F02D016F0010F33
:101060002DD115F0800F02D016F0800F2FD115F082
:10107000400F02D016F0400F31D115F0200F02D0F2
:1010800016F0200F33D170BDFFF786FF2046FFF723
:1010900085FF9CE72046FFF77FFF2046FFF77EFF96
:1010A000ABE72046FFF778FF2046FFF777FFBAE768
:1010B0002046FFF771FF2046FFF770FFC9E723685E
:1010C0006FF001021A612046FFF742F8C9E7236872
:1010D0006FF080021A61204600F081F8C7E72368AC
:1010E0006FF040021A612046FFF759FFC5E72368F9
:1010F0006FF020021A61204600F070F8C3E700008C
:1011000003681F4A90420AD0B0F1804F07D0A2F581
:101110009432904203D002F58062904203D123F0D2
:1011200070034A681343164A90420AD0B0F1804FC8
:1011300007D0A2F59432904203D002F5806290422B
:1011400003D123F44073CA68134323F080034A6930
:10115000134303608B68C3620B688362084B984239
:101160000AD001234361036913F0010F03D003691F
:1011700023F00103036170470B690363F1E700BFCC
:10118000002C014040B310B5044690F83D30F3B157
:10119000022384F83D30214651F8040BFFF7B0FFDD
:1011A000012384F8463084F83E3084F83F3084F8D8
:1011B000403084F8413084F8423084F8433084F879
:1011C000443084F8453084F83D30002010BD80F86C
:1011D0003C30FFF7ABFEDBE70120704770477047FC
:1011E00000F1080343604FF0FF328260C360036187
:1011F00000230360704700230361704743684B601E
:101200009A688A60516099600861036801330360DD
:10121000704730B40D68B5F1FF3F11D000F10803FD
:101220001C465B681A68AA42FAD963684B609960E9
:101230008C606160086103680133036030BC7047F3
:101240000469F2E70369416882688A604168516015
:101250005A68824206D0002202611A68013A1A6076
:101260001868704782685A60F5E738B5E0B10D46F6
:10127000044600F08FFE2368E26B216C01FB023014
:10128000A0600020A0636360013A02FB0133E360C9
:10129000FF2384F8443084F84530FDB9236963B9ED
:1012A00000F09AFE012038BD4FF0500383F31188FF
:1012B000BFF36F8FBFF34F8FFEE704F1100000F014
:1012C00051FC0028ECD04FF0E0234FF08052C3F8DF
:1012D000042DBFF34F8FBFF36F8FE1E704F11000D0
:1012E000FFF77EFF04F12400FFF77AFFD8E710B57F
:1012F000034602980C4631B90060C36304640121BF
:10130000FFF7B3FF10BD0260F7E740B94FF050039D
:1013100083F31188BFF36F8FBFF34F8FFEE710B5D4
:1013200084B01C46844653B192B189B94FF0500342
:1013300083F31188BFF36F8FBFF34F8FFEE74FF03A
:10134000500383F31188BFF36F8FBFF34F8FFEE716
:101350006AB148230393039B482B13D04FF05003EB
:1013600083F31188BFF36F8FBFF34F8FFEE7002920
:10137000EFD04FF0500383F31188BFF36F8FBFF3AB
:101380004F8FFEE7039B012384F8463000949DF8BD
:1013900018306046FFF7ABFF204604B010BD40B9DF
:1013A0004FF0500383F31188BFF36F8FBFF34F8F5C
:1013B000FEE7F0B583B00D461446064601FB00F08B
:1013C000483000F0D3FC074650B1002380F8463087
:1013D0000090234600F1480229463046FFF787FF78
:1013E000384603B0F0BD0000084B1B681B6823B9EA
:1013F000074B4FF0FF321A607047044B1B68DB68E5
:10140000DB685A68024B1A60704700BFE402002094
:10141000900300202DE9F04707469846089DDDF827
:1014200024900A9C266B02F18042013A06EB820668
:1014300026F0070600293AD08E464FF0000CBCF18A
:101440000F0F0BD81EF80C2004EB0C0383F834208C
:101450001EF80C3013B10CF1010CF0E7002384F8F6
:101460004330042D00D90425E56265644FF0000A7D
:10147000C4F848A0201DFFF7BEFE04F11800FFF7D6
:10148000BAFE2461C5F10505A5616462C4F84CA0EB
:1014900084F850A042463946304600F053FD2060A3
:1014A000B9F1000F01D0C9F80040BDE8F087002372
:1014B00084F83430D5E7000038B5002407E004EBA9
:1014C000840293000E481844FFF78AFE0134042C6E
:1014D000F5D90C4D2846FFF783FE0B4C2046FFF74D
:1014E0007FFE0A48FFF77CFE0948FFF779FE0948AE
:1014F000FFF776FE084B1D60084B1C6038BD00BF2F
:10150000EC02002064030020780300209C030020EC
:10151000C8030020B4030020E4020020E8020020F9
:1015200010B5044600F036FD214A136801331360FC
:10153000204B1B685BB1204B1B686BB91D4B1B68B4
:10154000DA6AE36A9A4207D81A4B1C6004E0194B26
:101550001C601368012B28D0184A136801331360EC
:10156000E06A01238340164A11680B43136000EBC5
:101570008000211D134B03EB8000FFF73FFE00F0BE
:101580002BFD0D4B1B687BB10A4B1B68DA6AE36AC3
:101590009A4209D24FF0E0234FF08052C3F8042D55
:1015A000BFF34F8FBFF36F8F10BDFFF785FFD3E7FA
:1015B00050030020E0020020B00300205C03002064
:1015C00060030020EC02002010B5044690F8513072
:1015D00063B1012B11D0022B0ED04FF0500383F3D7
:1015E0001188BFF36F8FBFF34F8FFEE7006B00F0E2
:1015F0003BFC204600F038FC10BD00F035FCFBE75A
:101600000F4B1B68D3B110B500F0C4FC0D4BDB6869
:10161000DC68201DFFF716FE0B4A1368013B1360C0
:10162000074A1368013B136000F0D6FC2046FFF721
:10163000CBFF034B1B68002BE6D110BD704700BFEA
:1016400054030020C80300205003002008B5FFF712
:10165000D7FF074B1B68012BF9D94FF0E0234FF060
:101660008052C3F8042DBFF34F8FBFF36F8FEEE7A7
:10167000EC02002070B504460D461D4B1E681D4B44
:1016800018680430FFF7DEFD50B91A4B1B68DA6AA0
:10169000012303FA02F218490B6823EA02030B60E4
:1016A000B4F1FF3F0DD03444124B1B685C60A6427E
:1016B00010D9124B18680F4B19680431FFF7A9FDB8
:1016C00070BD002DEFD00B4B196804310C48FFF7AB
:1016D00095FDF5E70B4B1868064B19680431FFF7C9
:1016E00098FD094B1B68A342EAD9074B1C60E7E74A
:1016F000DC030020E002002060030020E80200205C
:10170000B4030020E40200209003002030B587B02D
:101710000B9C7CB10C9DB5B154250495049D542DB2
:101720001AD04FF0500383F31188BFF36F8FBFF3CC
:101730004F8FFEE74FF0500383F31188BFF36F8F95
:10174000BFF34F8FFEE74FF0500383F31188BFF3D1
:101750006F8FBFF34F8FFEE7049D0C9D2C63022417
:1017600085F8514000240394029505AC01940A9C2D
:101770000094FFF74FFE0C98FFF7D2FE059807B0D4
:1017800030BD2DE9F04385B00746884614461E4615
:10179000900000F0EBFA00B38146542000F0E6FA26
:1017A0000546B0B1C0F83090E5B1002385F851305E
:1017B000039302950D9B01930C9B009333462246A5
:1017C00041463846FFF726FE2846FFF7A9FE0120CE
:1017D00005E0484600F048FBE6E74FF0FF3005B073
:1017E000BDE8F0834FF0FF30F9E7000010B588B096
:1017F00000240594069407AA06A905A8FFF7DCFAB9
:10180000059B0293069B019300942346079A0E4979
:101810000E48FFF77BFF0E4B186090B14FF050035E
:1018200083F31188BFF36F8FBFF34F8F094B4FF0D6
:10183000FF321A60084B01221A60084B1C6000F04E
:1018400033FC08B010BD00BF202800084D1600086A
:101850008C03002090030020B0030020DC03002054
:10186000024A136801331360704700BF5803002019
:10187000F8B53A4B1B68002B69D1394B1D6801350F
:101880001D60C5B9374B1B681B6843B14FF050034F
:1018900083F31188BFF36F8FBFF34F8FFEE7314A99
:1018A0001168314B186810601960304A13680133B1
:1018B0001360FFF799FD2E4B1B68AB423DD9002703
:1018C0002C4B1B68DB6A03EB83039A002A4B9B5863
:1018D000012B00D90127294B1B68002B3CD0012785
:1018E0003AE001271F4B1B681B6843B31D4B1B6865
:1018F000DB68DC6863689D4226D3261D3046FFF70F
:10190000A1FCA36A1BB104F11800FFF79BFCE36A7A
:1019100001229A401A49086802430A6003EB8303D4
:101920009A00314614481044FFF768FCE26A114BF4
:101930001B68DB6A9A42D4D2D4E70027D2E70C4B6B
:101940004FF0FF321A60BBE7094A1360B8E70D4A4F
:1019500013680133136000273846F8BD5803002090
:10196000DC030020E4020020E802002094030020B1
:1019700090030020E0020020EC020020E0030020A1
:10198000600300209803002038B5354B1B6843B92D
:101990004FF0500383F31188BFF36F8FBFF34F8F66
:1019A000FEE700F0F7FA2E4B1A68013A1A601B683E
:1019B000002B4FD12B4B1B680BB900244BE00024AC
:1019C000294B1B681BB3284BDB68DC6804F118004B
:1019D000FFF738FC251D2846FFF734FCE06A012399
:1019E0008340224A11680B43136000EB80002946B4
:1019F0001F4B03EB8000FFF701FCE26A1D4B1B68E5
:101A0000DB6A9A42DCD31C4B01221A60D8E70CB186
:101A1000FFF7EAFC194B1C6884B9174B1C68D4B15A
:101A20004FF0E0234FF08052C3F8042DBFF34F8FE7
:101A3000BFF36F8F01240EE0013C07D0FFF718FFC2
:101A40000028F9D00C4B01221A60F5E70B4B00225D
:101A50001A60E2E7002400F0BFFA204638BD00BF5C
:101A600058030020500300209C0300206003002046
:101A7000EC020020E0020020E00300209803002098
:101A800010B5A8B10446104B1B6843B14FF050038A
:101A900083F31188BFF36F8FBFF34F8FFEE7FFF71C
:101AA000DFFE00212046FFF7E5FDFFF76DFF48B997
:101AB0004FF0E0234FF08052C3F8042DBFF34F8F57
:101AC000BFF36F8F10BD00BF58030020204B1B6871
:101AD0001BB1204B01221A6070471E4B00221A6076
:101AE0001D4B1B68B3FA83F3DBB2C3F11F0303EB97
:101AF00083018A0019498A5842B94FF0500383F391
:101B00001188BFF36F8FBFF34F8FFEE7134903EBCD
:101B1000830082000A4450684068506003EB830CE5
:101B20004FEA8C0208321144884209D003EB830348
:101B30009A000A4B13445B68DA68094B1A607047D5
:101B4000406862469100054A0A445060EEE700BFD3
:101B500058030020E003002060030020EC02002076
:101B6000E002002038B5C368DC6824B304F118052E
:101B70002846FFF767FB184B1B682BBB251D284623
:101B8000FFF760FBE06A01238340144A11680B43AE
:101B9000136000EB80002946114B03EB8000FFF738
:101BA0002DFBE26A0F4B1B68DB6A9A4211D90120B8
:101BB0000D4B186038BD4FF0500383F31188BFF30D
:101BC0006F8FBFF34F8FFEE729460848FFF716FBDC
:101BD000E7E70020EEE700BF580300206003002085
:101BE000EC020020E0020020E00300209C03002023
:101BF000842801D0033070470020704708B5FFF7F4
:101C0000F5FD002008BD2DE9F04387B004460F46DE
:101C10004569BDB18669AEB1D0F80480D0F80090B6
:101C2000B0F90800FFF7E4FF0296019500903B46EB
:101C3000226949464046FFF769FD0590059807B0BF
:101C4000BDE8F08365682668D4F81080B4F9080010
:101C5000FFF7CEFF05AB019300903B461FFA88F2D9
:101C600031462846FFF78DFD0128E7D00020E6E742
:101C700008B500B90120FFF703FF002008BD00B53B
:101C800083B0826842B1C36833B1002100914168DA
:101C90000068FFF73AFB04E0002241680068FFF7A4
:101CA0007EFB03B05DF804FB124A12F0070F1ED052
:101CB000D11D21F00701C1F5005313440A460E4817
:101CC0000260002141601344083B23F007030B48E6
:101CD000036059601960991A51601360084B1960CC
:101CE000084B1960084B4FF000421A6070474FF4E0
:101CF0000053E4E7E8030020FC230020E403002075
:101D0000F0230020EC230020E8230020154B1A4686
:101D10001B688342FBD3516802EB010C844509D058
:101D2000416800EB010C634509D00360904218D074
:101D3000106070474068014451601046F0E710B4ED
:101D4000094C2468A3420AD05B68194441601368B7
:101D50001B680360904200D0106010BC70470460A4
:101D6000F8E77047FC230020E403002070B5054627
:101D7000FFF776FD364B1B68A3B1364B1B681D423F
:101D80004ED135B1083515F0070F02D025F0070503
:101D90000835002D46D0304B1B68AB4251D32F4A3B
:101DA000146804E0FFF780FFE7E722461C466368FB
:101DB000AB4202D22368002BF7D1254B1B68A3420C
:101DC00041D0166808362368136063685B1B102BCC
:101DD00010D9601910F0070F08D04FF0500383F3AB
:101DE0001188BFF36F8FBFF34F8FFEE743606560CD
:101DF000FFF78CFF626818490B689B1A0B60184943
:101E000009688B4201D216490B60124B1B681343C1
:101E1000636000232360134A13680133136002E0F8
:101E2000002600E00026FFF7AFFD16F0070F0CD0EC
:101E30004FF0500383F31188BFF36F8FBFF34F8FC1
:101E4000FEE70026EFE70026EDE7304670BD00BF55
:101E5000E4030020E8230020EC230020FC230020E2
:101E6000F0230020F4230020002834D038B50446A5
:101E7000A0F1080550F8043C174A1268134208D133
:101E80004FF0500383F31188BFF36F8FBFF34F8F71
:101E9000FEE750F8081C41B14FF0500383F311885E
:101EA000BFF36F8FBFF34F8FFEE723EA020340F8C3
:101EB000043CFFF7D5FC54F8041C084A13680B4493
:101EC00013602846FFF722FF054A136801331360A9
:101ED000FFF75AFD38BD7047E8230020EC230020AF
:101EE000F823002082B0002301930D4B1B68B3F14F
:101EF000FF3F08D04FF0500383F31188BFF36F8F7B
:101F0000BFF34F8FFEE74FF0500383F31188BFF309
:101F10006F8FBFF34F8F019B002BFCD002B0704737
:101F20000C00002006480068006880F3088862B64C
:101F300061B6BFF34F8FBFF36F8F00DF00BF0000AC
:101F400008ED00E04FF0807340F8043C21F00101FF
:101F500040F8081C034B40F80C3C40F8202C40385B
:101F6000704700BFE51E00080000000000000000F0
:101F7000074B19680868B0E8F00F80F30988BFF3D1
:101F80006F8F4FF0000080F311884EF00D0E7047F8
:101F9000E00200204FF0500383F31188BFF36F8FEE
:101FA000BFF34F8F0B4A136801331360012B00D02E
:101FB00070474FF0E023D3F8043D13F0FF0FF7D044
:101FC0004FF0500383F31188BFF36F8FBFF34F8F30
:101FD000FEE700BF0C000020094B1B6843B94FF01F
:101FE000500383F31188BFF36F8FBFF34F8FFEE76A
:101FF000013B034A13600BB983F31188704700BF9C
:102000000C000020000000000000000000000000A4
:10201000EFF30980BFF36F8F0D4B1A6820E9F00FC3
:1020200010602DE908404FF0500080F31188FFF751
:102030004DFD4FF0000080F31188BDE8084019689D
:102040000868B0E8F00F80F30988BFF36F8F70471E
:10205000E002002008B54FF0500383F31188BFF36E
:102060006F8FBFF34F8FFFF703FC28B14FF0E023D2
:102070004FF08052C3F8042D002383F3118808BD6C
:102080004FF0E022002313619361054B1B68054963
:10209000A1FB03139B09013B5361072313617047A5
:1020A00008000020D34D621010B582B02A4B1A7878
:1020B000D2B20192FF221A701B78DBB28DF8033086
:1020C0009DF8033003F05003244A1370244B072279
:1020D0001A6009E0224A1368013B13609DF803303F
:1020E0005B00DBB28DF803309DF8033013F0800FF6
:1020F000F0D11B4B1B68032B08D04FF0500383F328
:102100001188BFF36F8FBFF34F8FFEE71B02144A96
:10211000136003F4E0631360019BDBB20E4A13709B
:102120004FF0E023D3F8202D42F47002C3F8202DA5
:10213000D3F8202D42F07042C3F8202DFFF7A0FF06
:102140000024084B1C60FFF7EDFEFFF7BFFCFFF714
:10215000C9FE204602B010BD00E400E004240020C7
:10216000082400200C00002000B585B00023019356
:10217000029303931048114A0260836001220273A4
:1021800003754FF46021C1614360026100F06CF996
:1021900060B90123019302930023039301A9064828
:1021A00000F094F828B905B05DF804FBFDF7D9FFFD
:1021B000EFE7FDF7D6FFF6E70C24002000240140EE
:1021C00000B587B00023029303930493059302683C
:1021D000114B9A4202D007B05DF804FB03F56C4343
:1021E0009A6942F400729A619A6902F4007200924C
:1021F000009A9A6942F004029A619B6903F0040311
:102200000193019B022302930323039302A9034832
:10221000FEF752FCDFE700BF002401400008014048
:1022200008B50B480B4B0360102343600023836009
:10223000C36003614361037643768376C376037795
:10224000437700F095F900B908BDFDF78AFFFBE779
:102250003C2400200064004010B586B000230293A7
:102260000393049305930268164B9A4201D006B07B
:1022700010BD03F5D633DA6942F00072DA61DA692B
:1022800002F000720092009A9A6942F004029A6188
:102290009B6903F004030193019B4FF400630293D5
:1022A000094C02A92046FEF707FC4FF48053029325
:1022B000022303930323059302A92046FEF7FCFBA8
:1022C000D5E700BF006400400008014030B482B090
:1022D0000022019290F82420012A00F09180034608
:1022E000012280F824204A68062A2DD80468606BF1
:1022F00002EB8202053A4FF01F0C0CFA02FC20EAB6
:102300000C000D6805FA02F2024362630A68092AAA
:102310003AD91C68E06802EB42021E3A4FF0070C03
:102320000CFA02FC20EA0C008D6805FA02F2024366
:10233000E2600A68103A012A36D90020002283F8A8
:10234000242002B030BC70470C2A0ED80568286BD8
:1023500002EB8202233A1F24944020EA04000C6816
:1023600004FA02F202432A63D0E70568E86A02EB46
:102370008202413A1F24944020EA04000C6804FAC7
:1023800002F20243EA62C1E71C68206902EB4202E2
:102390004FF0070C0CFA02FC20EA0C008D6805FADD
:1023A00002F202432261C4E71A681648824205D04D
:1023B0009A6A42F020029A620120BFE7906810F406
:1023C000000F1BD1906840F4000090600A68102A4A
:1023D00001D00020B2E70C4A12680C49A1FB02129E
:1023E000920C02EB82025200019202E0019A013A41
:1023F0000192019A002AF9D100209FE700209DE771
:1024000002209EE7002401400800002083DE1B43D9
:1024100038B503689A6812F0010F01D1002038BD69
:1024200004469A6822F001029A60FDF781FF054692
:1024300023689B6813F0010F13D0FDF779FF431B4E
:10244000022BF5D923689B6813F0010FF0D0A36A23
:1024500043F01003A362E36A43F00103E362012047
:10246000DDE70020DBE7000000287BD070B50446E4
:10247000836A002B4DD02046FFF7CAFFA36A13F0F2
:10248000100369D1002867D1A26A22F4885222F091
:10249000020242F00202A2626268E1690A43217B01
:1024A00042EA4102A568B5F5807F02D0012D36D001
:1024B0001D46267D012E35D02668716821F46941BC
:1024C000294371602568AE68274931401143A960EE
:1024D000A168B1F5807F01D0012902D12369013BB8
:1024E0001B052568E96A21F470010B43EB62236840
:1024F00099681E4B0B409A4225D0A36A23F0120321
:1025000043F01003A362E36A43F00103E362012096
:1025100027E0C36280F82430FFF752FEABE74FF4A8
:102520008075C6E731B9A169013945EA413141F405
:102530000065C1E7A16A41F02001A162E16A41F0B2
:102540000101E162B8E70023E362A36A23F0030319
:1025500043F00103A36204E0A36A43F01003A36203
:10256000012070BD01207047FDF7E1FFFE0E1FFF47
:10257000002800F0A18038B5044690F82030D3B18F
:102580002268136843F001031360FDF7D1FE05468E
:1025900023685A6812F0010F10D1FDF7C9FE401BE5
:1025A0000A28F5D9636A43F400336362052384F88B
:1025B0002030012038BDFFF74FFEE1E71A6822F016
:1025C00002021A60FDF7B4FE054623685A6812F04D
:1025D000020F0DD0FDF7ACFE401B0A28F5D9636A47
:1025E00043F400336362052384F820300120E1E7DF
:1025F000227E012A3DD01A6822F080021A60637E92
:10260000012B3BD02268136823F040031360A37EA4
:10261000012B39D02268136823F020031360E37E76
:10262000012B37D02268136843F010031360237F17
:10263000012B35D02268136823F008031360637FF1
:10264000012B33D02268136823F004031360A368BE
:10265000E268134322691343626913436268013AD3
:1026600021681343CB6100206062012384F820308D
:10267000A0E71A6842F080021A60C0E72268136877
:1026800043F040031360C2E72268136843F020035D
:102690001360C4E72268136823F010031360C6E7D1
:1026A0002268136843F008031360C8E722681368C0
:1026B00043F004031360CAE701207047FEF76CFB88
:1026C0000B480C490C4A002302E0D458C450043390
:1026D000C4188C42F9D3094A094C002301E0136065
:1026E0000432A242FBD300F00FF8FDF77EFD7047E5
:1026F00000000020100000203028000810000020FA
:1027000064240020FEE7000070B500260C4D0D4C3F
:10271000641BA410A64209D100F022F800260A4D3D
:102720000A4C641BA410A64205D170BD55F8043BA9
:1027300098470136EEE755F8043B98470136F2E733
:102740002828000828280008282800082C28000825
:1027500003460244934200D1704703F8011BF9E796
:10276000F8B500BFF8BC08BC9E467047F8B500BF7E
:08277000F8BC08BC9E4670474E
:10277800100000000200000000000000000000003F
:10278800082800089B0D0008000000000000000059
:102798008000000000000000000000001028000871
:1027A800A50D0008000000000000000080000000E7
:1027B800000000000000000018280008AF0D000805
:1027C8000100000000000000800000000000000080
:1027D8000000000002030405060708090A0B0C0D97
:1027E8000E0F1010010200000000000000000000A1
:1027F800010203040607080900000000010203049F
:1028080061637175697265007061636B616765000A
:10281800747843414E00000049444C4500000000D4
:04282800350100086E
:04282C00110100088E
:10283000010000001000000000127A00AAAAAAAA53
:04000005080026BD0C
:00000001FF
