:020000040800F2
:1000000000500020D1360008691100086B1100086B
:100010006D1100086F110008711100080000000048
:10002000000000000000000000000000C1330008D4
:10003000731100080000000061340008A5340008B6
:100040001937000819370008193700081937000850
:100050001937000819370008193700081937000840
:100060001937000819370008193700081937000830
:100070001937000819370008193700081937000820
:100080001937000819370008193700081937000810
:100090001937000819370008193700081937000800
:1000A00019370008193700081937000819370008F0
:1000B0007511000819370008851100081937000864
:1000C00019370008193700081937000819370008D0
:1000D00019370008193700081937000819370008C0
:1000E0001937000819370008193700080000000008
:1000F0000000000000000000000000000000000000
:0C01000000000000000000005FF808F1A3
:1001100010B5054C237833B9044B13B10448AFF341
:1001200000800123237010BDE001002000000000CA
:10013000CC61000808B5034B1BB103490348AFF37A
:10014000008008BD00000000E4010020CC61000830
:10015000034613F8012B002AFBD1181A0138704707
:1001600081F0004102E000BF83F0004330B54FEA68
:1001700041044FEA430594EA050F08BF90EA020FD5
:100180001FBF54EA000C55EA020C7FEA645C7FEA68
:10019000655C00F0E2804FEA5454D4EB5555B8BF8B
:1001A0006D420CDD2C4480EA020281EA030382EAFC
:1001B000000083EA010180EA020281EA0303362D8E
:1001C00088BF30BD11F0004F4FEA01314FF4801C61
:1001D0004CEA113102D0404261EB410113F0004F73
:1001E0004FEA03334CEA133302D0524263EB43032A
:1001F00094EA050F00F0A780A4F10104D5F1200EC8
:100200000DDB02FA0EFC22FA05F2801841F1000122
:1002100003FA0EF2801843FA05F359410EE0A5F1F6
:1002200020050EF1200E012A03FA0EFC28BF4CF027
:10023000020C43FA05F3C01851EBE37101F00045DD
:1002400007D54FF0000EDCF1000C7EEB00006EEBEA
:100250000101B1F5801F1BD3B1F5001F0CD3490874
:100260005FEA30004FEA3C0C04F101044FEA4452CB
:1002700012F5800F80F09A80BCF1004F08BF5FEA52
:10028000500C50F1000041EB045141EA050130BD32
:100290005FEA4C0C404141EB0101013C28BFB1F544
:1002A000801FE9D291F0000F04BF01460020B1FA8F
:1002B00081F308BF2033A3F10B03B3F120020CDA62
:1002C0000C3208DD02F1140CC2F10C0201FA0CF040
:1002D00021FA02F10CE002F11402D8BFC2F1200CA5
:1002E00001FA02F120FA0CFCDCBF41EA0C0190405B
:1002F000E41AA2BF01EB0451294330BD6FEA0404A4
:100300001F3C1CDA0C340EDC04F11404C4F120028E
:1003100020FA04F001FA02F340EA030021FA04F3A0
:1003200045EA030130BDC4F10C04C4F1200220FAF7
:1003300002F001FA04F340EA0300294630BD21FA35
:1003400004F0294630BD94F0000F83F4801306BFFB
:1003500081F480110134013D4EE77FEA645C18BFEF
:100360007FEA655C29D094EA050F08BF90EA020F86
:1003700005D054EA000C04BF1946104630BD91EA7E
:10038000030F1EBF0021002030BD5FEA545C05D181
:100390004000494128BF41F0004130BD14F58004C0
:1003A0003CBF01F5801130BD01F0004545F0FE4134
:1003B00041F470014FF0000030BD7FEA645C1ABF69
:1003C000194610467FEA655C1CBF0B46024650EAA0
:1003D000013406BF52EA033591EA030F41F40021CC
:1003E00030BD00BF90F0000F04BF0021704730B552
:1003F0004FF4806404F132044FF000054FF0000127
:1004000050E700BF90F0000F04BF0021704730B5E7
:100410004FF4806404F1320410F0004548BF4042BC
:100420004FF000013EE700BF42004FEAE2014FEA11
:1004300031014FEA02701FBF12F07F4393F07F4FEC
:1004400081F06051704732F07F4208BF704793F0EF
:100450007F4F04BF41F40021704730B54FF4607402
:1004600001F0004521F000411CE700BF50EA010205
:1004700008BF704730B54FF000050AE050EA0102AE
:1004800008BF704730B511F0004502D5404261EB1E
:1004900041014FF4806404F132045FEA915C3FF45F
:1004A000D8AE4FF003025FEADC0C18BF03325FEAFC
:1004B000DC0C18BF033202EBDC02C2F1200300FAAD
:1004C00003FC20FA02F001FA03FE40EA0E0021FAD2
:1004D00002F11444BDE600BF70B54FF0FF0C4CF4C0
:1004E000E06C1CEA11541DBF1CEA135594EA0C0F72
:1004F00095EA0C0F00F0DEF82C4481EA030621EAAD
:100500004C5123EA4C5350EA013518BF52EA0335E7
:1005100041F4801143F4801338D0A0FB02CE4FF099
:100520000005E1FB02E506F00042E0FB03E54FF0C9
:100530000006E1FB03569CF0000F18BF4EF0010EC1
:10054000A4F1FF04B6F5007F64F5407404D25FEABD
:100550004E0E6D4146EB060642EAC62141EA555170
:100560004FEAC52040EA5E504FEACE2EB4F1FD0CB2
:1005700088BFBCF5E06F1ED8BEF1004F08BF5FEA30
:10058000500E50F1000041EB045170BD06F00046E2
:1005900046EA010140EA020081EA0301B4EB5C048F
:1005A000C2BFD4EB0C0541EA045170BD41F4801187
:1005B0004FF0000E013C00F3AB8014F1360FDEBFAC
:1005C000002001F0004170BDC4F10004203C35DA88
:1005D0000C341BDC04F11404C4F1200500FA05F30B
:1005E00020FA04F001FA05F240EA020001F00042AC
:1005F00021F0004110EBD37021FA04F642EB060122
:100600005EEA430E08BF20EAD37070BDC4F10C044B
:10061000C4F1200500FA04F320FA05F001FA04F20F
:1006200040EA020001F0004110EBD37041F10001FB
:100630005EEA430E08BF20EAD37070BDC4F1200506
:1006400000FA05F24EEA020E20FA04F301FA05F26E
:1006500043EA020321FA04F001F0004121FA04F216
:1006600020EA020000EBD3705EEA430E08BF20EAE6
:10067000D37070BD94F0000F0FD101F00046400020
:1006800041EB010111F4801F08BF013CF7D041EAA2
:10069000060195F0000F18BF704703F000465200A6
:1006A00043EB030313F4801F08BF013DF7D043EA77
:1006B0000603704794EA0C0F0CEA135518BF95EA2D
:1006C0000C0F0CD050EA410618BF52EA4306D1D1B4
:1006D00081EA030101F000414FF0000070BD50EAD3
:1006E000410606BF1046194652EA430619D094EA5D
:1006F0000C0F02D150EA013613D195EA0C0F05D147
:1007000052EA03361CBF104619460AD181EA03019A
:1007100001F0004141F0FE4141F470014FF0000052
:1007200070BD41F0FE4141F4780170BD70B54FF0ED
:10073000FF0C4CF4E06C1CEA11541DBF1CEA13556D
:1007400094EA0C0F95EA0C0F00F0A7F8A4EB05044F
:1007500081EA030E52EA03354FEA013100F0888046
:100760004FEA03334FF0805545EA131343EA12630F
:100770004FEA022245EA111545EA10654FEA0026C4
:100780000EF000419D4208BF964244F1FD0404F57D
:10079000407402D25B084FEA3202B61A65EB0305D9
:1007A0005B084FEA32024FF480104FF4002CB6EB96
:1007B000020E75EB030E22BFB61A754640EA0C0016
:1007C0005B084FEA3202B6EB020E75EB030E22BF56
:1007D000B61A754640EA5C005B084FEA3202B6EB97
:1007E000020E75EB030E22BFB61A754640EA9C0056
:1007F0005B084FEA3202B6EB020E75EB030E22BF26
:10080000B61A754640EADC0055EA060E18D04FEAE3
:10081000051545EA16754FEA06164FEAC30343EA83
:1008200052734FEAC2025FEA1C1CC0D111F4801F50
:100830000BD141EA00014FF000004FF0004CB6E749
:1008400011F4801F04BF01430020B4F1FD0C88BFE8
:10085000BCF5E06F3FF6AFAEB5EB030C04BFB6EBF3
:10086000020C5FEA500C50F1000041EB045170BDE6
:100870000EF0004E4EEA113114EB5C04C2BFD4EB13
:100880000C0541EA045170BD41F480114FF0000E97
:10089000013C90E645EA060E8DE60CEA135594EA13
:1008A0000C0F08BF95EA0C0F3FF43BAF94EA0C0F16
:1008B0000AD150EA01347FF434AF95EA0C0F7FF48B
:1008C00025AF104619462CE795EA0C0F06D152EADF
:1008D00003353FF4FDAE1046194622E750EA4106C3
:1008E00018BF52EA43067FF4C5AE50EA41047FF4D4
:1008F0000DAF52EA43057FF4EBAE12E74FF0FF3C39
:1009000006E000BF4FF0010C02E000BF4FF0010C09
:100910004DF804CD4FEA410C7FEA6C5C4FEA430C82
:1009200018BF7FEA6C5C1BD001B050EA410C0CBFD1
:1009300052EA430C91EA030F02BF90EA020F002033
:10094000704710F1000F91EA030F58BF994208BF9A
:1009500090422CBFD8176FEAE37040F00100704757
:100960004FEA410C7FEA6C5C02D150EA013C07D1AE
:100970004FEA430C7FEA6C5CD6D152EA033CD3D0F9
:100980005DF8040B704700BF8446104662468C46F3
:100990001946634600E000BF01B5FFF7B7FF002826
:1009A00048BF10F1000F01BD4DF808EDFFF7F4FF4F
:1009B0000CBF012000205DF808FB00BF4DF808EDDA
:1009C000FFF7EAFF34BF012000205DF808FB00BFFD
:1009D0004DF808EDFFF7E0FF94BF012000205DF81F
:1009E00008FB00BF4DF808EDFFF7CEFF94BF0120D4
:1009F00000205DF808FB00BF4DF808EDFFF7C4FFCD
:100A000034BF012000205DF808FB00BF4FEA410C15
:100A10007FEA6C5C02D150EA013C0AD14FEA430CF8
:100A20007FEA6C5C02D152EA033C02D14FF0000035
:100A300070474FF0010070474FEA410212F5001273
:100A400015D211D56FF47873B3EB625212D94FEA15
:100A5000C12343F0004343EA505311F0004F23FAFF
:100A600002F018BF404270474FF00000704750EA54
:100A7000013005D111F0004008BF6FF00040704711
:100A80004FF00000704700BF80F0004002E000BF60
:100A900081F0004142001FBF5FEA410392EA030F69
:100AA0007FEA226C7FEA236C6AD04FEA1262D2EBB3
:100AB0001363C1BFD218414048404140B8BF5B42B8
:100AC000192B88BF704710F0004F40F4000020F051
:100AD0007F4018BF404211F0004F41F4000121F067
:100AE0007F4118BF494292EA030F3FD0A2F10102B1
:100AF00041FA03FC10EB0C00C3F1200301FA03F1EF
:100B000000F0004302D5494260EB4000B0F5000F11
:100B100013D3B0F1807F06D340084FEA310102F1D0
:100B20000102FE2A51D2B1F1004F40EBC25008BF82
:100B300020F0010040EA03007047490040EB00004C
:100B4000013A28BFB0F5000FEDD2B0FA80FCACF14D
:100B5000080CB2EB0C0200FA0CF0AABF00EBC2507A
:100B600052421843BCBFD0401843704792F0000F68
:100B700081F4000106BF80F400000132013BB5E7BB
:100B80004FEA41037FEA226C18BF7FEA236C21D031
:100B900092EA030F04D092F0000F08BF0846704796
:100BA00090EA010F1CBF0020704712F07F4F04D164
:100BB000400028BF40F00040704712F100723CBF77
:100BC00000F50000704700F0004343F0FE4040F4A1
:100BD000000070477FEA226216BF08467FEA23635F
:100BE0000146420206BF5FEA412390EA010F40F44A
:100BF000800070474FF0000304E000BF10F0004396
:100C000048BF40425FEA000C08BF704743F096437C
:100C100001464FF000001CE050EA010208BF704797
:100C20004FF000030AE000BF50EA010208BF70471E
:100C300011F0004302D5404261EB41015FEA010C33
:100C400002BF84460146002043F0B64308BFA3F12B
:100C50008053A3F50003BCFA8CF2083AA3EBC2530D
:100C600010DB01FA02FC634400FA02FCC2F120022C
:100C7000BCF1004F20FA02F243EB020008BF20F063
:100C80000100704702F1200201FA02FCC2F12002C9
:100C900050EA4C0021FA02F243EB020008BF20EABE
:100CA000DC7070474FF0FF0C1CEAD0521EBF1CEAEC
:100CB000D15392EA0C0F93EA0C0F6FD01A4480EADA
:100CC000010C400218BF5FEA41211ED04FF00063C3
:100CD00043EA501043EA5111A0FB01310CF00040EF
:100CE000B1F5000F3EBF490041EAD3715B0040EA15
:100CF000010062F17F02FD2A1DD8B3F1004F40EBE5
:100D0000C25008BF20F00100704790F0000F0CF0B7
:100D1000004C08BF49024CEA502040EA51207F3A7B
:100D2000C2BFD2F1FF0340EAC250704740F4000056
:100D30004FF00003013A5DDC12F1190FDCBF00F047
:100D400000407047C2F10002410021FA02F1C2F1F5
:100D5000200200FA02FC5FEA310040F1000053EA91
:100D60004C0308BF20EADC70704792F0000F00F0DF
:100D7000004C02BF400010F4000F013AF9D040EAE5
:100D80000C0093F0000F01F0004C02BF490011F479
:100D9000000F013BF9D041EA0C018FE70CEAD15377
:100DA00092EA0C0F18BF93EA0C0F0AD030F0004CF7
:100DB00018BF31F0004CD8D180EA010000F00040AB
:100DC000704790F0000F17BF90F0004F084691F069
:100DD000000F91F0004F14D092EA0C0F01D14202A3
:100DE0000FD193EA0C0F03D14B0218BF084608D16C
:100DF00080EA010000F0004040F0FE4040F40000B6
:100E0000704740F0FE4040F4400070474FF0FF0C48
:100E10001CEAD0521EBF1CEAD15392EA0C0F93EA8F
:100E20000C0F69D0A2EB030280EA010C49024FEAE1
:100E3000402037D04FF0805343EA111143EA10139A
:100E40000CF000408B4238BF5B0042F17D024FF452
:100E5000000C8B4224BF5B1A40EA0C00B3EB510F2D
:100E600024BFA3EB510340EA5C00B3EB910F24BF16
:100E7000A3EB910340EA9C00B3EBD10F24BFA3EB9B
:100E8000D10340EADC001B0118BF5FEA1C1CE0D163
:100E9000FD2A3FF650AF8B4240EBC25008BF20F016
:100EA000010070470CF0004C4CEA50207F32C2BF6A
:100EB000D2F1FF0340EAC250704740F400004FF007
:100EC0000003013A37E792F0000F00F0004C02BF38
:100ED000400010F4000F013AF9D040EA0C0093F002
:100EE000000F01F0004C02BF490011F4000F013B5C
:100EF000F9D041EA0C0195E70CEAD15392EA0C0FC4
:100F000008D142027FF47DAF93EA0C0F7FF470AFFB
:100F1000084676E793EA0C0F04D14B023FF44CAF3E
:100F200008466EE730F0004C18BF31F0004CCAD1D3
:100F300030F000427FF45CAF31F000437FF43CAF0F
:100F40005FE700BF08B50268064B9A4200D008BDB3
:100F5000002101F01AF9044B1860044B01221A70A9
:100F6000F5E700BF00080040FC010020000200205F
:100F700010B514464FF0FF3392B2024800F021FA48
:100F8000204610BD0402002008B50368B3F1804F6D
:100F900000D008BD00F08EFAFBE772B6FEE700B5A0
:100FA00091B02822002106A802F0F0FB0023019353
:100FB0000293039304930593012206924FF4803326
:100FC00007930A9202220D920E934FF4E0130F93AF
:100FD00006A800F097FA80B90F230193022102912D
:100FE000002303934FF480620492059301A800F05C
:100FF000BBFC20B911B05DF804FBFFF7CEFFFFF793
:10100000CCFF000008B500F043FAFFF7C8FF00F07E
:101010000FF800F053F802F0CFFA0021034801F076
:1010200047FB00F09FFF02F02FF8FEE7202600208C
:1010300030B589B0002404940594069407941D4BA0
:101040009A6942F010029A619A6902F010020092C5
:10105000009A9A6942F020029A619A6902F020028D
:101060000192019A9A6942F004029A619A6902F027
:1010700004020292029A9A6942F008029A619B69FC
:1010800003F008030393039B0B4D22464FF40051DA
:10109000284600F075FE4FF4005304930123059396
:1010A00006940223079304A9284600F057FD09B0CF
:1010B00030BD00BF001002400010014008B50A48D2
:1010C0000A4B03604FF4E133436000238360C36045
:1010D00003610C2242618361C36100F042F900B9EF
:1010E00008BDFFF75AFFFBE704020020003801406B
:1010F00010B586B00023029303930493059302680E
:10110000174B9A4201D006B010BD03F558439A69B7
:1011100042F480429A619A6902F480420092009AF5
:101120009A6942F004029A619B6903F004030193F7
:10113000019B4FF40073029302230393032305934F
:10114000084C02A9204600F009FD4FF48063029389
:1011500000230393049302A9204600F0FFFCD2E78A
:101160000038014000080140FEE7FEE7FEE7FEE729
:10117000FEE7704708B5024801F023F808BD00BF3C
:10118000AC04002008B5024801F01BF808BD00BF00
:101190002026002000B583B0114B9A6942F001026D
:1011A0009A619A6902F001020092009ADA6942F0AB
:1011B0008052DA61DB6903F080530193019B0022C6
:1011C0000F216FF0010000F0F3FD064A536823F091
:1011D000E06343F08063536003B05DF804FB00BF3D
:1011E0000010024000000140026802F10C0353E8C5
:1011F000003F23F490730C3242E800310029F3D110
:10120000026802F1140353E8003F23F00103143293
:1012100042E800310029F3D1036B012B05D02023D4
:1012200080F84230002303637047026802F10C0328
:1012300053E8003F23F010030C3242E8003100294C
:10124000F3D1ECE710B504460268136923F4405368
:10125000C1680B43136183680269134342691A43EF
:101260000168CB6823F4B05323F00C031343CB6025
:101270000268536923F4407381690B435361026828
:10128000134B9A4220D000F02BFC024602EB820264
:1012900002EB820263689B00B2FBF3F20D48A0FBF5
:1012A00002314909642303FB11231B013233A0FBE4
:1012B00003235B0903F0F00202EB011203F00F03BA
:1012C000216813448B6010BD00F01AFC0246DDE774
:1012D000003801401F85EB512DE9F04383B00546EE
:1012E0000E4617469946DDF828802C68246836EAB1
:1012F00004030CBF4FF0010C4FF0000CBC4528D18B
:10130000B8F1FF3FF1D000F0E1F8A0EB0900404553
:1013100023D8B8F1000F22D02B68DA6812F0040F3E
:10132000E3D0802EE1D0402EDFD01A6812F0080FF3
:10133000DBD0002401941A6801925B680193019B41
:101340002846FFF751FF08236B6485F840400120D1
:1013500000E0002003B0BDE8F0830320FAE703209B
:10136000F8E760B310B5044690F8413013B3242376
:1013700084F841302268D36823F40053D3602046B8
:10138000FFF760FF2268136923F49043136122681A
:10139000536923F02A0353612268D36843F400534E
:1013A000D36000206064202384F8413084F8423008
:1013B000606310BD80F84030FFF79AFED7E7012048
:1013C00070472DE9F04182B01E4690F84130DBB203
:1013D000202B56D104460D469046002955D00AB917
:1013E00001204FE000234364212380F8413000F0C6
:1013F0006DF80746A4F82480A4F82680A368B3F506
:10140000805F02D04FF0000814E023692BB34FF047
:1014100000080FE0202384F84130032032E038F840
:10142000023B2268C3F308035360E28C92B2013A94
:1014300092B2E284E38C9BB293B100963B460022C9
:1014400080212046FFF748FF0028E3D1002DE6D099
:1014500015F8012B23685A60E7E7A8460025E9E75D
:1014600000963B46002240212046FFF735FF18B981
:10147000202384F8413005E0202384F84130032004
:1014800000E0022002B0BDE8F0810120FAE7000090
:1014900008B5074A136843F010031360032000F0F7
:1014A00075FC0F2000F076FDFFF774FE002008BDEC
:1014B00000200240034A1168034B1B780B44136061
:1014C000704700BF4C02002000000020014B18684C
:1014D000704700BF4C02002082B0084B1B68084ACE
:1014E000A2FB03235B0A00FB03F3019300BF019BF4
:1014F0005A1E0192002BF9D102B07047080000205B
:10150000D34D6210002800F0F18170B582B004461E
:10151000036813F0010F2CD0994B5B6803F00C03A8
:10152000042B1DD0964B5B6803F00C03082B12D0E4
:101530006368B3F5803F41D0002B55D103F1804360
:1015400003F504331A6822F480321A601A6822F410
:1015500080221A6037E08A4B5B6813F4803FE7D043
:10156000874B1B6813F4003F03D06368002B00F027
:10157000BF81236813F0020F75D0814B5B6813F0B5
:101580000C0F5FD07E4B5B6803F00C03082B54D02C
:101590002369002B00F08A807A4B01221A60FFF742
:1015A00095FF0546764B1B6813F0020F75D1FFF7C8
:1015B0008DFF401B0228F5D903209EE1704A136875
:1015C00043F480331360636843B3FFF77FFF05463E
:1015D0006B4B1B6813F4003FCBD1FFF777FF401B29
:1015E0006428F5D9032088E1B3F5A02F09D0644B16
:1015F0001A6822F480321A601A6822F480221A6073
:10160000E1E703F18043A3F53C331A6842F48022FA
:101610001A601A6842F480321A60D4E7FFF756FF66
:101620000546574B1B6813F4003FA2D0FFF74EFF4F
:10163000401B6428F5D903205FE1514B5B6813F42C
:10164000803FA5D14E4B1B6813F0020F03D02369D6
:10165000012B40F04F814A4A136823F0F803616977
:1016600043EAC1031360236813F0080F33D0A36962
:10167000002B5CD0434B0122C3F88024FFF726FFE8
:1016800005463F4B5B6A13F0020F21D1FFF71EFFA7
:10169000401B0228F5D903202FE1394A136823F0B3
:1016A000F803616943EAC1031360DCE7354B0022AC
:1016B0001A60FFF70BFF0546314B1B6813F0020F52
:1016C000D1D0FFF703FF401B0228F5D9032014E116
:1016D0000120FFF701FF236813F0040F00F096804C
:1016E000274BDB6913F0805F34D1254BDA6942F078
:1016F0008052DA61DB6903F080530193019B01257D
:10170000214B1B6813F4807F26D0E368012B3DD06A
:10171000002B53D103F1804303F504331A6A22F0FE
:1017200001021A621A6A22F004021A6233E0154BAF
:101730000022C3F88024FFF7C9FE0546104B5B6A00
:1017400013F0020FC7D0FFF7C1FE401B0228F5D9E6
:101750000320D2E00025D3E70B4A136843F48073DB
:101760001360FFF7B3FE0646074B1B6813F4807F38
:10177000CBD1FFF7ABFE801B6428F5D90320BCE07A
:101780000010024000004242007000405F4A136AAD
:1017900043F001031362E36833B3FFF797FE064695
:1017A0005A4B1B6A13F0020F2FD1FFF78FFE801BDD
:1017B00041F288339842F3D903209EE0052B09D0EB
:1017C000524B1A6A22F001021A621A6A22F00402CB
:1017D0001A62E0E74D4B1A6A42F004021A621A6A72
:1017E00042F001021A62D6E7FFF770FE0646474B49
:1017F0001B6A13F0020F08D0FFF768FE801B41F24E
:1018000088339842F3D9032077E0E5B9E369002BE8
:1018100072D03E4A526802F00C02082A56D0022BBF
:1018200017D03B4B00221A66FFF750FE0446374B99
:101830001B6813F0007F47D0FFF748FE001B02280B
:10184000F5D9032059E0314AD36923F08053D3619D
:10185000DCE72F4B00221A66FFF738FE05462B4BBC
:101860001B6813F0007F06D0FFF730FE401B0228F4
:10187000F5D9032041E0236AB3F5803F1AD023490C
:101880004B6823F47413226A606A024313434B606B
:101890001F4B01221A66FFF719FE04461B4B1B68FB
:1018A00013F0007F0ED1FFF711FE001B0228F5D9BF
:1018B000032022E0154A536823F40033A1680B4348
:1018C0005360DCE7002018E0002016E0012B16D062
:1018D0000E4B5B6803F48031226A914211D103F40C
:1018E0007013626A93420ED1002006E00120704717
:1018F000012002E0012000E0002002B070BD0120C4
:10190000FBE70120F9E70120F7E700BF00100240E4
:10191000000042420F4B5B6803F00C02082A01D022
:101920000D487047C3F383420C49885C13F4803F31
:101930000BD0084B5B68C3F34043094AD35C064AAB
:1019400002FB00F0B0FBF3F07047064B03FB00F026
:10195000704700BF0010024000127A0004620008C5
:101960001462000800093D00002800F0A08070B556
:101970000D460446524B1B6803F007038B420BD203
:101980004F4A136823F007030B431360136803F0F7
:1019900007038B4240F08D80236813F0020F17D0AD
:1019A00013F0040F04D0474A536843F4E0635360D4
:1019B000236813F0080F04D0424A536843F460537D
:1019C0005360404A536823F0F003A1680B4353600F
:1019D000236813F0010F31D06368012B20D0022B54
:1019E00025D0384A126812F0020F64D035494A688F
:1019F00022F0030213434B60FFF768FD0646314BAC
:101A00005B6803F00C036268B3EB820F16D0FFF73C
:101A10005DFD801B41F288339842F0D9032045E0F8
:101A2000284A126812F4003FE0D101203EE0254A26
:101A3000126812F0007FD9D1012037E0204B1B68DB
:101A400003F00703AB420AD91D4A136823F00703CA
:101A50002B431360136803F00703AB422DD12368B7
:101A600013F0040F06D0174A536823F4E063E168CB
:101A70000B435360236813F0080F07D0114A5368D3
:101A800023F46053216943EAC1035360FFF742FF27
:101A90000C4B5B68C3F303130B4AD35CD8400B4B6E
:101AA00018600B4B186800F075FA002070BD01201B
:101AB00070470120FAE70120F8E70120F6E700BFB0
:101AC00000200240001002401862000808000020B8
:101AD00004000020014B1868704700BF0800002078
:101AE00008B5FFF7F7FF044B5B68C3F30223034A13
:101AF000D35CD84008BD00BF001002402862000837
:101B000008B5FFF7E7FF044B5B68C3F3C223034A42
:101B1000D35CD84008BD00BF001002402862000816
:101B20000F2303600B4B5A6802F0030242605A68AD
:101B300002F0F00282605A6802F4E062C2605B6800
:101B4000DB0803F4E0630361034B1B6803F0070346
:101B50000B607047001002400020024070B582B058
:101B60000024A446A6E0804DAA4210D007D97F4D9C
:101B7000AA420CD005F58035AA4208D013E0A5F59D
:101B80008015AA4203D005F57025AA4207D18A68BC
:101B9000002A58D0012A51D04361082403E0A5F55A
:101BA0008015AA42F3D0BEF1FF0F4ED80646BEF113
:101BB000FF0F4CD84FEA8C0233680F25954023EA7B
:101BC000050304FA02F2134333604B6813F0805F9D
:101BD0006ED0674B9A6942F001029A619B6903F0EB
:101BE00001030193019B4FEA9C02951C614B53F842
:101BF00025600CF003039D000F23AB4026EA03068B
:101C00005D4B984229D003F58063984200F08E80A6
:101C100003F58063984200F08B8003F5806398425F
:101C200019D004231AE0CC68BDE7CC680434BAE7C5
:101C3000CC680834B7E7CC680C34B4E703610824F7
:101C4000B1E70024AFE70424ADE7061DAFE7ACF130
:101C500008029200B0E7032300E00023AB403343C7
:101C60000232444D45F822304B6813F4801F61D096
:101C7000424A936843EA0E0393604B6813F4001FD3
:101C80005ED03E4AD36843EA0E03D3604B6813F438
:101C9000003F5BD0394A536843EA0E0353604B68F8
:101CA00013F4803F58D0354A136843EA0E0313609B
:101CB0000CF1010C0A6832FA0CF353D0012303FA39
:101CC0000CF302EA030E33EA0202F1D14A68122A47
:101CD0003FF649AF122A3FF666AF01A555F822F04C
:101CE0008F1B0008271C0008311C0008431C00083B
:101CF000A71B0008A71B0008A71B0008A71B0008BC
:101D0000A71B0008A71B0008A71B0008A71B0008AB
:101D1000A71B0008A71B0008A71B0008A71B00089B
:101D2000A71B00082B1C0008371C0008012395E79F
:101D3000022393E7114A936823EA0E0393609CE71A
:101D40000E4AD36823EA0E03D3609FE70B4A536819
:101D500023EA0E035360A2E7084A136823EA0E033E
:101D60001360A5E702B070BD000022100000311022
:101D70000010024000000140000801400004014042
:101D80000AB101617047090401617047074AD368CD
:101D900023F4E0631B041B0C000200F4E060034327
:101DA00043F0BF6343F40033D360704700ED00E0BD
:101DB00000B5194BDB68C3F30223C3F1070CBCF178
:101DC000040F28BF4FF0040C03F1040EBEF1060F00
:101DD00018D9033B4FF0FF3E0EFA0CFC21EA0C0130
:101DE00099400EFA03F322EA0303194300280BDBA0
:101DF0000901C9B200F1604000F5614080F80013AC
:101E00005DF804FB0023E5E700F00F000901C9B20B
:101E1000024B1954F4E700BF00ED00E014ED00E0C0
:101E2000002807DB00F01F02400901239340024A0B
:101E300042F82030704700BF00E100E0704700002A
:101E400010B503460C4A0D490D48006840B10C48D6
:101E500000680344521A934206D8094A136010BD21
:101E60000748084C0460F2E701F058FC0C230360BB
:101E70004FF0FF30F3E700BF0050002000040000E7
:101E800050020020782600200120704708B501F09C
:101E900045FC162303604FF0FF3008BD08B54FF036
:101EA000FF31FFF7F3FFFEE770B50C46164600253D
:101EB00006E0AFF30080214601F8010B01350C4626
:101EC000B542F6DB304670BD4FF0FF3070474FF43F
:101ED00000534B600020704701207047002070477E
:101EE00070B50024254602E0052001F055F8134B9B
:101EF0001B78002BF8D001F075FA114B1E680F4BC0
:101F000000221A7001F090FA35440134E4B2072C33
:101F1000EAD92846FEF76EFE4FF07851FEF7C2FE72
:101F200001460848FEF772FFFEF77EFA02460B46AE
:101F3000054802F093F800252C46D5E70002002062
:101F4000FC010020C0E1E44A38620008034B036052
:101F5000034B0B6080231360704700BF58040020C0
:101F60005802002010B588B00DF1040C074C0FCCBE
:101F7000ACE80F0094E807008CE80700002101A8F6
:101F800001F087F8024B186008B010BDE861000846
:101F90005402002030B589B00446224BDA6942F081
:101FA0000102DA61DB6903F001030193019B02A9DD
:101FB00003A8FFF7B5FD069BD3B9FFF791FD0346D4
:101FC0001948A0FB03239B0C013B18484FF08042AB
:101FD000026040F2E732C260436000230361836025
:101FE000836100F0DFF9054630B1284609B030BD05
:101FF000FFF776FD4300E3E70C4800F091F8054653
:102000000028F2D11C20FFF70BFF0F2C01D901256E
:10201000EBE7002221461C20FFF7CAFE044B1C60A0
:10202000E3E700BF0010024083DE1B43AC04002046
:102030000400002010B4036A046A24F0010404625E
:10204000846924F0F00C4CEA021223F00A030B43DB
:102050008261036210BC704730B4056A046A24F0E0
:1020600010040462846924F4407C4CEA022C2CF4B1
:10207000704C1B039BB243EA0C0325F0A005090139
:1020800001F0A00129438361016230BC704710B4A4
:10209000036A046A24F010040462846924F4704C16
:1020A0004CEA023223F0A00343EA01138261036287
:1020B00010BC704730B4056A046A24F4807404626A
:1020C000C46924F0030C4CEA020C2CF0F00C1B0148
:1020D000DBB243EA0C0325F40075090201F4007138
:1020E0002943C361016230BC704730B4056A046A99
:1020F00024F480540462C46924F4407C4CEA022C29
:102100002CF4704C1B039BB243EA0C0325F40055DE
:10211000090301F400512943C361016230BC7047D7
:1021200090F83D30DBB2012B27D1022380F83D30FF
:102130000268D36843F00103D3600368114A9342F5
:1021400010D0B3F1804F0DD0A2F59432934209D054
:1021500002F58062934205D01A6842F001021A60CB
:10216000002070479A6802F00702062A07D01A6812
:1021700042F001021A6000207047012070470020E1
:10218000704700BF002C014070470C2914D8DFE8CD
:1021900001F0071313130A1313130D131313100075
:1021A0000368586B70470368986B70470368D86B77
:1021B00070470368186C704700207047704770477D
:1021C000704770B504460368DE681D6915F0020F9C
:1021D00010D016F0020F0DD06FF002021A61012329
:1021E000037703689B6913F0030F5ED0FEF7AAFE26
:1021F0000023237715F0040F12D016F0040F0FD030
:1022000023686FF004021A610223237723689B6915
:1022100013F4407F4FD02046FEF794FE002323772F
:1022200015F0080F12D016F0080F0FD023686FF0CA
:1022300008021A61042323772368DB6913F0030F74
:1022400040D02046FEF77EFE0023237715F0100FC6
:1022500012D016F0100F0FD023686FF010021A6121
:10226000082323772368DB6913F4407F31D02046AD
:10227000FEF768FE0023237715F0010F02D016F059
:10228000010F2DD115F0800F02D016F0800F2FD145
:1022900015F0400F02D016F0400F31D115F0200F8D
:1022A00002D016F0200F33D170BDFFF787FF204614
:1022B000FFF785FF9CE72046FFF780FF2046FFF7EA
:1022C0007EFFABE72046FFF779FF2046FFF777FF59
:1022D000BAE72046FFF772FF2046FFF770FFC9E715
:1022E00023686FF001021A612046FEF74DFEC9E730
:1022F00023686FF080021A61204600F0BAFAC7E73F
:1023000023686FF040021A612046FFF759FFC5E7C6
:1023100023686FF020021A61204600F0A9FAC3E793
:1023200003681F4A90420AD0B0F1804F07D0A2F54F
:102330009432904203D002F58062904203D123F0A0
:1023400070034A681343164A90420AD0B0F1804F96
:1023500007D0A2F59432904203D002F580629042F9
:1023600003D123F44073CA68134323F080034A69FE
:10237000134303608B68C3620B688362084B984207
:102380000AD001234361036913F0010F03D00369ED
:1023900023F00103036170470B690363F1E700BF9A
:1023A000002C014040B310B5044690F83D30F3B125
:1023B000022384F83D30214651F8040BFFF7B0FFAB
:1023C000012384F8463084F83E3084F83F3084F8A6
:1023D000403084F8413084F8423084F8433084F847
:1023E000443084F8453084F83D30002010BD80F83A
:1023F0003C3001F037F9DBE70120704740B310B5FE
:10240000044690F83D30F3B1022384F83D30214674
:1024100051F8040BFFF784FF012384F8463084F859
:102420003E3084F83F3084F8403084F8413084F8FE
:10243000423084F8433084F8443084F8453084F8DE
:102440003D30002010BD80F83C30FFF79DFEDBE7FB
:102450000120704770B4056A046A24F00104046224
:102460008469114EB0420DD0B0F1804F0AD0A6F56C
:102470009436B04206D006F58066B04202D044F0F1
:10248000010202E024F00304224322F0F0021B01C7
:10249000DBB2134325F00A0201F00A011143836104
:1024A000016270BC704700BF002C014038B590F845
:1024B0003C30012B5AD004460D46012380F83C30B5
:1024C00052B1042A1AD0082A2BD00C2A3BD0012062
:1024D000002384F83C3038BDCB684A68096800683E
:1024E000FFF7B8FF2268936923F00C039361226819
:1024F0009369A9680B4393610020E9E7CB684A68B8
:1025000009680068FFF7A8FD2268936923F4406317
:10251000936122689369A96843EA012393610020CB
:10252000D6E7CB684A6809680068FFF7C3FD2268F0
:10253000D36923F00C03D3612268D369A9680B43E4
:10254000D3610020C4E7CB684A6809680068FFF7D8
:10255000CCFD2268D36923F44063D3612268D36938
:10256000A96843EA0123D3610020B1E70220B2E762
:1025700010B4846824F47F4C42EA03220A4342EAFE
:102580000C02826010BC704710B50468A26822F08B
:1025900070024B68134323F007030A681343A360D8
:1025A0004B68502B32D00BD9602B36D0702B43D1D7
:1025B0000B698A68C9680068FFF7DAFF00200FE03E
:1025C000402B0ED001D901200AE0202B2CD003D9BA
:1025D000302B2FD1002003E043B3102B28D1002053
:1025E00010BD0B68052B29D003681C6A1A6A22F0FB
:1025F00001021A620268936923F0F003096943EA51
:102600000113936103681C620020E9E70A69896885
:102610000068FFF70FFD0020E2E70A69896800689B
:10262000FFF735FD0020DBE70020D9E70020D7E7E2
:102630000120D5E70120D3E70120D1E70120CFE732
:1026400090F83C30012B22D010B50446012380F8CD
:102650003C30022380F83D30FFF796FF80B92268B6
:10266000D36823F04003D3602268D36823F4804307
:10267000D360012384F83D30002384F83C3010BD42
:10268000012084F83D00002384F83C30F7E7022065
:10269000704701F01F01012303FA01FC036A23EADA
:1026A0000C030362036A02FA01F10B4303627047F1
:1026B00010B504460B4609BB90F83E00C0B26BBB98
:1026C00094F84220D2B2012840F09480012A40F0D0
:1026D00092809BBB022184F83E10002B3ED1022148
:1026E00084F842100C2B00F28780DFE803F0478566
:1026F0008585668585856C8585857200042905D06C
:10270000082907D090F84100C0B2D8E790F83F0000
:10271000C0B2D4E790F84000C0B2D0E7042B05D097
:10272000082B07D094F84520D2B2CCE794F8432088
:10273000D2B2C8E794F84420D2B2C4E7042B05D043
:10274000082B07D0022184F84110C6E7022184F843
:102750003F10C2E7022184F84010BEE7042B05D0E9
:10276000082B07D0022184F84510BBE7022184F82A
:102770004310B7E7022184F84410B3E72168CA6820
:1027800042F00202CA60012219462068FFF781FF69
:1027900023681B4A934222D0B3F1804F1FD0A2F589
:1027A000943293421BD002F58062934217D01A688C
:1027B00042F001021A6000201DE02168CA6842F060
:1027C0000402CA60DFE72168CA6842F00802CA60F2
:1027D000D9E72168CA6842F01002CA60D3E79A6854
:1027E00002F00702062A09D01A6842F001021A60B4
:1027F000002000E0012010BD1046FCE70020FAE7B1
:10280000002C014090F83C30012B2CD010B4012357
:1028100080F83C30022380F83D3003685A689C6899
:1028200022F0700C0A6842EA0C025A6003680F4AF0
:1028300093420AD0B3F1804F07D0A2F5943293426D
:1028400003D002F58062934204D124F080044A68E8
:1028500014439C60012380F83D30002380F83C3015
:10286000184610BC70470220704700BF002C014082
:102870007047704700F1080343604FF0FF328260F9
:10288000C360036100230360704700230361704746
:1028900043684B609A688A60516099600861036878
:1028A00001330360704730B40D68B5F1FF3F11D0BC
:1028B00000F108031C465B681A68AA42FAD96368EB
:1028C0004B6099608C60616008610368013303604C
:1028D00030BC70470469F2E70369416882688A6026
:1028E000416851605A68824206D0002202611A682B
:1028F000013A1A601868704782685A60F5E700006C
:10290000084B1B681B6823B9074B4FF0FF321A6056
:102910007047044B1B68DB68DB685A68024B1A601F
:10292000704700BFF8040020A40500202DE9F047FF
:1029300007469846089DDDF824900A9C266B02F114
:102940008042013A06EB820626F0070600293AD0BB
:102950008E464FF0000CBCF10F0F0BD81EF80C2068
:1029600004EB0C0383F834201EF80C3013B10CF187
:10297000010CF0E7002384F84330042D00D904252E
:10298000E56265644FF0000AC4F848A0201DFFF717
:102990007CFF04F11800FFF778FF2461C5F10505FD
:1029A000A5616462C4F84CA084F850A04246394640
:1029B000304600F0F1FC2060B9F1000F01D0C9F8F9
:1029C0000040BDE8F087002384F83430D5E70000EC
:1029D00038B5002407E004EB840293000E48184445
:1029E000FFF748FF0134042CF5D90C4D2846FFF7BA
:1029F00041FF0B4C2046FFF73DFF0A48FFF73AFF27
:102A00000948FFF737FF0948FFF734FF084B1D60FF
:102A1000084B1C6038BD00BF000500207805002071
:102A20008C050020B0050020DC050020C805002032
:102A3000F8040020FC04002010B5044600F0D2FC8D
:102A4000214A136801331360204B1B685BB1204B94
:102A50001B686BB91D4B1B68DA6AE36A9A4207D898
:102A60001A4B1C6004E0194B1C601368012B28D022
:102A7000184A136801331360E06A01238340164A41
:102A800011680B43136000EB8000211D134B03EB17
:102A90008000FFF7FDFE00F0C7FC0D4B1B687BB10B
:102AA0000A4B1B68DA6AE36A9A4209D24FF0E023C4
:102AB0004FF08052C3F8042DBFF34F8FBFF36F8FD9
:102AC00010BDFFF785FFD3E764050020F404002064
:102AD000C4050020700500207405002000050020BA
:102AE00010B5044690F8513063B1012B11D0022B80
:102AF0000ED04FF0500383F31188BFF36F8FBFF3F5
:102B00004F8FFEE7006B00F0D9FB204600F0D6FBAC
:102B100010BD00F0D3FBFBE70F4B1B68D3B110B522
:102B200000F060FC0D4BDB68DC68201DFFF7D4FE75
:102B30000B4A1368013B1360074A1368013B13609B
:102B400000F072FC2046FFF7CBFF034B1B68002B05
:102B5000E6D110BD704700BF68050020DC050020ED
:102B60006405002008B5FFF7D7FF074B1B68012B52
:102B7000F9D94FF0E0234FF08052C3F8042DBFF392
:102B80004F8FBFF36F8FEEE70005002070B504464E
:102B90000D461D4B1E681D4B18680430FFF79CFE48
:102BA00050B91A4B1B68DA6A012303FA02F218497A
:102BB0000B6823EA02030B60B4F1FF3F0DD03444ED
:102BC000124B1B685C60A64210D9124B18680F4B61
:102BD00019680431FFF767FE70BD002DEFD00B4B75
:102BE000196804310C48FFF753FEF5E70B4B1868E2
:102BF000064B19680431FFF756FE094B1B68A342C8
:102C0000EAD9074B1C60E7E7F0050020F404002038
:102C100074050020FC040020C8050020F8040020F2
:102C2000A405002030B587B00B9C7CB10C9DB5B1DC
:102C300054250495049D542D1AD04FF0500383F36E
:102C40001188BFF36F8FBFF34F8FFEE74FF0500334
:102C500083F31188BFF36F8FBFF34F8FFEE74FF001
:102C6000500383F31188BFF36F8FBFF34F8FFEE7DD
:102C7000049D0C9D2C63022485F85140002403948C
:102C8000029505AC01940A9C0094FFF74FFE0C9846
:102C9000FFF7D2FE059807B030BD2DE9F04385B0AF
:102CA0000746884614461E46900000F089FA00B395
:102CB0008146542000F084FA0546B0B1C0F8309047
:102CC000E5B1002385F85130039302950D9B0193E4
:102CD0000C9B00933346224641463846FFF726FEBA
:102CE0002846FFF7A9FE012005E0484600F0E6FA75
:102CF000E6E74FF0FF3005B0BDE8F0834FF0FF305E
:102D0000F9E7000010B588B000240594069407AADE
:102D100006A905A8FFF71AF9059B0293069B0193E4
:102D200000942346079A0E490E48FFF77BFF0E4B8F
:102D3000186090B14FF0500383F31188BFF36F8F89
:102D4000BFF34F8F094B4FF0FF321A60084B01223F
:102D50001A60084B1C6000F0CFFB08B010BD00BF2C
:102D600040620008652B0008A0050020A405002093
:102D7000C4050020F0050020024A136801331360E7
:102D8000704700BF6C050020F8B53A4B1B68002B5C
:102D900069D1394B1D6801351D60C5B9374B1B68BA
:102DA0001B6843B14FF0500383F31188BFF36F8F5B
:102DB000BFF34F8FFEE7314A1168314B186810603E
:102DC0001960304A136801331360FFF799FD2E4BE9
:102DD0001B68AB423DD900272C4B1B68DB6A03EB19
:102DE00083039A002A4B9B58012B00D90127294BBA
:102DF0001B68002B3CD001273AE001271F4B1B68C2
:102E00001B6843B31D4B1B68DB68DC6863689D422D
:102E100026D3261D3046FFF75FFDA36A1BB104F1E0
:102E20001800FFF759FDE36A01229A401A49086821
:102E300002430A6003EB83039A00314614481044AE
:102E4000FFF726FDE26A114B1B68DB6A9A42D4D277
:102E5000D4E70027D2E70C4B4FF0FF321A60BBE7F4
:102E6000094A1360B8E70D4A13680133136000275D
:102E70003846F8BD6C050020F0050020F80400205D
:102E8000FC040020A8050020A4050020F404002074
:102E900000050020F405002074050020AC0500208A
:102EA00038B5354B1B6843B94FF0500383F3118895
:102EB000BFF36F8FBFF34F8FFEE700F093FA2E4BF7
:102EC0001A68013A1A601B68002B4FD12B4B1B6804
:102ED0000BB900244BE00024294B1B681BB3284B83
:102EE000DB68DC6804F11800FFF7F6FC251D2846B6
:102EF000FFF7F2FCE06A01238340224A11680B438A
:102F0000136000EB800029461F4B03EB8000FFF7A6
:102F1000BFFCE26A1D4B1B68DB6A9A42DCD31C4B88
:102F200001221A60D8E70CB1FFF7EAFC194B1C68C4
:102F300084B9174B1C68D4B14FF0E0234FF0805296
:102F4000C3F8042DBFF34F8FBFF36F8F01240EE042
:102F5000013C07D0FFF718FF0028F9D00C4B0122E5
:102F60001A60F5E70B4B00221A60E2E7002400F03C
:102F70005BFA204638BD00BF6C05002064050020C8
:102F8000B00500207405002000050020F404002096
:102F9000F4050020AC05002010B5A8B10446104B84
:102FA0001B6843B14FF0500383F31188BFF36F8F59
:102FB000BFF34F8FFEE7FFF7DFFE00212046FFF74C
:102FC000E5FDFFF76DFF48B94FF0E0234FF0805269
:102FD000C3F8042DBFF34F8FBFF36F8F10BD00BF39
:102FE0006C050020204B1B681BB1204B01221A608E
:102FF00070471E4B00221A601D4B1B68B3FA83F307
:10300000DBB2C3F11F0303EB83018A0019498A581D
:1030100042B94FF0500383F31188BFF36F8FBFF3B2
:103020004F8FFEE7134903EB830082000A44506888
:103030004068506003EB830C4FEA8C020832114465
:10304000884209D003EB83039A000A4B13445B6860
:10305000DA68094B1A607047406862469100054A79
:103060000A445060EEE700BF6C050020F405002024
:103070007405002000050020F4040020842801D0FD
:10308000033070470020704708B5FFF73BFE002073
:1030900008BD2DE9F04387B004460F464569BDB130
:1030A0008669AEB1D0F80480D0F80090B0F908007D
:1030B000FFF7E4FF0296019500903B4622694946DE
:1030C0004046FFF7AFFD0590059807B0BDE8F083D7
:1030D00065682668D4F81080B4F90800FFF7CEFFC1
:1030E00005AB019300903B461FFA88F23146284613
:1030F000FFF7D3FD0128E7D00020E6E7124A12F0DF
:10310000070F1ED0D11D21F00701C1F50053134454
:103110000A460E480260002141601344083B23F038
:1031200007030B48036059601960991A51601360D6
:10313000084B1960084B1960084B4FF000421A60A9
:1031400070474FF40053E4E7FC05002010260020F0
:10315000F80500200426002000260020FC25002081
:10316000154B1A461B688342FBD3516802EB010CD6
:10317000844509D0416800EB010C634509D0036028
:10318000904218D01060704740680144516010466A
:10319000F0E710B4094C2468A3420AD05B681944D4
:1031A000416013681B680360904200D0106010BC3F
:1031B00070470460F8E7704710260020F8050020EB
:1031C00070B50546FFF7D8FD364B1B68A3B1364BEB
:1031D0001B681D424ED135B1083515F0070F02D0DE
:1031E00025F007050835002D46D0304B1B68AB4253
:1031F00051D32F4A146804E0FFF780FFE7E7224627
:103200001C466368AB4202D22368002BF7D1254BE2
:103210001B68A34241D016680836236813606368B0
:103220005B1B102B10D9601910F0070F08D04FF05E
:10323000500383F31188BFF36F8FBFF34F8FFEE707
:1032400043606560FFF78CFF626818490B689B1A42
:103250000B60184909688B4201D216490B60124B6A
:103260001B681343636000232360134A1368013310
:10327000136002E0002600E00026FFF711FE16F0C2
:10328000070F0CD04FF0500383F31188BFF36F8FFB
:10329000BFF34F8FFEE70026EFE70026EDE730464D
:1032A00070BD00BFF8050020FC250020002600208E
:1032B000102600200426002008260020002834D0F4
:1032C00038B50446A0F1080550F8043C174A1268C6
:1032D000134208D14FF0500383F31188BFF36F8F6F
:1032E000BFF34F8FFEE750F8081C41B14FF0500379
:1032F00083F31188BFF36F8FBFF34F8FFEE723EA8D
:10330000020340F8043CFFF737FD54F8041C084A58
:1033100013680B4413602846FFF722FF054A136821
:1033200001331360FFF7BCFD38BD7047FC2500205A
:10333000002600200C26002082B0002301930D4BB4
:103340001B68B3F1FF3F08D04FF0500383F311889F
:10335000BFF36F8FBFF34F8FFEE74FF0500383F340
:103360001188BFF36F8FBFF34F8F019B002BFCD0F1
:1033700002B070470C00002006480068006880F327
:10338000088862B661B6BFF34F8FBFF36F8F00DF5F
:1033900000BF000008ED00E04FF0807340F8043CEF
:1033A00021F0010140F8081C034B40F80C3C40F8A8
:1033B000202C4038704700BF39330008000000005F
:1033C000074B19680868B0E8F00F80F30988BFF36D
:1033D0006F8F4FF0000080F311884EF00D0E704794
:1033E000F40400204FF0500383F31188BFF36F8F74
:1033F000BFF34F8F0B4A136801331360012B00D0CA
:1034000070474FF0E023D3F8043D13F0FF0FF7D0DF
:103410004FF0500383F31188BFF36F8FBFF34F8FCB
:10342000FEE700BF0C000020094B1B6843B94FF0BA
:10343000500383F31188BFF36F8FBFF34F8FFEE705
:10344000013B034A13600BB983F31188704700BF37
:103450000C00002000000000000000000000000040
:10346000EFF30980BFF36F8F0D4B1A6820E9F00F5F
:1034700010602DE908404FF0500080F31188FFF7ED
:10348000B1FD4FF0000080F31188BDE808401968D5
:103490000868B0E8F00F80F30988BFF36F8F7047BA
:1034A000F404002008B54FF0500383F31188BFF3F4
:1034B0006F8FBFF34F8FFFF767FC28B14FF0E0230A
:1034C0004FF08052C3F8042D002383F3118808BD08
:1034D0004FF0E022002313619361054B1B680549FF
:1034E000A1FB03139B09013B536107231361704741
:1034F00008000020D34D621010B582B02A4B1A7814
:10350000D2B20192FF221A701B78DBB28DF8033021
:103510009DF8033003F05003244A1370244B072214
:103520001A6009E0224A1368013B13609DF80330DA
:103530005B00DBB28DF803309DF8033013F0800F91
:10354000F0D11B4B1B68032B08D04FF0500383F3C3
:103550001188BFF36F8FBFF34F8FFEE71B02144A32
:10356000136003F4E0631360019BDBB20E4A137037
:103570004FF0E023D3F8202D42F47002C3F8202D41
:10358000D3F8202D42F07042C3F8202DFFF7A0FFA2
:103590000024084B1C60FFF7EFFEFFF723FDFFF749
:1035A000CBFE204602B010BD00E400E0182600204B
:1035B0001C2600200C00002000B58DB000230793CE
:1035C000089309930A930B9305930693019302932F
:1035D000039304932148224A026047224260836099
:1035E0004FF6FF72C26003618361FEF7DBFE30BB02
:1035F0001A48FEF703FF28BB0423079350230893C0
:10360000002309930B9307A91448FFF719F8E0B9B1
:1036100000230593069305A91048FFF7F3F8B8B9FE
:10362000002201920123029303920F23049301A924
:103630000A48FEF73BFF70B90DB05DF804FBFDF7DB
:10364000ACFCD5E7FDF7A9FCD6E7FDF7A6FCDFE764
:10365000FDF7A3FCE4E7FDF7A0FCEDE72026002042
:103660000008004000B587B0002302930393049341
:1036700005930268144B9A4202D007B05DF804FB30
:1036800003F50233DA6942F00402DA61DA6902F022
:1036900004020092009A9A6942F008029A619B69BA
:1036A00003F008030193019B4023029302A90748FA
:1036B000FEF754FA002205211E20FEF779FB1E209A
:1036C000FEF7AEFBD9E700BF00080040000C014048
:1036D000FEF7B4FB0B480C490C4A002302E0D45817
:1036E000C4500433C4188C42F9D3094A094C00234E
:1036F00001E013600432A242FBD300F015F8FDF79D
:1037000081FC704700000020E00100207466000882
:10371000E001002078260020FEE70000014B186839
:10372000704700BF1000002070B500260C4D0D4CF6
:10373000641BA410A64209D102F048FD00260A4DE0
:103740000A4C641BA410A64205D170BD55F8043B79
:1037500098470136EEE755F8043B98470136F2E703
:103760006C6600086C6600086C66000870660008ED
:103770000A44914200F1FF3300D1704710B511F8AF
:10378000014B914203F8014FF9D110BD03460244A9
:10379000934200D1704703F8011BF9E7002B2DE994
:1037A000F0471F46BBBF03F100431F4600232D23F4
:1037B00088B01446129A109D1370149BDDF84CA02B
:1037C00023F02008B8F1460F05D0B8F1450F00D11D
:1037D0000135022300E0032307AA049206AACDE9DB
:1037E00002A2CDE9003522463B4600F0DDFCB8F1EF
:1037F000470F064602D1119BDB0722D5B8F1460FD1
:1038000006EB050910D13378302B0AD100220023B2
:1038100020463946FDF7C8F818B9C5F10105CAF8C0
:103820000050DAF80030994400220023204639463F
:10383000FDF7BAF808B1CDF81C903022079B4B4534
:1038400007D33046079B159A9B1B136008B0BDE851
:10385000F087591C07911A70F0E70346F7B5002965
:1038600003F8022BB6BF2D222B22494209294270B0
:103870002BDD0DF10704A4460A2791FBF7F60A4653
:10388000A64607FB1615632A05F13005314604F1FB
:10389000FF340EF8015CF0DC3031AEF1020504F8C3
:1038A000011C2946441C61450AD30DF10902A2EB13
:1038B0000E02654588BF00221344181A03B0F0BDFC
:1038C00011F8012B04F8012FEDE73023303183701C
:1038D000C170031DF1E700002DE9F04F91B00C46D7
:1038E000DDF8688016461F46054601F041FB036877
:1038F00018460993FCF72CFC00230E93D8F80030EF
:103900000A90073323F0070303F1080294F8189094
:10391000D4F800B0C8F80020D3E90023C4E912238A
:10392000D4E9128A2AF000430B934FF0FF3240464D
:103930009C4B0B99FDF76AF870BB4FF0FF32404685
:10394000984B0B99FDF744F830BB0022002340460A
:103950005146FDF733F810B12D2384F84330924BD4
:103960009248B9F1470F94BF9846804603234FF021
:10397000000A23612BF004032360334621462846C6
:1039800000970FAA00F0D4F9013040F090804FF07A
:10399000FF3011B0BDE8F08F4246534640465146D5
:1039A000FDF734F848B1BAF1000FB8BF2D238048B5
:1039B000B8BF84F843307F4BD3E7636809F0DF0179
:1039C0005A1C42D106236360002206920EAACDE95A
:1039D00004920DAA4BF4806303920DF13302CDE9FA
:1039E00001322360636842460093284653460B9198
:1039F000FFF7D4FE0B99804647290D9908D1C81CC2
:103A000002DB6368994240DDA9F102095FFA89F996
:103A1000B9F1650F1FD84A46013904F150000D91E4
:103A2000FFF71BFF0E9A82461318012A236102DC5E
:103A30002268D20701D5013323619DF83330002B72
:103A40009BD02D2384F8433097E74729BCD1002B26
:103A5000BAD10123B7E7B9F1660F18D1002963681D
:103A60000BDD216113B92268D00702D501330B4465
:103A700023614FF0000AA165DFE713B92268D2077E
:103A800001D50233F4E70123F2E74FF067090E9BFB
:103A9000994205DB23682161D807EAD54B1CE7E78B
:103AA0000029CCBF0122C1F102021344E0E72368E0
:103AB0005A0507D42369424631462846B8470130A3
:103AC0002BD164E7B9F1650F40F2DD80D4E9120132
:103AD00000220023FCF768FF002833D00123314681
:103AE0002846354AB84701303FF451AFDDE90D2390
:103AF0009A4202DB2368D8070FD5DDE90923314656
:103B00002846B84701303FF442AF4FF0000804F1B7
:103B10001A090E9B013B434509DC23689B0700F112
:103B20000281E0680F9B9842B8BF184631E7012335
:103B30004A4631462846B84701303FF428AF08F1DD
:103B40000108E6E70D9B002B38DC012331462846AF
:103B5000194AB84701303FF41AAFDDE90D2313438A
:103B600002D12368D907D8D5DDE909233146284693
:103B7000B84701303FF40BAF4FF0000904F11A0AC7
:103B80000D9B5B424B4501DC0E9B94E701235246A3
:103B900031462846B84701303FF4F9AE09F1010932
:103BA000EEE700BFFFFFEF7F4C62000850620008A5
:103BB00058620008546200085C6200080E9AA36D07
:103BC0009A42A8BF1A46002A914637DC4FF0000BF4
:103BD00029EAE97904F11A02D4F858A0AAEB0903FA
:103BE0005B4533DCDDE90D239A423BDB2368DA07D2
:103BF00038D40E9B0D99A3EB0A02A3EB0109914562
:103C0000A8BF9146B9F1000F34DC4FF0000829EA53
:103C1000E97904F11A0ADDE90D239B1AA3EB0903E4
:103C200043457FF77AAF0123524631462846B847CD
:103C300001303FF4ACAE08F10108ECE71346314621
:103C400042462846B8470130C0D1A0E6012331469C
:103C500028460B92B84701303FF499AE0B9A0BF10E
:103C6000010BB9E73146DDE909232846B8470130A1
:103C7000BFD18CE64B463146284608EB0A02B847CE
:103C80000130C2D183E60E9A012A01DCDB0737D569
:103C90000123424631462846B84701303FF477AE0B
:103CA000DDE9092331462846B84701303FF46FAEBD
:103CB000D4E9120100220023FCF776FED8B90E9B4E
:103CC00008F10102013B31462846B84701300ED1C8
:103CD0005DE601234A4631462846B84701303FF4A5
:103CE00056AE08F101080E9B013B4345F1DC5346FB
:103CF00004F15002E0E64FF0000804F11A09F2E77F
:103D000001234246DFE701234A4631462846B847A9
:103D100001303FF43CAE08F10108E3680F995B1AEB
:103D20004345F0DCFDE64FF0000804F11909F4E723
:103D30002DE9F047164699468A680B690746934273
:103D4000B8BF1346336091F843200C46DDF820805D
:103D50000AB1013333602368990642BF33680233E6
:103D60003360256815F0060506D104F1190AE368E9
:103D700032689B1AAB4228DC94F84320131E226859
:103D800018BF012392062DD44946384604F1430258
:103D9000C047013020D02368E56803F00603042BF8
:103DA00018BF002532684FF00006A36808BFAD1A9F
:103DB000226908BF25EAE5759342C4BF9B1AED1836
:103DC0001A34B5421AD1002008E001235246494670
:103DD0003846C047013003D14FF0FF30BDE8F087CF
:103DE0000135C4E73020E11881F843005A1C94F8EB
:103DF00045102244023382F84310C5E701232246CE
:103E000049463846C0470130E6D00136D9E70000C0
:103E10002DE9FF470F7E9146782F80460C469A4643
:103E20000C9D01F1430207D8622F0AD8002F00F041
:103E3000D980582F00F0A48004F1420584F8427024
:103E40003AE0A7F16303152BF6D801A151F823F04E
:103E5000A93E0008BD3E0008393E0008393E000872
:103E6000393E0008393E0008BD3E0008393E0008D2
:103E7000393E0008393E0008393E0008CB3F0008B3
:103E8000ED3E0008AD3F0008393E0008393E00080D
:103E9000ED3F0008393E0008ED3E0008393E0008BD
:103EA000393E0008B53F00082B681A1D1B682A60C0
:103EB00004F1420584F842300123A4E02068296817
:103EC000060601F104030AD50E682B60002E03DA02
:103ED0002D23764284F843300A235E4819E00E68A9
:103EE00010F0400F2B6018BF36B2EFE72B68206848
:103EF000191D2960010601D51E6802E04606FBD5A2
:103F00001E886F2F0CBF08230A235248002184F813
:103F100043106568002DA8BF2168A560A4BF21F0EB
:103F2000040121600EB9002D4DD01546B6FBF3F10A
:103F300003FB1167C75D05F8017D3746BB420E469E
:103F4000F4D9082B0BD12368DE0708D523696168F3
:103F50009942DEBF302305F8013C05F1FF35521BC5
:103F600022614B4621464046CDF800A003AAFFF748
:103F7000DFFE01304CD14FF0FF3004B0BDE8F087D8
:103F8000344881F845702968236851F8046B29602A
:103F90001D0614D5DF0744BF43F0200323601EB97C
:103FA000236823F0200323601023AFE7236843F046
:103FB000200323607823284884F84530E3E7590636
:103FC00048BFB6B2E6E71546BBE72B682668181D62
:103FD0006169286035061B6801D5196002E070062A
:103FE000FBD51980002315462361BAE72B68002111
:103FF0001A1D2A601D686268284600F0C9FF08B1D2
:10400000401B606063682361002384F84330A8E7A5
:104010002A46494640462369D0470130ABD0236841
:104020009B0713D4E068039B9842B8BF1846A4E7E7
:104030000123324649464046D04701309BD00135E6
:10404000E36803995B1AAB42F2DCEBE7002504F16D
:104050001906F5E75E6200086F6200080FB40A4BAC
:1040600013B51C6824B1A36913B9204600F0E2FE21
:1040700005AB2046049AA168019301F031FC02B01F
:10408000BDE8104004B07047100000202DE9F74F44
:1040900003690C690746A342C0F28280013C00F12B
:1040A000140501F1140805EB8403019358F824303A
:1040B00055F8242001339A42B2FBF3F64FEA840B01
:1040C00008EB840931D34FF0000E4046AC46F2466F
:1040D00050F8042B93B206FB03E3120C4FEA134E85
:1040E0009BB206FB02E2AAEB0303DCF800A04FEA56
:1040F000124E1FFA8AFA5344DCF800A092B2C2EBC7
:104100001A4202EB23429BB243EA024381454FEA43
:10411000224A4CF8043BDBD255F80B302BB9019BFB
:10412000043B9D421A462FD33C61384601F0BCF94E
:10413000002825DB28464FF0000C013658F8041BF8
:10414000D0F800E08BB2ACEB03031FFA8EF21344FD
:104150000A0CC2EB1E4202EB23429BB243EA02432B
:10416000C1454FEA224C40F8043BE7D255F82420E1
:1041700005EB840322B9043B9D421A460AD33C61F5
:10418000304603B0BDE8F08F1268043B002ACBD163
:10419000013CC6E71268043B002AF0D1013CEBE782
:1041A0000020EEE7000000002DE9F04F16461F4604
:1041B000446A99B00546CDE90467DDF8948074B986
:1041C000102000F0DDFE0246686220B9EA21A84B0B
:1041D000A84801F0DBFDC0E901440460C4606B6ADB
:1041E000196851B15A68012393404A608B60284690
:1041F00000F01CFF00226B6A1A603B1EAFBF002359
:10420000012223F000430593A8BFC8F80030DDF871
:104210001490994BB8BFC8F8002033EA090319D1AC
:1042200042F20F73249A1360C9F31303334300F06F
:104230007F85269B53B9914B22E0914B0393083322
:10424000269A1360039819B0BDE8F08F8B4B039347
:104250000333F5E7DDE90434CDE90C34DDE90C0185
:1042600000220023FCF7A0FB804658B10123249ACA
:104270001360269B002B00F0588582481860431E6F
:104280000393DFE716AB019317AB00932846DDE9F4
:104290000C2301F0B1F9C9F30A548346002C7FD0F6
:1042A000DDE90C010D9BA4F2FF34C3F3130343F0CB
:1042B0007F5141F44011CDF84C800022724BFBF746
:1042C00053FF65A3D3E90023FCF706F964A3D3E900
:1042D0000023FBF74BFF064620460F46FCF792F8FB
:1042E00061A3D3E90023FCF7F7F802460B463046FA
:1042F0003946FBF73BFF06460F46FCF79DFB0022C5
:104300008246002330463946FCF758FB48B15046F8
:10431000FCF778F832463B46FCF746FB08B90AF151
:10432000FF3ABAF1160F58D8DDE90C01574B03EBF1
:10433000CA03D3E90023FCF741FB00284FD0002338
:104340000AF1FF3A0F93169B1C1B631E099349BF8A
:10435000C4F1010300230693002354BF069309937D
:10436000BAF1000F3DDB099BCDF838A05344099307
:1043700000230A93229B092B00F28C80052BC4BFDB
:10438000043B2293229BC8BF0024A3F10203D8BFA1
:104390000124032B00F28A80DFE803F02D4F4D5BF0
:1043A000DDE916431C4404F23243202BC3BFC3F1A2
:1043B000400304F2124009FA03F3C3F12003C6BF1D
:1043C00026FA00F0184306FA03F0FCF70BF8012375
:1043D000A1F1F871013C13936FE70123B2E70F904D
:1043E000B1E7069BA3EB0A030693CAF100030A9305
:1043F00000230E93BEE700230B93239B002B58DC76
:104400004FF001094B46CDF82090CDF88C9000225A
:10441000686A4260042202F114069E4241684ED945
:10442000284600F0C3FD039000284CD102464FF40B
:10443000D571174BCCE60123DEE700230B93239BBA
:104440000AEB030909F10103012B0893B8BF01230B
:10445000DDE70123F2E700BF61436F63A787D23F27
:10446000B3C8608B288AC63FFB799F501344D33F63
:104470008D620008A46200080000F07F89620008D5
:10448000806200085D6200080000F83F4064000898
:1044900022630008012400230B9422934FF0FF397C
:1044A00000221223CDF820902392B0E701230B9332
:1044B000F4E7DDF88C904B46CDF82090A7E701316A
:1044C00041605200A7E76B6A039A1A60089B0E2BA3
:1044D00000F2A880002C00F0A580BAF1000F34DDB6
:1044E0009A4A0AF00F0302EBC3031AF4807FD3E960
:1044F0000034CDE910344FEA2A1416D0DDE90C015E
:10450000934B0327D3E90823FCF710F9CDE9040105
:1045100004F00F048E4E54B9DDE91023DDE90401E7
:10452000FCF704F9CDE9040129E00227F2E7E107ED
:1045300008D5DDE91001D6E90023FBF7CDFFCDE971
:104540001001013764100836E5E700F0A580DDE9C9
:104550000C01CAF100047D4B04F00F0203EBC2030F
:10456000D3E90023FBF7B8FF02270023CDE90401BC
:10457000774E2411002C40F08480002BD2D10F9B69
:10458000002B00F08B80DDE90434CDE91034DDE947
:10459000100100226F4BFCF711FA00287ED0089B17
:1045A000002B7BD0B9F1000F38DDDDE910010022CE
:1045B000694BFBF791FF4C46CDE904010AF1FF3846
:1045C00001373846FBF71EFFDDE90423FBF784FFC4
:1045D0000022624BFBF7CAFDA1F15076CDE9100134
:1045E0001196002C5DD1DDE9040100225C4BFBF744
:1045F000BBFD02460B46CDE904233346109AFCF777
:10460000FBF9002840F09C82DDE90401109A06F1D4
:104610000043FCF7D3F9002840F09082DDE90C3428
:10462000CDE90434179B002BC0F25281BAF10E0F72
:1046300000F34E81454B03EBCA03D3E90034CDE9C7
:104640000634239B002B80F2DB80089B002B00F3B9
:10465000D78040F07282DDE906010022404BFBF773
:104660003BFFDDE90423FCF7BDF9089C2646002842
:1046700040F048823123039F0AF1010A07F8013B09
:1046800044E2E20705D5D6E90023FBF725FF012325
:104690000137641008366DE7022770E7D046089CA2
:1046A0008FE70399294B214412910B9903EBC40323
:1046B000DDE9106753E90223002955D0002029497C
:1046C000FCF734F83B463246FBF74EFDCDE91001CE
:1046D000039FDDE90401FCF7AFF90446FBF792FE06
:1046E00002460B46DDE90401FBF73EFD02460B46A0
:1046F0003034CDE90423DDE9102307F8014BFCF742
:104700005DF9002874D1DDE9042300201149FBF78D
:104710002BFDDDE91023FCF751F9002840F0B780AC
:10472000129B9F423FF47AAFDDE9100100220A4B51
:10473000FBF7D2FE0022CDE91001DDE90401064BB2
:10474000FBF7CAFECDE90401C3E700BF40640008DF
:10475000186400080000F03F0000244000001C40E6
:10476000000014400000E03F30463946FBF7B4FE3D
:10477000129BCDE91001039C1493DDE90401FCF7C1
:104780005BF91590FBF73EFE02460B46DDE904019E
:10479000FBF7EAFC159B0646303304F8013B129BFD
:1047A0000F469C424FF0000224D1DDE91001B04BCE
:1047B000FBF7DCFC02460B4630463946FCF71CF999
:1047C000002863D1DDE910230020A949FBF7CCFCC8
:1047D00002460B4630463946FCF7F0F800283FF415
:1047E0001DAF149F7B1E149317F8013C302BF8D09B
:1047F000C2463BE09F4BFBF76FFECDE90401BCE7EF
:10480000039FDDE90489DDE9062340464946FBF7BD
:104810008DFFFCF711F90446FBF7F4FDDDE90623F3
:10482000FBF75AFE02460B4640464946FBF79CFC06
:1048300004F1300607F8016B039EDDF820C0BE1BB3
:10484000B44502460B4636D1FBF790FCDDE9062362
:1048500080468946FCF7D0F858BBDDE90623404680
:104860004946FCF7A1F808B1E10722D42846594689
:1048700000F0DCFB00233B70249B0AF10100186070
:10488000269B002B3FF4DEAC1F60DBE427463B4653
:104890001F4613F8012D392A07D1039A9A42F7D1FE
:1048A0003022039908F101080A701A7801321A704F
:1048B0009EE7D046EBE700226E4BFBF70DFE002291
:1048C000002380468946FCF76FF800289BD0CDE78F
:1048D0000B9A002A00F0D080229A012A00F3AE80C1
:1048E000139A002A00F0A68003F233430A9C069F25
:1048F000069A01211A440692099A28461A440992F6
:1049000000F04AFC0646002F0CDD099B002B09DD58
:10491000BB42A8BF3B46069AFF1AD21A0692099AD2
:10492000D31A09930A9BF3B10B9B002B00F0A880CC
:10493000002C10DD31462246284600F0EBFC5A469A
:1049400001460646284600F03DFC8046594628466A
:1049500000F06CFBC3460A9B1A1B04D0594628463C
:1049600000F0D8FC83460121284600F015FC0E9B80
:104970000446002B40F386801A460146284600F084
:10498000C9FC229B0446012B7FDD4FF00008236900
:1049900004EB8303186900F0B1FBC0F12000099B10
:1049A000184410F01F0000F09280C0F12003042B87
:1049B00040F38A80C0F11C00069B07440344069321
:1049C000099B03440993069B002B05DD59461A46B3
:1049D000284600F0F9FC8346099B002B05DD2146A3
:1049E0001A46284600F0F0FC04460F9B002B70D0BE
:1049F0002146584600F058FD00286ADA002359463F
:104A00000A22284600F034FB0B9B83460AF1FF3A4A
:104A1000002B00F09481314600230A22284600F042
:104A200027FBB9F1000F064600F39380229B022B6F
:104A300057DC8EE0169BC3F1360357E7089B5C1EDC
:104A40000A9BA342B7BF0A9B1C1BE21A0E9BBEBF68
:104A50000A949B180E93089BB8BF0024002BBBBF81
:104A6000069B089A069F9F1AACBF089B00233FE74E
:104A70000000E03F000024400A9C069F0B9E42E796
:104A80000A9A6BE7229B012B19DC049BBBB9059B9F
:104A9000C3F313039BB9059B23F000431B0D1B05B8
:104AA00083B14FF00108069B01330693099B013344
:104AB00009930E9B002B7FF46AAF01206FE74FF044
:104AC0000008F6E79846F4E73FF47DAF18461C303F
:104AD00072E7089B002B36DC229B022B33DDDDF8CE
:104AE0002090B9F1000F0DD121464B4605222846F2
:104AF00000F0BEFA01460446584600F0D5FC0028F6
:104B00003FF7B8AD239B039F6FEA030A4FF00008FD
:104B10002146284600F08AFA002E3FF4A7AEB8F1ED
:104B2000000F05D0B04503D04146284600F07EFA7C
:104B30003146284600F07AFA98E600242646E1E756
:104B4000C246264696E50B9BDDF82090002B00F030
:104B5000FD80002F05DD31463A46284600F034FC42
:104B60000646B8F1000F5CD02846716800F01EFAC6
:104B7000074628B9024640F2EA217F4BFFF728BBDF
:104B8000326906F10C01023292000C30FEF7F0FDA2
:104B900001223946284600F017FCB0460646039B22
:104BA00001330893039B4B440A93049B03F00103D6
:104BB0000993089B2146013B58460493FFF766FA88
:104BC000034641463033069058460B9300F06CFC88
:104BD000324681462146284600F082FCC2680746DC
:104BE0000B9B02BB0146584600F05EFC02460B9B45
:104BF00039462846CDE90B3200F018FA229B0C9A70
:104C0000089F43EA0201099B0B430B9B0DD1392BF3
:104C100029D0B9F1000F01DD069B3133049A1370DE
:104C200076E73046B9E70122E2E7B9F1000F06DB8B
:104C3000229941EA0909099959EA010120D1002A7A
:104C4000ECDD594601222846089300F0BDFB2146C1
:104C5000834600F029FC0028089B02DCDED1DA073D
:104C6000DCD5392BD8D13923049A13703B461F4623
:104C700017F8012C013B392A50D001321A7047E74E
:104C8000002A03DD392BEED00133C7E7089A0A99D1
:104C900002F8013C8A422AD0594600230A222846BB
:104CA00000F0E6F9B04583464FF000034FF00A02EA
:104CB0004146284607D100F0DBF980460646089BAE
:104CC0000133089375E700F0D3F93146804600239D
:104CD0000A22284600F0CCF90646F0E7B9F1000FA9
:104CE000CCBF4F4601274FF00008039A174459469E
:104CF00001222846089300F067FB2146834600F016
:104D0000D3FB0028B2DC02D1089BDB07AED43B46C4
:104D10001F4613F8012D302AFAD0F9E6039A9A4279
:104D2000A5D131230AF1010A79E7144BFFF7A8BA9C
:104D3000269B002B7FF481AA114BFFF7A1BAB9F192
:104D4000000F03DC229B022B3FF7CBAE039F2146D3
:104D50005846FFF79BF9039A00F1300307F8013B2F
:104D6000BA1A9145BADD594600230A22284600F0B6
:104D70007FF98346EBE700BF226300085C6200080E
:104D800080620008002310B50446C0E90033C0E982
:104D90000433836081814366C2818361194608229E
:104DA0005C30FEF7F3FC054B24626362044BA362A4
:104DB000044BE362044B236310BD00BF615B00083A
:104DC000835B0008BB5B0008DF5B0008014900F063
:104DD000AFB800BFED5E0008682270B54D1E5543A8
:104DE0000E4605F1740100F0DFFC044640B10021DD
:104DF000C0E900160C30A06005F16802FEF7C6FCA1
:104E0000204670BD014800F0B8B800BF69260020F8
:104E1000014800F0B3B800BF69260020014800F047
:104E2000ACB800BF6A260020014800F0A7B800BF58
:104E30006A26002010B50446FFF7F0FFA3691BB1F6
:104E4000BDE81040FFF7F0BFC4E912332365134BF0
:104E5000134A1B68A262A34208BF0123204608BF71
:104E6000A36100F01FF86060204600F01BF8A0600E
:104E7000204600F017F800220421E0606068FFF788
:104E800081FF01220921A068FFF77CFF0222122185
:104E9000E068FFF777FF0123A361D1E748620008CC
:104EA000CD4D0008F8B50746FFF7ACFF1E4B1E6856
:104EB000B36913B93046FFF7BDFF4836D6E9013470
:104EC000013B03D533680BB33668F7E7B4F90C50F0
:104ED000D5B9164B04F15800E360656600F04CF854
:104EE000FFF796FF08222946C4E90155C4E9045595
:104EF0002560A56104F15C00FEF748FCC4E90D558E
:104F0000C4E912552046F8BD6834D9E70421384673
:104F1000FFF762FF044630600028D5D1FFF778FF25
:104F20000C233B60EEE700BF486200080100FFFF72
:104F30002DE9F84306468846002700F14804D4E9E5
:104F40000195B9F1010905D52468002CF7D138463F
:104F5000BDE8F883AB89012B07D9B5F90E300133D1
:104F600003D029463046C04707436835E9E70000CB
:104F70000048704764010020704770477047000088
:104F8000024B0146186800F00FBC00BF1000002063
:104F9000034610B5C9B202449342184601D100201D
:104FA00003E0047801338C42F6D110BD70B5466A37
:104FB00004460D4676B91020FFF7E2FF0246606214
:104FC00020B96621174B184800F0E0FEC0E90166E1
:104FD0000660C660666AF36883B1636ADB6853F88B
:104FE0002500B8B9012101FA05F6721D204692008C
:104FF00000F05EFB60B1C0E901560EE02122042101
:10500000204600F055FB636AF060DB68002BE4D1BA
:10501000002070BD026843F825200023C0E9033357
:10502000F7E700BF8D6200089463000870B5466A18
:1050300005460C4676B91020FFF7A2FF02466862CB
:1050400020B98A21084B094800F0A0FEC0E901669A
:105050000660C6603CB16B6A6268DB6853F8221078
:10506000216043F8224070BD8D62000894630008FF
:105070002DE9F04107460C461E4600200D6901F15E
:10508000140CDCF80030013099B202FB01611E0CF7
:105090000B0C02FB063389B201EB034185424FEA58
:1050A00013464CF8041BECDC0EB3A368AB4219DCCE
:1050B000616838460131FFF779FF804628B902461A
:1050C000B5210C4B0C4800F061FE226904F10C0183
:1050D000023292000C30FEF74BFB21463846FFF7B8
:1050E000A5FF444604EB850301355E61256120463A
:1050F000BDE8F0812263000894630008020C1204EA
:105100000346CAB90304102013F07F4F04BF1B02EB
:10511000083013F0704F04BF1B01043013F0404FF0
:1051200004BF9B000230002B05DB13F0804F00F121
:10513000010008BF202070470020E5E70368024611
:1051400013F007000BD0D90721D4980749BF5B089B
:105150009B08012013605CBF02201360704799B266
:1051600009B910201B0CD9B209B908301B0A19075C
:1051700004BF1B090430990704BF9B080230D907FC
:1051800003D45B0800F1010003D0136070470020D6
:10519000704720207047000010B50C460121FFF732
:1051A00005FF024628B94FF4A071044B044800F0F3
:1051B000EDFD01234461036110BD00BF22630008BF
:1051C000946300082DE9F04F91460A69D9F8103030
:1051D0000C469A42BEBF0B464C4699462769D9F801
:1051E00010A0A368616807EB0A06B34285B0B8BF98
:1051F0000131FFF7DBFE30B9024640F25D11434B4F
:10520000434800F0C3FD00F114052B46002205EBD6
:105210008608434521D304F1140303EB870709F102
:10522000140303EB8A0202923A1B153A22F003029E
:10523000043204F115018F4238BF04220192029A10
:1052400003939A420CD8002E03DD58F8043D002B3E
:1052500059D0066105B0BDE8F08F43F8042BD8E7BC
:10526000B3F800A0BAF1000F23D0A9464FF0000C0C
:1052700004F1140E5EF8042BD9F800101FFA82FB1B
:1052800089B20AFB0B116144D9F800C0120C4FEA35
:105290001C4C0AFB02C202EB114289B241EA0241F4
:1052A00077454FEA124C49F8041BE3D8019A45F8B8
:1052B00002C0039A0433B2F80290B9F1000F20D073
:1052C000AE464FF0000A296804F1140CBCF800B097
:1052D000BEF8022089B209FB0B22924441EA0A413E
:1052E0004EF8041B5CF8042BBEF80010120C09FBEE
:1052F0000211674501EB1A414FEA114AE6D8019ABB
:10530000A95004359BE7013E9DE700BF22630008DA
:10531000946300082DE9F843154612F0030206468F
:105320000F4607D0254C013A002354F82220FFF7FE
:105330009FFE0746AD103DD0746A7CB91020FFF780
:105340001FFE0246706228B94FF4D7711C4B1D48EE
:1053500000F01CFDC0E901440460C460D6F824805C
:10536000D8F808404CB940F271213046FFF714FFDD
:1053700000230446C8F8080003604FF00009EB075B
:105380000AD5394622463046FFF71CFF804639468B
:105390003046FFF74BFE47466D100BD0206838B9FA
:1053A000224621463046FFF70DFF2060C0F80090EE
:1053B0000446E4E73846BDE8F88300BF0865000806
:1053C0008D620008946300082DE9F0470C460746FB
:1053D00091462369496803EB6218A3684FEA621A91
:1053E00008F10106B3420BDB3846FFF7DFFD054647
:1053F00048B9024640F2D911294B2A4800F0C6FCB0
:1054000001315B00EEE7002300F1140100F110020E
:105410001846534537DB20692AEAEA7A04F1140377
:1054200019F01F0901EB8A0103EB80002FD08A4697
:105430004FF0000CC9F1200E1A6802FA09F242EA94
:105440000C024AF8042B53F8042B984222FA0EFC63
:10545000F2D8031B153B23F00303043304F11502B8
:10546000904238BF042341F803C0BCF1000F01D0C3
:1054700008F10206013E384621462E61FFF7D6FDAF
:105480002846BDE8F08742F8040F0133C1E704392C
:1054900053F8042B984241F8042FF9D8EAE700BFEB
:1054A000226300089463000803460A69006930B566
:1054B000801A0DD11433143103EB820401EB820105
:1054C00054F8045D51F8042D954202D004D3012014
:1054D00030BDA342F4D3FBE74FF0FF30F8E7000004
:1054E0002DE9F84F0D460746114628461446FFF7AA
:1054F000DBFF061E11D131463846FFF757FD024645
:1055000028B940F232213A4B3A4800F03FFC0123DF
:10551000C0E904361046BDE8F88FA4BF23462C46E8
:1055200038466168A6BF1D4600260126FFF73EFDEE
:10553000024618B94FF410712D4BE5E702F114083B
:10554000C2464FF0000C2769C6602E6904F11400B2
:1055500005F1140900EB870E09EB8606103454F8A8
:1055600004BF59F8043B1FFA8BF18C4499B21B0C11
:10557000ACEB0101C3EB1B4303EB214389B24FEAC0
:10558000234C4E4541EA03434AF8043BE7D8731BDA
:10559000153B23F0030315350433AE4238BF042313
:1055A000184443441E46054675450ED30EF10301CB
:1055B000091A21F003010338864538BF0021194438
:1055C00051F8043D8BB11761A4E755F8048B1FFA1D
:1055D00088F161440C1404EB184489B241EA044197
:1055E0004FEA244C46F8041BDEE7013FE8E700BF22
:1055F00022630008946300082DE9F3410121DDE9ED
:10560000087690461D46FFF7D1FC044630B90246A5
:1056100040F20A31244B254800F0B8FBC5F31303D0
:10562000C5F30A552DBB0193B8F1000326D0684697
:105630000093FFF783FD0099F0B1019AC0F12003B8
:1056400002FA03F30B43C24063610192019B002BFA
:1056500014BF02210121A3612161C5B1A5F2334527
:105660000544C0F135003D603060204602B0BDE821
:10567000F08143F48013D6E76161E7E701A8FFF703
:105680005DFD0121019B216163612030E5E704EBB1
:105690008103A0F2324038601869FFF72FFDC0EB9C
:1056A00041113160E1E700BF226300089463000804
:1056B00070B5A1FB025434B9294600F075F80646CE
:1056C00028B9304670BD0C2200260260F9E72A4650
:1056D0002146FEF75BF8F4E738B50546002940D0CF
:1056E00051F8043C0C1F002BB8BFE41800F0D6FCA6
:1056F0001C4A136833B9636014602846BDE838401B
:1057000000F0D2BCA34208D9206821188B4201BF07
:1057100019685B6809182160EDE71A465B680BB1F0
:10572000A342FAD911685018A0420BD12068014455
:10573000501883421160E0D118685B680144116021
:105740005360DAE702D90C232B60D6E720682118D2
:105750008B4201BF19685B6809182160636054605F
:10576000CBE738BD6C26002070B50E4E0C46316874
:10577000054611B900F0E4F930602146284600F0F2
:10578000DFF9431C0AD0C41C24F00304A04207D054
:10579000211A284600F0D4F9013001D14FF0FF342E
:1057A000204670BD702600202DE9F041CD1C25F06B
:1057B000030508350C2D38BF0C25002D074601DBED
:1057C000A94205D90C2300263B603046BDE8F08194
:1057D0002E4E00F063FC33681C4634BB2946384625
:1057E000FFF7C2FF431C04464DD134682646002E05
:1057F00040D123683146384604EB030800F0A0F995
:1058000080453AD1216803356D1A25F00305083526
:105810000C2D38BF0C2538462946FFF7A5FF01306F
:105820002BD023682B4423600EE02268521B1ED429
:105830000B2A16D96119A342256018BF5960636805
:1058400008BF316062514B60384604F10B0600F02E
:105850002BFC26F00706231DF21AB6D09B1BA35083
:10586000B3E76268A3420CBF32605A60ECE723469C
:105870006468B2E734467668B9E70C2338463B6083
:1058800000F012FCA1E72560DEE700BF6C260020D7
:10589000936810B4013B002B936007DA9469A3422C
:1058A00001DB0A2902D110BC00F09EB91368581C14
:1058B00010601970084610BC7047F8B506460F46D0
:1058C0001446D518AC4201D1002007E03A463046D4
:1058D00014F8011BFFF7DCFF431CF3D1F8BD0000F7
:1058E0002DE9F04F0D461446984606469DB018B176
:1058F00083690BB9FFF79EFA894B9D421BD17568EE
:105900006B6ED90705D4AB899A0502D4A86DFFF751
:1059100034FBAB891B0701D52B69EBB9294630460F
:1059200000F0C6F9C0B16B6EDC070ED54FF0FF304A
:105930001DB0BDE8F08F7B4B9D4201D1B568DFE71C
:10594000794B9D4208BFF568DAE7AB899805EDD43D
:10595000A86DFFF713FBE9E70023099320238DF8D7
:10596000293030234FF00109CDF80C80DFF8BC81DD
:105970008DF82A3023469A4613F8012B0AB1252ABE
:10598000F9D1BAEB040B0BD05B46224629463046D0
:10599000FFF793FF013000F0AA80099A5A44099258
:1059A0009AF80030002B00F0A28000234FF0FF3265
:1059B000CDE905230AF1010A049307938DF85330CA
:1059C0001A935446052214F8011B5848FFF7E0FAD1
:1059D000049AD8B9D10644BF20238DF85330130759
:1059E00044BF2B238DF853309AF800302A2B15D062
:1059F000544600204FF00A0C079A214611F8013B4B
:105A0000303B092B4ED9B0B1079214E0A0EB08034C
:105A100009FA03F31343A2460493D2E7039B191D2B
:105A20001B680391002BBBBF5B4242F0020207934D
:105A30000793B8BF049223782E2B0CD163782A2BBE
:105A400035D1039B02341A1D1B680392002BB8BF8B
:105A50004FF0FF330593DFF8D8A00322504621789A
:105A6000FFF796FA40B14023A0EB0A0003FA00F0DA
:105A7000049B01340343049314F8011B06222D48B0
:105A80008DF82810FFF784FA00283FD02A4B1BBB63
:105A9000039B073323F0070308330393099B3B441D
:105AA000099367E70C4601200CFB0232A5E70023AF
:105AB0004FF00A0C194601340593204610F8012BCB
:105AC000303A092A03D9002BC5D00591C3E7044613
:105AD00001230CFB0121F0E703AB00932A4630467B
