:020000040800F2
:1000000000500020355C0008AD030008AF03000875
:10001000B1030008B3030008B503000800000000A6
:10002000000000000000000000000000712D00082A
:10003000B703000800000000112E0008552E00082C
:100040007D5C00087D5C00087D5C00087D5C00082C
:100050007D5C00087D5C00087D5C00087D5C00081C
:100060007D5C00087D5C00087D5C00087D5C00080C
:100070007D5C00087D5C00087D5C00087D5C0008FC
:100080007D5C00087D5C00087D5C00087D5C0008EC
:100090007D5C00087D5C00087D5C00087D5C0008DC
:1000A0007D5C00087D5C00087D5C00087D5C0008CC
:1000B000B90300087D5C00087D5C00087D5C0008D9
:1000C0007D5C00087D5C00087D5C00087D5C0008AC
:1000D0007D5C00087D5C00087D5C00087D5C00089C
:1000E0007D5C00087D5C00087D5C0008000000006D
:1000F0000000000000000000000000000000000000
:0C01000000000000000000005FF808F1A3
:1001100010B5054C237833B9044B13B10448AFF341
:1001200000800123237010BD8C000020000000001F
:10013000B070000808B5034B1BB103490348AFF387
:10014000008008BD0000000090000020B070000892
:10015000034613F8012B002AFBD1181A0138704707
:10016000084B1B7823B1074A1378013BDBB21370AD
:10017000054B1B7823B1044A1378013BDBB21370A3
:10018000704700BFA9000020AA00002008B503683E
:10019000B3F1804F09D0094A13780133DBB21370F1
:1001A0001378DBB2092B03D808BD00F09DFAF2E703
:1001B000134600221A70FFF7D3FFF5E7A8000020CE
:1001C00072B6FEE700B591B02822002106A805F01E
:1001D0008FFD00230193029303930493059301225F
:1001E00006924FF4803307930A9202220D920E93E7
:1001F0004FF4E0130F9306A800F09EFA80B90F2386
:10020000019302210291002303934FF48062049230
:10021000059301A800F0C2FC20B911B05DF804FB01
:10022000FFF7CEFFFFF7CCFF08B500F04BFAFFF762
:10023000C9FF00F017F800F063F802F0C3FE03F006
:100240009FFA00F0DFFF02F05FFBFEE710B51446F7
:100250004FF0FF3392B2024800F0CDF9204610BDB6
:10026000AC000020F0B589B00024049405940694F5
:100270000794204B9A6942F010029A619A6902F041
:1002800010020192019A9A6942F020029A619A69D9
:1002900002F020020292029A9A6942F004029A61E4
:1002A0009B6903F004030393039B134F22464FF40F
:1002B0000051384600F07EFE104E012210213046DB
:1002C00000F078FE4FF40053049301250595069441
:1002D0000223079304A9384600F05AFD1023049323
:1002E0000595069407950DEB0301304600F050FD8F
:1002F00009B0F0BD001002400010014000080140AC
:1003000008B50A480A4B03604FF4E1334360002309
:100310008360C36003610C2242618361C36100F0AA
:100320003AF900B908BDFFF74BFFFBE7AC0000202E
:100330000038014010B586B0002302930393049364
:1003400005930268174B9A4201D006B010BD03F521
:1003500058439A6942F480429A619A6902F4804251
:100360000092009A9A6942F004029A619B6903F034
:1003700004030193019B4FF4007302930223039340
:1003800003230593084C02A9204600F001FD4FF419
:100390008063029300230393049302A9204600F094
:1003A000F7FCD2E70038014000080140FEE7FEE715
:1003B000FEE7FEE7FEE7704708B5024800F0C4FF1D
:1003C00008BD00BF5403002000B583B0114B9A69EB
:1003D00042F001029A619A6902F001020092009AC9
:1003E000DA6942F08052DA61DB6903F080530193ED
:1003F000019B00220F216FF0010000F0FDFD064A75
:10040000536823F0E06343F08063536003B05DF80A
:1004100004FB00BF0010024000000140026802F12E
:100420000C0353E8003F23F490730C3242E8003190
:100430000029F3D1026802F1140353E8003F23F0CE
:100440000103143242E800310029F3D1036B012B80
:1004500005D0202380F842300023036370470268F0
:1004600002F10C0353E8003F23F010030C3242E882
:1004700000310029F3D1ECE710B504460268136996
:1004800023F44053C1680B4313618368026913432B
:1004900042691A430168CB6823F4B05323F00C037C
:1004A0001343CB600268536923F4407381690B43A3
:1004B00053610268134B9A4220D000F02BFC024695
:1004C00002EB820202EB820263689B00B2FBF3F252
:1004D0000D48A0FB02314909642303FB11231B01D2
:1004E0003233A0FB03235B0903F0F00202EB01129D
:1004F00003F00F03216813448B6010BD00F01AFC59
:100500000246DDE7003801401F85EB512DE9F0433D
:1005100083B005460E4617469946DDF828802C68BC
:10052000246836EA04030CBF4FF0010C4FF0000CB6
:10053000BC4528D1B8F1FF3FF1D000F0E1F8A0EBC5
:100540000900404523D8B8F1000F22D02B68DA68A3
:1005500012F0040FE3D0802EE1D0402EDFD01A68D5
:1005600012F0080FDBD0002401941A6801925B6836
:100570000193019B2846FFF751FF08236B6485F820
:100580004040012000E0002003B0BDE8F0830320DC
:10059000FAE70320F8E760B310B5044690F841305D
:1005A00013B3242384F841302268D36823F4005322
:1005B000D3602046FFF760FF2268136923F490435D
:1005C00013612268536923F02A0353612268D368B8
:1005D00043F40053D36000206064202384F841304A
:1005E00084F84230606310BD80F84030FFF7A2FE0F
:1005F000D7E7012070472DE9F04182B01E4690F800
:100600004130DBB2202B56D104460D4690460029DE
:1006100055D00AB901204FE000234364212380F81C
:10062000413000F06DF80746A4F82480A4F8268035
:10063000A368B3F5805F02D04FF0000814E023698F
:100640002BB34FF000080FE0202384F84130032043
:1006500032E038F8023B2268C3F308035360E28CAF
:1006600092B2013A92B2E284E38C9BB293B10096CB
:100670003B46002280212046FFF748FF0028E3D1B7
:10068000002DE6D015F8012B23685A60E7E7A8464D
:100690000025E9E700963B46002240212046FFF76F
:1006A00035FF18B9202384F8413005E0202384F871
:1006B0004130032000E0022002B0BDE8F0810120BB
:1006C000FAE7000008B5074A136843F01003136007
:1006D000032000F07FFC0F2000F0ACFDFFF774FE5C
:1006E000002008BD00200240034A1168034B1B781C
:1006F0000B441360704700BFF4000020000000208E
:10070000014B1868704700BFF400002082B0084B0E
:100710001B68084AA2FB03235B0A00FB03F3019357
:1007200000BF019B5A1E0192002BF9D102B0704705
:1007300008000020D34D6210002800F0F18170B550
:1007400082B00446036813F0010F2CD0994B5B680C
:1007500003F00C03042B1DD0964B5B6803F00C03D5
:10076000082B12D06368B3F5803F41D0002B55D1E0
:1007700003F1804303F504331A6822F480321A60CF
:100780001A6822F480221A6037E08A4B5B6813F4FF
:10079000803FE7D0874B1B6813F4003F03D06368AA
:1007A000002B00F0BF81236813F0020F75D0814B3E
:1007B0005B6813F00C0F5FD07E4B5B6803F00C039B
:1007C000082B54D02369002B00F08A807A4B012239
:1007D0001A60FFF795FF0546764B1B6813F0020F72
:1007E00075D1FFF78DFF401B0228F5D903209EE14C
:1007F000704A136843F480331360636843B3FFF7B0
:100800007FFF05466B4B1B6813F4003FCBD1FFF70E
:1008100077FF401B6428F5D9032088E1B3F5A02FAA
:1008200009D0644B1A6822F480321A601A6822F4E4
:1008300080221A60E1E703F18043A3F53C331A6894
:1008400042F480221A601A6842F480321A60D4E7B7
:10085000FFF756FF0546574B1B6813F4003FA2D025
:10086000FFF74EFF401B6428F5D903205FE1514B91
:100870005B6813F4803FA5D14E4B1B6813F0020F49
:1008800003D02369012B40F04F814A4A136823F0BB
:10089000F803616943EAC1031360236813F0080F8A
:1008A00033D0A369002B5CD0434B0122C3F88024D2
:1008B000FFF726FF05463F4B5B6A13F0020F21D17D
:1008C000FFF71EFF401B0228F5D903202FE1394A0C
:1008D000136823F0F803616943EAC1031360DCE79E
:1008E000354B00221A60FFF70BFF0546314B1B68A2
:1008F00013F0020FD1D0FFF703FF401B0228F5D9F8
:10090000032014E10120FFF701FF236813F0040F17
:1009100000F09680274BDB6913F0805F34D1254BC4
:10092000DA6942F08052DA61DB6903F080530193A7
:10093000019B0125214B1B6813F4807F26D0E368BF
:10094000012B3DD0002B53D103F1804303F5043339
:100950001A6A22F001021A621A6A22F004021A626A
:1009600033E0154B0022C3F88024FFF7C9FE05468B
:10097000104B5B6A13F0020FC7D0FFF7C1FE401B9C
:100980000228F5D90320D2E00025D3E70B4A1368EB
:1009900043F480731360FFF7B3FE0646074B1B68F2
:1009A00013F4807FCBD1FFF7ABFE801B6428F5D911
:1009B0000320BCE0001002400000424200700040F2
:1009C0005F4A136A43F001031362E36833B3FFF72E
:1009D00097FE06465A4B1B6A13F0020F2FD1FFF702
:1009E0008FFE801B41F288339842F3D903209EE0AA
:1009F000052B09D0524B1A6A22F001021A621A6AB8
:100A000022F004021A62E0E74D4B1A6A42F0040237
:100A10001A621A6A42F001021A62D6E7FFF770FE04
:100A20000646474B1B6A13F0020F08D0FFF768FE1B
:100A3000801B41F288339842F3D9032077E0E5B96F
:100A4000E369002B72D03E4A526802F00C02082A79
:100A500056D0022B17D03B4B00221A66FFF750FEF0
:100A60000446374B1B6813F0007F47D0FFF748FE62
:100A7000001B0228F5D9032059E0314AD36923F03D
:100A80008053D361DCE72F4B00221A66FFF738FE54
:100A900005462B4B1B6813F0007F06D0FFF730FE96
:100AA000401B0228F5D9032041E0236AB3F5803FBB
:100AB0001AD023494B6823F47413226A606A0243F4
:100AC00013434B601F4B01221A66FFF719FE0446C1
:100AD0001B4B1B6813F0007F0ED1FFF711FE001BAC
:100AE0000228F5D9032022E0154A536823F4003385
:100AF000A1680B435360DCE7002018E0002016E0FB
:100B0000012B16D00E4B5B6803F48031226A9142B0
:100B100011D103F47013626A93420ED1002006E0F3
:100B200001207047012002E0012000E0002002B017
:100B300070BD0120FBE70120F9E70120F7E700BFC6
:100B400000100240000042420F4B5B6803F00C02B1
:100B5000082A01D00D487047C3F383420C49885CD2
:100B600013F4803F0BD0084B5B68C3F34043094A42
:100B7000D35C064A02FB00F0B0FBF3F07047064B73
:100B800003FB00F0704700BF0010024000127A0023
:100B9000E4700008F470000800093D00002800F02F
:100BA000A08070B50D460446524B1B6803F0070346
:100BB0008B420BD24F4A136823F007030B43136099
:100BC000136803F007038B4240F08D80236813F015
:100BD000020F17D013F0040F04D0474A536843F4B0
:100BE000E0635360236813F0080F04D0424A53684F
:100BF00043F460535360404A536823F0F003A16804
:100C00000B435360236813F0010F31D06368012B4D
:100C100020D0022B25D0384A126812F0020F64D07F
:100C200035494A6822F0030213434B60FFF768FD21
:100C30000646314B5B6803F00C036268B3EB820F2E
:100C400016D0FFF75DFD801B41F288339842F0D942
:100C5000032045E0284A126812F4003FE0D1012049
:100C60003EE0254A126812F0007FD9D1012037E01A
:100C7000204B1B6803F00703AB420AD91D4A1368D7
:100C800023F007032B431360136803F00703AB4201
:100C90002DD1236813F0040F06D0174A536823F4AC
:100CA000E063E1680B435360236813F0080F07D03B
:100CB000114A536823F46053216943EAC103536026
:100CC000FFF742FF0C4B5B68C3F303130B4AD35C83
:100CD000D8400B4B18600B4B186800F0ABFA0020A3
:100CE00070BD012070470120FAE70120F8E70120DC
:100CF000F6E700BF0020024000100240F870000834
:100D00000800002004000020014B1868704700BF55
:100D10000800002008B5FFF7F7FF044B5B68C3F33A
:100D20000223034AD35CD84008BD00BF0010024034
:100D30000871000808B5FFF7E7FF044B5B68C3F3D1
:100D4000C223034AD35CD84008BD00BF0010024054
:100D5000087100080F2303600B4B5A6802F003026E
:100D600042605A6802F0F00282605A6802F4E0625F
:100D7000C2605B68DB0803F4E0630361034B1B683C
:100D800003F007030B607047001002400020024090
:100D900070B582B00024A446A6E0804DAA4210D0CF
:100DA00007D97F4DAA420CD005F58035AA4208D05C
:100DB00013E0A5F58015AA4203D005F57025AA42D7
:100DC00007D18A68002A58D0012A51D043610824EB
:100DD00003E0A5F58015AA42F3D0BEF1FF0F4ED86F
:100DE0000646BEF1FF0F4CD84FEA8C0233680F2540
:100DF000954023EA050304FA02F2134333604B687B
:100E000013F0805F6ED0674B9A6942F001029A61DD
:100E10009B6903F001030193019B4FEA9C02951C1F
:100E2000614B53F825600CF003039D000F23AB408A
:100E300026EA03065D4B984229D003F58063984269
:100E400000F08E8003F58063984200F08B8003F5FC
:100E50008063984219D004231AE0CC68BDE7CC68BF
:100E60000434BAE7CC680834B7E7CC680C34B4E78C
:100E700003610824B1E70024AFE70424ADE7061DB1
:100E8000AFE7ACF108029200B0E7032300E00023D3
:100E9000AB4033430232444D45F822304B6813F4E3
:100EA000801F61D0424A936843EA0E0393604B6807
:100EB00013F4001F5ED03E4AD36843EA0E03D360AA
:100EC0004B6813F4003F5BD0394A536843EA0E0382
:100ED00053604B6813F4803F58D0354A136843EA97
:100EE0000E0313600CF1010C0A6832FA0CF353D0B4
:100EF000012303FA0CF302EA030E33EA0202F1D1F2
:100F00004A68122A3FF649AF122A3FF666AF01A59A
:100F100055F822F0C30D00085B0E0008650E0008AE
:100F2000770E0008DB0D0008DB0D0008DB0D000864
:100F3000DB0D0008DB0D0008DB0D0008DB0D0008F1
:100F4000DB0D0008DB0D0008DB0D0008DB0D0008E1
:100F5000DB0D0008DB0D00085F0E00086B0E0008BB
:100F6000012395E7022393E7114A936823EA0E03CE
:100F700093609CE70E4AD36823EA0E03D3609FE791
:100F80000B4A536823EA0E035360A2E7084A13682A
:100F900023EA0E031360A5E702B070BD0000221023
:100FA0000000311000100240000001400008014024
:100FB000000401400AB101617047090401617047F2
:100FC000C36801EA030221EA030141EA0241016127
:100FD00070470000074AD36823F4E0631B041B0C2E
:100FE000000200F4E060034343F0BF6343F40033C6
:100FF000D360704700ED00E000B5194BDB68C3F328
:101000000223C3F1070CBCF1040F28BF4FF0040CFE
:1010100003F1040EBEF1060F18D9033B4FF0FF3E5B
:101020000EFA0CFC21EA0C0199400EFA03F322EAB5
:101030000303194300280BDB0901C9B200F160402A
:1010400000F5614080F800135DF804FB0023E5E73C
:1010500000F00F000901C9B2024B1954F4E700BFB8
:1010600000ED00E014ED00E0002807DB00F01F02B7
:10107000400901239340024A42F82030704700BFE4
:1010800000E100E07047000010B503460C4A0D492E
:101090000D48006840B10C4800680344521A93425E
:1010A00006D8094A136010BD0748084C0460F2E7EF
:1010B00004F0E6FD0C2303604FF0FF30F3E700BFC0
:1010C0000050002000040000F8000020A8250020A7
:1010D00070B50C461646002506E0AFF300802146A9
:1010E00001F8010B01350C46B542F6DB304670BD08
:1010F0004FF0FF3070474FF400534B6000207047B3
:10110000012070470020704710B5ADF5956D2D4852
:1011100004F07CFE01222C499DA803F00FFF01463C
:1011200028B991B14FF47A7001F028FCFAE727480A
:1011300004F0E6FD4FF47A7001F020FC0122224910
:101140009DA803F0FBFE0146EBE7214804F05EFE9C
:101150001222204912A803F037FF014668BB959977
:1011600012A804F01CFA1C4912A804F0E4FB0024A5
:1011700001342246194901A804F050FE01A8FEF7E7
:10118000E7FF024611AB01A912A804F016F80146C8
:1011900060B912A804F079F94FF400511048FFF734
:1011A0000FFF4FF47A7001F0E9FBE1E70D4804F01E
:1011B000A7FD12A804F0D5F9B4E70B4804F0A0FD90
:1011C000B0E700BF187100086425002038710008DE
:1011D0005471000870710008787100089871000857
:1011E00000100140B8710008D0710008034B036083
:1011F000034B0B6080231360704700BF0003002087
:101200000001002010B588B00DF1040C074C0FCC84
:10121000ACE80F0094E807008CE80700002101A863
:1012200001F077FB024B186008B010BDC8700008D1
:10123000FC00002030B589B00446224BDA6942F048
:101240000102DA61DB6903F001030193019B02A94A
:1012500003A8FFF77FFD069BD3B9FFF75BFD0346AD
:101260001948A0FB03239B0C013B18484FF0804218
:10127000026040F2E732C260436000230361836092
:10128000836100F053F9054630B1284609B030BDFE
:10129000FFF740FD4300E3E70C4800F01DF805466A
:1012A0000028F2D11C20FFF7DFFE0F2C01D9012509
:1012B000EBE7002221461C20FFF79EFE044B1C603A
:1012C000E3E700BF0010024083DE1B43540300200D
:1012D000040000207047000090F83D30DBB2012B85
:1012E00027D1022380F83D300268D36843F0010320
:1012F000D3600368114A934210D0B3F1804F0DD0F0
:10130000A2F59432934209D002F58062934205D04F
:101310001A6842F001021A60002070479A6802F0D1
:101320000702062A07D01A6842F001021A6000205C
:101330007047012070470020704700BF002C01401B
:10134000704770477047704770B504460368DE68A1
:101350001D6915F0020F10D016F0020F0DD06FF0BE
:1013600002021A610123037703689B6913F0030FDC
:101370005ED0FFF7E6FF0023237715F0040F12D0AD
:1013800016F0040F0FD023686FF004021A610223D5
:10139000237723689B6913F4407F4FD02046FFF7E3
:1013A000D0FF0023237715F0080F12D016F0080F96
:1013B0000FD023686FF008021A6104232377236893
:1013C000DB6913F0030F40D02046FFF7BAFF00237C
:1013D000237715F0100F12D016F0100F0FD02368DE
:1013E0006FF010021A61082323772368DB6913F476
:1013F000407F31D02046FFF7A4FF0023237715F06C
:10140000010F02D016F0010F2DD115F0800F02D080
:1014100016F0800F2FD115F0400F02D016F0400FBC
:1014200031D115F0200F02D016F0200F33D170BD4E
:10143000FFF786FF2046FFF785FF9CE72046FFF772
:101440007FFF2046FFF77EFFABE72046FFF778FFE0
:101450002046FFF777FFBAE72046FFF771FF2046E7
:10146000FFF770FFC9E723686FF001021A61204699
:10147000FEF78CFEC9E723686FF080021A612046F0
:1014800000F081F8C7E723686FF040021A61204638
:10149000FFF759FFC5E723686FF020021A61204665
:1014A00000F070F8C3E7000003681F4A90420AD0BA
:1014B000B0F1804F07D0A2F59432904203D002F5EC
:1014C0008062904203D123F070034A681343164AA6
:1014D00090420AD0B0F1804F07D0A2F594329042EA
:1014E00003D002F58062904203D123F44073CA68AE
:1014F000134323F080034A69134303608B68C3627C
:101500000B688362084B98420AD001234361036948
:1015100013F0010F03D0036923F001030361704747
:101520000B690363F1E700BF002C014040B310B525
:10153000044690F83D30F3B1022384F83D30214653
:1015400051F8040BFFF7B0FF012384F8463084F80C
:101550003E3084F83F3084F8403084F8413084F8DD
:10156000423084F8433084F8443084F8453084F8BD
:101570003D30002010BD80F83C30FFF7ABFEDBE7CC
:10158000012070477047704700F1080343604FF037
:10159000FF328260C3600361002303607047002351
:1015A0000361704743684B609A688A605160996034
:1015B0000861036801330360704730B40D68B5F10A
:1015C000FF3F11D000F108031C465B681A68AA426D
:1015D000FAD963684B6099608C6061600861036848
:1015E0000133036030BC70470469F2E70369416866
:1015F00082688A60416851605A68824206D000223F
:1016000002611A68013A1A601868704782685A6065
:10161000F5E70346406A18B11B6B1868C0F1050076
:10162000704710B5044601F0B5FBA26BE36B9A421C
:1016300004D0002401F0D0FB204610BD0124F9E7BE
:1016400010B5044601F0A6FBA36B23B9012401F0F9
:10165000C3FB204610BD0024F9E770B504461546CB
:10166000866B026C5AB903681BB100200136A66371
:1016700070BD806801F07AF80023A360F6E76DB9C9
:10168000406804F027FB226C636813446360A2681F
:10169000934219D3236863602846E7E7C06804F0E3
:1016A00019FB226C5142E3689B1AE3602268934263
:1016B00002D2A3680B44E360022D01D00020D5E7DD
:1016C00026B1013E0020D1E72846CFE70020CDE734
:1016D00008B50346026C62B10846D9681144D96066
:1016E000D3F808C0614501D31968D960D96804F0FE
:1016F000F1FA08BD38B5054601F04CFB95F84540B8
:1017000064B201E0013C64B2002C0ADD6B6A43B1B3
:1017100005F1240000F02AFF0028F3D000F0BAFF02
:10172000F0E7FF2385F8453001F056FB01F032FB6E
:1017300095F8444064B201E0013C64B2002C0ADD3B
:101740002B6943B105F1100000F010FF0028F3D021
:1017500000F0A0FFF0E7FF2385F8443001F03CFBE8
:1017600038BD38B5E0B10D46044601F013FB2368DF
:10177000E26B216C01FB0230A0600020A06363607B
:10178000013A02FB0133E360FF2384F8443084F81C
:101790004530FDB9236963B901F01EFB012038BD56
:1017A0004FF0500383F31188BFF36F8FBFF34F8F58
:1017B000FEE704F1100000F0D9FE0028ECD04FF055
:1017C000E0234FF08052C3F8042DBFF34F8FBFF3D7
:1017D0006F8FE1E704F11000FFF7D6FE04F124005B
:1017E000FFF7D2FED8E710B5034602980C4631B990
:1017F0000060C36304640121FFF7B3FF10BD026002
:10180000F7E740B94FF0500383F31188BFF36F8FB0
:10181000BFF34F8FFEE710B584B01C46844653B12A
:1018200092B189B94FF0500383F31188BFF36F8FE2
:10183000BFF34F8FFEE74FF0500383F31188BFF3E0
:101840006F8FBFF34F8FFEE76AB148230393039B6B
:10185000482B13D04FF0500383F31188BFF36F8FE1
:10186000BFF34F8FFEE70029EFD04FF0500383F313
:101870001188BFF36F8FBFF34F8FFEE7039B0123E8
:1018800084F8463000949DF818306046FFF7ABFFAF
:10189000204604B010BD40B94FF0500383F31188C7
:1018A000BFF36F8FBFF34F8FFEE7F0B583B00D46E8
:1018B0001446064601FB00F0483001F055F9074692
:1018C00050B1002380F846300090234600F14802D2
:1018D00029463046FFF787FF384603B0F0BDF0B524
:1018E00085B0019288B10F461D460446B1B1022D64
:1018F00020D1E36B012B1DD04FF0500383F31188EF
:10190000BFF36F8FBFF34F8FFEE74FF0500383F3AA
:101910001188BFF36F8FBFF34F8FFEE7036C002B6F
:10192000E5D04FF0500383F31188BFF36F8FBFF3FF
:101930004F8FFEE700F0B4FE064658B9019B002B1E
:1019400048D04FF0500383F31188BFF36F8FBFF37C
:101950004F8FFEE700263DE02A4639462046FFF736
:101960007CFE636A7BB948B14FF0E0234FF08052B0
:10197000C3F8042DBFF34F8FBFF36F8F01F02CFA24
:10198000012005B0F0BD04F1240000F0EFFD0028B7
:10199000F4D04FF0E0234FF08052C3F8042DBFF392
:1019A0004F8FBFF36F8FE9E701F016FA0020E8E7E9
:1019B00002A800F021FE012619E0002384F844303B
:1019C00021E0002384F8453023E02046FFF792FE13
:1019D00000F0C6FC01F0DEF9A26BE36B9A42BBD3C8
:1019E000022DB9D0019B002BDED0002EE0D001F0FB
:1019F000F3F900F021FC01F0CDF994F8442052B243
:101A0000B2F1FF3FD9D094F8452052B2B2F1FF3F76
:101A1000D7D001F0E1F901A902A800F0F9FDD8B989
:101A20002046FFF7FEFD0028CFD0019904F11000F9
:101A300000F084FD2046FFF75DFE00F091FC0028D9
:101A4000C8D14FF0E0234FF08052C3F8042DBFF30C
:101A50004F8FBFF36F8FBDE72046FFF74BFE00F0BF
:101A60007FFC00208DE768B170B50C460546036C1D
:101A70008BB14FF0500383F31188BFF36F8FBFF327
:101A80004F8FFEE74FF0500383F31188BFF36F8F42
:101A9000BFF34F8FFEE70368EBB101F065FAEFF398
:101AA00011864FF0500383F31188BFF36F8FBFF39C
:101AB0004F8FAA6BEB6B934226D995F845305BB2FA
:101AC0000132AA63B3F1FF3F11D001335BB285F855
:101AD0004530012019E08368002BDED04FF0500321
:101AE00083F31188BFF36F8FBFF34F8FFEE76B6AED
:101AF0000BB9012009E005F1240000F037FD38B1F1
:101B000044B10120206000E0002086F3118870BD00
:101B10000120FAE70120F8E770B584B0019158B1CF
:101B20000446036C8BB14FF0500383F31188BFF36D
:101B30006F8FBFF34F8FFEE74FF0500383F3118891
:101B4000BFF36F8FBFF34F8FFEE700F0A9FD05468F
:101B500050B9019B5BB14FF0500383F31188BFF381
:101B60006F8FBFF34F8FFEE70026354655E00646E0
:101B700053E0013BA36323683BB123694BB901F0F8
:101B80002BF90126304604B070BD00F0A3FEA06022
:101B9000F3E704F1100000F0E9FC0028EFD04FF06B
:101BA000E0234FF08052C3F8042DBFF34F8FBFF3F3
:101BB0006F8FE4E746B14FF0500383F31188BFF312
:101BC0006F8FBFF34F8FFEE701F006F9DAE702A847
:101BD00000F012FD01252AE0002384F8443032E0B1
:101BE000002384F8453034E001F0D4F8A06800F018
:101BF00067FD064601F0F0F83BE02046FFF77AFD6E
:101C000000F0AEFB09E02046FFF774FD00F0A8FBF2
:101C10002046FFF715FD002842D101F0BBF8A36B69
:101C2000002BA6D1019B002BC4D0002DCFD001F0FA
:101C3000D3F800F001FB01F0ADF894F844305BB24A
:101C4000B3F1FF3FC8D094F845305BB2B3F1FF3F2A
:101C5000C6D001F0C1F801A902A800F0D9FC002803
:101C6000D1D12046FFF7ECFC0028C6D02368002B1A
:101C7000BAD0019904F1240000F060FC2046FFF77F
:101C800039FD00F06DFB0028C7D14FF0E0234FF085
:101C90008052C3F8042DBFF34F8FBFF36F8FBCE7A3
:101CA0000EB900266EE701F075F82046FFF7B1FC8B
:101CB0000146A06800F0B4FD01F08EF8F1E72DE9CF
:101CC000F843B0B10D4616460446D9B101F04CF9BF
:101CD000EFF311884FF0500383F31188BFF36F8F38
:101CE000BFF34F8FA76BCFB9002088F31188BDE8F1
:101CF000F8834FF0500383F31188BFF36F8FBFF366
:101D00004F8FFEE7036C002BE0D04FF0500383F3BE
:101D10001188BFF36F8FBFF34F8FFEE794F84490A5
:101D20004FFA89F929462046FFF7D2FC013FA76305
:101D3000B9F1FF3F06D009F101035BB284F84430EA
:101D40000120D2E723690BB90120CEE704F110008E
:101D500000F00CFC18B126B101203060C5E701206D
:101D6000C3E70120C1E700000023072B0FD8084A72
:101D700002EBC3025268824201D00133F5E7044A04
:101D8000002142F8331002EBC303596070477047DB
:101D90009C03002038B110B50446FFF7E5FF94F826
:101DA00046304BB110BD4FF0500383F31188BFF3A1
:101DB0006F8FBFF34F8FFEE7204600F053FFF1E730
:101DC000084B1B681B6823B9074B4FF0FF321A60A2
:101DD0007047044B1B68DB68DB685A68024B1A606B
:101DE000704700BFE00300208C0400202DE9F0477D
:101DF00007469846089DDDF824900A9C266B02F160
:101E00008042013A06EB820626F0070600293AD006
:101E10008E464FF0000CBCF10F0F0BD81EF80C20B3
:101E200004EB0C0383F834201EF80C3013B10CF1D2
:101E3000010CF0E7002384F84330042D00D9042579
:101E4000E56265644FF0000AC4F848A0201DFFF762
:101E5000A6FB04F11800FFF7A2FB2461C5F10505FC
:101E6000A5616462C4F84CA084F850A0424639468B
:101E7000304600F065FF2060B9F1000F01D0C9F8CD
:101E80000040BDE8F087002384F83430D5E7000037
:101E900038B5002407E004EB840293000E48184490
:101EA000FFF772FB0134042CF5D90C4D2846FFF7DF
:101EB0006BFB0B4C2046FFF767FB0A48FFF764FB00
:101EC0000948FFF761FB0948FFF75EFB084B1D60FF
:101ED000084B1C6038BD00BFE803002060040020F0
:101EE0007404002098040020C4040020B0040020E2
:101EF000E0030020E403002010B5044600F04AFF90
:101F0000214A136801331360204B1B685BB1204BDF
:101F10001B686BB91D4B1B68DA6AE36A9A4207D8E3
:101F20001A4B1C6004E0194B1C601368012B28D06D
:101F3000184A136801331360E06A01238340164A8C
:101F400011680B43136000EB8000211D134B03EB62
:101F50008000FFF727FB00F03FFF0D4B1B687BB1B4
:101F60000A4B1B68DA6AE36A9A4209D24FF0E0230F
:101F70004FF08052C3F8042DBFF34F8FBFF36F8F24
:101F800010BDFFF785FFD3E74C040020DC030020E1
:101F9000AC040020580400205C040020E80300206A
:101FA00010B5044690F8513063B1012B11D0022BCB
:101FB0000ED04FF0500383F31188BFF36F8FBFF340
:101FC0004F8FFEE7006B00F04DFE204600F04AFE0A
:101FD00010BD00F047FEFBE70F4B1B68D3B110B5F7
:101FE00000F0D8FE0D4BDB68DC68201DFFF7FEFA21
:101FF0000B4A1368013B1360074A1368013B1360E7
:1020000000F0EAFE2046FFF7CBFF034B1B68002BD6
:10201000E6D110BD704700BF50040020C40400206A
:102020004C04002008B5FFF7D7FF074B1B68012BB6
:10203000F9D94FF0E0234FF08052C3F8042DBFF3DD
:102040004F8FBFF36F8FEEE7E803002070B50446B3
:102050000D461D4B1E681D4B18680430FFF7C6FA6D
:1020600050B91A4B1B68DA6A012303FA02F21849C5
:102070000B6823EA02030B60B4F1FF3F0DD0344438
:10208000124B1B685C60A64210D9124B18680F4BAC
:1020900019680431FFF791FA70BD002DEFD00B4B9A
:1020A000196804310C48FFF77DFAF5E70B4B186807
:1020B000064B19680431FFF780FA094B1B68A342ED
:1020C000EAD9074B1C60E7E7D8040020DC030020B6
:1020D0005C040020E4030020B0040020E0030020A2
:1020E0008C04002030B587B00B9C7CB10C9DB5B141
:1020F00054250495049D542D1AD04FF0500383F3BA
:102100001188BFF36F8FBFF34F8FFEE74FF050037F
:1021100083F31188BFF36F8FBFF34F8FFEE74FF04C
:10212000500383F31188BFF36F8FBFF34F8FFEE728
:10213000049D0C9D2C63022485F8514000240394D7
:10214000029505AC01940A9C0094FFF74FFE0C9891
:10215000FFF7D2FE059807B030BD2DE9F04385B0FA
:102160000746884614461E46900000F0FDFC00B36A
:102170008146542000F0F8FC0546B0B1C0F830901C
:10218000E5B1002385F85130039302950D9B01932F
:102190000C9B00933346224641463846FFF726FE05
:1021A0002846FFF7A9FE012005E0484600F05AFD49
:1021B000E6E74FF0FF3005B0BDE8F0834FF0FF30A9
:1021C000F9E7000010B588B000240594069407AA2A
:1021D00006A905A8FFF70AF8059B0293069B019341
:1021E00000942346079A0E490E48FFF77BFF0E4BDB
:1021F000186090B14FF0500383F31188BFF36F8FD5
:10220000BFF34F8F094B4FF0FF321A60084B01228A
:102210001A60084B1C6000F047FE08B010BD00BFFC
:10222000F471000825200008880400208C04002098
:10223000AC040020D8040020024A13680133136064
:10224000704700BF54040020F8B53A4B1B68002BC0
:1022500069D1394B1D6801351D60C5B9374B1B6805
:102260001B6843B14FF0500383F31188BFF36F8FA6
:10227000BFF34F8FFEE7314A1168314B1868106089
:102280001960304A136801331360FFF799FD2E4B34
:102290001B68AB423DD900272C4B1B68DB6A03EB64
:1022A00083039A002A4B9B58012B00D90127294B05
:1022B0001B68002B3CD001273AE001271F4B1B680D
:1022C0001B6843B31D4B1B68DB68DC6863689D4279
:1022D00026D3261D3046FFF789F9A36A1BB104F106
:1022E0001800FFF783F9E36A01229A401A49086847
:1022F00002430A6003EB83039A00314614481044FA
:10230000FFF750F9E26A114B1B68DB6A9A42D4D29C
:10231000D4E70027D2E70C4B4FF0FF321A60BBE73F
:10232000094A1360B8E70D4A1368013313600027A8
:102330003846F8BD54040020D8040020E0030020F3
:10234000E4030020900400208C040020DC03002023
:10235000E8030020DC0400205C040020940400203A
:1023600038B5354B1B6843B94FF0500383F31188E0
:10237000BFF36F8FBFF34F8FFEE700F00BFD2E4BC7
:102380001A68013A1A601B68002B4FD12B4B1B684F
:102390000BB900244BE00024294B1B681BB3284BCE
:1023A000DB68DC6804F11800FFF720F9251D2846DA
:1023B000FFF71CF9E06A01238340224A11680B43AE
:1023C000136000EB800029461F4B03EB8000FFF7F2
:1023D000E9F8E26A1D4B1B68DB6A9A42DCD31C4BAE
:1023E00001221A60D8E70CB1FFF7EAFC194B1C6810
:1023F00084B9174B1C68D4B14FF0E0234FF08052E2
:10240000C3F8042DBFF34F8FBFF36F8F01240EE08D
:10241000013C07D0FFF718FF0028F9D00C4B012230
:102420001A60F5E70B4B00221A60E2E7002400F087
:10243000D3FC204638BD00BF540400204C040020CB
:10244000980400205C040020E8030020DC03002046
:10245000DC0400209404002010B5A8B10446104B01
:102460001B6843B14FF0500383F31188BFF36F8FA4
:10247000BFF34F8FFEE7FFF7DFFE00212046FFF797
:10248000E5FDFFF76DFF48B94FF0E0234FF08052B4
:10249000C3F8042DBFF34F8FBFF36F8F10BD00BF84
:1024A00054040020204B1B681BB1204B01221A60F2
:1024B00070471E4B00221A601D4B1B68B3FA83F352
:1024C000DBB2C3F11F0303EB83018A0019498A5869
:1024D00042B94FF0500383F31188BFF36F8FBFF3FE
:1024E0004F8FFEE7134903EB830082000A445068D4
:1024F0004068506003EB830C4FEA8C0208321144B1
:10250000884209D003EB83039A000A4B13445B68AB
:10251000DA68094B1A607047406862469100054AC4
:102520000A445060EEE700BF54040020DC040020A1
:102530005C040020E8030020DC03002058B110B543
:102540000C46094A11681831FFF737F80121204677
:10255000FFF77CFD10BD4FF0500383F31188BFF3EC
:102560006F8FBFF34F8FFEE7DC03002038B5C368E1
:10257000DC6824B304F118052846FFF737F8184B38
:102580001B682BBB251D2846FFF730F8E06A0123A6
:102590008340144A11680B43136000EB8000294606
:1025A000114B03EB8000FEF7FDFFE26A0F4B1B6847
:1025B000DB6A9A4211D901200D4B186038BD4FF0EB
:1025C000500383F31188BFF36F8FBFF34F8FFEE784
:1025D00029460848FEF7E6FFE7E70020EEE700BFE0
:1025E000540400205C040020E8030020DC030020E9
:1025F000DC04002098040020034B1B680360034B9D
:102600001B684360704700BF90040020D80400207E
:10261000D8B170B50C46054601B300F0BBFB1B4BAF
:1026200019686B68C81A2268B2F1FF3F27D0184EAC
:102630003668D5F800C0B44501D08B4224D9824217
:1026400015D80023236001241AE04FF0500383F3D0
:102650001188BFF36F8FBFF34F8FFEE74FF050032A
:1026600083F31188BFF36F8FBFF34F8FFEE75B1AC1
:10267000134423602846FFF7BFFF002400E0002436
:1026800000F0AAFB204670BD0124F9E7D804002021
:1026900090040020014B01221A607047DC040020E6
:1026A000054B1B6833B1054B1B680BB1002070470D
:1026B0000220704701207047AC0400205404002021
:1026C000002849D038B50446C36A254A1268D26A40
:1026D000934239D28269002A05DB214A1268D26A04
:1026E000C2F105028261616903EB83031D4A02EBBB
:1026F0008303994205D01A4B1B68DB6AE362012011
:1027000038BD251D2846FEF771FF40B9E26A012356
:1027100003FA02F214490B6823EA02030B60104B20
:102720001B68D86AE062012404FA00F30E4A1168BB
:102730000B43136000EB800029460A4B03EB80003B
:10274000FEF730FF2046DBE7426C054B1B68DB6A77
:102750009A4203D30020D3E7002070470120CFE73F
:10276000DC030020E80300205C04002000284CD09B
:1027700038B50446274B1B68834208D04FF05003FE
:1027800083F31188BFF36F8FBFF34F8FFEE7836C26
:1027900043B94FF0500383F31188BFF36F8FBFF33A
:1027A0004F8FFEE7013B8364C16A426C91422ED099
:1027B0000BB1002038BD051D2846FEF717FF70B984
:1027C000E26A02EB82039B001349CB583BB9012319
:1027D00003FA02F211490B6823EA02030B60606CF2
:1027E000E062C0F10503A361012404FA00F30B4A7F
:1027F00011680B43136000EB80002946064B03EB86
:102800008000FEF7CFFE2046D4E70020704700206E
:10281000D0E700BFDC030020E80300205C040020B8
:10282000002850D038B50446836C43B94FF05003AC
:1028300083F31188BFF36F8FBFF34F8FFEE7426CB6
:102840008A4200D20A46E16A914201D0012B00D0AF
:1028500038BD1D4B1B68A3422CD0E262A369002B3C
:1028600002DBC2F10502A261626901EB8101174B33
:1028700003EB81018A42EBD1251D2846FEF7B6FE07
:1028800040B9E26A012303FA02F211490B6823EA14
:1028900002030B60E06A012383400D4A11680B4379
:1028A000136000EB80002946084B03EB8000FEF725
:1028B00079FECDE74FF0500383F31188BFF36F8F9C
:1028C000BFF34F8FFEE77047DC030020E8030020D2
:1028D0005C040020054B1B6823B1044B1A68936C01
:1028E00001339364014B1868704700BFDC0300207C
:1028F000842801D00330704700207047EFF3058033
:10290000003818BF0120704708B5FFF75BFC0020B6
:1029100008BD2DE9F04387B004460F464569BDB1B7
:102920008669AEB1D0F80480D0F80090B0F9080004
:10293000FFF7DEFF0296019500903B46226949466B
:102940004046FFF7CFFB0590059807B0BDE8F08340
:1029500065682668D4F81080B4F90800FFF7C8FF4E
:1029600005AB019300903B461FFA88F2314628469A
:10297000FFF7F3FB0128E7D00020E6E708B500B930
:102980000120FFF769FD002008BD10B582B0446842
:102990007CB1012903D00024204602B010BD0323DE
:1029A00000932346002211460120FEF72AFF044629
:1029B000F2E70129F0D1032200210120FEF76BFF8D
:1029C00004460028E8D000231A461946FEF787FF80
:1029D000E2E770B582B00023019318B30C460646B7
:1029E000FFF78CFF0546A0B101AA00213046FFF792
:1029F00066F9012818D1019D8DB14FF0E0234FF009
:102A00008052C3F8042DBFF34F8FBFF36F8F0025A3
:102A100005E021463046FFF77FF8012806D1284619
:102A200002B070BD8025FAE7FF25F8E7FF25F6E73D
:102A300010B582B0044600230193FFF75FFF98B101
:102A400001A92046FFF70FF801281AD1019BD3B145
:102A50004FF0E0234FF08052C3F8042DBFF34F8FA7
:102A6000BFF36F8F002008E000231A461946204666
:102A7000FEF735FF012802D0FF2002B010BD002074
:102A8000FBE7FF20F9E70020F7E710B50446FFF762
:102A900035FF20B92046FFF77DF9002010BD8220C8
:102AA000FCE70000124A12F0070F1ED0D11D21F0E2
:102AB0000701C1F5005313440A460E480260002185
:102AC00041601344083B23F007030B48036059603F
:102AD0001960991A51601360084B1960084B19600E
:102AE000084B4FF000421A6070474FF40053E4E780
:102AF000E4040020F8240020E0040020EC2400205E
:102B0000E8240020E4240020154B1A461B68834269
:102B1000FBD3516802EB010C844509D0416800EBFE
:102B2000010C634509D00360904218D010607047D3
:102B30004068014451601046F0E710B4094C246825
:102B4000A3420AD05B681944416013681B680360A4
:102B5000904200D0106010BC70470460F8E77047E6
:102B6000F8240020E004002070B50546FFF764FB60
:102B7000364B1B68A3B1364B1B681D424ED135B195
:102B8000083515F0070F02D025F007050835002D90
:102B900046D0304B1B68AB4251D32F4A146804E037
:102BA000FFF780FFE7E722461C466368AB4202D28C
:102BB0002368002BF7D1254B1B68A34241D0166830
:102BC00008362368136063685B1B102B10D96019EB
:102BD00010F0070F08D04FF0500383F31188BFF3B4
:102BE0006F8FBFF34F8FFEE743606560FFF78CFF89
:102BF000626818490B689B1A0B60184909688B4278
:102C000001D216490B60124B1B681343636000230B
:102C10002360134A13680133136002E0002600E0CA
:102C20000026FFF79DFB16F0070F0CD04FF0500366
:102C300083F31188BFF36F8FBFF34F8FFEE700263A
:102C4000EFE70026EDE7304670BD00BFE00400204E
:102C5000E4240020E8240020F8240020EC240020B4
:102C6000F0240020002834D038B50446A0F108052F
:102C700050F8043C174A1268134208D14FF0500331
:102C800083F31188BFF36F8FBFF34F8FFEE750F8C8
:102C9000081C41B14FF0500383F31188BFF36F8FCD
:102CA000BFF34F8FFEE723EA020340F8043CFFF72F
:102CB000C3FA54F8041C084A13680B4413602846EE
:102CC000FFF722FF054A136801331360FFF748FB43
:102CD00038BD7047E4240020E8240020F4240020BC
:102CE00082B0002301930D4B1B68B3F1FF3F08D066
:102CF0004FF0500383F31188BFF36F8FBFF34F8FF3
:102D0000FEE74FF0500383F31188BFF36F8FBFF3DB
:102D10004F8F019B002BFCD002B070470C000020AD
:102D200006480068006880F3088862B661B6BFF3A1
:102D30004F8FBFF36F8F00DF00BF000008ED00E092
:102D40004FF0807340F8043C21F0010140F8081C6A
:102D5000034B40F80C3C40F8202C4038704700BF33
:102D6000E12C00080000000000000000000000004E
:102D7000074B19680868B0E8F00F80F30988BFF3C3
:102D80006F8F4FF0000080F311884EF00D0E7047EA
:102D9000DC0300204FF0500383F31188BFF36F8FE3
:102DA000BFF34F8F0B4A136801331360012B00D020
:102DB00070474FF0E023D3F8043D13F0FF0FF7D036
:102DC0004FF0500383F31188BFF36F8FBFF34F8F22
:102DD000FEE700BF0C000020094B1B6843B94FF011
:102DE000500383F31188BFF36F8FBFF34F8FFEE75C
:102DF000013B034A13600BB983F31188704700BF8E
:102E00000C00002000000000000000000000000096
:102E1000EFF30980BFF36F8F0D4B1A6820E9F00FB5
:102E200010602DE908404FF0500080F31188FFF743
:102E300039FB4FF0000080F31188BDE808401968A5
:102E40000868B0E8F00F80F30988BFF36F8F704710
:102E5000DC03002008B54FF0500383F31188BFF363
:102E60006F8FBFF34F8FFFF7EFF928B14FF0E023DB
:102E70004FF08052C3F8042D002383F3118808BD5E
:102E80004FF0E022002313619361054B1B68054955
:102E9000A1FB03139B09013B536107231361704797
:102EA00008000020D34D621010B582B02A4B1A786A
:102EB000D2B20192FF221A701B78DBB28DF8033078
:102EC0009DF8033003F05003244A1370244B07226B
:102ED0001A6009E0224A1368013B13609DF8033031
:102EE0005B00DBB28DF803309DF8033013F0800FE8
:102EF000F0D11B4B1B68032B08D04FF0500383F31A
:102F00001188BFF36F8FBFF34F8FFEE71B02144A88
:102F1000136003F4E0631360019BDBB20E4A13708D
:102F20004FF0E023D3F8202D42F47002C3F8202D97
:102F3000D3F8202D42F07042C3F8202DFFF7A0FFF8
:102F40000024084B1C60FFF7EBFEFFF7ABFAFFF71E
:102F5000C7FE204602B010BD00E400E000250020BE
:102F6000042500200C000020EFF305830F2B0FD960
:102F7000114A9B5CDBB2114A12789A4208D94FF091
:102F8000500383F31188BFF36F8FBFF34F8FFEE7BA
:102F90004FF0E023D3F80C3D03F4E063084A1268D5
:102FA000934208D94FF0500383F31188BFF36F8F1A
:102FB000BFF34F8FFEE77047F0E300E000250020ED
:102FC0000425002008B50E480E4B03604FF48273B1
:102FD000436000238360C360036143614FF4007268
:102FE00082613822C2610362436283620A23C36240
:102FF00000F076FC00B908BDFDF7E2F8FBE700BF82
:10300000082500200030014010B586B0002302934F
:103010000393049305930268164B9A4201D006B0BD
:1030200010BD03F560439A6942F480529A619A692F
:1030300002F480520092009A9A6942F004029A6166
:103040009B6903F004030193019BA02302930223D5
:10305000039303230593084C02A92046FDF798FE2D
:103060004023029300230393049302A92046FDF713
:103070008FFED4E70030014000080140014B0022E0
:103080001A70704761250020014B1878704700BF07
:103090006125002000B583B08DF80700074800F0D7
:1030A00086FE0128FAD14FF47A7301220DF107014F
:1030B000024800F070FC03B05DF804FB0825002016
:1030C00008B5002210210248FDF774FF08BD00BFBB
:1030D0000008014008B5012210210248FDF76AFFEF
:1030E00008BD00BF0008014000B585B0FF238DF882
:1030F0000F3000238DF80E300A4800F058FE0128EA
:10310000FAD14FF47A73009301230DF10E020DF101
:103110000F01044800F021FD9DF80E0005B05DF898
:1031200004FB00BF0825002010B582B0FFF7D2FFD6
:10313000002403E0FF20FFF7ADFF0134092CF9DD87
:10314000FFF7BEFF40238DF8003000248DF80140CA
:103150008DF802408DF803408DF8044095238DF8DA
:10316000053007E004F108036B4413F8080CFFF77F
:1031700091FF0134052CF5DD41F6FF74FFF7B4FF34
:10318000012802D00CB1013CF8E7FFF7A3FFFF20B4
:10319000FFF780FF024B01221A7002B010BD00BF82
:1031A0006125002008B5074BF4221A70FFF79CFF39
:1031B000FFF79AFFFF2803D0024B1B78002BF7D1B3
:1031C00008BD00BFAA00002038B504460D46FFF731
:1031D000E9FFFF2801D0FF2038BD2046FFF75AFF46
:1031E000280EFFF757FFC5F30740FFF753FFC5F35E
:1031F0000720FFF74FFFE8B2FFF74CFF402C11D03C
:103200000020482C10D0FFF745FF4C2C0ED00A248C
:10321000FFF76AFF10F0800FDED0631E13F0FF048B
:10322000F6D1D9E79520ECE78720ECE7FFF75CFFC4
:10323000EDE710B50446FFF757FF207010BD000002
:10324000F8B505460C460F4B64221A70FFF74CFF89
:10325000FF2803D10B4B1B78002BF7D1FE2807D09A
:1032600000200DE06F1C2846FFF7E3FF34463D4683
:10327000661E002CF6D1FFF737FFFFF735FF012060
:10328000F8BD00BFA900002070B504460D46FFF749
:1032900089FFFF2801D0002070BD06462846FFF7B1
:1032A000F9FEFD2D26D04FF4007204E014F8010B56
:1032B000FFF7F0FE2A46531E9DB2002AF6D1FFF713
:1032C00013FFFFF711FF0024402C09D8FFF70CFF74
:1032D000064600F01F03052B02D00134E4B2F3E7E9
:1032E000084BC8221A70FFF7FFFE18B9054B1B7870
:1032F000002BF8D106F01F06052E01D00020CBE7E9
:103300000120C9E7A9000020002840F0B68030B5B0
:1033100083B05B4B1B7813F0020404D0584B187831
:10332000C0B203B030BDFFF7FFFEFFF7C9FE0021BA
:103330004020FFF749FF0546012811D0514B1C7072
:10334000FFF7C8FEFFF7D0FE002C00F093804C4A38
:10335000137803F0FE031370494B1878C0B2E0E70E
:10336000494BE8221A704FF4D5714820FFF72CFF23
:10337000012846D1254608E0FFF7B6FE05F108030F
:103380006B4403F8040C0135EDB2032DF4D99DF81C
:103390000630012BD2D19DF80730AA2BCED102E006
:1033A000394B1B7863B100217720FFF70DFF01280F
:1033B000F6D84FF080416920FFF706FF0028EFD1D3
:1033C000314B1B7803F0FF020BB91446B6E700211E
:1033D0007A20FFF7F9FE05460028AFD1032D09D862
:1033E000FFF782FE05F108036B4403F8040C013576
:1033F000EDB2F3E79DF8043013F0400F38D0062407
:103400009CE700217720FFF7DFFE012810D800217C
:103410006920FFF7D9FE01280AD8022508E000211B
:103420007720FFF7D1FE012811D9174B1B783BB14C
:10343000022DF4D000214120FFF7C6FE0028F4D170
:10344000114B1B7803F0FF0243B9144676E70021C5
:103450006920FFF7B9FE0028E7D1F1E74FF40071CA
:103460005020FFF7B1FE00287FF468AF2C4665E7D7
:10347000022463E7FFF702FE6EE70120704700BFFA
:103480001000002060250020A900002018B9034B7F
:103490001878C0B270470120704700BF10000020AC
:1034A00000283ED170B50D4616461C46002B3AD07A
:1034B0001F4B1B7813F0010F37D11E4B1B7813F0F5
:1034C000040F00D15602FFF7FBFD012C1AD0314644
:1034D0005220FFF779FE68B94FF400712846FFF7D4
:1034E000AFFE18B105F50075013CF5D100214C2067
:1034F000FFF76AFEFFF7EEFDFFF7F6FD201E18BF8F
:10350000012070BD31465120FFF75EFE0028F1D149
:103510004FF400712846FFF793FE0028EAD00024FC
:10352000E8E7042070470420EBE70320E9E700BF49
:103530001000002060250020002852D170B50D46F3
:1035400016461C46002B4ED02A4B1B7813F0010F59
:103550004BD1284B1B7813F0040F48D1264B1B7816
:1035600013F0040F00D15602FFF7AAFD012C1FD063
:10357000214B1B7813F0020F28D131465920FFF759
:1035800023FE68B9FC212846FFF77EFE18B105F539
:103590000075013CF6D1FD210020FFF775FEF0B16A
:1035A000FFF798FDFFF7A0FD201E18BF012070BD9A
:1035B00031465820FFF708FE0028F1D1FE212846A9
:1035C000FFF762FE0028EBD00024E9E70021772016
:1035D000FFF7FAFD21465720FFF7F6FDCDE701245E
:1035E000DEE7042070470420E1E70320DFE7022044
:1035F000DDE700BF100000206025002070B584B01A
:10360000002840F0B6800D4616460446052913D022
:103610005A4B1C7814F0010440F0AD80FFF750FDC8
:103620000D2D00F29A80DFE805F061205D989898F2
:1036300098989898986776851578012D0ED0022D68
:103640000FD00DB104248DE0FFF71EFD04460028C5
:1036500000F08880FFF712FD2C4683E0FFF764FD41
:1036600080E0FFF711FD70707CE000214920FFF73A
:10367000ABFD044608B12C4670E010216846FFF708
:10368000DFFD002871D09DF800309B09012B1FD071
:103690009DF8052002F00F029DF80A3002EBD312CC
:1036A0009DF809305B0003F006031A449DF80830CA
:1036B0009DF807109B0903EB81039DF80610890212
:1036C00001F440610B440133073A9340336045E015
:1036D0009DF808209DF8093043EA022301339B023C
:1036E00033603BE04FF40073338037E0FFF75AFD5F
:1036F000FF283CD0012431E000214920FFF764FD80
:10370000044608B1012429E010213046FFF798FD56
:1037100020BB012422E000214A20FFF755FD04468A
:1037200008B101241AE010213046FFF789FDA8B93D
:10373000012413E000217A20FFF746FD044650B132
:1037400001240BE0FFF7D0FC06F8010B0135EDB2C8
:10375000032DF7D902E00546FAE70424FFF7BAFC87
:10376000FFF7C2FC204604B070BD2C46F6E72C469D
:10377000F4E70424F6E70324F4E700BF1000002078
:1037800008B50349034802F02DFA034B187008BD31
:1037900064250020140000206825002000207047C8
:1037A00008B5FFF7B1FD08BD08B5FFF76FFE08BD0E
:1037B00008B5FFF775FE08BD08B5FFF7BDFE08BDEB
:1037C00008B5FFF71BFF08BD2DE9F04782B005469D
:1037D000884617461E46FCF793FF0A9B1B1A03EB0D
:1037E0000609FCF78DFF82462B4B1B68C3F3CB33D6
:1037F00009FB03F301932B689C6838EA04030CBFB0
:103800004FF0010C4FF0000CBC4540D0B6F1FF3F2B
:10381000F1D0FCF775FFA0EB0A0048450AD2B9F1D8
:10382000000F07D0019A02B14A46019B013B019368
:103830009146E0E72A68536823F0E00353606B6821
:10384000B3F5827F0BD0AB6AB3F5005F14D00123D0
:1038500085F85130002385F85030032018E0AB681C
:10386000B3F5004F02D0B3F5806FECD12A6813682E
:1038700023F040031360E6E72A68136823F400533B
:1038800013602A68136843F400531360DFE70020D5
:1038900002B0BDE8F08700BF0800002070B582B01C
:1038A00006460C46154600920B4601220221FFF700
:1038B0008BFF48B900952346002280213046FFF750
:1038C00083FF38B902B070BD736D43F02003736598
:1038D0000320F7E7736D43F0200373650320F1E7DE
:1038E000002856D010B50446436A33B94368B3F58F
:1038F000827F05D00023C36102E00023036143619E
:103900000023A36294F85130002B3CD0022384F8AA
:1039100051302268136823F040031360636803F496
:103920008273A26802F404421343E26802F4006264
:103930001343226902F002021343626902F001029A
:103940001343A26902F400721343E26902F03802E1
:103950001343226A02F080021343A26A02F4005267
:10396000216813430B60638B226803F004035360E8
:103970002268D36923F40063D361002060650123CA
:1039800084F8513010BD84F850302046FFF73CFBDE
:10399000BCE7012070472DE9F04383B00446894617
:1039A00090461D46FCF7ACFE94F85160F6B2012E2D
:1039B00040F0CC800746B9F1000F00F0C880B8F1A4
:1039C000000F00F0C48094F85030012B00F0C38049
:1039D000012384F85030032384F8513000236365B9
:1039E000C4F83090A4F83480A4F83680A363A38789
:1039F000E38763642364A368B3F5004F1ED0236894
:103A00001A6812F0400F03D11A6842F040021A609F
:103A1000E368B3F5006F1CD0636813B1B8F1010F10
:103A20005FD1226B236812781A73236B01332363EF
:103A3000E38E9BB2013B9BB2E38652E0226813689F
:103A400023F0400313602268136843F4804313603B
:103A5000D5E7636813B1B8F1010F15D1226B236864
:103A60001288DA60236B02332363E38E9BB2013B3F
:103A70009BB2E38608E0FCF743FEC01BA84202D3DA
:103A8000B5F1FF3F15D1A5B1E38E9BB2002B42D01B
:103A900023689A6812F0020FEDD0226B1288DA6068
:103AA000236B02332363E38E9BB2013B9BB2E3861D
:103AB000EAE7012384F85130002384F850300326CC
:103AC00045E0226B12781A73236B01332363B4F839
:103AD00036C01FFA8CFC0CF1FF3C1FFA8CFCA4F8DA
:103AE00036C0E38E9BB2B3B123689A6812F0020F1E
:103AF000E7D1FCF705FEC01BA84202D3B5F1FF3F9A
:103B000001D1002DEDD1012384F85130002384F838
:103B1000503003261BE03A4629462046FFF7BEFEFA
:103B200008B120236365A36833B901932368DA6879
:103B300001929B680193019B012384F8513000237B
:103B400084F85030636D13B9002600E00226304639
:103B500003B0BDE8F0830226F9E72DE9F04383B016
:103B60000446884691461F460A9DFCF7C9FD064655
:103B700094F85130DBB26268012B0AD0B2F5827F33
:103B800040F00581A268002A40F00581042B40F036
:103B90000481B8F1000F00F00281B9F1000F00F0CC
:103BA0000081002F00F0FF8094F85030012B00F0CE
:103BB000FC80012384F8503094F85130DBB2042BA0
:103BC00002D0052384F8513000236365C4F838908F
:103BD000E787A787C4F83080E786A78623646364F5
:103BE00023681A6812F0400F03D11A6842F04002AD
:103BF0001A60E368B3F5006F11D063680BB1012F51
:103C00000BD1226B236812781A73236B0133236361
:103C1000E38E9BB2013B9BB2E386012771E06368B0
:103C20000BB1012F0BD1226B23681288DA60236B52
:103C300002332363E38E9BB2013B9BB2E3860127F1
:103C40001BE023689A6812F0010F0ED0E28F92B247
:103C50005AB1DA68A36B1A80A36B0233A363E38FB4
:103C60009BB2013B9BB2E3870127FCF749FD801B18
:103C7000A84202D3B5F1FF3F1ED1E38E9BB21BB920
:103C8000E38F9BB2002B62D023689A6812F0020F78
:103C9000D7D0E28E92B2002AD3D0002FD1D0226B9F
:103CA0001288DA60236B02332363E38E9BB2013BFD
:103CB0009BB2E3860027C4E7012384F85130002338
:103CC00084F85030032063E023689A6812F0010FF3
:103CD0000ED0E28F92B25AB1DA68A36B1A70A36B5E
:103CE0000133A363E38F9BB2013B9BB2E3870127C0
:103CF000FCF706FD831BAB4202D3B5F1FF3F1ED19B
:103D0000EDB1E38E9BB213B9E38F9BB2FBB1236895
:103D10009A6812F0020FD7D0E28E92B2002AD3D066
:103D2000002FD1D0226B12781A73236B01332363D7
:103D3000E38E9BB2013B9BB2E3860027C4E70123DD
:103D400084F85130002384F85030032020E03246BC
:103D500029462046FFF7A2FD90B9A36833B9019325
:103D60002368DA6801929B680193019B012384F820
:103D70005130002384F85030636D4BB1012007E0CF
:103D800020236365002384F85030012000E00220E6
:103D900003B0BDE8F0830220FAE70220F8E7012033
:103DA000F6E70120F4E70120F2E70220F0E790F8BF
:103DB0005100704708B5044B03EB8002526852680B
:103DC0000344187A904708BD8C25002008B5084B9D
:103DD0001B5C53B9064B01221A5403EB8002526854
:103DE00012681844007A904708BD0020FCE700BF25
:103DF0008C25002038B5044C04EB80056D68AD6857
:103E00000444207AA84738BD8C25002038B5044CDE
:103E100004EB80056D68ED680444207AA84738BD3E
:103E20008C25002010B5044B03EB800464682469E2
:103E30000344187AA04710BD8C25002004E011F837
:103E4000012B00F8012B1A46531E002AF7D17047A8
:103E500002E000F8011B1A46531E002AF9D17047F0
:103E600010B4034600201446013A34B113F8010B94
:103E700011F801CBB0EB0C00F5D010BC7047034635
:103E800000E00133187808B18842FAD17047000089
:103E900030B400252B4601E001250133012B1ED84B
:103EA00003EB43021C4C54F82220002AF4D0D0F833
:103EB0000042A242F1D103EB4302174C04EB820211
:103EC0005468D0F808229442E7D103EB4302124C25
:103ED00004EB82021489B0F806229442DDD1022B51
:103EE0000CD0B1B903EB43030B4A02EB83035B89AC
:103EF000B3F5807F0BD0002030BC70472DB902296C
:103F000001D01220F8E70020F6E70020F4E71020A7
:103F1000F2E71020F0E700BF70250020002000E04D
:103F20000130012806D800EB40029300034AD35821
:103F3000002BF5D1023818BF0120704770250020F2
:103F400010B5002300E00133012B1CD803EB430222
:103F50002D4C54F82240D0F800229442F3D103EBC8
:103F60004302294C04EB82025468D0F808229442A0
:103F7000E9D103EB4302244C04EB82021489B0F82C
:103F800006229442DFD1022B11D031B103EB430260
:103F90001D4800EB82025289A2BB39BB03EB4302EE
:103FA000194901EB82025189013189B220E00023D5
:103FB000012B07D803EB4302134C54F822200AB11B
:103FC0000133F5E7022B1BD00F4C03EB430C04EB42
:103FD0008C02D0F800E244F82CE0D0F8084254609B
:103FE000B0F80602108100205081CEE74FF48071B6
:103FF00003EB4300044A02EB80025181581C10BDC0
:104000000020FCE70020FAE7702500200138012895
:104010001AD800EB40030E4A02EB83035B89B3F529
:10402000807F03D01BB1013B9BB200E0002300EB7B
:104030004002074901EB820253813BB900EB40008B
:1040400083000020C850704702207047002070474E
:1040500070250020002302E010BC70470133012BC3
:1040600017D803EB43020B4951F822208242F5D1C5
:1040700010B403EB4302920000248C500133012B57
:10408000EAD803EB4302034951F822208242F5D1DA
:10409000EFE7704770250020D0F824320433490A36
:1040A000D0F8002292F80222B1FBF2F101E0091AE5
:1040B0000833186818B18142F9D25868084470472B
:1040C000CA7E8B7E43EA022390F80022032A01D0A5
:1040D00018467047487D0A7D42EA002243EA0243BF
:1040E000F6E78176C1F30723C376C1F3074303756F
:1040F000090E4175704700002DE9F84F89460C689C
:1041000000E0013423782F2BFBD05C2BF9D0D0F8C2
:1041100018A20B2220215046FFF79AFE00263346B4
:104120004FF00808374619E0BF00FFB246464FF08F
:104130000B0812E015F0800F25D129463148FFF712
:104140009EFE00285AD1A5F14103DBB2192B20D8DD
:1041500047F002070AF8065001365B4603F1010BEF
:10416000E55C202D1FD92F2D1DD05C2D1BD02E2DB1
:1041700001D0B045DED8B8F1080F3DD12E2DD3D0F7
:104180000620BDE8F88F47F00307803D1E4B5D5DBC
:10419000D3E7A5F16103DBB2192BDBD847F00107A8
:1041A000203DEDB2D6E75C44C9F80040202D14D87C
:1041B00004232EB39AF80020E52A10D0B8F1080F96
:1041C00011D007F00302012A10D007F00C07042FCA
:1041D0000FD08AF80B300020D3E70023E9E705224F
:1041E0008AF80020EAE7BF00FFB2EAE743F01003D5
:1041F000EBE743F00803ECE70620C2E70620C0E740
:104200000620BEE7FC7100080C7200080146006839
:1042100038B102461378202B06D93A2B04D001324C
:10422000F8E74FF0FF3070473A2B01D0002070477D
:1042300010B4034613F8010B3038092808D89A4205
:1042400002D04FF0FF3005E030B901320A6001E0E2
:104250004FF0FF3010BC70474FF0FF30FAE7F8B571
:1042600090F804520DB92846F8BD0446D0F83072D3
:1042700001233A46014690F80102FFF7C7FD0546C3
:10428000D0B9002384F80432D4F82432FB1AD4F8CD
:104290001C229342E7D294F803620AE0D4F81C325D
:1042A0001F4401233A46214694F80102FFF7AEFD70
:1042B000013E012EF2D8D6E70125D4E770B5D0F83B
:1042C00030328B4202D10026304670BD04460D4686
:1042D000FFF7C5FF06460028F6D101232A462146EE
:1042E00094F80102FFF786FD10B101264FF0FF356B
:1042F000C4F83052E8E7000010B50446002380F807
:1043000004324FF0FF33C0F83032FFF7D7FF98BBCD
:10431000024694F8FF1194F8FE3143EA01231BB2E0
:1043200017498B422AD194F8391094F838301B047D
:1043300043EA016394F8371043EA012394F83610F6
:104340000B4323F07F430F498B4213D094F8551051
:1043500094F854301B0443EA016394F8531043EA81
:10436000012394F852100B4323F07F4305498B42FD
:1043700000D00122104610BD0322FBE70222F9E71C
:1043800055AAFFFF4641540008B5D0F80C0201F0D1
:1043900043FC08BD2DE9F04385B0054617460023D0
:1043A00003600846FFF732FF061EC0F2A481A14B4E
:1043B00053F82640002C00F0A0812046FFF7E4FFD0
:1043C000002800F09F812C6094F800327BB194F8B3
:1043D0000102FFF7EFFC10F0010508D1002F00F0FB
:1043E0008D8110F0040F00F089810A2586E10023F9
:1043F00084F80032F0B284F80102FFF7E7FC10F015
:10440000010F40F081811FB110F0040F40F07E8158
:1044100000212046FFF770FF0546012800F0D480F8
:104420000027032D00F07481002D40F07381227B62
:10443000E37A43EA02231BB2B3F5007F40F06C81BC
:10444000E27DA37D53EA02230DD194F8272094F84E
:1044500026301B0443EA026394F8252043EA022332
:1044600094F824201343C4F81C32217C84F80312EE
:104470004A1ED2B2012A00F2518103FB01F1607B96
:1044800084F80202002800F04B81421E104240F0E6
:104490004981A27C667C46EA0226A4F8086216F0EE
:1044A0000F0F40F0418194F814C0E27C52EA0C22D4
:1044B0000ED194F823C094F82220120442EA0C6230
:1044C00094F821C042EA0C2294F820C042EA0C027F
:1044D00094F80FE094F80EC05CEA0E2C00F02681F0
:1044E0000CEB010909EB16194A45C0F02181A2EB3A
:1044F0000902B2FBF0FE8242C0F01C8140F6F57268
:1045000096457AD84FF001084FF6F572964501D9D5
:104510004FF003080EF1020EC4F818E2C4F820723E
:104520000CEB0702C4F8242207EB0900C4F82C02A4
:10453000B8F1030F64D0002E00F000811144C4F8DC
:104540002812B8F1020F71D00EEB4E010EF00102ED
:1045500002EB510202F2FF12B3EB522FC0F0F080D7
:104560004FF0FF33C4F81432C4F81032802384F8BB
:104570000532B8F1030F61D084F800822E4A138807
:1045800001339BB21380A4F806322046FFF762FD88
:10459000B4E0002304AA02EB810242F8103C01318E
:1045A000032913D80B0103F5DF7323441A79002A7A
:1045B000EFD0D87A9A7A120442EA0062587A42EA34
:1045C00000221B7A1343E5E70021E9E700260BE010
:1045D00039462046FFF790FE054600283FF421AFFC
:1045E0000136032E3FF61DAF04AB03EB860353F8F1
:1045F000107C002FECD10225F2E74FF0020883E790
:10460000002E40F0998094F82F1094F82E20120478
:1046100042EA016294F82D1042EA012294F82C102B
:104620000A43C4F828224FEA8E0293E74FEA4E026B
:1046300090E700BF6C2500208825002094F83120E9
:1046400094F8303043EA02231BB2012B94D1791C39
:104650002046FFF733FE00288ED1002384F8053270
:1046600094F8FF2194F8FE3143EA02231BB2354A45
:10467000934281D1E278A3781B0443EA0263627813
:1046800043EA0223227813432F4A93427FF474AF04
:1046900094F8E72194F8E6311B0443EA026394F8A6
:1046A000E52143EA022394F8E4211343274A934285
:1046B0007FF462AF94F8EB2194F8EA311B0443EAEB
:1046C000026394F8E92143EA022394F8E8211343B2
:1046D000C4F8143294F8EF2194F8EE311B0443EA45
:1046E000026394F8ED2143EA022394F8EC2113438A
:1046F000C4F8103240E70B2500E00C25284605B031
:10470000BDE8F0830F25F9E70325F7E70A25F5E76C
:104710000125F3E70D25F1E70D25EFE70D25EDE781
:104720000D25EBE70D25E9E70D25E7E70D25E5E785
:104730000D25E3E70D25E1E70D25DFE70D25DDE795
:104740000D25DBE755AAFFFF5252614172724161AC
:1047500038B560B10546D0F8003243B193F8002275
:104760002AB1B3F80612B0F80422914202D009240B
:10477000204638BD93F80102FFF71CFB10F001043E
:10478000F5D1D5F80002FFF7FFFD0028F0D10F2486
:10479000EEE770B108B50C2905D00B2903D0092923
:1047A00001D00F2900D108BDD0F80C0201F03EFA6B
:1047B000F9E7704738B50446FFF751FD054658B98B
:1047C00094F80032032B09D00022114694F801021C
:1047D000FFF728FB00B10125284638BD94F80532C3
:1047E000012BF1D14FF4007200212046FFF730FB7E
:1047F000552384F8FE31AA2384F8FF315223237015
:1048000063706123A3704122E270722184F8E41185
:1048100084F8E51184F8E62184F8E731D4F81432FD
:1048200084F8E831C3F3072284F8E921C3F307428F
:1048300084F8EA211B0E84F8EB31D4F8103284F8A6
:10484000EC31C3F3072284F8ED21C3F3074284F867
:10485000EE211B0E84F8EF31D4F820220132C4F887
:1048600030220123214694F80102FFF7CFFA0023FA
:1048700084F80532A8E70239D0F81832023B8B429F
:1048800006D990F80232D0F82C0201FB03007047E1
:104890000020704701295ED9F8B505460C46D0F8CE
:1048A00018328B4259D990F80032022B2BD0032BAF
:1048B00039D0012B01D0012050E001EB5106D0F896
:1048C000241201EB5621FFF7F9FC10B14FF0FF3035
:1048D00044E0771CC6F30806AE5DD5F8241201EB60
:1048E00057212846FFF7EAFC002838D1C7F308070C
:1048F000E85D46EA002014F0010F01D000092DE028
:10490000C0F30B002AE0D0F8241201EB1421FFF7CA
:10491000D5FC38BB640004F4FF742B195B78285D68
:1049200040EA03201AE0D0F8241201EBD411FFF77B
:10493000C5FCD0B9A40004F4FE742B19DA78987879
:10494000000440EA02605B7840EA03202B5D1843D4
:1049500020F0704002E0012070470120F8BD4FF0C8
:10496000FF30FBE74FF0FF30F8E74FF0FF30F5E79F
:10497000F8B50746A0F80612D0F80842012C44D03A
:104980000E46D0F80032D3F81822A2423FD91CB903
:1049900093F80022032A17D0CCB9B3F80822B24208
:1049A00037D9D3F82802C7F80C42D0B300EB161061
:1049B000C7F81002D7F8003206F00F0103EB4111DF
:1049C000C7F814120020F8BDD3F82842E4E793F8A2
:1049D00002522D01AE4212D32146D7F80002FFF752
:1049E00059FF0446B0F1FF3F15D0012815D9D7F87B
:1049F0000032D3F81832834211D9761BEAE72146F8
:104A0000D7F80002FFF737FFCDE70220DBE70220EF
:104A1000D9E70220D7E70120D5E70220D3E702201B
:104A2000D1E70220CFE7012940F285802DE9F0414E
:104A300005460C461646D0F818328B427DD990F8C0
:104A40000032022B42D0032B54D0012B02D0022083
:104A5000BDE8F08101EB5107D0F8241201EB57219A
:104A6000FFF72CFC0028F3D107F10108C7F3080772
:104A700014F001041FD0EB5703F00F03320102F4CE
:104A80007F621343DBB2EB55012385F80432D5F87E
:104A9000241201EB58212846FFF710FC0028D7D13B
:104AA000C8F308084CB1C6F3071205F80820012323
:104AB00085F80432CCE7F3B2E5E715F9082022F0D7
:104AC0000F02C6F303263243D2B2EEE7D0F8241227
:104AD00001EB1421FFF7F2FB0028B9D1640004F4C4
:104AE000FF742B192E55C6F307225A70012385F83F
:104AF0000432ADE7D0F8241201EBD411FFF7DEFB4E
:104B00000028A5D1A40004F4FE742919CA788B7872
:104B10001B0443EA026303F0704333432E55C6F38C
:104B200007224A70C6F307428A701B0ECB7001231E
:104B300085F804328CE702207047022088E7F8B538
:104B400005460F4641B9D0F810629EB1D0F8183230
:104B5000B34210D801260EE0FFF79CFE0346012861
:104B60004BD9B0F1FF3F4DD0D5F81822824249D839
:104B70003E4600E0012634460CE021462846FFF779
:104B800089FE034678B1B0F1FF3F3BD0012839D010
:104B9000B44236D00134D5F81832A342EDD8012EF4
:104BA0002DD90224E9E76FF0704221462846FFF72D
:104BB0003AFF034600B997B9C3B9C5F81042D5F812
:104BC0001432B3F1FF3F1FD0013BC5F8143295F802
:104BD000053243F0010385F80532234612E02246F0
:104BE00039462846FFF71FFF0346E5E7012B01D0B2
:104BF000012307E04FF0FF3304E0012302E000232C
:104C000000E000231846F8BD2346FBE72DE9F843F2
:104C1000B0F806526B1C9AB2002A00F0838004465A
:104C20000F46D0F81022002A7ED013F00F060BD1C9
:104C30000132C0F81022D0F80C1289B9D0F8002245
:104C4000B2F808229A4271D90135A4F80652D4F874
:104C5000003203EB4613C4F814320020BDE8F88399
:104C6000D0F8000290F80222013A12EA1318EBD1B0
:104C7000FFF710FE814601285AD9B0F1FF3F59D005
:104C8000D4F80002D0F818324B4541D8002F53D049
:104C9000D4F80C12FFF753FF814600284ED00128AC
:104CA0004ED0B0F1FF3F4DD0D4F80002FFF7D7FA55
:104CB00008B10120D2E74FF400720021D4F80002BD
:104CC000FFF7C6F8D4F8007249463846FFF7D3FD1F
:104CD000C7F83002D4F8003293F80222424511D9C5
:104CE000012283F80422D4F80002FFF7B8FA58BB77
:104CF000D4F80022D2F830320133C2F8303208F151
:104D00000108E7E7D3F83022A2EB0802C3F830220B
:104D1000C4F80C924946D4F80002FFF7ACFDC4F881
:104D2000100291E7042099E7042097E7042095E713
:104D3000022093E7012091E704208FE707208DE709
:104D400002208BE7012089E7012087E738B5044678
:104D50000021FFF70DFE054640B1284638BD002171
:104D60002046FFF753FF05460028F6D1D4F810126D
:104D7000D4F80002FFF7A2FA05460028EDD1D4F8D6
:104D8000140203785BB1C37A13F0080FE7D10B224A
:104D9000D4F81812FFF764F80028E0D1DDE7042505
:104DA000DBE710B582B0044601910B782F2B01D0C0
:104DB0005C2B01D1013101910023C4F80832019B21
:104DC0001B781F2B1DD901A92046FFF795F9034633
:104DD000F8B92046FFF7BAFFD4F81832DA7A03465A
:104DE000D0B912F0040F14D1D4F81412CB7A13F006
:104DF000100F18D0D4F80002FFF762F9C4F80802C7
:104E0000E1E700212046FFF7B3FD03460022C4F886
:104E10001422184602B010BD0428FAD112F0040F73
:104E2000F7D10523F5E70523F3E770B504460E46F1
:104E30000021FFF79DFD0246D8B9002508E00135A5
:104E4000B54216D001212046FFF7E0FE024680B9A8
:104E5000D4F81012D4F80002FFF730FA024640B935
:104E6000D4F814321B78E52BE9D0002BE7D00025CD
:104E7000E8E7042A01D0104670BD0722FBE738B5E9
:104E800004460121FFF7D1FF054608B1284638BD89
:104E9000D4F81012D4F80002FFF710FA05460028E3
:104EA000F4D120220021D4F81402FEF7D1FF0B2206
:104EB000D4F81812D4F81402FEF7C0FFD4F8003268
:104EC000012283F80422E1E7F8B501292DD904462F
:104ED0000D46D0F818328B422AD9002700E035461B
:104EE000D4F81832AB4221D929462046FFF7D2FC2C
:104EF0000646D8B101281DD0B0F1FF3F1CD00022DA
:104F000029462046FFF78FFD074678B9D4F81432BA
:104F1000B3F1FF3FE3D00133C4F8143294F8053203
:104F200043F0010384F80532D9E702273846F8BD7B
:104F30000227FBE70227F9E70127F7E770B584B0FE
:104F4000019000911646039103A8FFF75FF9041E34
:104F50002FDB1C4B53F8245055B12846FFF77AF845
:104F6000D5F80C0200F053FE28B3002385F8003278
:104F7000019941B1002381F8003201F50371E0B2DB
:104F800000F035FEC8B1019B0E4A42F82430B3B19F
:104F9000012E03D00024204604B070BD00226946D3
:104FA00001A8FFF7F7F9044601460198FFF7F1FB66
:104FB000F1E70B24EFE70224EDE70224EBE70024FE
:104FC000E9E700BF6C2500202DE9F043ADF50F7D2A
:104FD0000191002800F0EF80144606460023C0F837
:104FE000003202F01F0702F01E0201A986A8FFF797
:104FF000D1F9054640B129468698FFF7CAFB2846F5
:105000000DF50F7DBDE8F08303AB8C93019906A8E5
:10501000FFF7C7FEDDF82C82054658B9B8F1000F3E
:105020005DD037F0010314BF0121002106A8FEF76F
:105030002FFF054614F01C0F00F0A780002D5AD05A
:10504000042D4ED047F00807DDF82C8215B917F073
:10505000080F5CD1C5B917F0080F01D047F0200741
:10506000869BD3F83032C6F81C32C6F8208237F05F
:10507000010314BF0121002106A8FEF761FFC6F855
:105080002802002800F09580002DB4D186F8067221
:10509000002486F80742869F41463846FFF710F8FD
:1050A000C6F8100298F81F2098F81E301B0443EA37
:1050B000026398F81D2043EA022398F81C2013434A
:1050C000C6F80C32C6F80842C6F81842C6F82442A0
:1050D000C6F80072B7F80632A6F804328BE7062548
:1050E000A8E7FEF71BFF08B91225ABE706A8FFF7F4
:1050F000C6FE0546A6E798F80B3013F0110F04D151
:1051000014F0040FA2D00825A0E707259EE7FEF7BC
:1051100045FB88F80E00C0F3072388F80F30C0F372
:10512000074388F81030000E88F81100002488F832
:105130000B4088F81C4088F81D4088F81E4088F80D
:105140001F4041468698FEF7BBFF814621464046F8
:10515000FEF7C7FF8698012380F80432B9F1000FEB
:105160003FF478AFD0F830424946FFF7ADFE054630
:1051700000287FF46FAF869809F1FF33C0F8103232
:105180002146FFF79BF8054664E7002D7FF462AFE8
:1051900098F80B3013F0100F09D114F0020F3FF400
:1051A00059AF13F0010F3FF455AF072552E704251F
:1051B00050E702251FE7092521E72DE9F04F83B0CD
:1051C00004468846164699460023C9F80030FFF782
:1051D000BFFA019078B994F8073201938BB994F82B
:1051E000063213F0020F15D0D4F80832F342C0F0A3
:1051F000E1800026DEE00146D4F80002FFF7C9FA9C
:105200009AE01946D4F80002FFF7C3FA94F807327F
:10521000019391E00721D4F80002FFF7BAFA0723BF
:10522000019389E0D4F82432002B3DD02046FEF7CC
:1052300033FF0346002B00F0ED80012B3AD0B3F191
:10524000FF3F41D0C4F81432D4F810220AB9C4F890
:10525000103294F8063213F0400F3FD1D4F800B268
:10526000D4F814125846FFF706FB8246002851D0A6
:10527000BA44750AB6F5007F70D37B199BF80222F9
:10528000934200D9D51B2B46524641469BF801025A
:10529000FEF7BCFD002846D1D4F81812A1EB0A0194
:1052A000A9424DD36D0279E0D4F81412FFF747FC00
:1052B0000346BFE7022584F807522946D4F80002C6
:1052C000FFF767FA019537E0012584F80752294670
:1052D000D4F80002FFF75DFA01952DE0D4F8000242
:1052E0000123D4F81822214690F80102FEF78EFD22
:1052F00030B994F8063223F0400384F80632ADE763
:10530000012584F807522946D4F80002FFF741FA34
:10531000019511E0022584F8075229465846FFF707
:1053200038FA019508E0012584F807522946D4F897
:105330000002FFF72EFA0195019803B0BDE8F08F47
:105340004FF4007208EB41212046FEF777FD94F8F8
:10535000063223F0400384F80632A3E7D4F818326B
:10536000534505D0D4F80822D4F80C329A423ED3E3
:10537000C4F818A2D4F80802C0F30800C0F50075FC
:10538000AE4200D235462A4641462044FEF756FD3D
:1053900094F8063243F0400384F80632A844D4F867
:1053A00008322B44C4F80832D9F800302B44C9F82D
:1053B0000030761B76B3D4F80812C1F30803002B33
:1053C000D8D1D4F8000290F80272013FFFB217EA78
:1053D00051277FF43EAF00297FF424AFD4F8103278
:1053E000002B7FF427AFFFF7AAFB034622E7012338
:1053F000524621469BF80102FEF7FCFC0028B7D07C
:10540000012584F807522946D4F80002FFF7C1F9B4
:10541000019591E7D4F80832D4F80C22934201D9CF
:10542000C4F80C3294F8063243F0200384F80632B4
:105430000021D4F80002FFF7ACF97DE770B582B027
:1054400004460D460A290DD06368002B08DB5E1C5C
:1054500023441D733C2E09DC6660A3680133A360FE
:1054600002B070BD0D21FFF7E9FFEDE7214651F8CD
:105470000C0B01AB3246FFF7A0FE019B9E4202D00F
:105480004FF0FF36E8E70026E6E738B50446FFF7B9
:105490005FF9054600BB94F8063213F0200F1BD0CD
:1054A00013F0400F10D0D4F800020123D4F81822D2
:1054B000214690F80102FEF7A9FCA0B994F8063243
:1054C00023F0400384F80632D4F81C12D4F800020A
:1054D000FEF7F4FE054668B12946D4F80002FFF74E
:1054E00058F9284638BD0121D4F80002FFF751F9D8
:1054F0000125F6E7D4F82052EB7A43F02003EB7253
:1055000094F80C322B77B4F80C321B0A6B7794F8B2
:105510000E32AB7794F80F32EB77D4F8101228469E
:10552000FEF7DFFDFEF73AF9A875C0F30723EB7528
:10553000C0F307432B76000E68760023AB74EB7440
:1055400094F8063223F0200384F80632D4F80032AF
:10555000012283F80422D4F80002FFF72BF9054654
:10556000BAE770B50446FFF790FF054608B1284634
:1055700070BD2046FFF7ECF805460028F7D1D4F8B7
:105580000062D4F82802FEF741FD054610B9002359
:10559000C4F8003200213046FFF7FBF8E7E72DE9B9
:1055A000F84F04460D46FFF7D3F80646D8B994F8ED
:1055B0000712F1B9D4F82432002B00F0C380B5F102
:1055C000FF3F1DD0D4F80C72AF4200D32F46C4F871
:1055D0000872002F60D13146D4F80002FFF7D9F8E5
:1055E0003046BDE8F88F0146D4F80002FFF7D1F845
:1055F000F6E7D4F80002FFF7CCF894F80762EFE77B
:10560000984658F804BBD4F810A2BAF1000F36D06F
:105610004FF0020909F102095146002701370D46F2
:10562000D4F80002FFF736F90146012815D9B0F188
:10563000FF3F1BD001358542F0D0CB4505D3434613
:1056400043F8087BC8F804A09846D4F80032D3F891
:1056500018328B4215D98A46DCE7022684F80762A5
:105660003146D4F80002FFF794F8B9E7012684F830
:1056700007623146D4F80002FFF78BF8B0E74FF02D
:105680000209D4F82432C3F80090D94500F25181C0
:105690000023C8F800309EE707F1FF39494620464D
:1056A000FEF7FAFC0146C4F81402D4F80082404622
:1056B000FFF7E1F860B398F80252013D05EA592579
:1056C0000544C7F30807002F85D0D4F81822AA4252
:1056D00081D094F8063213F0400F0CD001232146FC
:1056E00098F80102FEF792FBD0B994F8063223F045
:1056F000400384F80632D4F8000201232A462146EA
:1057000090F80102FEF776FB98B9C4F8185262E7E8
:10571000022684F8076231464046FFF73AF85FE711
:10572000012684F807623146D4F80002FFF731F809
:1057300056E7012684F807623146D4F80002FFF7E5
:1057400028F84DE7D4F80C32AB4205D294F8062283
:1057500012F0020F00D11D46D4F808320022C4F81E
:1057600008220DB3D4F8000290F802824FEA4828CC
:1057700083B16A1EB2FBF8F2013BB3FBF8F18A4237
:1057800008D3C8F100071F40C4F80872EF1BD4F813
:10579000145207E0D4F81032002B42D0C4F814326F
:1057A0002F461D46002D74D1D4F80832C3F30803E8
:1057B0003BB3D4F81822AA4223D094F8063213F04F
:1057C000400F10D0D4F800020123214690F80102C6
:1057D000FEF71CFB002840F09A8094F8063223F074
:1057E000400384F80632D4F8000201232A462146F9
:1057F00090F80102FEF7FEFA002840F09180C4F80C
:105800001852D4F80832D4F80C2293427FF6E3AE53
:10581000C4F80C3294F8063243F0200384F80632C0
:10582000D9E60021FFF78BF90346012805D0B0F136
:10583000FF3F0BD0C4F81002B0E7022684F80762DD
:105840003146D4F80002FEF7A4FFC9E6012684F829
:1058500007623146D4F80002FEF79BFFC0E62946F6
:10586000D4F80002FFF716F80546B5F1FF3F32D035
:10587000012D39D9D4F80032D3F81832AB4233D9DC
:10588000C4F81452D4F808324344C4F80832A7EBE1
:10589000080747450DD994F8063213F0020FDED001
:1058A0002946D4F80002FFF74AF905460028DCD162
:1058B0004746D4F808323B44C4F80832C7F308031B
:1058C0001BB3D4F8008229464046FEF7D4FFA0B1AE
:1058D00000EB572568E7012684F807623146D4F8C3
:1058E0000002FEF756FF7BE6022684F80762314687
:1058F000D4F80002FEF74DFF72E6022684F8076234
:1059000031464046FEF745FF6AE61D464CE7012654
:1059100084F807623146D4F80002FEF73AFF5FE6EA
:10592000012684F807623146D4F80002FEF731FF01
:1059300056E611264FE60EB42DE9F0479BB023AB97
:1059400053F8045B01900022029203921993F7E04E
:1059500002352178302904D02D2906D000260024D4
:105960000EE0A51C61780126F9E7A51C61780226E6
:10597000F5E704EB840401EB4404303C15F8011B0B
:10598000A1F13003DBB2092BF3D96C2901D04C29EA
:1059900003D146F0040615F8011B002900F0DC8055
:1059A000A1F16103DBB2192B14D8A1F12003DBB202
:1059B000A3F14202162A53D8DFE802F0563B4352C5
:1059C000525252525252525252585252520E524304
:1059D000525250000B46EBE7199B1A1D1992D3F84F
:1059E0000080002700E0013718F80730002BFAD1BB
:1059F00016F0020F0FD104E0202101A8FFF71EFDD1
:105A000037467E1CA742F7D3374604E008F1010869
:105A100001A8FFF713FD98F800100029F6D104E063
:105A2000202101A8FFF70AFD37467E1CA742F7D3C5
:105A300086E0199B1A1D1992197801A8FFF7FEFC40
:105A40007EE00A2016F0040F12D0199A171D19973C
:105A50001268442B18D04FF0000C2BE01020F1E717
:105A600001A8FFF7EBFC6BE00220EBE70820E9E779
:105A7000442B04D0199A171D19971268E9E7199A4F
:105A8000171D19971268E4E7002AE4DA524246F03B
:105A90000806E0E727273B44DBB20CF1010730336F
:105AA0000CF16809E94409F8183CC64510D80F2FD5
:105AB0000ED8BC468646B2FBF0F700FB1723DBB2DC
:105AC00090463A46092BE8D97829E3D00727E2E740
:105AD00016F0080F08D007F168030DEB03072D231C
