:020000040800F2
:1000000000500020B9530008710300087303000872
:10001000750300087703000879030008000000005A
:10002000000000000000000000000000212D00087A
:100030007B03000800000000C12D0008052E000809
:10004000015400080154000801540008015400083C
:10005000015400080154000801540008015400082C
:10006000015400080154000801540008015400081C
:10007000015400080154000801540008015400080C
:1000800001540008015400080154000801540008FC
:1000900001540008015400080154000801540008EC
:1000A00001540008015400080154000801540008DC
:1000B0007D030008015400080154000801540008A1
:1000C00001540008015400080154000801540008BC
:1000D00001540008015400080154000801540008AC
:1000E00001540008015400080154000800000000F9
:1000F0000000000000000000000000000000000000
:0C01000000000000000000005FF808F1A3
:1001100010B5054C237833B9044B13B10448AFF341
:1001200000800123237010BD8C000020000000001F
:100130009864000808B5034B1BB103490348AFF3AB
:10014000008008BD000000009000002098640008B6
:1001500008B50368B3F1804F00D008BD00F0A6FADF
:10016000FBE7000010B514464FF0FF3392B202488F
:1001700000F023FA204610BDA800002072B6FEE76A
:1001800000B591B02822002106A805F073F90023DC
:1001900001930293039304930593012206924FF473
:1001A000803307930A9202220D920E934FF4E013CC
:1001B0000F9306A800F0A2FA80B90F230193022141
:1001C0000291002303934FF480620492059301A8E7
:1001D00000F0C6FC20B911B05DF804FBFFF7CEFFBC
:1001E000FFF7CCFF08B500F04FFAFFF7C9FF00F0AA
:1001F0001BF800F067F8094805F0CAF902F0BAFEEA
:10020000074805F0C5F902F013FF064805F0C0F9EC
:1002100000F0D4FF02F054FBFEE700BFCC640008FE
:10022000E4640008F8640008F0B589B00024049480
:10023000059406940794204B9A6942F010029A6143
:100240009A6902F010020192019A9A6942F0200222
:100250009A619A6902F020020292029A9A6942F027
:1002600004029A619B6903F004030393039B134FF9
:1002700022464FF40051384600F07EFE104D2246D3
:100280001021284600F078FE4FF400530493012615
:10029000059606940223079304A9384600F05AFDF8
:1002A00010230493059606940323079304A9284674
:1002B00000F050FD09B0F0BD0010024000100140F8
:1002C0000008014008B50A480A4B03604FF4E133C7
:1002D000436000238360C36003610C224261836139
:1002E000C36100F03AF900B908BDFFF747FFFBE72B
:1002F000A80000200038014010B586B0002302930A
:100300000393049305930268174B9A4201D006B0F9
:1003100010BD03F558439A6942F480429A619A6984
:1003200002F480420092009A9A6942F004029A61B3
:100330009B6903F004030193019B4FF40073029344
:100340000223039303230593084C02A9204600F0DF
:1003500001FD4FF48063029300230393049302A9E9
:10036000204600F0F7FCD2E70038014000080140C9
:10037000FEE7FEE7FEE7FEE7FEE7704708B5024846
:1003800000F0BEFF08BD00BF5003002000B583B0E1
:10039000114B9A6942F001029A619A6902F00102D6
:1003A0000092009ADA6942F08052DA61DB6903F068
:1003B00080530193019B00220F216FF0010000F098
:1003C000FDFD064A536823F0E06343F08063536009
:1003D00003B05DF804FB00BF0010024000000140C4
:1003E000026802F10C0353E8003F23F490730C32CF
:1003F00042E800310029F3D1026802F1140353E806
:10040000003F23F00103143242E800310029F3D108
:10041000036B012B05D0202380F8423000230363B7
:100420007047026802F10C0353E8003F23F0100309
:100430000C3242E800310029F3D1ECE710B5044654
:100440000268136923F44053C1680B431361836846
:100450000269134342691A430168CB6823F4B0531D
:1004600023F00C031343CB600268536923F44073F9
:1004700081690B4353610268134B9A4220D000F00C
:100480002BFC024602EB820202EB820263689B00B5
:10049000B2FBF3F20D48A0FB02314909642303FBD0
:1004A00011231B013233A0FB03235B0903F0F0028D
:1004B00002EB011203F00F03216813448B6010BD9F
:1004C00000F01AFC0246DDE7003801401F85EB51C1
:1004D0002DE9F04383B005460E4617469946DDF8F0
:1004E00028802C68246836EA04030CBF4FF0010C06
:1004F0004FF0000CBC4528D1B8F1FF3FF1D000F01F
:10050000E1F8A0EB0900404523D8B8F1000F22D054
:100510002B68DA6812F0040FE3D0802EE1D0402E71
:10052000DFD01A6812F0080FDBD0002401941A689B
:1005300001925B680193019B2846FFF751FF082356
:100540006B6485F84040012000E0002003B0BDE866
:10055000F0830320FAE70320F8E760B310B5044600
:1005600090F8413013B3242384F841302268D368D3
:1005700023F40053D3602046FFF760FF226813691D
:1005800023F4904313612268536923F02A035361D3
:100590002268D36843F40053D360002060642023B2
:1005A00084F8413084F84230606310BD80F84030F8
:1005B000FFF7A2FED7E7012070472DE9F04182B096
:1005C0001E4690F84130DBB2202B56D104460D4632
:1005D0009046002955D00AB901204FE0002343641A
:1005E000212380F8413000F06DF80746A4F82480FC
:1005F000A4F82680A368B3F5805F02D04FF000080E
:1006000014E023692BB34FF000080FE0202384F897
:100610004130032032E038F8023B2268C3F308037C
:100620005360E28C92B2013A92B2E284E38C9BB2C4
:1006300093B100963B46002280212046FFF748FFF9
:100640000028E3D1002DE6D015F8012B23685A606D
:10065000E7E7A8460025E9E700963B46002240214F
:100660002046FFF735FF18B9202384F8413005E014
:10067000202384F84130032000E0022002B0BDE8CE
:10068000F0810120FAE7000008B5074A136843F03B
:1006900010031360032000F07FFC0F2000F0A6FD84
:1006A000FFF774FE002008BD00200240034A1168D5
:1006B000034B1B780B441360704700BFF000002011
:1006C00000000020014B1868704700BFF0000020B8
:1006D00082B0084B1B68084AA2FB03235B0A00FB9D
:1006E00003F3019300BF019B5A1E0192002BF9D125
:1006F00002B0704708000020D34D6210002800F0BF
:10070000F18170B582B00446036813F0010F2CD05C
:10071000994B5B6803F00C03042B1DD0964B5B6870
:1007200003F00C03082B12D06368B3F5803F41D06F
:10073000002B55D103F1804303F504331A6822F4EA
:1007400080321A601A6822F480221A6037E08A4BDD
:100750005B6813F4803FE7D0874B1B6813F4003FBE
:1007600003D06368002B00F0BF81236813F0020FF1
:1007700075D0814B5B6813F00C0F5FD07E4B5B68CC
:1007800003F00C03082B54D02369002B00F08A805F
:100790007A4B01221A60FFF795FF0546764B1B68DE
:1007A00013F0020F75D1FFF78DFF401B0228F5D91A
:1007B00003209EE1704A136843F48033136063683A
:1007C00043B3FFF77FFF05466B4B1B6813F4003FF5
:1007D000CBD1FFF777FF401B6428F5D9032088E1D0
:1007E000B3F5A02F09D0644B1A6822F480321A6046
:1007F0001A6822F480221A60E1E703F18043A3F52E
:100800003C331A6842F480221A601A6842F480323B
:100810001A60D4E7FFF756FF0546574B1B6813F4E1
:10082000003FA2D0FFF74EFF401B6428F5D90320FC
:100830005FE1514B5B6813F4803FA5D14E4B1B68C1
:1008400013F0020F03D02369012B40F04F814A4A75
:10085000136823F0F803616943EAC1031360236856
:1008600013F0080F33D0A369002B5CD0434B012257
:10087000C3F88024FFF726FF05463F4B5B6A13F061
:10088000020F21D1FFF71EFF401B0228F5D90320DC
:100890002FE1394A136823F0F803616943EAC10381
:1008A0001360DCE7354B00221A60FFF70BFF0546AB
:1008B000314B1B6813F0020FD1D0FFF703FF401B31
:1008C0000228F5D9032014E10120FFF701FF236876
:1008D00013F0040F00F09680274BDB6913F0805F64
:1008E00034D1254BDA6942F08052DA61DB6903F0DA
:1008F00080530193019B0125214B1B6813F4807FDA
:1009000026D0E368012B3DD0002B53D103F1804367
:1009100003F504331A6A22F001021A621A6A22F0FD
:1009200004021A6233E0154B0022C3F88024FFF75B
:10093000C9FE0546104B5B6A13F0020FC7D0FFF7E4
:10094000C1FE401B0228F5D90320D2E00025D3E7E1
:100950000B4A136843F480731360FFF7B3FE064637
:10096000074B1B6813F4807FCBD1FFF7ABFE801BD6
:100970006428F5D90320BCE0001002400000424288
:10098000007000405F4A136A43F001031362E3689A
:1009900033B3FFF797FE06465A4B1B6A13F0020F5C
:1009A0002FD1FFF78FFE801B41F288339842F3D995
:1009B00003209EE0052B09D0524B1A6A22F0010257
:1009C0001A621A6A22F004021A62E0E74D4B1A6AB0
:1009D00042F004021A621A6A42F001021A62D6E771
:1009E000FFF770FE0646474B1B6A13F0020F08D054
:1009F000FFF768FE801B41F288339842F3D9032049
:100A000077E0E5B9E369002B72D03E4A526802F004
:100A10000C02082A56D0022B17D03B4B00221A6634
:100A2000FFF750FE0446374B1B6813F0007F47D09A
:100A3000FFF748FE001B0228F5D9032059E0314A90
:100A4000D36923F08053D361DCE72F4B00221A6671
:100A5000FFF738FE05462B4B1B6813F0007F06D0CE
:100A6000FFF730FE401B0228F5D9032041E0236A3E
:100A7000B3F5803F1AD023494B6823F47413226ADC
:100A8000606A024313434B601F4B01221A66FFF753
:100A900019FE04461B4B1B6813F0007F0ED1FFF7B5
:100AA00011FE001B0228F5D9032022E0154A5368E5
:100AB00023F40033A1680B435360DCE7002018E007
:100AC000002016E0012B16D00E4B5B6803F480313A
:100AD000226A914211D103F47013626A93420ED1DB
:100AE000002006E001207047012002E0012000E024
:100AF000002002B070BD0120FBE70120F9E70120D2
:100B0000F7E700BF00100240000042420F4B5B6855
:100B100003F00C02082A01D00D487047C3F383424A
:100B20000C49885C13F4803F0BD0084B5B68C3F31F
:100B30004043094AD35C064A02FB00F0B0FBF3F0E5
:100B40007047064B03FB00F0704700BF00100240E7
:100B500000127A00106500082065000800093D00B9
:100B6000002800F0A08070B50D460446524B1B686B
:100B700003F007038B420BD24F4A136823F007039D
:100B80000B431360136803F007038B4240F08D8022
:100B9000236813F0020F17D013F0040F04D0474A54
:100BA000536843F4E0635360236813F0080F04D0E4
:100BB000424A536843F460535360404A536823F0F9
:100BC000F003A1680B435360236813F0010F31D089
:100BD0006368012B20D0022B25D0384A126812F00E
:100BE000020F64D035494A6822F0030213434B6078
:100BF000FFF768FD0646314B5B6803F00C03626843
:100C0000B3EB820F16D0FFF75DFD801B41F28833F6
:100C10009842F0D9032045E0284A126812F4003FB8
:100C2000E0D101203EE0254A126812F0007FD9D1C0
:100C3000012037E0204B1B6803F00703AB420AD9C1
:100C40001D4A136823F007032B431360136803F056
:100C50000703AB422DD1236813F0040F06D0174AC7
:100C6000536823F4E063E1680B435360236813F097
:100C7000080F07D0114A536823F46053216943EAEF
:100C8000C1035360FFF742FF0C4B5B68C3F30313D0
:100C90000B4AD35CD8400B4B18600B4B186800F024
:100CA000A5FA002070BD012070470120FAE701205D
:100CB000F8E70120F6E700BF0020024000100240E4
:100CC000246500080800002004000020014B18687B
:100CD000704700BF0800002008B5FFF7F7FF044B7E
:100CE0005B68C3F30223034AD35CD84008BD00BF4E
:100CF000001002403465000808B5FFF7E7FF044B19
:100D00005B68C3F3C223034AD35CD84008BD00BF6D
:100D100000100240346500080F2303600B4B5A6833
:100D200002F0030242605A6802F0F00282605A68E0
:100D300002F4E062C2605B68DB0803F4E063036115
:100D4000034B1B6803F007030B6070470010024061
:100D50000020024070B582B00024A446A6E0804D79
:100D6000AA4210D007D97F4DAA420CD005F5803594
:100D7000AA4208D013E0A5F58015AA4203D005F5D4
:100D80007025AA4207D18A68002A58D0012A51D07A
:100D90004361082403E0A5F58015AA42F3D0BEF113
:100DA000FF0F4ED80646BEF1FF0F4CD84FEA8C021B
:100DB00033680F25954023EA050304FA02F2134332
:100DC00033604B6813F0805F6ED0674B9A6942F0D6
:100DD00001029A619B6903F001030193019B4FEAB1
:100DE0009C02951C614B53F825600CF003039D0099
:100DF0000F23AB4026EA03065D4B984229D003F54A
:100E00008063984200F08E8003F58063984200F082
:100E10008B8003F58063984219D004231AE0CC68D4
:100E2000BDE7CC680434BAE7CC680834B7E7CC68CF
:100E30000C34B4E703610824B1E70024AFE70424CD
:100E4000ADE7061DAFE7ACF108029200B0E703235F
:100E500000E00023AB4033430232444D45F82230DA
:100E60004B6813F4801F61D0424A936843EA0E0333
:100E700093604B6813F4001F5ED03E4AD36843EA88
:100E80000E03D3604B6813F4003F5BD0394A5368BC
:100E900043EA0E0353604B6813F4803F58D0354A41
:100EA000136843EA0E0313600CF1010C0A6832FA6E
:100EB0000CF353D0012303FA0CF302EA030E33EAD6
:100EC0000202F1D14A68122A3FF649AF122A3FF6D0
:100ED00066AF01A555F822F0870D00081F0E000827
:100EE000290E00083B0E00089F0D00089F0D00080A
:100EF0009F0D00089F0D00089F0D00089F0D000822
:100F00009F0D00089F0D00089F0D00089F0D000811
:100F10009F0D00089F0D00089F0D0008230E00087C
:100F20002F0E0008012395E7022393E7114A9368E7
:100F300023EA0E0393609CE70E4AD36823EA0E036C
:100F4000D3609FE70B4A536823EA0E035360A2E77E
:100F5000084A136823EA0E031360A5E702B070BDC8
:100F6000000022100000311000100240000001407B
:100F700000080140000401400AB101617047090402
:100F800001617047C36801EA030221EA030141EAF3
:100F90000241016170470000074AD36823F4E0630F
:100FA0001B041B0C000200F4E060034343F0BF632A
:100FB00043F40033D360704700ED00E000B5194BF7
:100FC000DB68C3F30223C3F1070CBCF1040F28BF95
:100FD0004FF0040C03F1040EBEF1060F18D9033BC9
:100FE0004FF0FF3E0EFA0CFC21EA0C0199400EFA7C
:100FF00003F322EA0303194300280BDB0901C9B2FA
:1010000000F1604000F5614080F800135DF804FBDA
:101010000023E5E700F00F000901C9B2024B1954A3
:10102000F4E700BF00ED00E014ED00E0002807DB6E
:1010300000F01F02400901239340024A42F8203089
:10104000704700BF00E100E07047000010B50346A4
:101050000C4A0D490D48006840B10C480068034433
:10106000521A934206D8094A136010BD0748084C2B
:101070000460F2E704F0C6F90C2303604FF0FF3080
:10108000F3E700BF0050002000040000F40000203F
:10109000A025002070B50C461646002506E0AFF3EB
:1010A0000080214601F8010B01350C46B542F6DB04
:1010B000304670BD4FF0FF3070474FF400534B6027
:1010C00000207047012070470020704710B5ADF533
:1010D0008D6D012210212948FFF74EFF642001F099
:1010E00029FCFF238DF80330002407E00A230122A6
:1010F0000DF10301224802F0A8F90134132CF5DDAB
:10110000204804F045FA01221F498DA803F04AFC4B
:10111000014660B11D4804F0B5F94FF400511C4878
:10112000FFF730FF4FF47A7001F004FCF5E719483F
:1011300004F02EFA1222184902A803F079FC58B1E3
:101140004FF400511248FFF71DFFC82001F0F2FBD9
:10115000124804F01DFAF3E7859902A803F00EFF88
:1011600001AB0A220E4902A803F05BFD02A803F0BE
:1011700099FE4FF47A7001F0DDFBF1E700080140C1
:1011800004250020446500085C25002060650008F7
:1011900000100140746500088C650008986500081F
:1011A000A8650008034B0360034B0B6080231360AA
:1011B000704700BFFC020020FC00002010B588B082
:1011C0000DF1040C074C0FCCACE80F0094E80700BD
:1011D0008CE80700002101A801F077FB024B1860A2
:1011E00008B010BDB0640008F800002030B589B028
:1011F0000446224BDA6942F00102DA61DB6903F04E
:1012000001030193019B02A903A8FFF785FD069B3B
:10121000D3B9FFF761FD03461948A0FB03239B0CDC
:10122000013B18484FF08042026040F2E732C26052
:101230004360002303618360836100F053F9054636
:1012400030B1284609B030BDFFF746FD4300E3E763
:101250000C4800F01DF805460028F2D11C20FFF7CD
:10126000E5FE0F2C01D90125EBE7002221461C20C9
:10127000FFF7A4FE044B1C60E3E700BF0010024030
:1012800083DE1B4350030020040000207047000051
:1012900090F83D30DBB2012B27D1022380F83D309E
:1012A0000268D36843F00103D3600368114A934294
:1012B00010D0B3F1804F0DD0A2F59432934209D0F3
:1012C00002F58062934205D01A6842F001021A606A
:1012D000002070479A6802F00702062A07D01A68B1
:1012E00042F001021A600020704701207047002080
:1012F000704700BF002C014070477047704770472F
:1013000070B504460368DE681D6915F0020F10D041
:1013100016F0020F0DD06FF002021A61012303775D
:1013200003689B6913F0030F5ED0FFF7E6FF00230D
:10133000237715F0040F12D016F0040F0FD0236896
:101340006FF004021A610223237723689B6913F468
:10135000407F4FD02046FFF7D0FF0023237715F0C2
:10136000080F12D016F0080F0FD023686FF0080294
:101370001A61042323772368DB6913F0030F40D03D
:101380002046FFF7BAFF0023237715F0100F12D085
:1013900016F0100F0FD023686FF010021A610823A7
:1013A00023772368DB6913F4407F31D02046FFF7B1
:1013B000A4FF0023237715F0010F02D016F0010FD0
:1013C0002DD115F0800F02D016F0800F2FD115F01F
:1013D000400F02D016F0400F31D115F0200F02D08F
:1013E00016F0200F33D170BDFFF786FF2046FFF7C0
:1013F00085FF9CE72046FFF77FFF2046FFF77EFF33
:10140000ABE72046FFF778FF2046FFF777FFBAE704
:101410002046FFF771FF2046FFF770FFC9E72368FA
:101420006FF001021A612046FEF792FEC9E72368B9
:101430006FF080021A61204600F081F8C7E7236848
:101440006FF040021A612046FFF759FFC5E7236895
:101450006FF020021A61204600F070F8C3E7000028
:1014600003681F4A90420AD0B0F1804F07D0A2F51E
:101470009432904203D002F58062904203D123F06F
:1014800070034A681343164A90420AD0B0F1804F65
:1014900007D0A2F59432904203D002F580629042C8
:1014A00003D123F44073CA68134323F080034A69CD
:1014B000134303608B68C3620B688362084B9842D6
:1014C0000AD001234361036913F0010F03D00369BC
:1014D00023F00103036170470B690363F1E700BF69
:1014E000002C014040B310B5044690F83D30F3B1F4
:1014F000022384F83D30214651F8040BFFF7B0FF7A
:10150000012384F8463084F83E3084F83F3084F874
:10151000403084F8413084F8423084F8433084F815
:10152000443084F8453084F83D30002010BD80F808
:101530003C30FFF7ABFEDBE7012070477047704798
:1015400000F1080343604FF0FF328260C360036123
:1015500000230360704700230361704743684B60BA
:101560009A688A605160996008610368013303607A
:10157000704730B40D68B5F1FF3F11D000F108039A
:101580001C465B681A68AA42FAD963684B60996086
:101590008C606160086103680133036030BC704790
:1015A0000469F2E70369416882688A6041685160B2
:1015B0005A68824206D0002202611A68013A1A6013
:1015C0001868704782685A60F5E70346406A18B1A8
:1015D0001B6B1868C0F10500704710B5044601F098
:1015E000B1FBA26BE36B9A4204D0002401F0CCFB68
:1015F000204610BD0124F9E710B5044601F0A2FB16
:10160000A36B23B9012401F0BFFB204610BD0024C9
:10161000F9E770B504461546866B026C5AB9036843
:101620001BB100200136A66370BD806801F07AF816
:101630000023A360F6E76DB9406803F00DFF226C4C
:10164000636813446360A268934219D3236863609C
:101650002846E7E7C06803F0FFFE226C5142E368CA
:101660009B1AE3602268934202D2A3680B44E360B2
:10167000022D01D00020D5E726B1013E0020D1E7A0
:101680002846CFE70020CDE708B50346026C62B1DB
:101690000846D9681144D960D3F808C0614501D320
:1016A0001968D960D96803F0D7FE08BD38B505467A
:1016B00001F048FB95F8454064B201E0013C64B29A
:1016C000002C0ADD6B6A43B105F1240000F02AFF0B
:1016D0000028F3D000F0BAFFF0E7FF2385F845308B
:1016E00001F052FB01F02EFB95F8444064B201E09A
:1016F000013C64B2002C0ADD2B6943B105F11000F6
:1017000000F010FF0028F3D000F0A0FFF0E7FF2367
:1017100085F8443001F038FB38BD38B5E0B10D46EE
:10172000044601F00FFB2368E26B216C01FB0230E1
:10173000A0600020A0636360013A02FB0133E36014
:10174000FF2384F8443084F84530FDB9236963B938
:1017500001F01AFB012038BD4FF0500383F31188CC
:10176000BFF36F8FBFF34F8FFEE704F1100000F05F
:10177000D9FE0028ECD04FF0E0234FF08052C3F8A0
:10178000042DBFF34F8FBFF36F8FE1E704F110001B
:10179000FFF7D6FE04F12400FFF7D2FED8E710B51C
:1017A000034602980C4631B90060C363046401210A
:1017B000FFF7B3FF10BD0260F7E740B94FF05003E9
:1017C00083F31188BFF36F8FBFF34F8FFEE710B520
:1017D00084B01C46844653B192B189B94FF050038E
:1017E00083F31188BFF36F8FBFF34F8FFEE74FF086
:1017F000500383F31188BFF36F8FBFF34F8FFEE762
:101800006AB148230393039B482B13D04FF0500336
:1018100083F31188BFF36F8FBFF34F8FFEE700296B
:10182000EFD04FF0500383F31188BFF36F8FBFF3F6
:101830004F8FFEE7039B012384F8463000949DF808
:1018400018306046FFF7ABFF204604B010BD40B92A
:101850004FF0500383F31188BFF36F8FBFF34F8FA7
:10186000FEE7F0B583B00D461446064601FB00F0D6
:10187000483001F055F9074650B1002380F8463052
:101880000090234600F1480229463046FFF787FFC3
:10189000384603B0F0BDF0B585B0019288B10F466F
:1018A0001D460446B1B1022D20D1E36B012B1DD0A2
:1018B0004FF0500383F31188BFF36F8FBFF34F8F47
:1018C000FEE74FF0500383F31188BFF36F8FBFF330
:1018D0004F8FFEE7036C002BE5D04FF0500383F3EE
:1018E0001188BFF36F8FBFF34F8FFEE700F0B4FE98
:1018F000064658B9019B002B48D04FF0500383F3A4
:101900001188BFF36F8FBFF34F8FFEE700263DE0D6
:101910002A4639462046FFF77CFE636A7BB948B108
:101920004FF0E0234FF08052C3F8042DBFF34F8FE8
:10193000BFF36F8F01F028FA012005B0F0BD04F16C
:10194000240000F0EFFD0028F4D04FF0E0234FF02A
:101950008052C3F8042DBFF34F8FBFF36F8FE9E7B9
:1019600001F012FA0020E8E702A800F021FE0126AB
:1019700019E0002384F8443021E0002384F8453046
:1019800023E02046FFF792FE00F0C6FC01F0DAF9F2
:10199000A26BE36B9A42BBD3022DB9D0019B002B03
:1019A000DED0002EE0D001F0EFF900F021FC01F0D4
:1019B000C9F994F8442052B2B2F1FF3FD9D094F85B
:1019C000452052B2B2F1FF3FD7D001F0DDF901A9B5
:1019D00002A800F0F9FDD8B92046FFF7FEFD002867
:1019E000CFD0019904F1100000F084FD2046FFF7EC
:1019F0005DFE00F091FC0028C8D14FF0E0234FF0CD
:101A00008052C3F8042DBFF34F8FBFF36F8FBDE734
:101A10002046FFF74BFE00F07FFC00208DE768B109
:101A200070B50C460546036C8BB14FF0500383F341
:101A30001188BFF36F8FBFF34F8FFEE74FF0500356
:101A400083F31188BFF36F8FBFF34F8FFEE70368F7
:101A5000EBB101F061FAEFF311864FF0500383F31D
:101A60001188BFF36F8FBFF34F8FAA6BEB6B93425D
:101A700026D995F845305BB20132AA63B3F1FF3F36
:101A800011D001335BB285F84530012019E083683D
:101A9000002BDED04FF0500383F31188BFF36F8F1C
:101AA000BFF34F8FFEE76B6A0BB9012009E005F128
:101AB000240000F037FD38B144B10120206000E07F
:101AC000002086F3118870BD0120FAE70120F8E7B5
:101AD00070B584B0019158B10446036C8BB14FF0DE
:101AE000500383F31188BFF36F8FBFF34F8FFEE76F
:101AF0004FF0500383F31188BFF36F8FBFF34F8F05
:101B0000FEE700F0A9FD054650B9019B5BB14FF01F
:101B1000500383F31188BFF36F8FBFF34F8FFEE73E
:101B20000026354655E0064653E0013BA363236893
:101B30003BB123694BB901F027F90126304604B0C7
:101B400070BD00F0A3FEA060F3E704F1100000F008
:101B5000E9FC0028EFD04FF0E0234FF08052C3F8AB
:101B6000042DBFF34F8FBFF36F8FE4E746B14FF003
:101B7000500383F31188BFF36F8FBFF34F8FFEE7DE
:101B800001F002F9DAE702A800F012FD01252AE0CF
:101B9000002384F8443032E0002384F8453034E0F8
:101BA00001F0D0F8A06800F067FD064601F0ECF8FF
:101BB0003BE02046FFF77AFD00F0AEFB09E020464F
:101BC000FFF774FD00F0A8FB2046FFF715FD002885
:101BD00042D101F0B7F8A36B002BA6D1019B002BDB
:101BE000C4D0002DCFD001F0CFF800F001FB01F000
:101BF000A9F894F844305BB2B3F1FF3FC8D094F831
:101C000045305BB2B3F1FF3FC6D001F0BDF801A98A
:101C100002A800F0D9FC0028D1D12046FFF7ECFC47
:101C20000028C6D02368002BBAD0019904F1240003
:101C300000F060FC2046FFF739FD00F06DFB002846
:101C4000C7D14FF0E0234FF08052C3F8042DBFF30B
:101C50004F8FBFF36F8FBCE70EB900266EE701F020
:101C600071F82046FFF7B1FC0146A06800F0B4FD12
:101C700001F08AF8F1E72DE9F843B0B10D461646B8
:101C80000446D9B101F048F9EFF311884FF0500341
:101C900083F31188BFF36F8FBFF34F8FA76BCFB95B
:101CA000002088F31188BDE8F8834FF0500383F3D8
:101CB0001188BFF36F8FBFF34F8FFEE7036C002BCC
:101CC000E0D04FF0500383F31188BFF36F8FBFF361
:101CD0004F8FFEE794F844904FFA89F92946204641
:101CE000FFF7D2FC013FA763B9F1FF3F06D009F12E
:101CF00001035BB284F844300120D2E723690BB9B9
:101D00000120CEE704F1100000F00CFC18B126B160
:101D100001203060C5E70120C3E70120C1E70000D2
:101D20000023072B0FD8084A02EBC30252688242F5
:101D300001D00133F5E7044A002142F8331002EBE9
:101D4000C3035960704770479803002038B110B53D
:101D50000446FFF7E5FF94F846304BB110BD4FF055
:101D6000500383F31188BFF36F8FBFF34F8FFEE7EC
:101D7000204600F053FFF1E7084B1B681B6823B9AE
:101D8000074B4FF0FF321A607047044B1B68DB684B
:101D9000DB685A68024B1A60704700BFDC03002002
:101DA000880400202DE9F04707469846089DDDF895
:101DB00024900A9C266B02F18042013A06EB8206CF
:101DC00026F0070600293AD08E464FF0000CBCF1F1
:101DD0000F0F0BD81EF80C2004EB0C0383F83420F3
:101DE0001EF80C3013B10CF1010CF0E7002384F85D
:101DF0004330042D00D90425E56265644FF0000AE4
:101E0000C4F848A0201DFFF7A6FB04F11800FFF757
:101E1000A2FB2461C5F10505A5616462C4F84CA06C
:101E200084F850A042463946304600F065FF2060F5
:101E3000B9F1000F01D0C9F80040BDE8F0870023D8
:101E400084F83430D5E7000038B5002407E004EB0F
:101E5000840293000E481844FFF772FB0134042CEF
:101E6000F5D90C4D2846FFF76BFB0B4C2046FFF7CE
:101E700067FB0A48FFF764FB0948FFF761FB094865
:101E8000FFF75EFB084B1D60084B1C6038BD00BFB0
:101E9000E40300205C04002070040020940400206F
:101EA000C0040020AC040020DC030020E00300207C
:101EB00010B5044600F046FF214A13680133136051
:101EC000204B1B685BB1204B1B686BB91D4B1B681B
:101ED000DA6AE36A9A4207D81A4B1C6004E0194B8D
:101EE0001C601368012B28D0184A13680133136053
:101EF000E06A01238340164A11680B43136000EB2C
:101F00008000211D134B03EB8000FFF727FB00F03F
:101F10003BFF0D4B1B687BB10A4B1B68DA6AE36A17
:101F20009A4209D24FF0E0234FF08052C3F8042DBB
:101F3000BFF34F8FBFF36F8F10BDFFF785FFD3E760
:101F400048040020D8030020A804002054040020E6
:101F500058040020E403002010B5044690F85130E6
:101F600063B1012B11D0022B0ED04FF0500383F33D
:101F70001188BFF36F8FBFF34F8FFEE7006B00F048
:101F80004DFE204600F04AFE10BD00F047FEFBE784
:101F90000F4B1B68D3B110B500F0D4FE0D4BDB68BE
:101FA000DC68201DFFF7FEFA0B4A1368013B136043
:101FB000074A1368013B136000F0E6FE2046FFF776
:101FC000CBFF034B1B68002BE6D110BD704700BF51
:101FD0004C040020C00400204804002008B5FFF78E
:101FE000D7FF074B1B68012BF9D94FF0E0234FF0C7
:101FF0008052C3F8042DBFF34F8FBFF36F8FEEE70E
:10200000E403002070B504460D461D4B1E681D4BB1
:1020100018680430FFF7C6FA50B91A4B1B68DA6A21
:10202000012303FA02F218490B6823EA02030B604A
:10203000B4F1FF3F0DD03444124B1B685C60A642E4
:1020400010D9124B18680F4B19680431FFF791FA39
:1020500070BD002DEFD00B4B196804310C48FFF711
:102060007DFAF5E70B4B1868064B19680431FFF74A
:1020700080FA094B1B68A342EAD9074B1C60E7E7CB
:10208000D4040020D803002058040020E0030020DE
:10209000AC040020DC0300208804002030B587B0A9
:1020A0000B9C7CB10C9DB5B154250495049D542D19
:1020B0001AD04FF0500383F31188BFF36F8FBFF333
:1020C0004F8FFEE74FF0500383F31188BFF36F8FFC
:1020D000BFF34F8FFEE74FF0500383F31188BFF338
:1020E0006F8FBFF34F8FFEE7049D0C9D2C6302247E
:1020F00085F8514000240394029505AC01940A9C94
:102100000094FFF74FFE0C98FFF7D2FE059807B03A
:1021100030BD2DE9F04385B00746884614461E467B
:10212000900000F0FDFC00B38146542000F0F8FC64
:102130000546B0B1C0F83090E5B1002385F85130C4
:10214000039302950D9B01930C9B0093334622460B
:1021500041463846FFF726FE2846FFF7A9FE012034
:1021600005E0484600F05AFDE6E74FF0FF3005B0C5
:10217000BDE8F0834FF0FF30F9E7000010B588B0FC
:1021800000240594069407AA06A905A8FFF70AF8F3
:10219000059B0293069B019300942346079A0E49E0
:1021A0000E48FFF77BFF0E4B186090B14FF05003C5
:1021B00083F31188BFF36F8FBFF34F8F094B4FF03D
:1021C000FF321A60084B01221A60084B1C6000F0B5
:1021D00043FE08B010BD00BFB4650008DD1F000855
:1021E0008404002088040020A8040020D4040020D7
:1021F000024A136801331360704700BF5004002087
:10220000F8B53A4B1B68002B69D1394B1D68013575
:102210001D60C5B9374B1B681B6843B14FF05003B5
:1022200083F31188BFF36F8FBFF34F8FFEE7314AFF
:102230001168314B186810601960304A1368013317
:102240001360FFF799FD2E4B1B68AB423DD9002769
:102250002C4B1B68DB6A03EB83039A002A4B9B58C9
:10226000012B00D90127294B1B68002B3CD00127EB
:102270003AE001271F4B1B681B6843B31D4B1B68CB
:10228000DB68DC6863689D4226D3261D3046FFF775
:1022900089F9A36A1BB104F11800FFF783F9E36A17
:1022A00001229A401A49086802430A6003EB83033B
:1022B0009A00314614481044FFF750F9E26A114B76
:1022C0001B68DB6A9A42D4D2D4E70027D2E70C4BD2
:1022D0004FF0FF321A60BBE7094A1360B8E70D4AB6
:1022E00013680133136000273846F8BD50040020FE
:1022F000D4040020DC030020E00300208C04002034
:1023000088040020D8030020E4030020D804002023
:10231000580400209004002038B5354B1B6843B9A1
:102320004FF0500383F31188BFF36F8FBFF34F8FCC
:10233000FEE700F007FD2E4B1A68013A1A601B6891
:10234000002B4FD12B4B1B680BB900244BE0002412
:10235000294B1B681BB3284BDB68DC6804F11800B1
:10236000FFF720F9251D2846FFF71CF9E06A012335
:102370008340224A11680B43136000EB800029461A
:102380001F4B03EB8000FFF7E9F8E26A1D4B1B6867
:10239000DB6A9A42DCD31C4B01221A60D8E70CB1ED
:1023A000FFF7EAFC194B1C6884B9174B1C68D4B1C1
:1023B0004FF0E0234FF08052C3F8042DBFF34F8F4E
:1023C000BFF36F8F01240EE0013C07D0FFF718FF29
:1023D0000028F9D00C4B01221A60F5E70B4B0022C4
:1023E0001A60E2E7002400F0CFFC204638BD00BFB1
:1023F00050040020480400209404002058040020C9
:10240000E4030020D8030020D8040020900400201A
:1024100010B5A8B10446104B1B6843B14FF05003F0
:1024200083F31188BFF36F8FBFF34F8FFEE7FFF782
:10243000DFFE00212046FFF7E5FDFFF76DFF48B9FD
:102440004FF0E0234FF08052C3F8042DBFF34F8FBD
:10245000BFF36F8F10BD00BF50040020204B1B68DE
:102460001BB1204B01221A6070471E4B00221A60DC
:102470001D4B1B68B3FA83F3DBB2C3F11F0303EBFD
:1024800083018A0019498A5842B94FF0500383F3F7
:102490001188BFF36F8FBFF34F8FFEE7134903EB34
:1024A000830082000A4450684068506003EB830C4C
:1024B0004FEA8C0208321144884209D003EB8303AF
:1024C0009A000A4B13445B68DA68094B1A6070473C
:1024D000406862469100054A0A445060EEE700BF3A
:1024E00050040020D804002058040020E4030020F9
:1024F000D803002058B110B50C46094A11681831AC
:10250000FFF737F801212046FFF77CFD10BD4FF0A3
:10251000500383F31188BFF36F8FBFF34F8FFEE734
:10252000D803002038B5C368DC6824B304F118056B
:102530002846FFF737F8184B1B682BBB251D28468C
:10254000FFF730F8E06A01238340144A11680B4317
:10255000136000EB80002946114B03EB8000FEF76F
:10256000FDFFE26A0F4B1B68DB6A9A4211D901201A
:102570000D4B186038BD4FF0500383F31188BFF343
:102580006F8FBFF34F8FFEE729460848FEF7E6FF3F
:10259000E7E70020EEE700BF5004002058040020C9
:1025A000E4030020D8030020D80400209404002075
:1025B000034B1B680360034B1B684360704700BFFD
:1025C0008C040020D4040020D8B170B50C46054618
:1025D00001B300F0B7FB1B4B19686B68C81A22687F
:1025E000B2F1FF3F27D0184E3668D5F800C0B44589
:1025F00001D08B4224D9824215D8002323600124C4
:102600001AE04FF0500383F31188BFF36F8FBFF3CD
:102610004F8FFEE74FF0500383F31188BFF36F8FA6
:10262000BFF34F8FFEE75B1A134423602846FFF782
:10263000BFFF002400E0002400F0A6FB204670BD90
:102640000124F9E7D40400208C040020014B01226E
:102650001A607047D8040020054B1B6833B1054B46
:102660001B680BB1002070470220704701207047A3
:10267000A804002050040020002849D038B50446A2
:10268000C36A254A1268D26A934239D28269002A03
:1026900005DB214A1268D26AC2F1050282616169D2
:1026A00003EB83031D4A02EB8303994205D01A4BC7
:1026B0001B68DB6AE362012038BD251D2846FEF752
:1026C00071FF40B9E26A012303FA02F214490B6870
:1026D00023EA02030B60104B1B68D86AE0620124F6
:1026E00004FA00F30E4A11680B43136000EB8000FC
:1026F00029460A4B03EB8000FEF730FF2046DBE75C
:10270000426C054B1B68DB6A9A4203D30020D3E777
:10271000002070470120CFE7D8030020E403002009
:102720005804002000284CD038B50446274B1B68BD
:10273000834208D04FF0500383F31188BFF36F8FAB
:10274000BFF34F8FFEE7836C43B94FF0500383F321
:102750001188BFF36F8FBFF34F8FFEE7013B836498
:10276000C16A426C91422ED00BB1002038BD051DCC
:102770002846FEF717FF70B9E26A02EB82039B005E
:102780001349CB583BB9012303FA02F211490B68F4
:1027900023EA02030B60606CE062C0F10503A361F1
:1027A000012404FA00F30B4A11680B43136000EB99
:1027B00080002946064B03EB8000FEF7CFFE204643
:1027C000D4E7002070470020D0E700BFD8030020E6
:1027D000E403002058040020002850D038B50446F7
:1027E000836C43B94FF0500383F31188BFF36F8FAD
:1027F000BFF34F8FFEE7426C8A4200D20A46E16A7D
:10280000914201D0012B00D038BD1D4B1B68A34263
:102810002CD0E262A369002B02DBC2F10502A261A7
:10282000626901EB8101174B03EB81018A42EBD115
:10283000251D2846FEF7B6FE40B9E26A012303FAD9
:1028400002F211490B6823EA02030B60E06A0123DC
:1028500083400D4A11680B43136000EB800029464A
:10286000084B03EB8000FEF779FECDE74FF05003F5
:1028700083F31188BFF36F8FBFF34F8FFEE770476D
:10288000D8030020E403002058040020054B1B68F7
:1028900023B1044B1A68936C01339364014B18689D
:1028A000704700BFD8030020842801D00330704750
:1028B00000207047EFF30580003818BF01207047F3
:1028C00008B5FFF75BFC002008BD2DE9F04387B099
:1028D00004460F464569BDB18669AEB1D0F80480A3
:1028E000D0F80090B0F90800FFF7DEFF02960195DE
:1028F00000903B46226949464046FFF7CFFB0590D2
:10290000059807B0BDE8F08365682668D4F81080A4
:10291000B4F90800FFF7C8FF05AB019300903B46F0
:102920001FFA88F231462846FFF7F3FB0128E7D06B
:102930000020E6E708B500B90120FFF769FD002097
:1029400008BD10B582B044687CB1012903D00024D1
:10295000204602B010BD03230093234600221146F7
:102960000120FEF72AFF0446F2E70129F0D10322F5
:1029700000210120FEF76BFF04460028E8D0002369
:102980001A461946FEF787FFE2E770B582B00023CA
:10299000019318B30C460646FFF78CFF0546A0B11D
:1029A00001AA00213046FFF766F9012818D1019DE0
:1029B0008DB14FF0E0234FF08052C3F8042DBFF3E8
:1029C0004F8FBFF36F8F002505E021463046FFF79C
:1029D0007FF8012806D1284602B070BD8025FAE7AD
:1029E000FF25F8E7FF25F6E710B582B0044600237F
:1029F0000193FFF75FFF98B101A92046FFF70FF899
:102A000001281AD1019BD3B14FF0E0234FF080523F
:102A1000C3F8042DBFF34F8FBFF36F8F002008E082
:102A200000231A4619462046FEF735FF012802D03A
:102A3000FF2002B010BD0020FBE7FF20F9E70020D7
:102A4000F7E710B50446FFF735FF20B92046FFF73A
:102A50007DF9002010BD8220FCE70000124A12F030
:102A6000070F1ED0D11D21F00701C1F500531344FB
:102A70000A460E480260002141601344083B23F0DF
:102A800007030B48036059601960991A516013607D
:102A9000084B1960084B1960084B4FF000421A6050
:102AA00070474FF40053E4E7E0040020F4240020D2
:102AB000DC040020E8240020E4240020E02400209E
:102AC000154B1A461B688342FBD3516802EB010C7D
:102AD000844509D0416800EB010C634509D00360CF
:102AE000904218D010607047406801445160104611
:102AF000F0E710B4094C2468A3420AD05B6819447B
:102B0000416013681B680360904200D0106010BCE5
:102B100070470460F8E77047F4240020DC040020CC
:102B200070B50546FFF764FB364B1B68A3B1364B07
:102B30001B681D424ED135B1083515F0070F02D084
:102B400025F007050835002D46D0304B1B68AB42F9
:102B500051D32F4A146804E0FFF780FFE7E72246CD
:102B60001C466368AB4202D22368002BF7D1254B89
:102B70001B68A34241D01668083623681360636857
:102B80005B1B102B10D9601910F0070F08D04FF005
:102B9000500383F31188BFF36F8FBFF34F8FFEE7AE
:102BA00043606560FFF78CFF626818490B689B1AE9
:102BB0000B60184909688B4201D216490B60124B11
:102BC0001B681343636000232360134A13680133B7
:102BD000136002E0002600E00026FFF79DFB16F0E0
:102BE000070F0CD04FF0500383F31188BFF36F8FA2
:102BF000BFF34F8FFEE70026EFE70026EDE73046F4
:102C000070BD00BFDC040020E0240020E42400208C
:102C1000F4240020E8240020EC240020002834D0F4
:102C200038B50446A0F1080550F8043C174A12686C
:102C3000134208D14FF0500383F31188BFF36F8F15
:102C4000BFF34F8FFEE750F8081C41B14FF050031F
:102C500083F31188BFF36F8FBFF34F8FFEE723EA33
:102C6000020340F8043CFFF7C3FA54F8041C084A76
:102C700013680B4413602846FFF722FF054A1368C8
:102C800001331360FFF748FB38BD7047E024002094
:102C9000E4240020F024002082B0002301930D4B97
:102CA0001B68B3F1FF3F08D04FF0500383F3118846
:102CB000BFF36F8FBFF34F8FFEE74FF0500383F3E7
:102CC0001188BFF36F8FBFF34F8F019B002BFCD098
:102CD00002B070470C00002006480068006880F3CE
:102CE000088862B661B6BFF34F8FBFF36F8F00DF06
:102CF00000BF000008ED00E04FF0807340F8043C96
:102D000021F0010140F8081C034B40F80C3C40F84E
:102D1000202C4038704700BF992C000800000000AC
:102D2000074B19680868B0E8F00F80F30988BFF313
:102D30006F8F4FF0000080F311884EF00D0E70473A
:102D4000D80300204FF0500383F31188BFF36F8F37
:102D5000BFF34F8F0B4A136801331360012B00D070
:102D600070474FF0E023D3F8043D13F0FF0FF7D086
:102D70004FF0500383F31188BFF36F8FBFF34F8F72
:102D8000FEE700BF0C000020094B1B6843B94FF061
:102D9000500383F31188BFF36F8FBFF34F8FFEE7AC
:102DA000013B034A13600BB983F31188704700BFDE
:102DB0000C000020000000000000000000000000E7
:102DC000EFF30980BFF36F8F0D4B1A6820E9F00F06
:102DD00010602DE908404FF0500080F31188FFF794
:102DE0003DFB4FF0000080F31188BDE808401968F2
:102DF0000868B0E8F00F80F30988BFF36F8F704761
:102E0000D803002008B54FF0500383F31188BFF3B7
:102E10006F8FBFF34F8FFFF7F3F928B14FF0E02327
:102E20004FF08052C3F8042D002383F3118808BDAE
:102E30004FF0E022002313619361054B1B680549A5
:102E4000A1FB03139B09013B5361072313617047E7
:102E500008000020D34D621010B582B02A4B1A78BA
:102E6000D2B20192FF221A701B78DBB28DF80330C8
:102E70009DF8033003F05003244A1370244B0722BB
:102E80001A6009E0224A1368013B13609DF8033081
:102E90005B00DBB28DF803309DF8033013F0800F38
:102EA000F0D11B4B1B68032B08D04FF0500383F36A
:102EB0001188BFF36F8FBFF34F8FFEE71B02144AD9
:102EC000136003F4E0631360019BDBB20E4A1370DE
:102ED0004FF0E023D3F8202D42F47002C3F8202DE8
:102EE000D3F8202D42F07042C3F8202DFFF7A0FF49
:102EF0000024084B1C60FFF7EFFEFFF7AFFAFFF767
:102F0000CBFE204602B010BD00E400E0FC2400200F
:102F1000002500200C000020EFF305830F2B0FD9B4
:102F2000114A9B5CDBB2114A12789A4208D94FF0E1
:102F3000500383F31188BFF36F8FBFF34F8FFEE70A
:102F40004FF0E023D3F80C3D03F4E063084A126825
:102F5000934208D94FF0500383F31188BFF36F8F6A
:102F6000BFF34F8FFEE77047F0E300E0FC24002042
:102F70000025002008B50E480E4B03604FF4827305
:102F8000436000238360C360036143614FF40072B8
:102F900082613822C2610362436283620A23C36290
:102FA00000F0F8F900B908BDFDF7E8F8FBE700BF4D
:102FB000042500200030014010B586B000230293A4
:102FC0000393049305930268174B9A4201D006B00D
:102FD00010BD03F560439A6942F480529A619A6980
:102FE00002F480520092009A9A6942F004029A61B7
:102FF0009B6903F004030193019BA0230293022326
:10300000039303230593094C02A92046FDF7A2FE72
:1030100040230293002303930123049302A9204633
:10302000FDF798FED3E700BF0030014000080140E3
:1030300008B50349034802F097F9034B187008BD1F
:103040005C2500201400002060250020002070472F
:10305000014B1878704700BF10000020034B187810
:1030600010F0010000D170470320FCE710000020A1
:10307000002070470D4B187810F0010011D1032982
:1030800011D8DFE801F00204070B08467047084B2F
:10309000136070474FF4007313807047012313606F
:1030A0007047032070470120704700BF10000020C8
:1030B000A086010000B587B08DF80F00642300934F
:1030C00001230DF117020DF10F01044800F09FFAE2
:1030D0009DF8170007B05DF804FB00BF0425002031
:1030E00010B54CF25034FF20FFF7E4FFFF2801D069
:1030F000013CF8D110BD000070B504460D4610F03B
:10310000800F13D1224E012210213046FDF734FFEB
:10311000FF20FFF7CFFF002210213046FDF72CFFE4
:10312000FFF7DEFFFF280AD0FF2070BD00F07F040C
:1031300000213720FFF7E0FF0128E3D9F5E744F04D
:103140004000FFF7B7FF280EFFF7B4FFC5F30740B5
:10315000FFF7B0FFC5F30720FFF7ACFFE8B2FFF7BA
:10316000A9FF84B10120082C0FD0FFF7A3FF0A2488
:10317000FF20FFF79FFF10F0800FD6D0631E13F0E3
:10318000FF04F5D1D1E79520EDE78720EDE700BFFB
:103190000008014038B5354B01221A7034483023FD
:1031A000C36100F0F7F818B1304B1878C0B238BDE1
:1031B000012210212F48FDF7DFFE0A20FFF7BAFB9E
:1031C000002404E0FF20FFF775FF0134A4B20E2CA9
:1031D000F8D9002400210846FFF78EFF054601209C
:1031E000FFF7A8FB012D03D00134A4B2632CF1D961
:1031F000012D0BD0012210211E48FDF7BDFEFF203E
:10320000FFF758FF194B1878C0B2D0E74FF4D571CB
:103210000820FFF771FF0128ECD1002404E0FF2013
:10322000FFF748FF0134A4B2032CF8D94FF47A74A5
:103230004FF080412920FFF75FFF05460120FFF78F
:1032400079FB1DB1013CA4B2002CF1D1002CD1D0EE
:1032500007481023C36100F09DF8044A137803F077
:10326000FE031370044802F093F9C3E71000002036
:103270000425002000080140BC6500082DE9F04746
:1032800082B00546884617461E46FDF71BFA0A9B84
:103290001B1A03EB0609FDF715FA82462B4B1B6838
:1032A000C3F3CB3309FB03F301932B689C6838EA23
:1032B00004030CBF4FF0010C4FF0000CBC4540D094
:1032C000B6F1FF3FF1D0FDF7FDF9A0EB0A0048454C
:1032D0000AD2B9F1000F07D0019A02B14A46019B08
:1032E000013B01939146E0E72A68536823F0E0032D
:1032F00053606B68B3F5827F0BD0AB6AB3F5005FA8
:1033000014D0012385F85130002385F85030032074
:1033100018E0AB68B3F5004F02D0B3F5806FECD185
:103320002A68136823F040031360E6E72A681368ED
:1033300023F4005313602A68136843F400531360A6
:10334000DFE7002002B0BDE8F08700BF08000020E2
:1033500070B582B006460C46154600920B46012217
:103360000221FFF78BFF48B90095234600228021F8
:103370003046FFF783FF38B902B070BD736D43F07C
:10338000200373650320F7E7736D43F02003736533
:103390000320F1E7002856D010B50446436A33B93C
:1033A0004368B3F5827F05D00023C36102E00023A8
:1033B000036143610023A36294F85130002B3CD099
:1033C000022384F851302268136823F0400313600D
:1033D000636803F48273A26802F404421343E26850
:1033E00002F400621343226902F00202134362698D
:1033F00002F001021343A26902F400721343E2696E
:1034000002F038021343226A02F080021343A26AD8
:1034100002F40052216813430B60638B226803F0AF
:10342000040353602268D36923F40063D36100204E
:103430006065012384F8513010BD84F85030204677
:10344000FFF7BAFDBCE7012070472DE9F04383B0D8
:103450000446894690461D46FDF734F994F85160BC
:10346000F6B2012E40F0CC800746B9F1000F00F013
:10347000C880B8F1000F00F0C48094F85030012BE0
:1034800000F0C380012384F85030032384F85130C6
:1034900000236365C4F83090A4F83480A4F8368023
:1034A000A363A387E38763642364A368B3F5004F32
:1034B0001ED023681A6812F0400F03D11A6842F038
:1034C00040021A60E368B3F5006F1CD0636813B163
:1034D000B8F1010F5FD1226B236812781A73236B46
:1034E00001332363E38E9BB2013B9BB2E38652E040
:1034F0002268136823F0400313602268136843F4C2
:1035000080431360D5E7636813B1B8F1010F15D19B
:10351000226B23681288DA60236B02332363E38E05
:103520009BB2013B9BB2E38608E0FDF7CBF8C01BE2
:10353000A84202D3B5F1FF3F15D1A5B1E38E9BB2EE
:10354000002B42D023689A6812F0020FEDD0226B54
:103550001288DA60236B02332363E38E9BB2013B54
:103560009BB2E386EAE7012384F85130002384F814
:103570005030032645E0226B12781A73236B013317
:103580002363B4F836C01FFA8CFC0CF1FF3C1FFA21
:103590008CFCA4F836C0E38E9BB2B3B123689A6862
:1035A00012F0020FE7D1FDF78DF8C01BA84202D33D
:1035B000B5F1FF3F01D1002DEDD1012384F8513049
:1035C000002384F8503003261BE03A462946204663
:1035D000FFF7BEFE08B120236365A36833B90193EA
:1035E0002368DA6801929B680193019B012384F8A8
:1035F0005130002384F85030636D13B9002600E089
:103600000226304603B0BDE8F0830226F9E72DE933
:10361000F04383B00446884691461F460A9DFDF755
:1036200051F8064694F85130DBB26268012B0AD09B
:10363000B2F5827F40F00581A268002A40F0058142
:10364000042B40F00481B8F1000F00F00281B9F1C1
:10365000000F00F00081002F00F0FF8094F8503040
:10366000012B00F0FC80012384F8503094F8513095
:10367000DBB2042B02D0052384F8513000236365AC
:10368000C4F83890E787A787C4F83080E786A78614
:103690002364636423681A6812F0400F03D11A6828
:1036A00042F040021A60E368B3F5006F11D063681E
:1036B0000BB1012F0BD1226B236812781A73236B85
:1036C00001332363E38E9BB2013B9BB2E386012768
:1036D00071E063680BB1012F0BD1226B2368128854
:1036E000DA60236B02332363E38E9BB2013B9BB210
:1036F000E38601271BE023689A6812F0010F0ED0C1
:10370000E28F92B25AB1DA68A36B1A80A36B0233CC
:10371000A363E38F9BB2013B9BB2E3870127FCF7D6
:10372000D1FF801BA84202D3B5F1FF3F1ED1E38E2B
:103730009BB21BB9E38F9BB2002B62D023689A68BF
:1037400012F0020FD7D0E28E92B2002AD3D0002F0F
:10375000D1D0226B1288DA60236B02332363E38EAD
:103760009BB2013B9BB2E3860027C4E7012384F8A8
:103770005130002384F85030032063E023689A68B6
:1037800012F0010F0ED0E28F92B25AB1DA68A36B39
:103790001A70A36B0133A363E38F9BB2013B9BB20F
:1037A000E3870127FCF78EFF831BAB4202D3B5F101
:1037B000FF3F1ED1EDB1E38E9BB213B9E38F9BB2F5
:1037C000FBB123689A6812F0020FD7D0E28E92B252
:1037D000002AD3D0002FD1D0226B12781A73236B1A
:1037E00001332363E38E9BB2013B9BB2E386002748
:1037F000C4E7012384F85130002384F850300320BB
:1038000020E0324629462046FFF7A2FD90B9A36882
:1038100033B901932368DA6801929B680193019B95
:10382000012384F85130002384F85030636D4BB18C
:10383000012007E020236365002384F85030012035
:1038400000E0022003B0BDE8F0830220FAE7022086
:10385000F8E70120F6E70120F4E70120F2E7022073
:10386000F0E7000008B5044B03EB80025268526891
:103870000344187A904708BD8425002008B5084BFA
:103880001B5C53B9064B01221A5403EB80025268A9
:1038900012681844007A904708BD0020FCE700BF7A
:1038A0008425002038B5044C04EB80056D68AD68B4
:1038B0000444207AA84738BD8425002038B5044C3C
:1038C00004EB80056D68ED680444207AA84738BD94
:1038D0008425002010B5044B03EB80046468246940
:1038E0000344187AA04710BD8425002004E011F895
:1038F000012B00F8012B1A46531E002AF7D17047FE
:1039000002E000F8011B1A46531E002AF9D1704745
:1039100010B4034600201446013A34B113F8010BE9
:1039200011F801CBB0EB0C00F5D010BC704703468A
:1039300000E00133187808B18842FAD170470000DE
:1039400030B400252B4601E001250133012B1ED8A0
:1039500003EB43021C4C54F82220002AF4D0D0F888
:103960000042A242F1D103EB4302174C04EB820266
:103970005468D0F808229442E7D103EB4302124C7A
:1039800004EB82021489B0F806229442DDD1022BA6
:103990000CD0B1B903EB43030B4A02EB83035B8901
:1039A000B3F5807F0BD0002030BC70472DB90229C1
:1039B00001D01220F8E70020F6E70020F4E71020FD
:1039C000F2E71020F0E700BF68250020002000E0AB
:1039D0000130012806D800EB40029300034AD35877
:1039E000002BF5D1023818BF012070476825002050
:1039F00010B5002300E00133012B1CD803EB430278
:103A00002D4C54F82240D0F800229442F3D103EB1D
:103A10004302294C04EB82025468D0F808229442F5
:103A2000E9D103EB4302244C04EB82021489B0F881
:103A300006229442DFD1022B11D031B103EB4302B5
:103A40001D4800EB82025289A2BB39BB03EB430243
:103A5000194901EB82025189013189B220E000232A
:103A6000012B07D803EB4302134C54F822200AB170
:103A70000133F5E7022B1BD00F4C03EB430C04EB97
:103A80008C02D0F800E244F82CE0D0F808425460F0
:103A9000B0F80602108100205081CEE74FF480710B
:103AA00003EB4300044A02EB80025181581C10BD15
:103AB0000020FCE70020FAE768250020002302E050
:103AC00010BC70470133012B17D803EB43020B499D
:103AD00051F822208242F5D110B403EB4302920048
:103AE00000248C500133012BEAD803EB4302034935
:103AF00051F822208242F5D1EFE770476825002077
:103B0000D0F824320433490AD0F8002292F8022275
:103B1000B1FBF2F101E0091A0833186818B18142CB
:103B2000F9D2586808447047CA7E8B7E43EA022364
:103B300090F80022032A01D018467047487D0A7D7C
:103B400042EA002243EA0243F6E78176C1F3072303
:103B5000C376C1F307430375090E41757047000032
:103B60002DE9F84F89460C6800E0013423782F2BAB
:103B7000FBD05C2BF9D0D0F818A20B2220215046A4
:103B8000FFF7BEFE002633464FF00808374619E01F
:103B9000BF00FFB246464FF00B0812E015F0800F51
:103BA00025D129463148FFF7C2FE00285AD1A5F198
:103BB0004103DBB2192B20D847F002070AF8065060
:103BC00001365B4603F1010BE55C202D1FD92F2D3B
:103BD0001DD05C2D1BD02E2D01D0B045DED8B8F104
:103BE000080F3DD12E2DD3D00620BDE8F88F47F029
:103BF0000307803D1E4B5D5DD3E7A5F16103DBB29A
:103C0000192BDBD847F00107203DEDB2D6E75C4425
:103C1000C9F80040202D14D804232EB39AF80020B0
:103C2000E52A10D0B8F1080F11D007F00302012ADD
:103C300010D007F00C07042F0FD08AF80B300020AB
:103C4000D3E70023E9E705228AF80020EAE7BF006E
:103C5000FFB2EAE743F01003EBE743F00803ECE7B9
:103C60000620C2E70620C0E70620BEE7DC650008A4
:103C7000EC6500080146006838B102461378202B35
:103C800006D93A2B04D00132F8E74FF0FF307047E5
:103C90003A2B01D00020704710B4034613F8010BF3
:103CA0003038092808D89A4202D04FF0FF3005E09A
:103CB00030B901320A6001E04FF0FF3010BC7047AC
:103CC0004FF0FF30FAE7F8B590F804520DB92846E6
:103CD000F8BD0446D0F8307201233A46014690F808
:103CE0000102FFF7EBFD0546D0B9002384F804324A
:103CF000D4F82432FB1AD4F81C229342E7D294F869
:103D000003620AE0D4F81C321F4401233A462146DC
:103D100094F80102FFF7D2FD013E012EF2D8D6E75A
:103D20000125D4E770B5D0F830328B4202D100269D
:103D3000304670BD04460D46FFF7C5FF0646002815
:103D4000F6D101232A46214694F80102FFF7AAFD85
:103D500010B101264FF0FF35C4F83052E8E70000FB
:103D600010B50446002380F804324FF0FF33C0F84A
:103D70003032FFF7D7FF98BB024694F8FF1194F852
:103D8000FE3143EA01231BB217498B422AD194F832
:103D9000391094F838301B0443EA016394F8371063
:103DA00043EA012394F836100B4323F07F430F4975
:103DB0008B4213D094F8551094F854301B0443EA06
:103DC000016394F8531043EA012394F852100B4313
:103DD00023F07F4305498B4200D00122104610BDDD
:103DE0000322FBE70222F9E755AAFFFF46415400F0
:103DF00008B5D0F80C0201F0D1FA08BD2DE9F04366
:103E000085B005461746002303600846FFF732FFDA
:103E1000061EC0F2A481A14B53F82640002C00F0EE
:103E2000A0812046FFF7E4FF002800F09F812C606E
:103E300094F800327BB194F80102FFF713FD10F003
:103E4000010508D1002F00F08D8110F0040F00F063
:103E500089810A2586E1002384F80032F0B284F8D3
:103E60000102FFF70BFD10F0010F40F081811FB13F
:103E700010F0040F40F07E8100212046FFF770FF14
:103E80000546012800F0D4800027032D00F074813E
:103E9000002D40F07381227BE37A43EA02231BB2B8
:103EA000B3F5007F40F06C81E27DA37D53EA0223ED
:103EB0000DD194F8272094F826301B0443EA0263BE
:103EC00094F8252043EA022394F824201343C4F8ED
:103ED0001C32217C84F803124A1ED2B2012A00F25D
:103EE000518103FB01F1607B84F80202002800F09D
:103EF0004B81421E104240F04981A27C667C46EA1A
:103F00000226A4F8086216F00F0F40F0418194F8E1
:103F100014C0E27C52EA0C220ED194F823C094F82B
:103F20002220120442EA0C6294F821C042EA0C22D8
:103F300094F820C042EA0C0294F80FE094F80EC006
:103F40005CEA0E2C00F026810CEB010909EB161936
:103F50004A45C0F02181A2EB0902B2FBF0FE824289
:103F6000C0F01C8140F6F57296457AD84FF00108F2
:103F70004FF6F572964501D94FF003080EF1020E87
:103F8000C4F818E2C4F820720CEB0702C4F824222B
:103F900007EB0900C4F82C02B8F1030F64D0002E1F
:103FA00000F000811144C4F82812B8F1020F71D05A
:103FB0000EEB4E010EF0010202EB510202F2FF1273
:103FC000B3EB522FC0F0F0804FF0FF33C4F814323F
:103FD000C4F81032802384F80532B8F1030F61D0A1
:103FE00084F800822E4A138801339BB21380A4F810
:103FF00006322046FFF762FDB4E0002304AA02EB7C
:10400000810242F8103C0131032913D80B0103F55A
:10401000DF7323441A79002AEFD0D87A9A7A1204EF
:1040200042EA0062587A42EA00221B7A1343E5E72B
:104030000021E9E700260BE039462046FFF790FE15
:10404000054600283FF421AF0136032E3FF61DAF91
:1040500004AB03EB860353F8107C002FECD1022550
:10406000F2E74FF0020883E7002E40F0998094F8C1
:104070002F1094F82E20120442EA016294F82D10B9
:1040800042EA012294F82C100A43C4F828224FEA8D
:104090008E0293E74FEA4E0290E700BF64250020AE
:1040A0008025002094F8312094F8303043EA022330
:1040B0001BB2012B94D1791C2046FFF733FE002858
:1040C0008ED1002384F8053294F8FF2194F8FE3154
:1040D00043EA02231BB2354A934281D1E278A378A6
:1040E0001B0443EA0263627843EA02232278134303
:1040F0002F4A93427FF474AF94F8E72194F8E631A5
:104100001B0443EA026394F8E52143EA022394F88E
:10411000E4211343274A93427FF462AF94F8EB21E2
:1041200094F8EA311B0443EA026394F8E92143EA74
:10413000022394F8E8211343C4F8143294F8EF21D1
:1041400094F8EE311B0443EA026394F8ED2143EA4C
:10415000022394F8EC211343C4F8103240E70B25F6
:1041600000E00C25284605B0BDE8F0830F25F9E7EF
:104170000325F7E70A25F5E70125F3E70D25F1E724
:104180000D25EFE70D25EDE70D25EBE70D25E9E71B
:104190000D25E7E70D25E5E70D25E3E70D25E1E72B
:1041A0000D25DFE70D25DDE70D25DBE755AAFFFF30
:1041B000525261417272416138B560B10546D0F822
:1041C000003243B193F800222AB1B3F80612B0F8D6
:1041D0000422914202D00924204638BD93F80102FE
:1041E000FFF740FB10F00104F5D1D5F80002FFF70E
:1041F000FFFD0028F0D10F24EEE770B108B50C29BF
:1042000005D00B2903D0092901D00F2900D108BD01
:10421000D0F80C0201F0CCF8F9E7704738B5044645
:10422000FFF751FD054658B994F80032032B09D029
:104230000022114694F80102FFF74CFB00B1012562
:10424000284638BD94F80532012BF1D14FF40072A5
:1042500000212046FFF754FB552384F8FE31AA23A2
:1042600084F8FF315223237063706123A3704122CD
:10427000E270722184F8E41184F8E51184F8E621F3
:1042800084F8E731D4F8143284F8E831C3F3072214
:1042900084F8E921C3F3074284F8EA211B0E84F86D
:1042A000EB31D4F8103284F8EC31C3F3072284F8F0
:1042B000ED21C3F3074284F8EE211B0E84F8EF31A1
:1042C000D4F820220132C4F830220123214694F888
:1042D0000102FFF7F3FA002384F80532A8E7023958
:1042E000D0F81832023B8B4206D990F80232D0F84F
:1042F0002C0201FB030070470020704701295ED9A2
:10430000F8B505460C46D0F818328B4259D990F8CA
:104310000032022B2BD0032B39D0012B01D00120EE
:1043200050E001EB5106D0F8241201EB5621FFF7C3
:10433000F9FC10B14FF0FF3044E0771CC6F30806DB
:10434000AE5DD5F8241201EB57212846FFF7EAFCB1
:10435000002838D1C7F30807E85D46EA002014F0CA
:10436000010F01D000092DE0C0F30B002AE0D0F8C6
:10437000241201EB1421FFF7D5FC38BB640004F4D0
:10438000FF742B195B78285D40EA03201AE0D0F80F
:10439000241201EBD411FFF7C5FCD0B9A40004F43A
:1043A000FE742B19DA789878000440EA02605B7892
:1043B00040EA03202B5D184320F0704002E001200A
:1043C00070470120F8BD4FF0FF30FBE74FF0FF30A2
:1043D000F8E74FF0FF30F5E7F8B50746A0F806120A
:1043E000D0F80842012C44D00E46D0F80032D3F861
:1043F0001822A2423FD91CB993F80022032A17D0F1
:10440000CCB9B3F80822B24237D9D3F82802C7F89A
:104410000C42D0B300EB1610C7F81002D7F80032E8
:1044200006F00F0103EB4111C7F814120020F8BD8C
:10443000D3F82842E4E793F802522D01AE4212D39A
:104440002146D7F80002FFF759FF0446B0F1FF3FBD
:1044500015D0012815D9D7F80032D3F81832834285
:1044600011D9761BEAE72146D7F80002FFF737FF9C
:10447000CDE70220DBE70220D9E70220D7E70120C1
:10448000D5E70220D3E70220D1E70220CFE70129B8
:1044900040F285802DE9F04105460C461646D0F8DD
:1044A00018328B427DD990F80032022B42D0032B78
:1044B00054D0012B02D00220BDE8F08101EB51075E
:1044C000D0F8241201EB5721FFF72CFC0028F3D180
:1044D00007F10108C7F3080714F001041FD0EB57D8
:1044E00003F00F03320102F47F621343DBB2EB559A
:1044F000012385F80432D5F8241201EB582128460F
:10450000FFF710FC0028D7D1C8F308084CB1C6F358
:10451000071205F80820012385F80432CCE7F3B22E
:10452000E5E715F9082022F00F02C6F3032632430F
:10453000D2B2EEE7D0F8241201EB1421FFF7F2FB20
:104540000028B9D1640004F4FF742B192E55C6F36A
:1045500007225A70012385F80432ADE7D0F82412FF
:1045600001EBD411FFF7DEFB0028A5D1A40004F471
:10457000FE742919CA788B781B0443EA026303F09E
:10458000704333432E55C6F307224A70C6F30742E1
:104590008A701B0ECB70012385F804328CE7022051
:1045A0007047022088E7F8B505460F4641B9D0F8B4
:1045B00010629EB1D0F81832B34210D801260EE036
:1045C000FFF79CFE034601284BD9B0F1FF3F4DD0C9
:1045D000D5F81822824249D83E4600E001263446EA
:1045E0000CE021462846FFF789FE034678B1B0F17A
:1045F000FF3F3BD0012839D0B44236D00134D5F842
:104600001832A342EDD8012E2DD90224E9E76FF02C
:10461000704221462846FFF73AFF034600B997B992
:10462000C3B9C5F81042D5F81432B3F1FF3F1FD01B
:10463000013BC5F8143295F8053243F0010385F8C3
:104640000532234612E0224639462846FFF71FFF6F
:104650000346E5E7012B01D0012307E04FF0FF33CC
:1046600004E0012302E0002300E000231846F8BD27
:104670002346FBE72DE9F843B0F806526B1C9AB2CB
:10468000002A00F0838004460F46D0F81022002A4A
:104690007ED013F00F060BD10132C0F81022D0F8F3
:1046A0000C1289B9D0F80022B2F808229A4271D9C6
:1046B0000135A4F80652D4F8003203EB4613C4F8CF
:1046C00014320020BDE8F883D0F8000290F80222EE
:1046D000013A12EA1318EBD1FFF710FE81460128C8
:1046E0005AD9B0F1FF3F59D0D4F80002D0F81832AF
:1046F0004B4541D8002F53D0D4F80C12FFF753FF8D
:10470000814600284ED001284ED0B0F1FF3F4DD059
:10471000D4F80002FFF7D7FA08B10120D2E74FF42E
:1047200000720021D4F80002FFF7EAF8D4F8007212
:1047300049463846FFF7D3FDC7F83002D4F80032B7
:1047400093F80222424511D9012283F80422D4F8B9
:104750000002FFF7B8FA58BBD4F80022D2F8303282
:104760000133C2F8303208F10108E7E7D3F830220C
:10477000A2EB0802C3F83022C4F80C924946D4F8E0
:104780000002FFF7ACFDC4F8100291E7042099E79E
:10479000042097E7042095E7022093E7012091E7A2
:1047A00004208FE707208DE702208BE7012089E7AF
:1047B000012087E738B504460021FFF70DFE0546C6
:1047C00040B1284638BD00212046FFF753FF05467B
:1047D0000028F6D1D4F81012D4F80002FFF7A2FA9C
:1047E00005460028EDD1D4F8140203785BB1C37AF2
:1047F00013F0080FE7D10B22D4F81812FFF788F84E
:104800000028E0D1DDE70425DBE710B582B00446DF
:1048100001910B782F2B01D05C2B01D1013101913B
:104820000023C4F80832019B1B781F2B1DD901A956
:104830002046FFF795F90346F8B92046FFF7BAFF7F
:10484000D4F81832DA7A0346D0B912F0040F14D132
:10485000D4F81412CB7A13F0100F18D0D4F8000249
:10486000FFF762F9C4F80802E1E700212046FFF7EC
:10487000B3FD03460022C4F81422184602B010BD4E
:104880000428FAD112F0040FF7D10523F5E7052328
:10489000F3E770B504460E460021FFF79DFD024682
:1048A000D8B9002508E00135B54216D001212046CF
:1048B000FFF7E0FE024680B9D4F81012D4F80002E7
:1048C000FFF730FA024640B9D4F814321B78E52BD2
:1048D000E9D0002BE7D00025E8E7042A01D01046F4
:1048E00070BD0722FBE738B504460121FFF7D1FF71
:1048F000054608B1284638BDD4F81012D4F8000295
:10490000FFF710FA05460028F4D120220021D4F840
:104910001402FEF7F5FF0B22D4F81812D4F8140293
:10492000FEF7E4FFD4F80032012283F80422E1E725
:10493000F8B501292DD904460D46D0F818328B421E
:104940002AD9002700E03546D4F81832AB4221D9E5
:1049500029462046FFF7D2FC0646D8B101281DD0D3
:10496000B0F1FF3F1CD0002229462046FFF78FFD03
:10497000074678B9D4F81432B3F1FF3FE3D00133DE
:10498000C4F8143294F8053243F0010384F8053278
:10499000D9E702273846F8BD0227FBE70227F9E7E7
:1049A0000127F7E770B584B0019000911646039196
:1049B00003A8FFF75FF9041E2FDB1C4B53F82450AC
:1049C00055B12846FFF77AF8D5F80C0200F0E1FC63
:1049D00028B3002385F80032019941B1002381F802
:1049E000003201F50371E0B200F0C3FCC8B1019BD5
:1049F0000E4A42F82430B3B1012E03D000242046E1
:104A000004B070BD0022694601A8FFF7F7F904461B
:104A100001460198FFF7F1FBF1E70B24EFE70224D1
:104A2000EDE70224EBE70024E9E700BF642500205E
:104A30002DE9F043ADF50F7D0191002800F0EF80E6
:104A4000144606460023C0F8003202F01F0702F0A9
:104A50001E0201A986A8FFF7D1F9054640B12946F3
:104A60008698FFF7CAFB28460DF50F7DBDE8F08359
:104A700003AB8C93019906A8FFF7C7FEDDF82C82E3
:104A8000054658B9B8F1000F5DD037F0010314BFE7
:104A90000121002106A8FEF753FF054614F01C0F64
:104AA00000F0A780002D5AD0042D4ED047F0080703
:104AB000DDF82C8215B917F0080F5CD1C5B917F0D5
:104AC000080F01D047F02007869BD3F83032C6F894
:104AD0001C32C6F8208237F0010314BF01210021E7
:104AE00006A8FEF785FFC6F82802002800F095808A
:104AF000002DB4D186F80672002486F80742869FFE
:104B000041463846FFF710F8C6F8100298F81F2003
:104B100098F81E301B0443EA026398F81D2043EA0C
:104B2000022398F81C201343C6F80C32C6F808423A
:104B3000C6F81842C6F82442C6F80072B7F8063222
:104B4000A6F804328BE70625A8E7FEF73FFF08B971
:104B50001225ABE706A8FFF7C6FE0546A6E798F8BC
:104B60000B3013F0110F04D114F0040FA2D008255C
:104B7000A0E707259EE7FEF769FA88F80E00C0F364
:104B8000072388F80F30C0F3074388F81030000E71
:104B900088F81100002488F80B4088F81C4088F839
:104BA0001D4088F81E4088F81F4041468698FEF751
:104BB000BBFF814621464046FEF7C7FF869801238A
:104BC00080F80432B9F1000F3FF478AFD0F83042EA
:104BD0004946FFF7ADFE054600287FF46FAF869883
:104BE00009F1FF33C0F810322146FFF79BF8054664
:104BF00064E7002D7FF462AF98F80B3013F0100FCC
:104C000009D114F0020F3FF459AF13F0010F3FF434
:104C100055AF072552E7042550E702251FE7092570
:104C200021E72DE9F04F83B00446884616469946A1
:104C30000023C9F80030FFF7BFFA019078B994F863
:104C4000073201938BB994F8063213F0020F15D096
:104C5000D4F80832F342C0F0E1800026DEE00146DD
:104C6000D4F80002FFF7C9FA9AE01946D4F8000216
:104C7000FFF7C3FA94F80732019391E00721D4F8C3
:104C80000002FFF7BAFA0723019389E0D4F824322F
:104C9000002B3DD02046FEF733FF0346002B00F0EB
:104CA000ED80012B3AD0B3F1FF3F41D0C4F814326C
:104CB000D4F810220AB9C4F8103294F8063213F06E
:104CC000400F3FD1D4F800B2D4F814125846FFF781
:104CD00006FB8246002851D0BA44750AB6F5007F1B
:104CE00070D37B199BF80222934200D9D51B2B4627
:104CF000524641469BF80102FEF7E0FD002846D1EE
:104D0000D4F81812A1EB0A01A9424DD36D0279E043
:104D1000D4F81412FFF747FC0346BFE7022584F8D6
:104D200007522946D4F80002FFF767FA019537E0E9
:104D3000012584F807522946D4F80002FFF75DFAEE
:104D400001952DE0D4F800020123D4F81822214661
:104D500090F80102FEF7B2FD30B994F8063223F064
:104D6000400384F80632ADE7012584F8075229464E
:104D7000D4F80002FFF741FA019511E0022584F80A
:104D8000075229465846FFF738FA019508E00125F1
:104D900084F807522946D4F80002FFF72EFA01954D
:104DA000019803B0BDE8F08F4FF4007208EB412189
:104DB0002046FEF79BFD94F8063223F0400384F86A
:104DC0000632A3E7D4F81832534505D0D4F80822A8
:104DD000D4F80C329A423ED3C4F818A2D4F8080290
:104DE000C0F30800C0F50075AE4200D235462A4631
:104DF00041462044FEF77AFD94F8063243F0400322
:104E000084F80632A844D4F808322B44C4F8083297
:104E1000D9F800302B44C9F80030761B76B3D4F8AB
:104E20000812C1F30803002BD8D1D4F8000290F87F
:104E30000272013FFFB217EA51277FF43EAF00290B
:104E40007FF424AFD4F81032002B7FF427AFFFF7A4
:104E5000AAFB034622E70123524621469BF80102A2
:104E6000FEF720FD0028B7D0012584F80752294617
:104E7000D4F80002FFF7C1F9019591E7D4F80832A0
:104E8000D4F80C22934201D9C4F80C3294F80632BB
:104E900043F0200384F806320021D4F80002FFF723
:104EA000ACF97DE738B50446FFF786F9054600BB47
:104EB00094F8063213F0200F1BD013F0400F10D0DF
:104EC000D4F800020123D4F81822214690F80102F8
:104ED000FEF7F4FCA0B994F8063223F0400384F8FE
:104EE0000632D4F81C12D4F80002FEF71BFF054668
:104EF00068B12946D4F80002FFF77FF9284638BD8B
:104F00000121D4F80002FFF778F90125F6E7D4F87B
:104F10002052EB7A43F02003EB7294F80C322B779B
:104F2000B4F80C321B0A6B7794F80E32AB7794F816
:104F30000F32EB77D4F810122846FEF706FEFEF784
:104F400085F8A875C0F30723EB75C0F307432B76EC
:104F5000000E68760023AB74EB7494F8063223F0ED
:104F6000200384F80632D4F80032012283F80422A8
:104F7000D4F80002FFF752F90546BAE72DE9F84FD9
:104F800004460D46FFF718F90646D8B994F80712FB
:104F9000F1B9D4F82432002B00F0C380B5F1FF3F03
:104FA0001DD0D4F80C72AF4200D32F46C4F808725B
:104FB000002F60D13146D4F80002FFF71EF93046C9
:104FC000BDE8F88F0146D4F80002FFF716F9F6E7BE
:104FD000D4F80002FFF711F994F80762EFE798465A
:104FE00058F804BBD4F810A2BAF1000F36D04FF035
:104FF000020909F102095146002701370D46D4F88C
:105000000002FFF77BF90146012815D9B0F1FF3FF7
:105010001BD001358542F0D0CB4505D3434643F83C
:10502000087BC8F804A09846D4F80032D3F81832A8
:105030008B4215D98A46DCE7022684F8076231469E
:10504000D4F80002FFF7D9F8B9E7012684F807621F
:105050003146D4F80002FFF7D0F8B0E74FF002096C
:10506000D4F82432C3F80090D94500F251810023CE
:10507000C8F800309EE707F1FF3949462046FEF7A1
:105080003FFD0146C4F81402D4F800824046FFF701
:1050900026F960B398F80252013D05EA5925054406
:1050A000C7F30807002F85D0D4F81822AA4281D070
:1050B00094F8063213F0400F0CD00123214698F8E3
:1050C0000102FEF7FBFBD0B994F8063223F040034F
:1050D00084F80632D4F8000201232A46214690F8CB
:1050E0000102FEF7DFFB98B9C4F8185262E7022606
:1050F00084F8076231464046FFF77FF85FE70126F4
:1051000084F807623146D4F80002FFF776F856E7D4
:10511000012684F807623146D4F80002FFF76DF8E3
:105120004DE7D4F80C32AB4205D294F8062212F0C7
:10513000020F00D11D46D4F808320022C4F808221C
:105140000DB3D4F8000290F802824FEA482883B1E8
:105150006A1EB2FBF8F2013BB3FBF8F18A4208D3B6
:10516000C8F100071F40C4F80872EF1BD4F81452AE
:1051700007E0D4F81032002B42D0C4F814322F4686
:105180001D46002D74D1D4F80832C3F308033BB395
:10519000D4F81822AA4223D094F8063213F0400F14
:1051A00010D0D4F800020123214690F80102FEF746
:1051B00085FB002840F09A8094F8063223F04003E3
:1051C00084F80632D4F8000201232A46214690F8DA
:1051D0000102FEF767FB002840F09180C4F81852E6
:1051E000D4F80832D4F80C2293427FF6E3AEC4F828
:1051F0000C3294F8063243F0200384F80632D9E6E4
:105200000021FFF7D0F90346012805D0B0F1FF3F98
:105210000BD0C4F81002B0E7022684F807623146CA
:10522000D4F80002FEF7E9FFC9E6012684F8076218
:105230003146D4F80002FEF7E0FFC0E62946D4F874
:105240000002FFF75BF80546B5F1FF3F32D0012DB4
:1052500039D9D4F80032D3F81832AB4233D9C4F874
:105260001452D4F808324344C4F80832A7EB0807B4
:1052700047450DD994F8063213F0020FDED02946C7
:10528000D4F80002FFF78FF905460028DCD1474625
:10529000D4F808323B44C4F80832C7F308031BB300
:1052A000D4F8008229464046FFF719F8A0B100EB78
:1052B000572568E7012684F807623146D4F80002D2
:1052C000FEF79BFF7BE6022684F807623146D4F89E
:1052D0000002FEF792FF72E6022684F8076231466A
:1052E0004046FEF78AFF6AE61D464CE7012684F831
:1052F00007623146D4F80002FEF77FFF5FE6012621
:1053000084F807623146D4F80002FEF776FF56E6CD
:1053100011264FE6134B5B7ADBB2012B01D901203A
:10532000704710B404460F4B93F809C05FFA8CFC29
:10533000002003F80C0093F809C003EB8C0CCCF8A8
:1053400004405C7A1C4422725A7A541CE4B25C72A7
:1053500030320A703A234B702F238B70C87010BC08
:10536000704700BF8425002008B50022FFF7D2FF58
:1053700008BD10B582B00C460023009301930121B3
:105380006846FDF7DEFA2060003818BF012002B041
:1053900010BD08B5FDF755FB012008BD08B54FF459
:1053A0007A71FDF7F2FA08B1002008BD0120FCE790
:1053B00008B5FDF719FB08BDFBF746FE0B480C4985
:1053C0000C4A002302E0D458C4500433C4188C4261
:1053D000F9D3094A094C002301E013600432A242C8
:1053E000FBD300F015F8FAF7FDFE7047000000202F
:1053F0008C0000200C6700088C000020A0250020F5
:10540000FEE70000014B1868704700BF280000202D
:1054100070B500260C4D0D4C641BA410A64209D19A
:1054200001F03AF800260A4D0A4C641BA410A6426B
:1054300005D170BD55F8043B98470136EEE755F8A5
:10544000043B98470136F2E7046700080467000848
:1054500004670008086700080A44914200F1FF331E
:1054600000D1704710B511F8014B914203F8014F7C
:10547000F9D110BD03460244934200D1704703F8AE
:10548000011BF9E70FB40A4B13B51C6824B1A369DB
:1054900013B9204600F05AFA05AB2046049AA168D9
:1054A000019300F05DFC02B0BDE8104004B070470D
:1054B0002800002070B50E46054618B183690BB967
:1054C00000F044FAAB69AC6813B9284600F03EFA24
:1054D0002C4B9C4220D16C68636EDB0705D4A389FA
:1054E000980502D4A06D00F0CFFAA38919071DD545
:1054F0002369DBB1013EA36816F8011F013BA360DD
:1055000039BB002B38DA22460A21284600F048F839
:10551000013011D00A2511E01B4B9C4201D1AC682F
:10552000DAE71A4B9C4208BFEC68D5E721462846CB
:1055300000F088F80028DDD04FF0FF35636EDA0701
:1055400005D4A3899B0502D4A06D00F09EFA2846DD
:1055500070BD002B04DAA2699A4206DC0A2904D045
:1055600023685A1C22601970C5E72246284600F0BD
:1055700017F80130BFD1DFE70A2523685A1C2260E3
:105580001D70DBE790660008B066000870660008D2
:10559000024B01461868FFF78DBF00BF28000020AE
:1055A000F8B50E461446054618B183690BB900F0EC
:1055B000CDF9214B9C422BD16C68A369A360A389D0
:1055C0001A072FD523696BB323692068F6B2C01A76
:1055D00063693746834204DC2146284600F022F9FD
:1055E00030BBA3680130013BA36023685A1C2260D2
:1055F0001E706369834204D0A389DB0706D50A2E97
:1056000004D12146284600F00DF988B93846F8BD86
:105610000A4B9C4201D1AC68CFE7094B9C4208BFC2
:10562000EC68CAE72146284600F00CF80028CBD0E9
:105630004FF0FF37EAE700BF90660008B066000849
:1056400070660008324B70B51D6806460C4625B1E1
:10565000AB6913B9284600F079F92E4B9C420FD163
:105660006C68A389B4F90C2019072CD4DD0611D479
:105670000923336042F040034FF0FF30A3813EE046
:10568000254B9C4201D1AC68EBE7244B9C4208BF00
:10569000EC68E6E7580712D5616B41B104F14403A9
:1056A000994202D0304600F057FA00236363A38981
:1056B00023F02403A3810023636023692360A3896B
:1056C00043F00803A38123694BB9A38903F4207332
:1056D000B3F5007F03D02146304600F0FDF9A089E4
:1056E000B4F90C2010F001030AD00023A360636911
:1056F0005B42A361236943B910F08000BAD170BD49
:10570000810758BF6369A360F4E70020F7E700BF93
:105710002800002090660008B06600087066000847
:105720008A89F8B5054610070C4657D44B68002BFC
:1057300004DC0B6C002B01DC0020F8BDE66A002EB7
:10574000FAD0002312F480522F682B6032D0606DA3
:10575000A3895A0705D56368C01A636B0BB1236C24
:10576000C01A00230246E66A2846216AB047431C55
:10577000A38906D129681D292CD8294ACA40D607F1
:1057800028D5002262602269D904226004D5421C17
:1057900001D12B6803B96065616B2F600029CBD004
:1057A00004F14403994202D0284600F0D5F90020C4
:1057B0006063C2E7216A01232846B047411CC7D174
:1057C0002B68002BC4D01D2B01D0162B01D12F60CC
:1057D000B2E7A38943F04003A381AEE70F69002F2E
:1057E000AAD0930718BF00230E6808BF4B69F61BA9
:1057F0000F608B60002E9FDD33463A462846216AB3
:10580000D4F828C0E047002806DCA3894FF0FF3019
:1058100043F04003A38190E70744361AEAE700BF4C
:105820000100402038B50B6905460C4613B9002528
:10583000284638BD18B183690BB900F087F8144BBE
:105840009C421BD16C68B4F90C30002BEFD0626E17
:10585000D00704D4990502D4A06D00F015F92846AC
:105860002146FFF75DFF636E0546DA07E0D4A389A2
:105870009B05DDD4A06D00F008F9D9E7054B9C42EB
:1058800001D1AC68DFE7044B9C4208BFEC68DAE763
:1058900090660008B066000870660008002310B526
:1058A0000446C0E90033C0E9043383608181436664
:1058B000C2818361194608225C30FFF7DBFD054B8E
:1058C00024626362044BA362044BE362044B2363D0
:1058D00010BD00BF0D6300082F6300086763000858
:1058E0008B630008014900F0AFB800BF25580008DD
:1058F000682270B54D1E55430E4605F1740100F047
:1059000093F9044640B10021C0E900160C30A060B4
:1059100005F16802FFF7AEFD204670BD014800F0BA
:10592000B3B800BF91250020014800F0AEB800BF19
:1059300091250020014800F0A7B800BF9225002063
:10594000014800F0A2B800BF9225002010B504461F
:10595000FFF7F0FFA3691BB1BDE81040FFF7F0BFF0
:10596000C4E912332365134B134A1B68A262A34296
:1059700008BF0123204608BFA36100F01FF8606044
:10598000204600F01BF8A060204600F017F8002227
:105990000421E0606068FFF781FF01220921A0680F
:1059A000FFF77CFF02221221E068FFF777FF012357
:1059B000A361D1E76C660008E5580008F8B5074612
:1059C000FFF7ACFF1E4B1E68B36913B93046FFF7F3
:1059D000BDFF4836D6E90134013B03D533680BB32C
:1059E0003668F7E7B4F90C50D5B9164B04F15800F6
:1059F000E360656600F047F8FFF796FF0822294646
:105A0000C4E90155C4E904552560A56104F15C00B1
:105A1000FFF730FDC4E90D55C4E912552046F8BD25
:105A20006834D9E704213846FFF762FF0446306046
:105A30000028D5D1FFF778FF0C233B60EEE700BFCD
:105A40006C6600080100FFFF2DE9F8430646884612
:105A5000002700F14804D4E90195B9F1010905D501
:105A60002468002CF7D13846BDE8F883AB89012BB8
:105A700007D9B5F90E30013303D029463046C04767
:105A800007436835E9E770477047704770B50E46C1
:105A9000B1F90E10144600291D4696B008DA00220E
:105AA000B6F90C302A601A0610D44FF480630EE069
:105AB0006A4600F091FC0028F1DB019A02F4704282
:105AC000A2F500535A425A412A60EEE740230020D3
:105AD000236016B070BD00008B8973B59D07064624
